{
	"RockPaperScissors.sol": {
		"RockPaperScissors": {
			"abi": [
				{
					"inputs": [
						{
							"internalType": "address payable",
							"name": "userA_in",
							"type": "address"
						},
						{
							"internalType": "address payable",
							"name": "userB_in",
							"type": "address"
						}
					],
					"stateMutability": "payable",
					"type": "constructor"
				},
				{
					"inputs": [],
					"name": "gamedEnded",
					"type": "error"
				},
				{
					"inputs": [],
					"name": "noRightToAnnounceTheResult",
					"type": "error"
				},
				{
					"inputs": [],
					"name": "noRightToPick",
					"type": "error"
				},
				{
					"inputs": [],
					"name": "noRightToReveal",
					"type": "error"
				},
				{
					"inputs": [],
					"name": "userAlreadyCommited",
					"type": "error"
				},
				{
					"inputs": [],
					"name": "userAlreadyRevealed",
					"type": "error"
				},
				{
					"inputs": [],
					"name": "wrongData",
					"type": "error"
				},
				{
					"inputs": [],
					"name": "announceResult",
					"outputs": [],
					"stateMutability": "nonpayable",
					"type": "function"
				},
				{
					"inputs": [],
					"name": "ended",
					"outputs": [
						{
							"internalType": "bool",
							"name": "",
							"type": "bool"
						}
					],
					"stateMutability": "view",
					"type": "function"
				},
				{
					"inputs": [],
					"name": "hasPickedA",
					"outputs": [
						{
							"internalType": "bool",
							"name": "",
							"type": "bool"
						}
					],
					"stateMutability": "view",
					"type": "function"
				},
				{
					"inputs": [],
					"name": "hasPickedB",
					"outputs": [
						{
							"internalType": "bool",
							"name": "",
							"type": "bool"
						}
					],
					"stateMutability": "view",
					"type": "function"
				},
				{
					"inputs": [],
					"name": "hasRevealedA",
					"outputs": [
						{
							"internalType": "bool",
							"name": "",
							"type": "bool"
						}
					],
					"stateMutability": "view",
					"type": "function"
				},
				{
					"inputs": [],
					"name": "hasRevealedB",
					"outputs": [
						{
							"internalType": "bool",
							"name": "",
							"type": "bool"
						}
					],
					"stateMutability": "view",
					"type": "function"
				},
				{
					"inputs": [],
					"name": "manager",
					"outputs": [
						{
							"internalType": "address",
							"name": "",
							"type": "address"
						}
					],
					"stateMutability": "view",
					"type": "function"
				},
				{
					"inputs": [
						{
							"internalType": "bytes32",
							"name": "userPick",
							"type": "bytes32"
						}
					],
					"name": "pick",
					"outputs": [],
					"stateMutability": "nonpayable",
					"type": "function"
				},
				{
					"inputs": [],
					"name": "pickA",
					"outputs": [
						{
							"internalType": "string",
							"name": "",
							"type": "string"
						}
					],
					"stateMutability": "view",
					"type": "function"
				},
				{
					"inputs": [],
					"name": "pickB",
					"outputs": [
						{
							"internalType": "string",
							"name": "",
							"type": "string"
						}
					],
					"stateMutability": "view",
					"type": "function"
				},
				{
					"inputs": [],
					"name": "prize",
					"outputs": [
						{
							"internalType": "uint256",
							"name": "",
							"type": "uint256"
						}
					],
					"stateMutability": "view",
					"type": "function"
				},
				{
					"inputs": [
						{
							"internalType": "string",
							"name": "pick",
							"type": "string"
						},
						{
							"internalType": "string",
							"name": "nonce",
							"type": "string"
						}
					],
					"name": "reveal",
					"outputs": [],
					"stateMutability": "nonpayable",
					"type": "function"
				},
				{
					"inputs": [],
					"name": "userA",
					"outputs": [
						{
							"internalType": "address payable",
							"name": "",
							"type": "address"
						}
					],
					"stateMutability": "view",
					"type": "function"
				},
				{
					"inputs": [],
					"name": "userB",
					"outputs": [
						{
							"internalType": "address payable",
							"name": "",
							"type": "address"
						}
					],
					"stateMutability": "view",
					"type": "function"
				}
			],
			"devdoc": {
				"kind": "dev",
				"methods": {},
				"version": 1
			},
			"evm": {
				"assembly": "    /* \"RockPaperScissors.sol\":116:4585  contract RockPaperScissors {\r... */\n  mstore(0x40, 0x80)\n    /* \"RockPaperScissors.sol\":2469:2831  constructor(\r... */\n  mload(0x40)\n  sub(codesize, bytecodeSize)\n  dup1\n  bytecodeSize\n  dup4\n  codecopy\n  dup2\n  dup2\n  add\n  0x40\n  mstore\n  dup2\n  add\n  swap1\n  tag_1\n  swap2\n  swap1\n  tag_2\n  jump\t// in\ntag_1:\n    /* \"RockPaperScissors.sol\":2585:2593  userA_in */\n  dup2\n    /* \"RockPaperScissors.sol\":2577:2582  userA */\n  0x00\n  dup1\n    /* \"RockPaperScissors.sol\":2577:2593  userA = userA_in */\n  0x0100\n  exp\n  dup2\n  sload\n  dup2\n  0xffffffffffffffffffffffffffffffffffffffff\n  mul\n  not\n  and\n  swap1\n  dup4\n  0xffffffffffffffffffffffffffffffffffffffff\n  and\n  mul\n  or\n  swap1\n  sstore\n  pop\n    /* \"RockPaperScissors.sol\":2612:2620  userB_in */\n  dup1\n    /* \"RockPaperScissors.sol\":2604:2609  userB */\n  0x01\n  0x00\n    /* \"RockPaperScissors.sol\":2604:2620  userB = userB_in */\n  0x0100\n  exp\n  dup2\n  sload\n  dup2\n  0xffffffffffffffffffffffffffffffffffffffff\n  mul\n  not\n  and\n  swap1\n  dup4\n  0xffffffffffffffffffffffffffffffffffffffff\n  and\n  mul\n  or\n  swap1\n  sstore\n  pop\n    /* \"RockPaperScissors.sol\":2641:2651  msg.sender */\n  caller\n    /* \"RockPaperScissors.sol\":2631:2638  manager */\n  0x02\n  0x00\n    /* \"RockPaperScissors.sol\":2631:2651  manager = msg.sender */\n  0x0100\n  exp\n  dup2\n  sload\n  dup2\n  0xffffffffffffffffffffffffffffffffffffffff\n  mul\n  not\n  and\n  swap1\n  dup4\n  0xffffffffffffffffffffffffffffffffffffffff\n  and\n  mul\n  or\n  swap1\n  sstore\n  pop\n    /* \"RockPaperScissors.sol\":2670:2679  msg.value */\n  callvalue\n    /* \"RockPaperScissors.sol\":2662:2667  prize */\n  0x03\n    /* \"RockPaperScissors.sol\":2662:2679  prize = msg.value */\n  dup2\n  swap1\n  sstore\n  pop\n    /* \"RockPaperScissors.sol\":2703:2708  false */\n  0x00\n    /* \"RockPaperScissors.sol\":2690:2700  hasPickedA */\n  0x04\n  0x00\n    /* \"RockPaperScissors.sol\":2690:2708  hasPickedA = false */\n  0x0100\n  exp\n  dup2\n  sload\n  dup2\n  0xff\n  mul\n  not\n  and\n  swap1\n  dup4\n  iszero\n  iszero\n  mul\n  or\n  swap1\n  sstore\n  pop\n    /* \"RockPaperScissors.sol\":2732:2737  false */\n  0x00\n    /* \"RockPaperScissors.sol\":2719:2729  hasPickedB */\n  0x04\n  0x01\n    /* \"RockPaperScissors.sol\":2719:2737  hasPickedB = false */\n  0x0100\n  exp\n  dup2\n  sload\n  dup2\n  0xff\n  mul\n  not\n  and\n  swap1\n  dup4\n  iszero\n  iszero\n  mul\n  or\n  swap1\n  sstore\n  pop\n    /* \"RockPaperScissors.sol\":2763:2768  false */\n  0x00\n    /* \"RockPaperScissors.sol\":2748:2760  hasRevealedA */\n  0x07\n  0x00\n    /* \"RockPaperScissors.sol\":2748:2768  hasRevealedA = false */\n  0x0100\n  exp\n  dup2\n  sload\n  dup2\n  0xff\n  mul\n  not\n  and\n  swap1\n  dup4\n  iszero\n  iszero\n  mul\n  or\n  swap1\n  sstore\n  pop\n    /* \"RockPaperScissors.sol\":2794:2799  false */\n  0x00\n    /* \"RockPaperScissors.sol\":2779:2791  hasRevealedB */\n  0x07\n  0x01\n    /* \"RockPaperScissors.sol\":2779:2799  hasRevealedB = false */\n  0x0100\n  exp\n  dup2\n  sload\n  dup2\n  0xff\n  mul\n  not\n  and\n  swap1\n  dup4\n  iszero\n  iszero\n  mul\n  or\n  swap1\n  sstore\n  pop\n    /* \"RockPaperScissors.sol\":2818:2823  false */\n  0x00\n    /* \"RockPaperScissors.sol\":2810:2815  ended */\n  0x0a\n  0x00\n    /* \"RockPaperScissors.sol\":2810:2823  ended = false */\n  0x0100\n  exp\n  dup2\n  sload\n  dup2\n  0xff\n  mul\n  not\n  and\n  swap1\n  dup4\n  iszero\n  iszero\n  mul\n  or\n  swap1\n  sstore\n  pop\n    /* \"RockPaperScissors.sol\":2469:2831  constructor(\r... */\n  pop\n  pop\n    /* \"RockPaperScissors.sol\":116:4585  contract RockPaperScissors {\r... */\n  jump(tag_5)\n    /* \"#utility.yul\":7:166   */\ntag_7:\n    /* \"#utility.yul\":72:77   */\n  0x00\n    /* \"#utility.yul\":103:109   */\n  dup2\n    /* \"#utility.yul\":97:110   */\n  mload\n    /* \"#utility.yul\":88:110   */\n  swap1\n  pop\n    /* \"#utility.yul\":119:160   */\n  tag_9\n    /* \"#utility.yul\":154:159   */\n  dup2\n    /* \"#utility.yul\":119:160   */\n  tag_10\n  jump\t// in\ntag_9:\n    /* \"#utility.yul\":7:166   */\n  swap3\n  swap2\n  pop\n  pop\n  jump\t// out\n    /* \"#utility.yul\":172:711   */\ntag_2:\n    /* \"#utility.yul\":267:273   */\n  0x00\n    /* \"#utility.yul\":275:281   */\n  dup1\n    /* \"#utility.yul\":324:326   */\n  0x40\n    /* \"#utility.yul\":312:321   */\n  dup4\n    /* \"#utility.yul\":303:310   */\n  dup6\n    /* \"#utility.yul\":299:322   */\n  sub\n    /* \"#utility.yul\":295:327   */\n  slt\n    /* \"#utility.yul\":292:411   */\n  iszero\n  tag_12\n  jumpi\n    /* \"#utility.yul\":330:409   */\n  tag_13\n  tag_14\n  jump\t// in\ntag_13:\n    /* \"#utility.yul\":292:411   */\ntag_12:\n    /* \"#utility.yul\":450:451   */\n  0x00\n    /* \"#utility.yul\":475:547   */\n  tag_15\n    /* \"#utility.yul\":539:546   */\n  dup6\n    /* \"#utility.yul\":530:536   */\n  dup3\n    /* \"#utility.yul\":519:528   */\n  dup7\n    /* \"#utility.yul\":515:537   */\n  add\n    /* \"#utility.yul\":475:547   */\n  tag_7\n  jump\t// in\ntag_15:\n    /* \"#utility.yul\":465:547   */\n  swap3\n  pop\n    /* \"#utility.yul\":421:557   */\n  pop\n    /* \"#utility.yul\":596:598   */\n  0x20\n    /* \"#utility.yul\":622:694   */\n  tag_16\n    /* \"#utility.yul\":686:693   */\n  dup6\n    /* \"#utility.yul\":677:683   */\n  dup3\n    /* \"#utility.yul\":666:675   */\n  dup7\n    /* \"#utility.yul\":662:684   */\n  add\n    /* \"#utility.yul\":622:694   */\n  tag_7\n  jump\t// in\ntag_16:\n    /* \"#utility.yul\":612:694   */\n  swap2\n  pop\n    /* \"#utility.yul\":567:704   */\n  pop\n    /* \"#utility.yul\":172:711   */\n  swap3\n  pop\n  swap3\n  swap1\n  pop\n  jump\t// out\n    /* \"#utility.yul\":798:902   */\ntag_19:\n    /* \"#utility.yul\":843:850   */\n  0x00\n    /* \"#utility.yul\":872:896   */\n  tag_21\n    /* \"#utility.yul\":890:895   */\n  dup3\n    /* \"#utility.yul\":872:896   */\n  tag_22\n  jump\t// in\ntag_21:\n    /* \"#utility.yul\":861:896   */\n  swap1\n  pop\n    /* \"#utility.yul\":798:902   */\n  swap2\n  swap1\n  pop\n  jump\t// out\n    /* \"#utility.yul\":908:1034   */\ntag_22:\n    /* \"#utility.yul\":945:952   */\n  0x00\n    /* \"#utility.yul\":985:1027   */\n  0xffffffffffffffffffffffffffffffffffffffff\n    /* \"#utility.yul\":978:983   */\n  dup3\n    /* \"#utility.yul\":974:1028   */\n  and\n    /* \"#utility.yul\":963:1028   */\n  swap1\n  pop\n    /* \"#utility.yul\":908:1034   */\n  swap2\n  swap1\n  pop\n  jump\t// out\n    /* \"#utility.yul\":1163:1280   */\ntag_14:\n    /* \"#utility.yul\":1272:1273   */\n  0x00\n    /* \"#utility.yul\":1269:1270   */\n  dup1\n    /* \"#utility.yul\":1262:1274   */\n  revert\n    /* \"#utility.yul\":1286:1424   */\ntag_10:\n    /* \"#utility.yul\":1367:1399   */\n  tag_28\n    /* \"#utility.yul\":1393:1398   */\n  dup2\n    /* \"#utility.yul\":1367:1399   */\n  tag_19\n  jump\t// in\ntag_28:\n    /* \"#utility.yul\":1360:1365   */\n  dup2\n    /* \"#utility.yul\":1357:1400   */\n  eq\n    /* \"#utility.yul\":1347:1418   */\n  tag_29\n  jumpi\n    /* \"#utility.yul\":1414:1415   */\n  0x00\n    /* \"#utility.yul\":1411:1412   */\n  dup1\n    /* \"#utility.yul\":1404:1416   */\n  revert\n    /* \"#utility.yul\":1347:1418   */\ntag_29:\n    /* \"#utility.yul\":1286:1424   */\n  pop\n  jump\t// out\n    /* \"RockPaperScissors.sol\":116:4585  contract RockPaperScissors {\r... */\ntag_5:\n  dataSize(sub_0)\n  dup1\n  dataOffset(sub_0)\n  0x00\n  codecopy\n  0x00\n  return\nstop\n\nsub_0: assembly {\n        /* \"RockPaperScissors.sol\":116:4585  contract RockPaperScissors {\r... */\n      mstore(0x40, 0x80)\n      callvalue\n      dup1\n      iszero\n      tag_1\n      jumpi\n      0x00\n      dup1\n      revert\n    tag_1:\n      pop\n      jumpi(tag_2, lt(calldatasize, 0x04))\n      shr(0xe0, calldataload(0x00))\n      dup1\n      0x737ebe58\n      gt\n      tag_17\n      jumpi\n      dup1\n      0xdeb22e9a\n      gt\n      tag_18\n      jumpi\n      dup1\n      0xdeb22e9a\n      eq\n      tag_13\n      jumpi\n      dup1\n      0xe3ac5d26\n      eq\n      tag_14\n      jumpi\n      dup1\n      0xed873865\n      eq\n      tag_15\n      jumpi\n      dup1\n      0xf4e11bbe\n      eq\n      tag_16\n      jumpi\n      jump(tag_2)\n    tag_18:\n      dup1\n      0x737ebe58\n      eq\n      tag_10\n      jumpi\n      dup1\n      0xa28bfb3e\n      eq\n      tag_11\n      jumpi\n      dup1\n      0xcb1a295f\n      eq\n      tag_12\n      jumpi\n      jump(tag_2)\n    tag_17:\n      dup1\n      0x481c6a75\n      gt\n      tag_19\n      jumpi\n      dup1\n      0x481c6a75\n      eq\n      tag_6\n      jumpi\n      dup1\n      0x495717e2\n      eq\n      tag_7\n      jumpi\n      dup1\n      0x4d178640\n      eq\n      tag_8\n      jumpi\n      dup1\n      0x5ba1b2c7\n      eq\n      tag_9\n      jumpi\n      jump(tag_2)\n    tag_19:\n      dup1\n      0x03c0f500\n      eq\n      tag_3\n      jumpi\n      dup1\n      0x12fa6feb\n      eq\n      tag_4\n      jumpi\n      dup1\n      0x3d4ffb93\n      eq\n      tag_5\n      jumpi\n    tag_2:\n      0x00\n      dup1\n      revert\n        /* \"RockPaperScissors.sol\":665:689  bool public hasRevealedB */\n    tag_3:\n      tag_20\n      tag_21\n      jump\t// in\n    tag_20:\n      mload(0x40)\n      tag_22\n      swap2\n      swap1\n      tag_23\n      jump\t// in\n    tag_22:\n      mload(0x40)\n      dup1\n      swap2\n      sub\n      swap1\n      return\n        /* \"RockPaperScissors.sol\":820:837  bool public ended */\n    tag_4:\n      tag_24\n      tag_25\n      jump\t// in\n    tag_24:\n      mload(0x40)\n      tag_26\n      swap2\n      swap1\n      tag_23\n      jump\t// in\n    tag_26:\n      mload(0x40)\n      dup1\n      swap2\n      sub\n      swap1\n      return\n        /* \"RockPaperScissors.sol\":723:742  string public pickA */\n    tag_5:\n      tag_27\n      tag_28\n      jump\t// in\n    tag_27:\n      mload(0x40)\n      tag_29\n      swap2\n      swap1\n      tag_30\n      jump\t// in\n    tag_29:\n      mload(0x40)\n      dup1\n      swap2\n      sub\n      swap1\n      return\n        /* \"RockPaperScissors.sol\":267:289  address public manager */\n    tag_6:\n      tag_31\n      tag_32\n      jump\t// in\n    tag_31:\n      mload(0x40)\n      tag_33\n      swap2\n      swap1\n      tag_34\n      jump\t// in\n    tag_33:\n      mload(0x40)\n      dup1\n      swap2\n      sub\n      swap1\n      return\n        /* \"RockPaperScissors.sol\":749:768  string public pickB */\n    tag_7:\n      tag_35\n      tag_36\n      jump\t// in\n    tag_35:\n      mload(0x40)\n      tag_37\n      swap2\n      swap1\n      tag_30\n      jump\t// in\n    tag_37:\n      mload(0x40)\n      dup1\n      swap2\n      sub\n      swap1\n      return\n        /* \"RockPaperScissors.sol\":634:658  bool public hasRevealedA */\n    tag_8:\n      tag_38\n      tag_39\n      jump\t// in\n    tag_38:\n      mload(0x40)\n      tag_40\n      swap2\n      swap1\n      tag_23\n      jump\t// in\n    tag_40:\n      mload(0x40)\n      dup1\n      swap2\n      sub\n      swap1\n      return\n        /* \"RockPaperScissors.sol\":3287:3804  function reveal(string calldata pick, string calldata nonce) external\r... */\n    tag_9:\n      tag_41\n      0x04\n      dup1\n      calldatasize\n      sub\n      dup2\n      add\n      swap1\n      tag_42\n      swap2\n      swap1\n      tag_43\n      jump\t// in\n    tag_42:\n      tag_44\n      jump\t// in\n    tag_41:\n      stop\n        /* \"RockPaperScissors.sol\":440:462  bool public hasPickedB */\n    tag_10:\n      tag_45\n      tag_46\n      jump\t// in\n    tag_45:\n      mload(0x40)\n      tag_47\n      swap2\n      swap1\n      tag_23\n      jump\t// in\n    tag_47:\n      mload(0x40)\n      dup1\n      swap2\n      sub\n      swap1\n      return\n        /* \"RockPaperScissors.sol\":2906:3211  function pick(bytes32 userPick) external \r... */\n    tag_11:\n      tag_48\n      0x04\n      dup1\n      calldatasize\n      sub\n      dup2\n      add\n      swap1\n      tag_49\n      swap2\n      swap1\n      tag_50\n      jump\t// in\n    tag_49:\n      tag_51\n      jump\t// in\n    tag_48:\n      stop\n        /* \"RockPaperScissors.sol\":232:260  address payable public userB */\n    tag_12:\n      tag_52\n      tag_53\n      jump\t// in\n    tag_52:\n      mload(0x40)\n      tag_54\n      swap2\n      swap1\n      tag_55\n      jump\t// in\n    tag_54:\n      mload(0x40)\n      dup1\n      swap2\n      sub\n      swap1\n      return\n        /* \"RockPaperScissors.sol\":197:225  address payable public userA */\n    tag_13:\n      tag_56\n      tag_57\n      jump\t// in\n    tag_56:\n      mload(0x40)\n      tag_58\n      swap2\n      swap1\n      tag_55\n      jump\t// in\n    tag_58:\n      mload(0x40)\n      dup1\n      swap2\n      sub\n      swap1\n      return\n        /* \"RockPaperScissors.sol\":315:332  uint public prize */\n    tag_14:\n      tag_59\n      tag_60\n      jump\t// in\n    tag_59:\n      mload(0x40)\n      tag_61\n      swap2\n      swap1\n      tag_62\n      jump\t// in\n    tag_61:\n      mload(0x40)\n      dup1\n      swap2\n      sub\n      swap1\n      return\n        /* \"RockPaperScissors.sol\":411:433  bool public hasPickedA */\n    tag_15:\n      tag_63\n      tag_64\n      jump\t// in\n    tag_63:\n      mload(0x40)\n      tag_65\n      swap2\n      swap1\n      tag_23\n      jump\t// in\n    tag_65:\n      mload(0x40)\n      dup1\n      swap2\n      sub\n      swap1\n      return\n        /* \"RockPaperScissors.sol\":3930:4582  function announceResult() external {\r... */\n    tag_16:\n      tag_66\n      tag_67\n      jump\t// in\n    tag_66:\n      stop\n        /* \"RockPaperScissors.sol\":665:689  bool public hasRevealedB */\n    tag_21:\n      0x07\n      0x01\n      swap1\n      sload\n      swap1\n      0x0100\n      exp\n      swap1\n      div\n      0xff\n      and\n      dup2\n      jump\t// out\n        /* \"RockPaperScissors.sol\":820:837  bool public ended */\n    tag_25:\n      0x0a\n      0x00\n      swap1\n      sload\n      swap1\n      0x0100\n      exp\n      swap1\n      div\n      0xff\n      and\n      dup2\n      jump\t// out\n        /* \"RockPaperScissors.sol\":723:742  string public pickA */\n    tag_28:\n      0x08\n      dup1\n      sload\n      tag_68\n      swap1\n      tag_69\n      jump\t// in\n    tag_68:\n      dup1\n      0x1f\n      add\n      0x20\n      dup1\n      swap2\n      div\n      mul\n      0x20\n      add\n      mload(0x40)\n      swap1\n      dup2\n      add\n      0x40\n      mstore\n      dup1\n      swap3\n      swap2\n      swap1\n      dup2\n      dup2\n      mstore\n      0x20\n      add\n      dup3\n      dup1\n      sload\n      tag_70\n      swap1\n      tag_69\n      jump\t// in\n    tag_70:\n      dup1\n      iszero\n      tag_71\n      jumpi\n      dup1\n      0x1f\n      lt\n      tag_72\n      jumpi\n      0x0100\n      dup1\n      dup4\n      sload\n      div\n      mul\n      dup4\n      mstore\n      swap2\n      0x20\n      add\n      swap2\n      jump(tag_71)\n    tag_72:\n      dup3\n      add\n      swap2\n      swap1\n      0x00\n      mstore\n      keccak256(0x00, 0x20)\n      swap1\n    tag_73:\n      dup2\n      sload\n      dup2\n      mstore\n      swap1\n      0x01\n      add\n      swap1\n      0x20\n      add\n      dup1\n      dup4\n      gt\n      tag_73\n      jumpi\n      dup3\n      swap1\n      sub\n      0x1f\n      and\n      dup3\n      add\n      swap2\n    tag_71:\n      pop\n      pop\n      pop\n      pop\n      pop\n      dup2\n      jump\t// out\n        /* \"RockPaperScissors.sol\":267:289  address public manager */\n    tag_32:\n      0x02\n      0x00\n      swap1\n      sload\n      swap1\n      0x0100\n      exp\n      swap1\n      div\n      0xffffffffffffffffffffffffffffffffffffffff\n      and\n      dup2\n      jump\t// out\n        /* \"RockPaperScissors.sol\":749:768  string public pickB */\n    tag_36:\n      0x09\n      dup1\n      sload\n      tag_74\n      swap1\n      tag_69\n      jump\t// in\n    tag_74:\n      dup1\n      0x1f\n      add\n      0x20\n      dup1\n      swap2\n      div\n      mul\n      0x20\n      add\n      mload(0x40)\n      swap1\n      dup2\n      add\n      0x40\n      mstore\n      dup1\n      swap3\n      swap2\n      swap1\n      dup2\n      dup2\n      mstore\n      0x20\n      add\n      dup3\n      dup1\n      sload\n      tag_75\n      swap1\n      tag_69\n      jump\t// in\n    tag_75:\n      dup1\n      iszero\n      tag_76\n      jumpi\n      dup1\n      0x1f\n      lt\n      tag_77\n      jumpi\n      0x0100\n      dup1\n      dup4\n      sload\n      div\n      mul\n      dup4\n      mstore\n      swap2\n      0x20\n      add\n      swap2\n      jump(tag_76)\n    tag_77:\n      dup3\n      add\n      swap2\n      swap1\n      0x00\n      mstore\n      keccak256(0x00, 0x20)\n      swap1\n    tag_78:\n      dup2\n      sload\n      dup2\n      mstore\n      swap1\n      0x01\n      add\n      swap1\n      0x20\n      add\n      dup1\n      dup4\n      gt\n      tag_78\n      jumpi\n      dup3\n      swap1\n      sub\n      0x1f\n      and\n      dup3\n      add\n      swap2\n    tag_76:\n      pop\n      pop\n      pop\n      pop\n      pop\n      dup2\n      jump\t// out\n        /* \"RockPaperScissors.sol\":634:658  bool public hasRevealedA */\n    tag_39:\n      0x07\n      0x00\n      swap1\n      sload\n      swap1\n      0x0100\n      exp\n      swap1\n      div\n      0xff\n      and\n      dup2\n      jump\t// out\n        /* \"RockPaperScissors.sol\":3287:3804  function reveal(string calldata pick, string calldata nonce) external\r... */\n    tag_44:\n        /* \"RockPaperScissors.sol\":3388:3398  msg.sender */\n      caller\n        /* \"RockPaperScissors.sol\":2192:2197  userA */\n      0x00\n      dup1\n      sload\n      swap1\n      0x0100\n      exp\n      swap1\n      div\n      0xffffffffffffffffffffffffffffffffffffffff\n      and\n        /* \"RockPaperScissors.sol\":2184:2197  user != userA */\n      0xffffffffffffffffffffffffffffffffffffffff\n      and\n        /* \"RockPaperScissors.sol\":2184:2188  user */\n      dup2\n        /* \"RockPaperScissors.sol\":2184:2197  user != userA */\n      0xffffffffffffffffffffffffffffffffffffffff\n      and\n      eq\n      iszero\n        /* \"RockPaperScissors.sol\":2184:2214  user != userA && user != userB */\n      dup1\n      iszero\n      tag_80\n      jumpi\n      pop\n        /* \"RockPaperScissors.sol\":2209:2214  userB */\n      0x01\n      0x00\n      swap1\n      sload\n      swap1\n      0x0100\n      exp\n      swap1\n      div\n      0xffffffffffffffffffffffffffffffffffffffff\n      and\n        /* \"RockPaperScissors.sol\":2201:2214  user != userB */\n      0xffffffffffffffffffffffffffffffffffffffff\n      and\n        /* \"RockPaperScissors.sol\":2201:2205  user */\n      dup2\n        /* \"RockPaperScissors.sol\":2201:2214  user != userB */\n      0xffffffffffffffffffffffffffffffffffffffff\n      and\n      eq\n      iszero\n        /* \"RockPaperScissors.sol\":2184:2214  user != userA && user != userB */\n    tag_80:\n        /* \"RockPaperScissors.sol\":2180:2240  if (user != userA && user != userB) revert noRightToReveal() */\n      iszero\n      tag_81\n      jumpi\n        /* \"RockPaperScissors.sol\":2223:2240  noRightToReveal() */\n      mload(0x40)\n      0xea42158000000000000000000000000000000000000000000000000000000000\n      dup2\n      mstore\n      0x04\n      add\n      mload(0x40)\n      dup1\n      swap2\n      sub\n      swap1\n      revert\n        /* \"RockPaperScissors.sol\":2180:2240  if (user != userA && user != userB) revert noRightToReveal() */\n    tag_81:\n        /* \"RockPaperScissors.sol\":2263:2268  userA */\n      0x00\n      dup1\n      sload\n      swap1\n      0x0100\n      exp\n      swap1\n      div\n      0xffffffffffffffffffffffffffffffffffffffff\n      and\n        /* \"RockPaperScissors.sol\":2255:2268  user == userA */\n      0xffffffffffffffffffffffffffffffffffffffff\n      and\n        /* \"RockPaperScissors.sol\":2255:2259  user */\n      dup2\n        /* \"RockPaperScissors.sol\":2255:2268  user == userA */\n      0xffffffffffffffffffffffffffffffffffffffff\n      and\n      eq\n        /* \"RockPaperScissors.sol\":2255:2292  user == userA && hasRevealedA == true */\n      dup1\n      iszero\n      tag_82\n      jumpi\n      pop\n        /* \"RockPaperScissors.sol\":2288:2292  true */\n      0x01\n        /* \"RockPaperScissors.sol\":2272:2292  hasRevealedA == true */\n      iszero\n      iszero\n        /* \"RockPaperScissors.sol\":2272:2284  hasRevealedA */\n      0x07\n      0x00\n      swap1\n      sload\n      swap1\n      0x0100\n      exp\n      swap1\n      div\n      0xff\n      and\n        /* \"RockPaperScissors.sol\":2272:2292  hasRevealedA == true */\n      iszero\n      iszero\n      eq\n        /* \"RockPaperScissors.sol\":2255:2292  user == userA && hasRevealedA == true */\n    tag_82:\n        /* \"RockPaperScissors.sol\":2251:2322  if (user == userA && hasRevealedA == true) revert userAlreadyRevealed() */\n      iszero\n      tag_83\n      jumpi\n        /* \"RockPaperScissors.sol\":2301:2322  userAlreadyRevealed() */\n      mload(0x40)\n      0xa981eebc00000000000000000000000000000000000000000000000000000000\n      dup2\n      mstore\n      0x04\n      add\n      mload(0x40)\n      dup1\n      swap2\n      sub\n      swap1\n      revert\n        /* \"RockPaperScissors.sol\":2251:2322  if (user == userA && hasRevealedA == true) revert userAlreadyRevealed() */\n    tag_83:\n        /* \"RockPaperScissors.sol\":2345:2350  userB */\n      0x01\n      0x00\n      swap1\n      sload\n      swap1\n      0x0100\n      exp\n      swap1\n      div\n      0xffffffffffffffffffffffffffffffffffffffff\n      and\n        /* \"RockPaperScissors.sol\":2337:2350  user == userB */\n      0xffffffffffffffffffffffffffffffffffffffff\n      and\n        /* \"RockPaperScissors.sol\":2337:2341  user */\n      dup2\n        /* \"RockPaperScissors.sol\":2337:2350  user == userB */\n      0xffffffffffffffffffffffffffffffffffffffff\n      and\n      eq\n        /* \"RockPaperScissors.sol\":2337:2374  user == userB && hasRevealedB == true */\n      dup1\n      iszero\n      tag_84\n      jumpi\n      pop\n        /* \"RockPaperScissors.sol\":2370:2374  true */\n      0x01\n        /* \"RockPaperScissors.sol\":2354:2374  hasRevealedB == true */\n      iszero\n      iszero\n        /* \"RockPaperScissors.sol\":2354:2366  hasRevealedB */\n      0x07\n      0x01\n      swap1\n      sload\n      swap1\n      0x0100\n      exp\n      swap1\n      div\n      0xff\n      and\n        /* \"RockPaperScissors.sol\":2354:2374  hasRevealedB == true */\n      iszero\n      iszero\n      eq\n        /* \"RockPaperScissors.sol\":2337:2374  user == userB && hasRevealedB == true */\n    tag_84:\n        /* \"RockPaperScissors.sol\":2333:2404  if (user == userB && hasRevealedB == true) revert userAlreadyRevealed() */\n      iszero\n      tag_85\n      jumpi\n        /* \"RockPaperScissors.sol\":2383:2404  userAlreadyRevealed() */\n      mload(0x40)\n      0xa981eebc00000000000000000000000000000000000000000000000000000000\n      dup2\n      mstore\n      0x04\n      add\n      mload(0x40)\n      dup1\n      swap2\n      sub\n      swap1\n      revert\n        /* \"RockPaperScissors.sol\":2333:2404  if (user == userB && hasRevealedB == true) revert userAlreadyRevealed() */\n    tag_85:\n        /* \"RockPaperScissors.sol\":3431:3436  userA */\n      0x00\n      dup1\n      sload\n      swap1\n      0x0100\n      exp\n      swap1\n      div\n      0xffffffffffffffffffffffffffffffffffffffff\n      and\n        /* \"RockPaperScissors.sol\":3417:3436  msg.sender == userA */\n      0xffffffffffffffffffffffffffffffffffffffff\n      and\n        /* \"RockPaperScissors.sol\":3417:3427  msg.sender */\n      caller\n        /* \"RockPaperScissors.sol\":3417:3436  msg.sender == userA */\n      0xffffffffffffffffffffffffffffffffffffffff\n      and\n      eq\n        /* \"RockPaperScissors.sol\":3417:3458  msg.sender == userA && hasPickedA == true */\n      dup1\n      iszero\n      tag_87\n      jumpi\n      pop\n        /* \"RockPaperScissors.sol\":3454:3458  true */\n      0x01\n        /* \"RockPaperScissors.sol\":3440:3458  hasPickedA == true */\n      iszero\n      iszero\n        /* \"RockPaperScissors.sol\":3440:3450  hasPickedA */\n      0x04\n      0x00\n      swap1\n      sload\n      swap1\n      0x0100\n      exp\n      swap1\n      div\n      0xff\n      and\n        /* \"RockPaperScissors.sol\":3440:3458  hasPickedA == true */\n      iszero\n      iszero\n      eq\n        /* \"RockPaperScissors.sol\":3417:3458  msg.sender == userA && hasPickedA == true */\n    tag_87:\n        /* \"RockPaperScissors.sol\":3417:3517  msg.sender == userA && hasPickedA == true && commitmentA == keccak256(abi.encodePacked(pick, nonce)) */\n      dup1\n      iszero\n      tag_88\n      jumpi\n      pop\n        /* \"RockPaperScissors.sol\":3504:3508  pick */\n      dup5\n      dup5\n        /* \"RockPaperScissors.sol\":3510:3515  nonce */\n      dup5\n      dup5\n        /* \"RockPaperScissors.sol\":3487:3516  abi.encodePacked(pick, nonce) */\n      add(0x20, mload(0x40))\n      tag_89\n      swap5\n      swap4\n      swap3\n      swap2\n      swap1\n      tag_90\n      jump\t// in\n    tag_89:\n      mload(0x40)\n      0x20\n      dup2\n      dup4\n      sub\n      sub\n      dup2\n      mstore\n      swap1\n      0x40\n      mstore\n        /* \"RockPaperScissors.sol\":3477:3517  keccak256(abi.encodePacked(pick, nonce)) */\n      dup1\n      mload\n      swap1\n      0x20\n      add\n      keccak256\n        /* \"RockPaperScissors.sol\":3462:3473  commitmentA */\n      sload(0x05)\n        /* \"RockPaperScissors.sol\":3462:3517  commitmentA == keccak256(abi.encodePacked(pick, nonce)) */\n      eq\n        /* \"RockPaperScissors.sol\":3417:3517  msg.sender == userA && hasPickedA == true && commitmentA == keccak256(abi.encodePacked(pick, nonce)) */\n    tag_88:\n        /* \"RockPaperScissors.sol\":3413:3796  if (msg.sender == userA && hasPickedA == true && commitmentA == keccak256(abi.encodePacked(pick, nonce))) {\r... */\n      iszero\n      tag_91\n      jumpi\n        /* \"RockPaperScissors.sol\":3549:3553  true */\n      0x01\n        /* \"RockPaperScissors.sol\":3534:3546  hasRevealedA */\n      0x07\n      0x00\n        /* \"RockPaperScissors.sol\":3534:3553  hasRevealedA = true */\n      0x0100\n      exp\n      dup2\n      sload\n      dup2\n      0xff\n      mul\n      not\n      and\n      swap1\n      dup4\n      iszero\n      iszero\n      mul\n      or\n      swap1\n      sstore\n      pop\n        /* \"RockPaperScissors.sol\":3576:3580  pick */\n      dup5\n      dup5\n        /* \"RockPaperScissors.sol\":3568:3573  pickA */\n      0x08\n        /* \"RockPaperScissors.sol\":3568:3580  pickA = pick */\n      swap2\n      swap1\n      tag_92\n      swap3\n      swap2\n      swap1\n      tag_93\n      jump\t// in\n    tag_92:\n      pop\n        /* \"RockPaperScissors.sol\":3413:3796  if (msg.sender == userA && hasPickedA == true && commitmentA == keccak256(abi.encodePacked(pick, nonce))) {\r... */\n      jump(tag_94)\n    tag_91:\n        /* \"RockPaperScissors.sol\":3625:3629  true */\n      0x01\n        /* \"RockPaperScissors.sol\":3611:3629  hasPickedB == true */\n      iszero\n      iszero\n        /* \"RockPaperScissors.sol\":3611:3621  hasPickedB */\n      0x04\n      0x01\n      swap1\n      sload\n      swap1\n      0x0100\n      exp\n      swap1\n      div\n      0xff\n      and\n        /* \"RockPaperScissors.sol\":3611:3629  hasPickedB == true */\n      iszero\n      iszero\n      eq\n        /* \"RockPaperScissors.sol\":3611:3688  hasPickedB == true && commitmentB == keccak256(abi.encodePacked(pick, nonce)) */\n      dup1\n      iszero\n      tag_95\n      jumpi\n      pop\n        /* \"RockPaperScissors.sol\":3675:3679  pick */\n      dup5\n      dup5\n        /* \"RockPaperScissors.sol\":3681:3686  nonce */\n      dup5\n      dup5\n        /* \"RockPaperScissors.sol\":3658:3687  abi.encodePacked(pick, nonce) */\n      add(0x20, mload(0x40))\n      tag_96\n      swap5\n      swap4\n      swap3\n      swap2\n      swap1\n      tag_90\n      jump\t// in\n    tag_96:\n      mload(0x40)\n      0x20\n      dup2\n      dup4\n      sub\n      sub\n      dup2\n      mstore\n      swap1\n      0x40\n      mstore\n        /* \"RockPaperScissors.sol\":3648:3688  keccak256(abi.encodePacked(pick, nonce)) */\n      dup1\n      mload\n      swap1\n      0x20\n      add\n      keccak256\n        /* \"RockPaperScissors.sol\":3633:3644  commitmentB */\n      sload(0x06)\n        /* \"RockPaperScissors.sol\":3633:3688  commitmentB == keccak256(abi.encodePacked(pick, nonce)) */\n      eq\n        /* \"RockPaperScissors.sol\":3611:3688  hasPickedB == true && commitmentB == keccak256(abi.encodePacked(pick, nonce)) */\n    tag_95:\n        /* \"RockPaperScissors.sol\":3607:3796  if (hasPickedB == true && commitmentB == keccak256(abi.encodePacked(pick, nonce))) {\r... */\n      iszero\n      tag_97\n      jumpi\n        /* \"RockPaperScissors.sol\":3720:3724  true */\n      0x01\n        /* \"RockPaperScissors.sol\":3705:3717  hasRevealedB */\n      0x07\n      0x01\n        /* \"RockPaperScissors.sol\":3705:3724  hasRevealedB = true */\n      0x0100\n      exp\n      dup2\n      sload\n      dup2\n      0xff\n      mul\n      not\n      and\n      swap1\n      dup4\n      iszero\n      iszero\n      mul\n      or\n      swap1\n      sstore\n      pop\n        /* \"RockPaperScissors.sol\":3747:3751  pick */\n      dup5\n      dup5\n        /* \"RockPaperScissors.sol\":3739:3744  pickB */\n      0x09\n        /* \"RockPaperScissors.sol\":3739:3751  pickB = pick */\n      swap2\n      swap1\n      tag_98\n      swap3\n      swap2\n      swap1\n      tag_93\n      jump\t// in\n    tag_98:\n      pop\n        /* \"RockPaperScissors.sol\":3607:3796  if (hasPickedB == true && commitmentB == keccak256(abi.encodePacked(pick, nonce))) {\r... */\n      jump(tag_99)\n    tag_97:\n        /* \"RockPaperScissors.sol\":3785:3796  wrongData() */\n      mload(0x40)\n      0x6701de1400000000000000000000000000000000000000000000000000000000\n      dup2\n      mstore\n      0x04\n      add\n      mload(0x40)\n      dup1\n      swap2\n      sub\n      swap1\n      revert\n        /* \"RockPaperScissors.sol\":3607:3796  if (hasPickedB == true && commitmentB == keccak256(abi.encodePacked(pick, nonce))) {\r... */\n    tag_99:\n        /* \"RockPaperScissors.sol\":3413:3796  if (msg.sender == userA && hasPickedA == true && commitmentA == keccak256(abi.encodePacked(pick, nonce))) {\r... */\n    tag_94:\n        /* \"RockPaperScissors.sol\":3287:3804  function reveal(string calldata pick, string calldata nonce) external\r... */\n      pop\n      pop\n      pop\n      pop\n      pop\n      jump\t// out\n        /* \"RockPaperScissors.sol\":440:462  bool public hasPickedB */\n    tag_46:\n      0x04\n      0x01\n      swap1\n      sload\n      swap1\n      0x0100\n      exp\n      swap1\n      div\n      0xff\n      and\n      dup2\n      jump\t// out\n        /* \"RockPaperScissors.sol\":2906:3211  function pick(bytes32 userPick) external \r... */\n    tag_51:\n        /* \"RockPaperScissors.sol\":2977:2987  msg.sender */\n      caller\n        /* \"RockPaperScissors.sol\":1702:1707  userA */\n      0x00\n      dup1\n      sload\n      swap1\n      0x0100\n      exp\n      swap1\n      div\n      0xffffffffffffffffffffffffffffffffffffffff\n      and\n        /* \"RockPaperScissors.sol\":1694:1707  user != userA */\n      0xffffffffffffffffffffffffffffffffffffffff\n      and\n        /* \"RockPaperScissors.sol\":1694:1698  user */\n      dup2\n        /* \"RockPaperScissors.sol\":1694:1707  user != userA */\n      0xffffffffffffffffffffffffffffffffffffffff\n      and\n      eq\n      iszero\n        /* \"RockPaperScissors.sol\":1694:1724  user != userA && user != userB */\n      dup1\n      iszero\n      tag_101\n      jumpi\n      pop\n        /* \"RockPaperScissors.sol\":1719:1724  userB */\n      0x01\n      0x00\n      swap1\n      sload\n      swap1\n      0x0100\n      exp\n      swap1\n      div\n      0xffffffffffffffffffffffffffffffffffffffff\n      and\n        /* \"RockPaperScissors.sol\":1711:1724  user != userB */\n      0xffffffffffffffffffffffffffffffffffffffff\n      and\n        /* \"RockPaperScissors.sol\":1711:1715  user */\n      dup2\n        /* \"RockPaperScissors.sol\":1711:1724  user != userB */\n      0xffffffffffffffffffffffffffffffffffffffff\n      and\n      eq\n      iszero\n        /* \"RockPaperScissors.sol\":1694:1724  user != userA && user != userB */\n    tag_101:\n        /* \"RockPaperScissors.sol\":1690:1748  if (user != userA && user != userB) revert noRightToPick() */\n      iszero\n      tag_102\n      jumpi\n        /* \"RockPaperScissors.sol\":1733:1748  noRightToPick() */\n      mload(0x40)\n      0x5774d9a500000000000000000000000000000000000000000000000000000000\n      dup2\n      mstore\n      0x04\n      add\n      mload(0x40)\n      dup1\n      swap2\n      sub\n      swap1\n      revert\n        /* \"RockPaperScissors.sol\":1690:1748  if (user != userA && user != userB) revert noRightToPick() */\n    tag_102:\n        /* \"RockPaperScissors.sol\":1771:1776  userA */\n      0x00\n      dup1\n      sload\n      swap1\n      0x0100\n      exp\n      swap1\n      div\n      0xffffffffffffffffffffffffffffffffffffffff\n      and\n        /* \"RockPaperScissors.sol\":1763:1776  user == userA */\n      0xffffffffffffffffffffffffffffffffffffffff\n      and\n        /* \"RockPaperScissors.sol\":1763:1767  user */\n      dup2\n        /* \"RockPaperScissors.sol\":1763:1776  user == userA */\n      0xffffffffffffffffffffffffffffffffffffffff\n      and\n      eq\n        /* \"RockPaperScissors.sol\":1763:1798  user == userA && hasPickedA == true */\n      dup1\n      iszero\n      tag_103\n      jumpi\n      pop\n        /* \"RockPaperScissors.sol\":1794:1798  true */\n      0x01\n        /* \"RockPaperScissors.sol\":1780:1798  hasPickedA == true */\n      iszero\n      iszero\n        /* \"RockPaperScissors.sol\":1780:1790  hasPickedA */\n      0x04\n      0x00\n      swap1\n      sload\n      swap1\n      0x0100\n      exp\n      swap1\n      div\n      0xff\n      and\n        /* \"RockPaperScissors.sol\":1780:1798  hasPickedA == true */\n      iszero\n      iszero\n      eq\n        /* \"RockPaperScissors.sol\":1763:1798  user == userA && hasPickedA == true */\n    tag_103:\n        /* \"RockPaperScissors.sol\":1759:1828  if (user == userA && hasPickedA == true) revert userAlreadyCommited() */\n      iszero\n      tag_104\n      jumpi\n        /* \"RockPaperScissors.sol\":1807:1828  userAlreadyCommited() */\n      mload(0x40)\n      0xa245b07d00000000000000000000000000000000000000000000000000000000\n      dup2\n      mstore\n      0x04\n      add\n      mload(0x40)\n      dup1\n      swap2\n      sub\n      swap1\n      revert\n        /* \"RockPaperScissors.sol\":1759:1828  if (user == userA && hasPickedA == true) revert userAlreadyCommited() */\n    tag_104:\n        /* \"RockPaperScissors.sol\":1851:1856  userB */\n      0x01\n      0x00\n      swap1\n      sload\n      swap1\n      0x0100\n      exp\n      swap1\n      div\n      0xffffffffffffffffffffffffffffffffffffffff\n      and\n        /* \"RockPaperScissors.sol\":1843:1856  user == userB */\n      0xffffffffffffffffffffffffffffffffffffffff\n      and\n        /* \"RockPaperScissors.sol\":1843:1847  user */\n      dup2\n        /* \"RockPaperScissors.sol\":1843:1856  user == userB */\n      0xffffffffffffffffffffffffffffffffffffffff\n      and\n      eq\n        /* \"RockPaperScissors.sol\":1843:1878  user == userB && hasPickedB == true */\n      dup1\n      iszero\n      tag_105\n      jumpi\n      pop\n        /* \"RockPaperScissors.sol\":1874:1878  true */\n      0x01\n        /* \"RockPaperScissors.sol\":1860:1878  hasPickedB == true */\n      iszero\n      iszero\n        /* \"RockPaperScissors.sol\":1860:1870  hasPickedB */\n      0x04\n      0x01\n      swap1\n      sload\n      swap1\n      0x0100\n      exp\n      swap1\n      div\n      0xff\n      and\n        /* \"RockPaperScissors.sol\":1860:1878  hasPickedB == true */\n      iszero\n      iszero\n      eq\n        /* \"RockPaperScissors.sol\":1843:1878  user == userB && hasPickedB == true */\n    tag_105:\n        /* \"RockPaperScissors.sol\":1839:1908  if (user == userB && hasPickedB == true) revert userAlreadyCommited() */\n      iszero\n      tag_106\n      jumpi\n        /* \"RockPaperScissors.sol\":1887:1908  userAlreadyCommited() */\n      mload(0x40)\n      0xa245b07d00000000000000000000000000000000000000000000000000000000\n      dup2\n      mstore\n      0x04\n      add\n      mload(0x40)\n      dup1\n      swap2\n      sub\n      swap1\n      revert\n        /* \"RockPaperScissors.sol\":1839:1908  if (user == userB && hasPickedB == true) revert userAlreadyCommited() */\n    tag_106:\n        /* \"RockPaperScissors.sol\":3020:3025  userA */\n      0x00\n      dup1\n      sload\n      swap1\n      0x0100\n      exp\n      swap1\n      div\n      0xffffffffffffffffffffffffffffffffffffffff\n      and\n        /* \"RockPaperScissors.sol\":3006:3025  msg.sender == userA */\n      0xffffffffffffffffffffffffffffffffffffffff\n      and\n        /* \"RockPaperScissors.sol\":3006:3016  msg.sender */\n      caller\n        /* \"RockPaperScissors.sol\":3006:3025  msg.sender == userA */\n      0xffffffffffffffffffffffffffffffffffffffff\n      and\n      eq\n        /* \"RockPaperScissors.sol\":3002:3204  if (msg.sender == userA) {\r... */\n      iszero\n      tag_108\n      jumpi\n        /* \"RockPaperScissors.sol\":3055:3059  true */\n      0x01\n        /* \"RockPaperScissors.sol\":3042:3052  hasPickedA */\n      0x04\n      0x00\n        /* \"RockPaperScissors.sol\":3042:3059  hasPickedA = true */\n      0x0100\n      exp\n      dup2\n      sload\n      dup2\n      0xff\n      mul\n      not\n      and\n      swap1\n      dup4\n      iszero\n      iszero\n      mul\n      or\n      swap1\n      sstore\n      pop\n        /* \"RockPaperScissors.sol\":3088:3096  userPick */\n      dup2\n        /* \"RockPaperScissors.sol\":3074:3085  commitmentA */\n      0x05\n        /* \"RockPaperScissors.sol\":3074:3096  commitmentA = userPick */\n      dup2\n      swap1\n      sstore\n      pop\n        /* \"RockPaperScissors.sol\":3002:3204  if (msg.sender == userA) {\r... */\n      jump(tag_109)\n    tag_108:\n        /* \"RockPaperScissors.sol\":3151:3155  true */\n      0x01\n        /* \"RockPaperScissors.sol\":3138:3148  hasPickedB */\n      0x04\n      0x01\n        /* \"RockPaperScissors.sol\":3138:3155  hasPickedB = true */\n      0x0100\n      exp\n      dup2\n      sload\n      dup2\n      0xff\n      mul\n      not\n      and\n      swap1\n      dup4\n      iszero\n      iszero\n      mul\n      or\n      swap1\n      sstore\n      pop\n        /* \"RockPaperScissors.sol\":3184:3192  userPick */\n      dup2\n        /* \"RockPaperScissors.sol\":3170:3181  commitmentB */\n      0x06\n        /* \"RockPaperScissors.sol\":3170:3192  commitmentB = userPick */\n      dup2\n      swap1\n      sstore\n      pop\n        /* \"RockPaperScissors.sol\":3002:3204  if (msg.sender == userA) {\r... */\n    tag_109:\n        /* \"RockPaperScissors.sol\":2906:3211  function pick(bytes32 userPick) external \r... */\n      pop\n      pop\n      jump\t// out\n        /* \"RockPaperScissors.sol\":232:260  address payable public userB */\n    tag_53:\n      0x01\n      0x00\n      swap1\n      sload\n      swap1\n      0x0100\n      exp\n      swap1\n      div\n      0xffffffffffffffffffffffffffffffffffffffff\n      and\n      dup2\n      jump\t// out\n        /* \"RockPaperScissors.sol\":197:225  address payable public userA */\n    tag_57:\n      0x00\n      dup1\n      sload\n      swap1\n      0x0100\n      exp\n      swap1\n      div\n      0xffffffffffffffffffffffffffffffffffffffff\n      and\n      dup2\n      jump\t// out\n        /* \"RockPaperScissors.sol\":315:332  uint public prize */\n    tag_60:\n      sload(0x03)\n      dup2\n      jump\t// out\n        /* \"RockPaperScissors.sol\":411:433  bool public hasPickedA */\n    tag_64:\n      0x04\n      0x00\n      swap1\n      sload\n      swap1\n      0x0100\n      exp\n      swap1\n      div\n      0xff\n      and\n      dup2\n      jump\t// out\n        /* \"RockPaperScissors.sol\":3930:4582  function announceResult() external {\r... */\n    tag_67:\n        /* \"RockPaperScissors.sol\":3989:3993  true */\n      0x01\n        /* \"RockPaperScissors.sol\":3980:3993  ended == true */\n      iszero\n      iszero\n        /* \"RockPaperScissors.sol\":3980:3985  ended */\n      0x0a\n      0x00\n      swap1\n      sload\n      swap1\n      0x0100\n      exp\n      swap1\n      div\n      0xff\n      and\n        /* \"RockPaperScissors.sol\":3980:3993  ended == true */\n      iszero\n      iszero\n      eq\n        /* \"RockPaperScissors.sol\":3976:4014  if (ended == true) revert gamedEnded() */\n      iszero\n      tag_111\n      jumpi\n        /* \"RockPaperScissors.sol\":4002:4014  gamedEnded() */\n      mload(0x40)\n      0xcda3c43d00000000000000000000000000000000000000000000000000000000\n      dup2\n      mstore\n      0x04\n      add\n      mload(0x40)\n      dup1\n      swap2\n      sub\n      swap1\n      revert\n        /* \"RockPaperScissors.sol\":3976:4014  if (ended == true) revert gamedEnded() */\n    tag_111:\n        /* \"RockPaperScissors.sol\":4043:4050  manager */\n      0x02\n      0x00\n      swap1\n      sload\n      swap1\n      0x0100\n      exp\n      swap1\n      div\n      0xffffffffffffffffffffffffffffffffffffffff\n      and\n        /* \"RockPaperScissors.sol\":4029:4050  msg.sender != manager */\n      0xffffffffffffffffffffffffffffffffffffffff\n      and\n        /* \"RockPaperScissors.sol\":4029:4039  msg.sender */\n      caller\n        /* \"RockPaperScissors.sol\":4029:4050  msg.sender != manager */\n      0xffffffffffffffffffffffffffffffffffffffff\n      and\n      eq\n      iszero\n        /* \"RockPaperScissors.sol\":4029:4073  msg.sender != manager && msg.sender != userA */\n      dup1\n      iszero\n      tag_112\n      jumpi\n      pop\n        /* \"RockPaperScissors.sol\":4068:4073  userA */\n      0x00\n      dup1\n      sload\n      swap1\n      0x0100\n      exp\n      swap1\n      div\n      0xffffffffffffffffffffffffffffffffffffffff\n      and\n        /* \"RockPaperScissors.sol\":4054:4073  msg.sender != userA */\n      0xffffffffffffffffffffffffffffffffffffffff\n      and\n        /* \"RockPaperScissors.sol\":4054:4064  msg.sender */\n      caller\n        /* \"RockPaperScissors.sol\":4054:4073  msg.sender != userA */\n      0xffffffffffffffffffffffffffffffffffffffff\n      and\n      eq\n      iszero\n        /* \"RockPaperScissors.sol\":4029:4073  msg.sender != manager && msg.sender != userA */\n    tag_112:\n        /* \"RockPaperScissors.sol\":4029:4096  msg.sender != manager && msg.sender != userA && msg.sender != userB */\n      dup1\n      iszero\n      tag_113\n      jumpi\n      pop\n        /* \"RockPaperScissors.sol\":4091:4096  userB */\n      0x01\n      0x00\n      swap1\n      sload\n      swap1\n      0x0100\n      exp\n      swap1\n      div\n      0xffffffffffffffffffffffffffffffffffffffff\n      and\n        /* \"RockPaperScissors.sol\":4077:4096  msg.sender != userB */\n      0xffffffffffffffffffffffffffffffffffffffff\n      and\n        /* \"RockPaperScissors.sol\":4077:4087  msg.sender */\n      caller\n        /* \"RockPaperScissors.sol\":4077:4096  msg.sender != userB */\n      0xffffffffffffffffffffffffffffffffffffffff\n      and\n      eq\n      iszero\n        /* \"RockPaperScissors.sol\":4029:4096  msg.sender != manager && msg.sender != userA && msg.sender != userB */\n    tag_113:\n        /* \"RockPaperScissors.sol\":4025:4146  if (msg.sender != manager && msg.sender != userA && msg.sender != userB)\r... */\n      iszero\n      tag_114\n      jumpi\n        /* \"RockPaperScissors.sol\":4118:4146  noRightToAnnounceTheResult() */\n      mload(0x40)\n      0x08fbade400000000000000000000000000000000000000000000000000000000\n      dup2\n      mstore\n      0x04\n      add\n      mload(0x40)\n      dup1\n      swap2\n      sub\n      swap1\n      revert\n        /* \"RockPaperScissors.sol\":4025:4146  if (msg.sender != manager && msg.sender != userA && msg.sender != userB)\r... */\n    tag_114:\n        /* \"RockPaperScissors.sol\":4177:4181  true */\n      0x01\n        /* \"RockPaperScissors.sol\":4161:4181  hasRevealedA == true */\n      iszero\n      iszero\n        /* \"RockPaperScissors.sol\":4161:4173  hasRevealedA */\n      0x07\n      0x00\n      swap1\n      sload\n      swap1\n      0x0100\n      exp\n      swap1\n      div\n      0xff\n      and\n        /* \"RockPaperScissors.sol\":4161:4181  hasRevealedA == true */\n      iszero\n      iszero\n      eq\n        /* \"RockPaperScissors.sol\":4161:4205  hasRevealedA == true && hasRevealedB == true */\n      dup1\n      iszero\n      tag_115\n      jumpi\n      pop\n        /* \"RockPaperScissors.sol\":4201:4205  true */\n      0x01\n        /* \"RockPaperScissors.sol\":4185:4205  hasRevealedB == true */\n      iszero\n      iszero\n        /* \"RockPaperScissors.sol\":4185:4197  hasRevealedB */\n      0x07\n      0x01\n      swap1\n      sload\n      swap1\n      0x0100\n      exp\n      swap1\n      div\n      0xff\n      and\n        /* \"RockPaperScissors.sol\":4185:4205  hasRevealedB == true */\n      iszero\n      iszero\n      eq\n        /* \"RockPaperScissors.sol\":4161:4205  hasRevealedA == true && hasRevealedB == true */\n    tag_115:\n        /* \"RockPaperScissors.sol\":4157:4575  if (hasRevealedA == true && hasRevealedB == true) {\r... */\n      iszero\n      tag_116\n      jumpi\n      jump(tag_117)\n    tag_116:\n        /* \"RockPaperScissors.sol\":4275:4279  true */\n      0x01\n        /* \"RockPaperScissors.sol\":4259:4279  hasRevealedA == true */\n      iszero\n      iszero\n        /* \"RockPaperScissors.sol\":4259:4271  hasRevealedA */\n      0x07\n      0x00\n      swap1\n      sload\n      swap1\n      0x0100\n      exp\n      swap1\n      div\n      0xff\n      and\n        /* \"RockPaperScissors.sol\":4259:4279  hasRevealedA == true */\n      iszero\n      iszero\n      eq\n        /* \"RockPaperScissors.sol\":4259:4304  hasRevealedA == true && hasRevealedB == false */\n      dup1\n      iszero\n      tag_118\n      jumpi\n      pop\n        /* \"RockPaperScissors.sol\":4299:4304  false */\n      0x00\n        /* \"RockPaperScissors.sol\":4283:4304  hasRevealedB == false */\n      iszero\n      iszero\n        /* \"RockPaperScissors.sol\":4283:4295  hasRevealedB */\n      0x07\n      0x01\n      swap1\n      sload\n      swap1\n      0x0100\n      exp\n      swap1\n      div\n      0xff\n      and\n        /* \"RockPaperScissors.sol\":4283:4304  hasRevealedB == false */\n      iszero\n      iszero\n      eq\n        /* \"RockPaperScissors.sol\":4259:4304  hasRevealedA == true && hasRevealedB == false */\n    tag_118:\n        /* \"RockPaperScissors.sol\":4255:4575  if (hasRevealedA == true && hasRevealedB == false) userA.transfer(prize);\r... */\n      iszero\n      tag_119\n      jumpi\n        /* \"RockPaperScissors.sol\":4306:4311  userA */\n      0x00\n      dup1\n      sload\n      swap1\n      0x0100\n      exp\n      swap1\n      div\n      0xffffffffffffffffffffffffffffffffffffffff\n      and\n        /* \"RockPaperScissors.sol\":4306:4320  userA.transfer */\n      0xffffffffffffffffffffffffffffffffffffffff\n      and\n        /* \"RockPaperScissors.sol\":4306:4327  userA.transfer(prize) */\n      0x08fc\n        /* \"RockPaperScissors.sol\":4321:4326  prize */\n      sload(0x03)\n        /* \"RockPaperScissors.sol\":4306:4327  userA.transfer(prize) */\n      swap1\n      dup2\n      iszero\n      mul\n      swap1\n      mload(0x40)\n      0x00\n      mload(0x40)\n      dup1\n      dup4\n      sub\n      dup2\n      dup6\n      dup9\n      dup9\n      call\n      swap4\n      pop\n      pop\n      pop\n      pop\n      iszero\n      dup1\n      iszero\n      tag_121\n      jumpi\n      returndatasize\n      0x00\n      dup1\n      returndatacopy\n      revert(0x00, returndatasize)\n    tag_121:\n      pop\n        /* \"RockPaperScissors.sol\":4255:4575  if (hasRevealedA == true && hasRevealedB == false) userA.transfer(prize);\r... */\n      jump(tag_122)\n    tag_119:\n        /* \"RockPaperScissors.sol\":4363:4368  false */\n      0x00\n        /* \"RockPaperScissors.sol\":4347:4368  hasRevealedA == false */\n      iszero\n      iszero\n        /* \"RockPaperScissors.sol\":4347:4359  hasRevealedA */\n      0x07\n      0x00\n      swap1\n      sload\n      swap1\n      0x0100\n      exp\n      swap1\n      div\n      0xff\n      and\n        /* \"RockPaperScissors.sol\":4347:4368  hasRevealedA == false */\n      iszero\n      iszero\n      eq\n        /* \"RockPaperScissors.sol\":4347:4392  hasRevealedA == false && hasRevealedB == true */\n      dup1\n      iszero\n      tag_123\n      jumpi\n      pop\n        /* \"RockPaperScissors.sol\":4388:4392  true */\n      0x01\n        /* \"RockPaperScissors.sol\":4372:4392  hasRevealedB == true */\n      iszero\n      iszero\n        /* \"RockPaperScissors.sol\":4372:4384  hasRevealedB */\n      0x07\n      0x01\n      swap1\n      sload\n      swap1\n      0x0100\n      exp\n      swap1\n      div\n      0xff\n      and\n        /* \"RockPaperScissors.sol\":4372:4392  hasRevealedB == true */\n      iszero\n      iszero\n      eq\n        /* \"RockPaperScissors.sol\":4347:4392  hasRevealedA == false && hasRevealedB == true */\n    tag_123:\n        /* \"RockPaperScissors.sol\":4343:4575  if (hasRevealedA == false && hasRevealedB == true) userB.transfer(prize);\r... */\n      iszero\n      tag_124\n      jumpi\n        /* \"RockPaperScissors.sol\":4394:4399  userB */\n      0x01\n      0x00\n      swap1\n      sload\n      swap1\n      0x0100\n      exp\n      swap1\n      div\n      0xffffffffffffffffffffffffffffffffffffffff\n      and\n        /* \"RockPaperScissors.sol\":4394:4408  userB.transfer */\n      0xffffffffffffffffffffffffffffffffffffffff\n      and\n        /* \"RockPaperScissors.sol\":4394:4415  userB.transfer(prize) */\n      0x08fc\n        /* \"RockPaperScissors.sol\":4409:4414  prize */\n      sload(0x03)\n        /* \"RockPaperScissors.sol\":4394:4415  userB.transfer(prize) */\n      swap1\n      dup2\n      iszero\n      mul\n      swap1\n      mload(0x40)\n      0x00\n      mload(0x40)\n      dup1\n      dup4\n      sub\n      dup2\n      dup6\n      dup9\n      dup9\n      call\n      swap4\n      pop\n      pop\n      pop\n      pop\n      iszero\n      dup1\n      iszero\n      tag_126\n      jumpi\n      returndatasize\n      0x00\n      dup1\n      returndatacopy\n      revert(0x00, returndatasize)\n    tag_126:\n      pop\n        /* \"RockPaperScissors.sol\":4343:4575  if (hasRevealedA == false && hasRevealedB == true) userB.transfer(prize);\r... */\n      jump(tag_127)\n    tag_124:\n        /* \"RockPaperScissors.sol\":4451:4456  false */\n      0x00\n        /* \"RockPaperScissors.sol\":4435:4456  hasRevealedA == false */\n      iszero\n      iszero\n        /* \"RockPaperScissors.sol\":4435:4447  hasRevealedA */\n      0x07\n      0x00\n      swap1\n      sload\n      swap1\n      0x0100\n      exp\n      swap1\n      div\n      0xff\n      and\n        /* \"RockPaperScissors.sol\":4435:4456  hasRevealedA == false */\n      iszero\n      iszero\n      eq\n        /* \"RockPaperScissors.sol\":4435:4481  hasRevealedA == false && hasRevealedB == false */\n      dup1\n      iszero\n      tag_128\n      jumpi\n      pop\n        /* \"RockPaperScissors.sol\":4476:4481  false */\n      0x00\n        /* \"RockPaperScissors.sol\":4460:4481  hasRevealedB == false */\n      iszero\n      iszero\n        /* \"RockPaperScissors.sol\":4460:4472  hasRevealedB */\n      0x07\n      0x01\n      swap1\n      sload\n      swap1\n      0x0100\n      exp\n      swap1\n      div\n      0xff\n      and\n        /* \"RockPaperScissors.sol\":4460:4481  hasRevealedB == false */\n      iszero\n      iszero\n      eq\n        /* \"RockPaperScissors.sol\":4435:4481  hasRevealedA == false && hasRevealedB == false */\n    tag_128:\n        /* \"RockPaperScissors.sol\":4431:4575  if (hasRevealedA == false && hasRevealedB == false) {\r... */\n      iszero\n      tag_129\n      jumpi\n        /* \"RockPaperScissors.sol\":4498:4503  userA */\n      0x00\n      dup1\n      sload\n      swap1\n      0x0100\n      exp\n      swap1\n      div\n      0xffffffffffffffffffffffffffffffffffffffff\n      and\n        /* \"RockPaperScissors.sol\":4498:4512  userA.transfer */\n      0xffffffffffffffffffffffffffffffffffffffff\n      and\n        /* \"RockPaperScissors.sol\":4498:4523  userA.transfer((prize/2)) */\n      0x08fc\n        /* \"RockPaperScissors.sol\":4520:4521  2 */\n      0x02\n        /* \"RockPaperScissors.sol\":4514:4519  prize */\n      sload(0x03)\n        /* \"RockPaperScissors.sol\":4514:4521  prize/2 */\n      tag_130\n      swap2\n      swap1\n      tag_131\n      jump\t// in\n    tag_130:\n        /* \"RockPaperScissors.sol\":4498:4523  userA.transfer((prize/2)) */\n      swap1\n      dup2\n      iszero\n      mul\n      swap1\n      mload(0x40)\n      0x00\n      mload(0x40)\n      dup1\n      dup4\n      sub\n      dup2\n      dup6\n      dup9\n      dup9\n      call\n      swap4\n      pop\n      pop\n      pop\n      pop\n      iszero\n      dup1\n      iszero\n      tag_133\n      jumpi\n      returndatasize\n      0x00\n      dup1\n      returndatacopy\n      revert(0x00, returndatasize)\n    tag_133:\n      pop\n        /* \"RockPaperScissors.sol\":4538:4543  userB */\n      0x01\n      0x00\n      swap1\n      sload\n      swap1\n      0x0100\n      exp\n      swap1\n      div\n      0xffffffffffffffffffffffffffffffffffffffff\n      and\n        /* \"RockPaperScissors.sol\":4538:4552  userB.transfer */\n      0xffffffffffffffffffffffffffffffffffffffff\n      and\n        /* \"RockPaperScissors.sol\":4538:4563  userB.transfer((prize/2)) */\n      0x08fc\n        /* \"RockPaperScissors.sol\":4560:4561  2 */\n      0x02\n        /* \"RockPaperScissors.sol\":4554:4559  prize */\n      sload(0x03)\n        /* \"RockPaperScissors.sol\":4554:4561  prize/2 */\n      tag_134\n      swap2\n      swap1\n      tag_131\n      jump\t// in\n    tag_134:\n        /* \"RockPaperScissors.sol\":4538:4563  userB.transfer((prize/2)) */\n      swap1\n      dup2\n      iszero\n      mul\n      swap1\n      mload(0x40)\n      0x00\n      mload(0x40)\n      dup1\n      dup4\n      sub\n      dup2\n      dup6\n      dup9\n      dup9\n      call\n      swap4\n      pop\n      pop\n      pop\n      pop\n      iszero\n      dup1\n      iszero\n      tag_136\n      jumpi\n      returndatasize\n      0x00\n      dup1\n      returndatacopy\n      revert(0x00, returndatasize)\n    tag_136:\n      pop\n        /* \"RockPaperScissors.sol\":4431:4575  if (hasRevealedA == false && hasRevealedB == false) {\r... */\n    tag_129:\n        /* \"RockPaperScissors.sol\":4343:4575  if (hasRevealedA == false && hasRevealedB == true) userB.transfer(prize);\r... */\n    tag_127:\n        /* \"RockPaperScissors.sol\":4255:4575  if (hasRevealedA == true && hasRevealedB == false) userA.transfer(prize);\r... */\n    tag_122:\n        /* \"RockPaperScissors.sol\":4157:4575  if (hasRevealedA == true && hasRevealedB == true) {\r... */\n    tag_117:\n        /* \"RockPaperScissors.sol\":3930:4582  function announceResult() external {\r... */\n      jump\t// out\n    tag_93:\n      dup3\n      dup1\n      sload\n      tag_137\n      swap1\n      tag_69\n      jump\t// in\n    tag_137:\n      swap1\n      0x00\n      mstore\n      keccak256(0x00, 0x20)\n      swap1\n      0x1f\n      add\n      0x20\n      swap1\n      div\n      dup2\n      add\n      swap3\n      dup3\n      tag_139\n      jumpi\n      0x00\n      dup6\n      sstore\n      jump(tag_138)\n    tag_139:\n      dup3\n      0x1f\n      lt\n      tag_140\n      jumpi\n      dup1\n      calldataload\n      not(0xff)\n      and\n      dup4\n      dup1\n      add\n      or\n      dup6\n      sstore\n      jump(tag_138)\n    tag_140:\n      dup3\n      dup1\n      add\n      0x01\n      add\n      dup6\n      sstore\n      dup3\n      iszero\n      tag_138\n      jumpi\n      swap2\n      dup3\n      add\n    tag_141:\n      dup3\n      dup2\n      gt\n      iszero\n      tag_142\n      jumpi\n      dup3\n      calldataload\n      dup3\n      sstore\n      swap2\n      0x20\n      add\n      swap2\n      swap1\n      0x01\n      add\n      swap1\n      jump(tag_141)\n    tag_142:\n    tag_138:\n      pop\n      swap1\n      pop\n      tag_143\n      swap2\n      swap1\n      tag_144\n      jump\t// in\n    tag_143:\n      pop\n      swap1\n      jump\t// out\n    tag_144:\n    tag_145:\n      dup1\n      dup3\n      gt\n      iszero\n      tag_146\n      jumpi\n      0x00\n      dup2\n      0x00\n      swap1\n      sstore\n      pop\n      0x01\n      add\n      jump(tag_145)\n    tag_146:\n      pop\n      swap1\n      jump\t// out\n        /* \"#utility.yul\":7:146   */\n    tag_148:\n        /* \"#utility.yul\":53:58   */\n      0x00\n        /* \"#utility.yul\":91:97   */\n      dup2\n        /* \"#utility.yul\":78:98   */\n      calldataload\n        /* \"#utility.yul\":69:98   */\n      swap1\n      pop\n        /* \"#utility.yul\":107:140   */\n      tag_150\n        /* \"#utility.yul\":134:139   */\n      dup2\n        /* \"#utility.yul\":107:140   */\n      tag_151\n      jump\t// in\n    tag_150:\n        /* \"#utility.yul\":7:146   */\n      swap3\n      swap2\n      pop\n      pop\n      jump\t// out\n        /* \"#utility.yul\":166:719   */\n    tag_152:\n        /* \"#utility.yul\":224:232   */\n      0x00\n        /* \"#utility.yul\":234:240   */\n      dup1\n        /* \"#utility.yul\":284:287   */\n      dup4\n        /* \"#utility.yul\":277:281   */\n      0x1f\n        /* \"#utility.yul\":269:275   */\n      dup5\n        /* \"#utility.yul\":265:282   */\n      add\n        /* \"#utility.yul\":261:288   */\n      slt\n        /* \"#utility.yul\":251:373   */\n      tag_154\n      jumpi\n        /* \"#utility.yul\":292:371   */\n      tag_155\n      tag_156\n      jump\t// in\n    tag_155:\n        /* \"#utility.yul\":251:373   */\n    tag_154:\n        /* \"#utility.yul\":405:411   */\n      dup3\n        /* \"#utility.yul\":392:412   */\n      calldataload\n        /* \"#utility.yul\":382:412   */\n      swap1\n      pop\n        /* \"#utility.yul\":435:453   */\n      0xffffffffffffffff\n        /* \"#utility.yul\":427:433   */\n      dup2\n        /* \"#utility.yul\":424:454   */\n      gt\n        /* \"#utility.yul\":421:538   */\n      iszero\n      tag_157\n      jumpi\n        /* \"#utility.yul\":457:536   */\n      tag_158\n      tag_159\n      jump\t// in\n    tag_158:\n        /* \"#utility.yul\":421:538   */\n    tag_157:\n        /* \"#utility.yul\":571:575   */\n      0x20\n        /* \"#utility.yul\":563:569   */\n      dup4\n        /* \"#utility.yul\":559:576   */\n      add\n        /* \"#utility.yul\":547:576   */\n      swap2\n      pop\n        /* \"#utility.yul\":625:628   */\n      dup4\n        /* \"#utility.yul\":617:621   */\n      0x01\n        /* \"#utility.yul\":609:615   */\n      dup3\n        /* \"#utility.yul\":605:622   */\n      mul\n        /* \"#utility.yul\":595:603   */\n      dup4\n        /* \"#utility.yul\":591:623   */\n      add\n        /* \"#utility.yul\":588:629   */\n      gt\n        /* \"#utility.yul\":585:713   */\n      iszero\n      tag_160\n      jumpi\n        /* \"#utility.yul\":632:711   */\n      tag_161\n      tag_162\n      jump\t// in\n    tag_161:\n        /* \"#utility.yul\":585:713   */\n    tag_160:\n        /* \"#utility.yul\":166:719   */\n      swap3\n      pop\n      swap3\n      swap1\n      pop\n      jump\t// out\n        /* \"#utility.yul\":725:1054   */\n    tag_50:\n        /* \"#utility.yul\":784:790   */\n      0x00\n        /* \"#utility.yul\":833:835   */\n      0x20\n        /* \"#utility.yul\":821:830   */\n      dup3\n        /* \"#utility.yul\":812:819   */\n      dup5\n        /* \"#utility.yul\":808:831   */\n      sub\n        /* \"#utility.yul\":804:836   */\n      slt\n        /* \"#utility.yul\":801:920   */\n      iszero\n      tag_164\n      jumpi\n        /* \"#utility.yul\":839:918   */\n      tag_165\n      tag_166\n      jump\t// in\n    tag_165:\n        /* \"#utility.yul\":801:920   */\n    tag_164:\n        /* \"#utility.yul\":959:960   */\n      0x00\n        /* \"#utility.yul\":984:1037   */\n      tag_167\n        /* \"#utility.yul\":1029:1036   */\n      dup5\n        /* \"#utility.yul\":1020:1026   */\n      dup3\n        /* \"#utility.yul\":1009:1018   */\n      dup6\n        /* \"#utility.yul\":1005:1027   */\n      add\n        /* \"#utility.yul\":984:1037   */\n      tag_148\n      jump\t// in\n    tag_167:\n        /* \"#utility.yul\":974:1037   */\n      swap2\n      pop\n        /* \"#utility.yul\":930:1047   */\n      pop\n        /* \"#utility.yul\":725:1054   */\n      swap3\n      swap2\n      pop\n      pop\n      jump\t// out\n        /* \"#utility.yul\":1060:1934   */\n    tag_43:\n        /* \"#utility.yul\":1152:1158   */\n      0x00\n        /* \"#utility.yul\":1160:1166   */\n      dup1\n        /* \"#utility.yul\":1168:1174   */\n      0x00\n        /* \"#utility.yul\":1176:1182   */\n      dup1\n        /* \"#utility.yul\":1225:1227   */\n      0x40\n        /* \"#utility.yul\":1213:1222   */\n      dup6\n        /* \"#utility.yul\":1204:1211   */\n      dup8\n        /* \"#utility.yul\":1200:1223   */\n      sub\n        /* \"#utility.yul\":1196:1228   */\n      slt\n        /* \"#utility.yul\":1193:1312   */\n      iszero\n      tag_169\n      jumpi\n        /* \"#utility.yul\":1231:1310   */\n      tag_170\n      tag_166\n      jump\t// in\n    tag_170:\n        /* \"#utility.yul\":1193:1312   */\n    tag_169:\n        /* \"#utility.yul\":1379:1380   */\n      0x00\n        /* \"#utility.yul\":1368:1377   */\n      dup6\n        /* \"#utility.yul\":1364:1381   */\n      add\n        /* \"#utility.yul\":1351:1382   */\n      calldataload\n        /* \"#utility.yul\":1409:1427   */\n      0xffffffffffffffff\n        /* \"#utility.yul\":1401:1407   */\n      dup2\n        /* \"#utility.yul\":1398:1428   */\n      gt\n        /* \"#utility.yul\":1395:1512   */\n      iszero\n      tag_171\n      jumpi\n        /* \"#utility.yul\":1431:1510   */\n      tag_172\n      tag_173\n      jump\t// in\n    tag_172:\n        /* \"#utility.yul\":1395:1512   */\n    tag_171:\n        /* \"#utility.yul\":1544:1609   */\n      tag_174\n        /* \"#utility.yul\":1601:1608   */\n      dup8\n        /* \"#utility.yul\":1592:1598   */\n      dup3\n        /* \"#utility.yul\":1581:1590   */\n      dup9\n        /* \"#utility.yul\":1577:1599   */\n      add\n        /* \"#utility.yul\":1544:1609   */\n      tag_152\n      jump\t// in\n    tag_174:\n        /* \"#utility.yul\":1526:1609   */\n      swap5\n      pop\n      swap5\n      pop\n        /* \"#utility.yul\":1322:1619   */\n      pop\n        /* \"#utility.yul\":1686:1688   */\n      0x20\n        /* \"#utility.yul\":1675:1684   */\n      dup6\n        /* \"#utility.yul\":1671:1689   */\n      add\n        /* \"#utility.yul\":1658:1690   */\n      calldataload\n        /* \"#utility.yul\":1717:1735   */\n      0xffffffffffffffff\n        /* \"#utility.yul\":1709:1715   */\n      dup2\n        /* \"#utility.yul\":1706:1736   */\n      gt\n        /* \"#utility.yul\":1703:1820   */\n      iszero\n      tag_175\n      jumpi\n        /* \"#utility.yul\":1739:1818   */\n      tag_176\n      tag_173\n      jump\t// in\n    tag_176:\n        /* \"#utility.yul\":1703:1820   */\n    tag_175:\n        /* \"#utility.yul\":1852:1917   */\n      tag_177\n        /* \"#utility.yul\":1909:1916   */\n      dup8\n        /* \"#utility.yul\":1900:1906   */\n      dup3\n        /* \"#utility.yul\":1889:1898   */\n      dup9\n        /* \"#utility.yul\":1885:1907   */\n      add\n        /* \"#utility.yul\":1852:1917   */\n      tag_152\n      jump\t// in\n    tag_177:\n        /* \"#utility.yul\":1834:1917   */\n      swap3\n      pop\n      swap3\n      pop\n        /* \"#utility.yul\":1629:1927   */\n      pop\n        /* \"#utility.yul\":1060:1934   */\n      swap3\n      swap6\n      swap2\n      swap5\n      pop\n      swap3\n      pop\n      jump\t// out\n        /* \"#utility.yul\":1940:2082   */\n    tag_178:\n        /* \"#utility.yul\":2043:2075   */\n      tag_180\n        /* \"#utility.yul\":2069:2074   */\n      dup2\n        /* \"#utility.yul\":2043:2075   */\n      tag_181\n      jump\t// in\n    tag_180:\n        /* \"#utility.yul\":2038:2041   */\n      dup3\n        /* \"#utility.yul\":2031:2076   */\n      mstore\n        /* \"#utility.yul\":1940:2082   */\n      pop\n      pop\n      jump\t// out\n        /* \"#utility.yul\":2088:2206   */\n    tag_182:\n        /* \"#utility.yul\":2175:2199   */\n      tag_184\n        /* \"#utility.yul\":2193:2198   */\n      dup2\n        /* \"#utility.yul\":2175:2199   */\n      tag_185\n      jump\t// in\n    tag_184:\n        /* \"#utility.yul\":2170:2173   */\n      dup3\n        /* \"#utility.yul\":2163:2200   */\n      mstore\n        /* \"#utility.yul\":2088:2206   */\n      pop\n      pop\n      jump\t// out\n        /* \"#utility.yul\":2212:2321   */\n    tag_186:\n        /* \"#utility.yul\":2293:2314   */\n      tag_188\n        /* \"#utility.yul\":2308:2313   */\n      dup2\n        /* \"#utility.yul\":2293:2314   */\n      tag_189\n      jump\t// in\n    tag_188:\n        /* \"#utility.yul\":2288:2291   */\n      dup3\n        /* \"#utility.yul\":2281:2315   */\n      mstore\n        /* \"#utility.yul\":2212:2321   */\n      pop\n      pop\n      jump\t// out\n        /* \"#utility.yul\":2351:2668   */\n    tag_190:\n        /* \"#utility.yul\":2467:2470   */\n      0x00\n        /* \"#utility.yul\":2488:2577   */\n      tag_192\n        /* \"#utility.yul\":2570:2576   */\n      dup4\n        /* \"#utility.yul\":2565:2568   */\n      dup6\n        /* \"#utility.yul\":2488:2577   */\n      tag_193\n      jump\t// in\n    tag_192:\n        /* \"#utility.yul\":2481:2577   */\n      swap4\n      pop\n        /* \"#utility.yul\":2587:2630   */\n      tag_194\n        /* \"#utility.yul\":2623:2629   */\n      dup4\n        /* \"#utility.yul\":2618:2621   */\n      dup6\n        /* \"#utility.yul\":2611:2616   */\n      dup5\n        /* \"#utility.yul\":2587:2630   */\n      tag_195\n      jump\t// in\n    tag_194:\n        /* \"#utility.yul\":2655:2661   */\n      dup3\n        /* \"#utility.yul\":2650:2653   */\n      dup5\n        /* \"#utility.yul\":2646:2662   */\n      add\n        /* \"#utility.yul\":2639:2662   */\n      swap1\n      pop\n        /* \"#utility.yul\":2351:2668   */\n      swap4\n      swap3\n      pop\n      pop\n      pop\n      jump\t// out\n        /* \"#utility.yul\":2674:3038   */\n    tag_196:\n        /* \"#utility.yul\":2762:2765   */\n      0x00\n        /* \"#utility.yul\":2790:2829   */\n      tag_198\n        /* \"#utility.yul\":2823:2828   */\n      dup3\n        /* \"#utility.yul\":2790:2829   */\n      tag_199\n      jump\t// in\n    tag_198:\n        /* \"#utility.yul\":2845:2916   */\n      tag_200\n        /* \"#utility.yul\":2909:2915   */\n      dup2\n        /* \"#utility.yul\":2904:2907   */\n      dup6\n        /* \"#utility.yul\":2845:2916   */\n      tag_201\n      jump\t// in\n    tag_200:\n        /* \"#utility.yul\":2838:2916   */\n      swap4\n      pop\n        /* \"#utility.yul\":2925:2977   */\n      tag_202\n        /* \"#utility.yul\":2970:2976   */\n      dup2\n        /* \"#utility.yul\":2965:2968   */\n      dup6\n        /* \"#utility.yul\":2958:2962   */\n      0x20\n        /* \"#utility.yul\":2951:2956   */\n      dup7\n        /* \"#utility.yul\":2947:2963   */\n      add\n        /* \"#utility.yul\":2925:2977   */\n      tag_203\n      jump\t// in\n    tag_202:\n        /* \"#utility.yul\":3002:3031   */\n      tag_204\n        /* \"#utility.yul\":3024:3030   */\n      dup2\n        /* \"#utility.yul\":3002:3031   */\n      tag_205\n      jump\t// in\n    tag_204:\n        /* \"#utility.yul\":2997:3000   */\n      dup5\n        /* \"#utility.yul\":2993:3032   */\n      add\n        /* \"#utility.yul\":2986:3032   */\n      swap2\n      pop\n        /* \"#utility.yul\":2766:3038   */\n      pop\n        /* \"#utility.yul\":2674:3038   */\n      swap3\n      swap2\n      pop\n      pop\n      jump\t// out\n        /* \"#utility.yul\":3044:3162   */\n    tag_206:\n        /* \"#utility.yul\":3131:3155   */\n      tag_208\n        /* \"#utility.yul\":3149:3154   */\n      dup2\n        /* \"#utility.yul\":3131:3155   */\n      tag_209\n      jump\t// in\n    tag_208:\n        /* \"#utility.yul\":3126:3129   */\n      dup3\n        /* \"#utility.yul\":3119:3156   */\n      mstore\n        /* \"#utility.yul\":3044:3162   */\n      pop\n      pop\n      jump\t// out\n        /* \"#utility.yul\":3168:3643   */\n    tag_90:\n        /* \"#utility.yul\":3368:3371   */\n      0x00\n        /* \"#utility.yul\":3390:3495   */\n      tag_211\n        /* \"#utility.yul\":3491:3494   */\n      dup3\n        /* \"#utility.yul\":3482:3488   */\n      dup7\n        /* \"#utility.yul\":3474:3480   */\n      dup9\n        /* \"#utility.yul\":3390:3495   */\n      tag_190\n      jump\t// in\n    tag_211:\n        /* \"#utility.yul\":3383:3495   */\n      swap2\n      pop\n        /* \"#utility.yul\":3512:3617   */\n      tag_212\n        /* \"#utility.yul\":3613:3616   */\n      dup3\n        /* \"#utility.yul\":3604:3610   */\n      dup5\n        /* \"#utility.yul\":3596:3602   */\n      dup7\n        /* \"#utility.yul\":3512:3617   */\n      tag_190\n      jump\t// in\n    tag_212:\n        /* \"#utility.yul\":3505:3617   */\n      swap2\n      pop\n        /* \"#utility.yul\":3634:3637   */\n      dup2\n        /* \"#utility.yul\":3627:3637   */\n      swap1\n      pop\n        /* \"#utility.yul\":3168:3643   */\n      swap6\n      swap5\n      pop\n      pop\n      pop\n      pop\n      pop\n      jump\t// out\n        /* \"#utility.yul\":3649:3871   */\n    tag_34:\n        /* \"#utility.yul\":3742:3746   */\n      0x00\n        /* \"#utility.yul\":3780:3782   */\n      0x20\n        /* \"#utility.yul\":3769:3778   */\n      dup3\n        /* \"#utility.yul\":3765:3783   */\n      add\n        /* \"#utility.yul\":3757:3783   */\n      swap1\n      pop\n        /* \"#utility.yul\":3793:3864   */\n      tag_214\n        /* \"#utility.yul\":3861:3862   */\n      0x00\n        /* \"#utility.yul\":3850:3859   */\n      dup4\n        /* \"#utility.yul\":3846:3863   */\n      add\n        /* \"#utility.yul\":3837:3843   */\n      dup5\n        /* \"#utility.yul\":3793:3864   */\n      tag_182\n      jump\t// in\n    tag_214:\n        /* \"#utility.yul\":3649:3871   */\n      swap3\n      swap2\n      pop\n      pop\n      jump\t// out\n        /* \"#utility.yul\":3877:4131   */\n    tag_55:\n        /* \"#utility.yul\":3986:3990   */\n      0x00\n        /* \"#utility.yul\":4024:4026   */\n      0x20\n        /* \"#utility.yul\":4013:4022   */\n      dup3\n        /* \"#utility.yul\":4009:4027   */\n      add\n        /* \"#utility.yul\":4001:4027   */\n      swap1\n      pop\n        /* \"#utility.yul\":4037:4124   */\n      tag_216\n        /* \"#utility.yul\":4121:4122   */\n      0x00\n        /* \"#utility.yul\":4110:4119   */\n      dup4\n        /* \"#utility.yul\":4106:4123   */\n      add\n        /* \"#utility.yul\":4097:4103   */\n      dup5\n        /* \"#utility.yul\":4037:4124   */\n      tag_178\n      jump\t// in\n    tag_216:\n        /* \"#utility.yul\":3877:4131   */\n      swap3\n      swap2\n      pop\n      pop\n      jump\t// out\n        /* \"#utility.yul\":4137:4347   */\n    tag_23:\n        /* \"#utility.yul\":4224:4228   */\n      0x00\n        /* \"#utility.yul\":4262:4264   */\n      0x20\n        /* \"#utility.yul\":4251:4260   */\n      dup3\n        /* \"#utility.yul\":4247:4265   */\n      add\n        /* \"#utility.yul\":4239:4265   */\n      swap1\n      pop\n        /* \"#utility.yul\":4275:4340   */\n      tag_218\n        /* \"#utility.yul\":4337:4338   */\n      0x00\n        /* \"#utility.yul\":4326:4335   */\n      dup4\n        /* \"#utility.yul\":4322:4339   */\n      add\n        /* \"#utility.yul\":4313:4319   */\n      dup5\n        /* \"#utility.yul\":4275:4340   */\n      tag_186\n      jump\t// in\n    tag_218:\n        /* \"#utility.yul\":4137:4347   */\n      swap3\n      swap2\n      pop\n      pop\n      jump\t// out\n        /* \"#utility.yul\":4353:4666   */\n    tag_30:\n        /* \"#utility.yul\":4466:4470   */\n      0x00\n        /* \"#utility.yul\":4504:4506   */\n      0x20\n        /* \"#utility.yul\":4493:4502   */\n      dup3\n        /* \"#utility.yul\":4489:4507   */\n      add\n        /* \"#utility.yul\":4481:4507   */\n      swap1\n      pop\n        /* \"#utility.yul\":4553:4562   */\n      dup2\n        /* \"#utility.yul\":4547:4551   */\n      dup2\n        /* \"#utility.yul\":4543:4563   */\n      sub\n        /* \"#utility.yul\":4539:4540   */\n      0x00\n        /* \"#utility.yul\":4528:4537   */\n      dup4\n        /* \"#utility.yul\":4524:4541   */\n      add\n        /* \"#utility.yul\":4517:4564   */\n      mstore\n        /* \"#utility.yul\":4581:4659   */\n      tag_220\n        /* \"#utility.yul\":4654:4658   */\n      dup2\n        /* \"#utility.yul\":4645:4651   */\n      dup5\n        /* \"#utility.yul\":4581:4659   */\n      tag_196\n      jump\t// in\n    tag_220:\n        /* \"#utility.yul\":4573:4659   */\n      swap1\n      pop\n        /* \"#utility.yul\":4353:4666   */\n      swap3\n      swap2\n      pop\n      pop\n      jump\t// out\n        /* \"#utility.yul\":4672:4894   */\n    tag_62:\n        /* \"#utility.yul\":4765:4769   */\n      0x00\n        /* \"#utility.yul\":4803:4805   */\n      0x20\n        /* \"#utility.yul\":4792:4801   */\n      dup3\n        /* \"#utility.yul\":4788:4806   */\n      add\n        /* \"#utility.yul\":4780:4806   */\n      swap1\n      pop\n        /* \"#utility.yul\":4816:4887   */\n      tag_222\n        /* \"#utility.yul\":4884:4885   */\n      0x00\n        /* \"#utility.yul\":4873:4882   */\n      dup4\n        /* \"#utility.yul\":4869:4886   */\n      add\n        /* \"#utility.yul\":4860:4866   */\n      dup5\n        /* \"#utility.yul\":4816:4887   */\n      tag_206\n      jump\t// in\n    tag_222:\n        /* \"#utility.yul\":4672:4894   */\n      swap3\n      swap2\n      pop\n      pop\n      jump\t// out\n        /* \"#utility.yul\":4981:5080   */\n    tag_199:\n        /* \"#utility.yul\":5033:5039   */\n      0x00\n        /* \"#utility.yul\":5067:5072   */\n      dup2\n        /* \"#utility.yul\":5061:5073   */\n      mload\n        /* \"#utility.yul\":5051:5073   */\n      swap1\n      pop\n        /* \"#utility.yul\":4981:5080   */\n      swap2\n      swap1\n      pop\n      jump\t// out\n        /* \"#utility.yul\":5086:5255   */\n    tag_201:\n        /* \"#utility.yul\":5170:5181   */\n      0x00\n        /* \"#utility.yul\":5204:5210   */\n      dup3\n        /* \"#utility.yul\":5199:5202   */\n      dup3\n        /* \"#utility.yul\":5192:5211   */\n      mstore\n        /* \"#utility.yul\":5244:5248   */\n      0x20\n        /* \"#utility.yul\":5239:5242   */\n      dup3\n        /* \"#utility.yul\":5235:5249   */\n      add\n        /* \"#utility.yul\":5220:5249   */\n      swap1\n      pop\n        /* \"#utility.yul\":5086:5255   */\n      swap3\n      swap2\n      pop\n      pop\n      jump\t// out\n        /* \"#utility.yul\":5261:5409   */\n    tag_193:\n        /* \"#utility.yul\":5363:5374   */\n      0x00\n        /* \"#utility.yul\":5400:5403   */\n      dup2\n        /* \"#utility.yul\":5385:5403   */\n      swap1\n      pop\n        /* \"#utility.yul\":5261:5409   */\n      swap3\n      swap2\n      pop\n      pop\n      jump\t// out\n        /* \"#utility.yul\":5415:5600   */\n    tag_131:\n        /* \"#utility.yul\":5455:5456   */\n      0x00\n        /* \"#utility.yul\":5472:5492   */\n      tag_229\n        /* \"#utility.yul\":5490:5491   */\n      dup3\n        /* \"#utility.yul\":5472:5492   */\n      tag_209\n      jump\t// in\n    tag_229:\n        /* \"#utility.yul\":5467:5492   */\n      swap2\n      pop\n        /* \"#utility.yul\":5506:5526   */\n      tag_230\n        /* \"#utility.yul\":5524:5525   */\n      dup4\n        /* \"#utility.yul\":5506:5526   */\n      tag_209\n      jump\t// in\n    tag_230:\n        /* \"#utility.yul\":5501:5526   */\n      swap3\n      pop\n        /* \"#utility.yul\":5545:5546   */\n      dup3\n        /* \"#utility.yul\":5535:5570   */\n      tag_231\n      jumpi\n        /* \"#utility.yul\":5550:5568   */\n      tag_232\n      tag_233\n      jump\t// in\n    tag_232:\n        /* \"#utility.yul\":5535:5570   */\n    tag_231:\n        /* \"#utility.yul\":5592:5593   */\n      dup3\n        /* \"#utility.yul\":5589:5590   */\n      dup3\n        /* \"#utility.yul\":5585:5594   */\n      div\n        /* \"#utility.yul\":5580:5594   */\n      swap1\n      pop\n        /* \"#utility.yul\":5415:5600   */\n      swap3\n      swap2\n      pop\n      pop\n      jump\t// out\n        /* \"#utility.yul\":5606:5702   */\n    tag_185:\n        /* \"#utility.yul\":5643:5650   */\n      0x00\n        /* \"#utility.yul\":5672:5696   */\n      tag_235\n        /* \"#utility.yul\":5690:5695   */\n      dup3\n        /* \"#utility.yul\":5672:5696   */\n      tag_236\n      jump\t// in\n    tag_235:\n        /* \"#utility.yul\":5661:5696   */\n      swap1\n      pop\n        /* \"#utility.yul\":5606:5702   */\n      swap2\n      swap1\n      pop\n      jump\t// out\n        /* \"#utility.yul\":5708:5812   */\n    tag_181:\n        /* \"#utility.yul\":5753:5760   */\n      0x00\n        /* \"#utility.yul\":5782:5806   */\n      tag_238\n        /* \"#utility.yul\":5800:5805   */\n      dup3\n        /* \"#utility.yul\":5782:5806   */\n      tag_236\n      jump\t// in\n    tag_238:\n        /* \"#utility.yul\":5771:5806   */\n      swap1\n      pop\n        /* \"#utility.yul\":5708:5812   */\n      swap2\n      swap1\n      pop\n      jump\t// out\n        /* \"#utility.yul\":5818:5908   */\n    tag_189:\n        /* \"#utility.yul\":5852:5859   */\n      0x00\n        /* \"#utility.yul\":5895:5900   */\n      dup2\n        /* \"#utility.yul\":5888:5901   */\n      iszero\n        /* \"#utility.yul\":5881:5902   */\n      iszero\n        /* \"#utility.yul\":5870:5902   */\n      swap1\n      pop\n        /* \"#utility.yul\":5818:5908   */\n      swap2\n      swap1\n      pop\n      jump\t// out\n        /* \"#utility.yul\":5914:5991   */\n    tag_240:\n        /* \"#utility.yul\":5951:5958   */\n      0x00\n        /* \"#utility.yul\":5980:5985   */\n      dup2\n        /* \"#utility.yul\":5969:5985   */\n      swap1\n      pop\n        /* \"#utility.yul\":5914:5991   */\n      swap2\n      swap1\n      pop\n      jump\t// out\n        /* \"#utility.yul\":5997:6123   */\n    tag_236:\n        /* \"#utility.yul\":6034:6041   */\n      0x00\n        /* \"#utility.yul\":6074:6116   */\n      0xffffffffffffffffffffffffffffffffffffffff\n        /* \"#utility.yul\":6067:6072   */\n      dup3\n        /* \"#utility.yul\":6063:6117   */\n      and\n        /* \"#utility.yul\":6052:6117   */\n      swap1\n      pop\n        /* \"#utility.yul\":5997:6123   */\n      swap2\n      swap1\n      pop\n      jump\t// out\n        /* \"#utility.yul\":6129:6206   */\n    tag_209:\n        /* \"#utility.yul\":6166:6173   */\n      0x00\n        /* \"#utility.yul\":6195:6200   */\n      dup2\n        /* \"#utility.yul\":6184:6200   */\n      swap1\n      pop\n        /* \"#utility.yul\":6129:6206   */\n      swap2\n      swap1\n      pop\n      jump\t// out\n        /* \"#utility.yul\":6212:6366   */\n    tag_195:\n        /* \"#utility.yul\":6296:6302   */\n      dup3\n        /* \"#utility.yul\":6291:6294   */\n      dup2\n        /* \"#utility.yul\":6286:6289   */\n      dup4\n        /* \"#utility.yul\":6273:6303   */\n      calldatacopy\n        /* \"#utility.yul\":6358:6359   */\n      0x00\n        /* \"#utility.yul\":6349:6355   */\n      dup4\n        /* \"#utility.yul\":6344:6347   */\n      dup4\n        /* \"#utility.yul\":6340:6356   */\n      add\n        /* \"#utility.yul\":6333:6360   */\n      mstore\n        /* \"#utility.yul\":6212:6366   */\n      pop\n      pop\n      pop\n      jump\t// out\n        /* \"#utility.yul\":6372:6679   */\n    tag_203:\n        /* \"#utility.yul\":6440:6441   */\n      0x00\n        /* \"#utility.yul\":6450:6563   */\n    tag_246:\n        /* \"#utility.yul\":6464:6470   */\n      dup4\n        /* \"#utility.yul\":6461:6462   */\n      dup2\n        /* \"#utility.yul\":6458:6471   */\n      lt\n        /* \"#utility.yul\":6450:6563   */\n      iszero\n      tag_248\n      jumpi\n        /* \"#utility.yul\":6549:6550   */\n      dup1\n        /* \"#utility.yul\":6544:6547   */\n      dup3\n        /* \"#utility.yul\":6540:6551   */\n      add\n        /* \"#utility.yul\":6534:6552   */\n      mload\n        /* \"#utility.yul\":6530:6531   */\n      dup2\n        /* \"#utility.yul\":6525:6528   */\n      dup5\n        /* \"#utility.yul\":6521:6532   */\n      add\n        /* \"#utility.yul\":6514:6553   */\n      mstore\n        /* \"#utility.yul\":6486:6488   */\n      0x20\n        /* \"#utility.yul\":6483:6484   */\n      dup2\n        /* \"#utility.yul\":6479:6489   */\n      add\n        /* \"#utility.yul\":6474:6489   */\n      swap1\n      pop\n        /* \"#utility.yul\":6450:6563   */\n      jump(tag_246)\n    tag_248:\n        /* \"#utility.yul\":6581:6587   */\n      dup4\n        /* \"#utility.yul\":6578:6579   */\n      dup2\n        /* \"#utility.yul\":6575:6588   */\n      gt\n        /* \"#utility.yul\":6572:6673   */\n      iszero\n      tag_249\n      jumpi\n        /* \"#utility.yul\":6661:6662   */\n      0x00\n        /* \"#utility.yul\":6652:6658   */\n      dup5\n        /* \"#utility.yul\":6647:6650   */\n      dup5\n        /* \"#utility.yul\":6643:6659   */\n      add\n        /* \"#utility.yul\":6636:6663   */\n      mstore\n        /* \"#utility.yul\":6572:6673   */\n    tag_249:\n        /* \"#utility.yul\":6421:6679   */\n      pop\n        /* \"#utility.yul\":6372:6679   */\n      pop\n      pop\n      pop\n      jump\t// out\n        /* \"#utility.yul\":6685:7005   */\n    tag_69:\n        /* \"#utility.yul\":6729:6735   */\n      0x00\n        /* \"#utility.yul\":6766:6767   */\n      0x02\n        /* \"#utility.yul\":6760:6764   */\n      dup3\n        /* \"#utility.yul\":6756:6768   */\n      div\n        /* \"#utility.yul\":6746:6768   */\n      swap1\n      pop\n        /* \"#utility.yul\":6813:6814   */\n      0x01\n        /* \"#utility.yul\":6807:6811   */\n      dup3\n        /* \"#utility.yul\":6803:6815   */\n      and\n        /* \"#utility.yul\":6834:6852   */\n      dup1\n        /* \"#utility.yul\":6824:6905   */\n      tag_251\n      jumpi\n        /* \"#utility.yul\":6890:6894   */\n      0x7f\n        /* \"#utility.yul\":6882:6888   */\n      dup3\n        /* \"#utility.yul\":6878:6895   */\n      and\n        /* \"#utility.yul\":6868:6895   */\n      swap2\n      pop\n        /* \"#utility.yul\":6824:6905   */\n    tag_251:\n        /* \"#utility.yul\":6952:6954   */\n      0x20\n        /* \"#utility.yul\":6944:6950   */\n      dup3\n        /* \"#utility.yul\":6941:6955   */\n      lt\n        /* \"#utility.yul\":6921:6939   */\n      dup2\n        /* \"#utility.yul\":6918:6956   */\n      eq\n        /* \"#utility.yul\":6915:6999   */\n      iszero\n      tag_252\n      jumpi\n        /* \"#utility.yul\":6971:6989   */\n      tag_253\n      tag_254\n      jump\t// in\n    tag_253:\n        /* \"#utility.yul\":6915:6999   */\n    tag_252:\n        /* \"#utility.yul\":6736:7005   */\n      pop\n        /* \"#utility.yul\":6685:7005   */\n      swap2\n      swap1\n      pop\n      jump\t// out\n        /* \"#utility.yul\":7197:7377   */\n    tag_233:\n        /* \"#utility.yul\":7245:7322   */\n      0x4e487b7100000000000000000000000000000000000000000000000000000000\n        /* \"#utility.yul\":7242:7243   */\n      0x00\n        /* \"#utility.yul\":7235:7323   */\n      mstore\n        /* \"#utility.yul\":7342:7346   */\n      0x12\n        /* \"#utility.yul\":7339:7340   */\n      0x04\n        /* \"#utility.yul\":7332:7347   */\n      mstore\n        /* \"#utility.yul\":7366:7370   */\n      0x24\n        /* \"#utility.yul\":7363:7364   */\n      0x00\n        /* \"#utility.yul\":7356:7371   */\n      revert\n        /* \"#utility.yul\":7383:7563   */\n    tag_254:\n        /* \"#utility.yul\":7431:7508   */\n      0x4e487b7100000000000000000000000000000000000000000000000000000000\n        /* \"#utility.yul\":7428:7429   */\n      0x00\n        /* \"#utility.yul\":7421:7509   */\n      mstore\n        /* \"#utility.yul\":7528:7532   */\n      0x22\n        /* \"#utility.yul\":7525:7526   */\n      0x04\n        /* \"#utility.yul\":7518:7533   */\n      mstore\n        /* \"#utility.yul\":7552:7556   */\n      0x24\n        /* \"#utility.yul\":7549:7550   */\n      0x00\n        /* \"#utility.yul\":7542:7557   */\n      revert\n        /* \"#utility.yul\":7569:7686   */\n    tag_159:\n        /* \"#utility.yul\":7678:7679   */\n      0x00\n        /* \"#utility.yul\":7675:7676   */\n      dup1\n        /* \"#utility.yul\":7668:7680   */\n      revert\n        /* \"#utility.yul\":7692:7809   */\n    tag_156:\n        /* \"#utility.yul\":7801:7802   */\n      0x00\n        /* \"#utility.yul\":7798:7799   */\n      dup1\n        /* \"#utility.yul\":7791:7803   */\n      revert\n        /* \"#utility.yul\":7815:7932   */\n    tag_162:\n        /* \"#utility.yul\":7924:7925   */\n      0x00\n        /* \"#utility.yul\":7921:7922   */\n      dup1\n        /* \"#utility.yul\":7914:7926   */\n      revert\n        /* \"#utility.yul\":7938:8055   */\n    tag_173:\n        /* \"#utility.yul\":8047:8048   */\n      0x00\n        /* \"#utility.yul\":8044:8045   */\n      dup1\n        /* \"#utility.yul\":8037:8049   */\n      revert\n        /* \"#utility.yul\":8061:8178   */\n    tag_166:\n        /* \"#utility.yul\":8170:8171   */\n      0x00\n        /* \"#utility.yul\":8167:8168   */\n      dup1\n        /* \"#utility.yul\":8160:8172   */\n      revert\n        /* \"#utility.yul\":8184:8286   */\n    tag_205:\n        /* \"#utility.yul\":8225:8231   */\n      0x00\n        /* \"#utility.yul\":8276:8278   */\n      0x1f\n        /* \"#utility.yul\":8272:8279   */\n      not\n        /* \"#utility.yul\":8267:8269   */\n      0x1f\n        /* \"#utility.yul\":8260:8265   */\n      dup4\n        /* \"#utility.yul\":8256:8270   */\n      add\n        /* \"#utility.yul\":8252:8280   */\n      and\n        /* \"#utility.yul\":8242:8280   */\n      swap1\n      pop\n        /* \"#utility.yul\":8184:8286   */\n      swap2\n      swap1\n      pop\n      jump\t// out\n        /* \"#utility.yul\":8292:8414   */\n    tag_151:\n        /* \"#utility.yul\":8365:8389   */\n      tag_266\n        /* \"#utility.yul\":8383:8388   */\n      dup2\n        /* \"#utility.yul\":8365:8389   */\n      tag_240\n      jump\t// in\n    tag_266:\n        /* \"#utility.yul\":8358:8363   */\n      dup2\n        /* \"#utility.yul\":8355:8390   */\n      eq\n        /* \"#utility.yul\":8345:8408   */\n      tag_267\n      jumpi\n        /* \"#utility.yul\":8404:8405   */\n      0x00\n        /* \"#utility.yul\":8401:8402   */\n      dup1\n        /* \"#utility.yul\":8394:8406   */\n      revert\n        /* \"#utility.yul\":8345:8408   */\n    tag_267:\n        /* \"#utility.yul\":8292:8414   */\n      pop\n      jump\t// out\n\n    auxdata: 0xa2646970667358221220c29e478ff0910a47c98887b57a41d5b6b2125b765de24bb1e339a718b0e4910864736f6c63430008070033\n}\n",
				"bytecode": {
					"linkReferences": {},
					"object": "6080604052604051620016a6380380620016a6833981810160405281019062000029919062000198565b816000806101000a81548173ffffffffffffffffffffffffffffffffffffffff021916908373ffffffffffffffffffffffffffffffffffffffff16021790555080600160006101000a81548173ffffffffffffffffffffffffffffffffffffffff021916908373ffffffffffffffffffffffffffffffffffffffff16021790555033600260006101000a81548173ffffffffffffffffffffffffffffffffffffffff021916908373ffffffffffffffffffffffffffffffffffffffff160217905550346003819055506000600460006101000a81548160ff0219169083151502179055506000600460016101000a81548160ff0219169083151502179055506000600760006101000a81548160ff0219169083151502179055506000600760016101000a81548160ff0219169083151502179055506000600a60006101000a81548160ff021916908315150217905550505062000232565b600081519050620001928162000218565b92915050565b60008060408385031215620001b257620001b162000213565b5b6000620001c28582860162000181565b9250506020620001d58582860162000181565b9150509250929050565b6000620001ec82620001f3565b9050919050565b600073ffffffffffffffffffffffffffffffffffffffff82169050919050565b600080fd5b6200022381620001df565b81146200022f57600080fd5b50565b61146480620002426000396000f3fe608060405234801561001057600080fd5b50600436106100ea5760003560e01c8063737ebe581161008c578063deb22e9a11610066578063deb22e9a14610217578063e3ac5d2614610235578063ed87386514610253578063f4e11bbe14610271576100ea565b8063737ebe58146101bf578063a28bfb3e146101dd578063cb1a295f146101f9576100ea565b8063481c6a75116100c8578063481c6a7514610149578063495717e2146101675780634d178640146101855780635ba1b2c7146101a3576100ea565b806303c0f500146100ef57806312fa6feb1461010d5780633d4ffb931461012b575b600080fd5b6100f761027b565b6040516101049190611207565b60405180910390f35b61011561028e565b6040516101229190611207565b60405180910390f35b6101336102a1565b6040516101409190611222565b60405180910390f35b61015161032f565b60405161015e91906111d1565b60405180910390f35b61016f610355565b60405161017c9190611222565b60405180910390f35b61018d6103e3565b60405161019a9190611207565b60405180910390f35b6101bd60048036038101906101b8919061108e565b6103f6565b005b6101c76107c3565b6040516101d49190611207565b60405180910390f35b6101f760048036038101906101f29190611061565b6107d6565b005b610201610aa6565b60405161020e91906111ec565b60405180910390f35b61021f610acc565b60405161022c91906111ec565b60405180910390f35b61023d610af0565b60405161024a9190611244565b60405180910390f35b61025b610af6565b6040516102689190611207565b60405180910390f35b610279610b09565b005b600760019054906101000a900460ff1681565b600a60009054906101000a900460ff1681565b600880546102ae9061135d565b80601f01602080910402602001604051908101604052809291908181526020018280546102da9061135d565b80156103275780601f106102fc57610100808354040283529160200191610327565b820191906000526020600020905b81548152906001019060200180831161030a57829003601f168201915b505050505081565b600260009054906101000a900473ffffffffffffffffffffffffffffffffffffffff1681565b600980546103629061135d565b80601f016020809104026020016040519081016040528092919081815260200182805461038e9061135d565b80156103db5780601f106103b0576101008083540402835291602001916103db565b820191906000526020600020905b8154815290600101906020018083116103be57829003601f168201915b505050505081565b600760009054906101000a900460ff1681565b3360008054906101000a900473ffffffffffffffffffffffffffffffffffffffff1673ffffffffffffffffffffffffffffffffffffffff168173ffffffffffffffffffffffffffffffffffffffff16141580156104a15750600160009054906101000a900473ffffffffffffffffffffffffffffffffffffffff1673ffffffffffffffffffffffffffffffffffffffff168173ffffffffffffffffffffffffffffffffffffffff1614155b156104d8576040517fea42158000000000000000000000000000000000000000000000000000000000815260040160405180910390fd5b60008054906101000a900473ffffffffffffffffffffffffffffffffffffffff1673ffffffffffffffffffffffffffffffffffffffff168173ffffffffffffffffffffffffffffffffffffffff16148015610546575060011515600760009054906101000a900460ff161515145b1561057d576040517fa981eebc00000000000000000000000000000000000000000000000000000000815260040160405180910390fd5b600160009054906101000a900473ffffffffffffffffffffffffffffffffffffffff1673ffffffffffffffffffffffffffffffffffffffff168173ffffffffffffffffffffffffffffffffffffffff161480156105ed575060011515600760019054906101000a900460ff161515145b15610624576040517fa981eebc00000000000000000000000000000000000000000000000000000000815260040160405180910390fd5b60008054906101000a900473ffffffffffffffffffffffffffffffffffffffff1673ffffffffffffffffffffffffffffffffffffffff163373ffffffffffffffffffffffffffffffffffffffff16148015610692575060011515600460009054906101000a900460ff161515145b80156106cb5750848484846040516020016106b094939291906111a9565b60405160208183030381529060405280519060200120600554145b15610702576001600760006101000a81548160ff0219169083151502179055508484600891906106fc929190610f53565b506107bc565b60011515600460019054906101000a900460ff16151514801561075257508484848460405160200161073794939291906111a9565b60405160208183030381529060405280519060200120600654145b15610789576001600760016101000a81548160ff021916908315150217905550848460099190610783929190610f53565b506107bb565b6040517f6701de1400000000000000000000000000000000000000000000000000000000815260040160405180910390fd5b5b5050505050565b600460019054906101000a900460ff1681565b3360008054906101000a900473ffffffffffffffffffffffffffffffffffffffff1673ffffffffffffffffffffffffffffffffffffffff168173ffffffffffffffffffffffffffffffffffffffff16141580156108815750600160009054906101000a900473ffffffffffffffffffffffffffffffffffffffff1673ffffffffffffffffffffffffffffffffffffffff168173ffffffffffffffffffffffffffffffffffffffff1614155b156108b8576040517f5774d9a500000000000000000000000000000000000000000000000000000000815260040160405180910390fd5b60008054906101000a900473ffffffffffffffffffffffffffffffffffffffff1673ffffffffffffffffffffffffffffffffffffffff168173ffffffffffffffffffffffffffffffffffffffff16148015610926575060011515600460009054906101000a900460ff161515145b1561095d576040517fa245b07d00000000000000000000000000000000000000000000000000000000815260040160405180910390fd5b600160009054906101000a900473ffffffffffffffffffffffffffffffffffffffff1673ffffffffffffffffffffffffffffffffffffffff168173ffffffffffffffffffffffffffffffffffffffff161480156109cd575060011515600460019054906101000a900460ff161515145b15610a04576040517fa245b07d00000000000000000000000000000000000000000000000000000000815260040160405180910390fd5b60008054906101000a900473ffffffffffffffffffffffffffffffffffffffff1673ffffffffffffffffffffffffffffffffffffffff163373ffffffffffffffffffffffffffffffffffffffff161415610a7f576001600460006101000a81548160ff02191690831515021790555081600581905550610aa2565b6001600460016101000a81548160ff021916908315150217905550816006819055505b5050565b600160009054906101000a900473ffffffffffffffffffffffffffffffffffffffff1681565b60008054906101000a900473ffffffffffffffffffffffffffffffffffffffff1681565b60035481565b600460009054906101000a900460ff1681565b60011515600a60009054906101000a900460ff1615151415610b57576040517fcda3c43d00000000000000000000000000000000000000000000000000000000815260040160405180910390fd5b600260009054906101000a900473ffffffffffffffffffffffffffffffffffffffff1673ffffffffffffffffffffffffffffffffffffffff163373ffffffffffffffffffffffffffffffffffffffff1614158015610c01575060008054906101000a900473ffffffffffffffffffffffffffffffffffffffff1673ffffffffffffffffffffffffffffffffffffffff163373ffffffffffffffffffffffffffffffffffffffff1614155b8015610c5b5750600160009054906101000a900473ffffffffffffffffffffffffffffffffffffffff1673ffffffffffffffffffffffffffffffffffffffff163373ffffffffffffffffffffffffffffffffffffffff1614155b15610c92576040517f08fbade400000000000000000000000000000000000000000000000000000000815260040160405180910390fd5b60011515600760009054906101000a900460ff161515148015610cc8575060011515600760019054906101000a900460ff161515145b15610cd257610f51565b60011515600760009054906101000a900460ff161515148015610d08575060001515600760019054906101000a900460ff161515145b15610d7b5760008054906101000a900473ffffffffffffffffffffffffffffffffffffffff1673ffffffffffffffffffffffffffffffffffffffff166108fc6003549081150290604051600060405180830381858888f19350505050158015610d75573d6000803e3d6000fd5b50610f50565b60001515600760009054906101000a900460ff161515148015610db1575060011515600760019054906101000a900460ff161515145b15610e2657600160009054906101000a900473ffffffffffffffffffffffffffffffffffffffff1673ffffffffffffffffffffffffffffffffffffffff166108fc6003549081150290604051600060405180830381858888f19350505050158015610e20573d6000803e3d6000fd5b50610f4f565b60001515600760009054906101000a900460ff161515148015610e5c575060001515600760019054906101000a900460ff161515145b15610f4e5760008054906101000a900473ffffffffffffffffffffffffffffffffffffffff1673ffffffffffffffffffffffffffffffffffffffff166108fc6002600354610eaa9190611286565b9081150290604051600060405180830381858888f19350505050158015610ed5573d6000803e3d6000fd5b50600160009054906101000a900473ffffffffffffffffffffffffffffffffffffffff1673ffffffffffffffffffffffffffffffffffffffff166108fc6002600354610f219190611286565b9081150290604051600060405180830381858888f19350505050158015610f4c573d6000803e3d6000fd5b505b5b5b5b565b828054610f5f9061135d565b90600052602060002090601f016020900481019282610f815760008555610fc8565b82601f10610f9a57803560ff1916838001178555610fc8565b82800160010185558215610fc8579182015b82811115610fc7578235825591602001919060010190610fac565b5b509050610fd59190610fd9565b5090565b5b80821115610ff2576000816000905550600101610fda565b5090565b60008135905061100581611417565b92915050565b60008083601f840112611021576110206113f2565b5b8235905067ffffffffffffffff81111561103e5761103d6113ed565b5b60208301915083600182028301111561105a576110596113f7565b5b9250929050565b60006020828403121561107757611076611401565b5b600061108584828501610ff6565b91505092915050565b600080600080604085870312156110a8576110a7611401565b5b600085013567ffffffffffffffff8111156110c6576110c56113fc565b5b6110d28782880161100b565b9450945050602085013567ffffffffffffffff8111156110f5576110f46113fc565b5b6111018782880161100b565b925092505092959194509250565b611118816112c9565b82525050565b611127816112b7565b82525050565b611136816112db565b82525050565b6000611148838561127b565b935061115583858461131b565b82840190509392505050565b600061116c8261125f565b611176818561126a565b935061118681856020860161132a565b61118f81611406565b840191505092915050565b6111a381611311565b82525050565b60006111b682868861113c565b91506111c382848661113c565b915081905095945050505050565b60006020820190506111e6600083018461111e565b92915050565b6000602082019050611201600083018461110f565b92915050565b600060208201905061121c600083018461112d565b92915050565b6000602082019050818103600083015261123c8184611161565b905092915050565b6000602082019050611259600083018461119a565b92915050565b600081519050919050565b600082825260208201905092915050565b600081905092915050565b600061129182611311565b915061129c83611311565b9250826112ac576112ab61138f565b5b828204905092915050565b60006112c2826112f1565b9050919050565b60006112d4826112f1565b9050919050565b60008115159050919050565b6000819050919050565b600073ffffffffffffffffffffffffffffffffffffffff82169050919050565b6000819050919050565b82818337600083830152505050565b60005b8381101561134857808201518184015260208101905061132d565b83811115611357576000848401525b50505050565b6000600282049050600182168061137557607f821691505b60208210811415611389576113886113be565b5b50919050565b7f4e487b7100000000000000000000000000000000000000000000000000000000600052601260045260246000fd5b7f4e487b7100000000000000000000000000000000000000000000000000000000600052602260045260246000fd5b600080fd5b600080fd5b600080fd5b600080fd5b600080fd5b6000601f19601f8301169050919050565b611420816112e7565b811461142b57600080fd5b5056fea2646970667358221220c29e478ff0910a47c98887b57a41d5b6b2125b765de24bb1e339a718b0e4910864736f6c63430008070033",
					"opcodes": "PUSH1 0x80 PUSH1 0x40 MSTORE PUSH1 0x40 MLOAD PUSH3 0x16A6 CODESIZE SUB DUP1 PUSH3 0x16A6 DUP4 CODECOPY DUP2 DUP2 ADD PUSH1 0x40 MSTORE DUP2 ADD SWAP1 PUSH3 0x29 SWAP2 SWAP1 PUSH3 0x198 JUMP JUMPDEST DUP2 PUSH1 0x0 DUP1 PUSH2 0x100 EXP DUP2 SLOAD DUP2 PUSH20 0xFFFFFFFFFFFFFFFFFFFFFFFFFFFFFFFFFFFFFFFF MUL NOT AND SWAP1 DUP4 PUSH20 0xFFFFFFFFFFFFFFFFFFFFFFFFFFFFFFFFFFFFFFFF AND MUL OR SWAP1 SSTORE POP DUP1 PUSH1 0x1 PUSH1 0x0 PUSH2 0x100 EXP DUP2 SLOAD DUP2 PUSH20 0xFFFFFFFFFFFFFFFFFFFFFFFFFFFFFFFFFFFFFFFF MUL NOT AND SWAP1 DUP4 PUSH20 0xFFFFFFFFFFFFFFFFFFFFFFFFFFFFFFFFFFFFFFFF AND MUL OR SWAP1 SSTORE POP CALLER PUSH1 0x2 PUSH1 0x0 PUSH2 0x100 EXP DUP2 SLOAD DUP2 PUSH20 0xFFFFFFFFFFFFFFFFFFFFFFFFFFFFFFFFFFFFFFFF MUL NOT AND SWAP1 DUP4 PUSH20 0xFFFFFFFFFFFFFFFFFFFFFFFFFFFFFFFFFFFFFFFF AND MUL OR SWAP1 SSTORE POP CALLVALUE PUSH1 0x3 DUP2 SWAP1 SSTORE POP PUSH1 0x0 PUSH1 0x4 PUSH1 0x0 PUSH2 0x100 EXP DUP2 SLOAD DUP2 PUSH1 0xFF MUL NOT AND SWAP1 DUP4 ISZERO ISZERO MUL OR SWAP1 SSTORE POP PUSH1 0x0 PUSH1 0x4 PUSH1 0x1 PUSH2 0x100 EXP DUP2 SLOAD DUP2 PUSH1 0xFF MUL NOT AND SWAP1 DUP4 ISZERO ISZERO MUL OR SWAP1 SSTORE POP PUSH1 0x0 PUSH1 0x7 PUSH1 0x0 PUSH2 0x100 EXP DUP2 SLOAD DUP2 PUSH1 0xFF MUL NOT AND SWAP1 DUP4 ISZERO ISZERO MUL OR SWAP1 SSTORE POP PUSH1 0x0 PUSH1 0x7 PUSH1 0x1 PUSH2 0x100 EXP DUP2 SLOAD DUP2 PUSH1 0xFF MUL NOT AND SWAP1 DUP4 ISZERO ISZERO MUL OR SWAP1 SSTORE POP PUSH1 0x0 PUSH1 0xA PUSH1 0x0 PUSH2 0x100 EXP DUP2 SLOAD DUP2 PUSH1 0xFF MUL NOT AND SWAP1 DUP4 ISZERO ISZERO MUL OR SWAP1 SSTORE POP POP POP PUSH3 0x232 JUMP JUMPDEST PUSH1 0x0 DUP2 MLOAD SWAP1 POP PUSH3 0x192 DUP2 PUSH3 0x218 JUMP JUMPDEST SWAP3 SWAP2 POP POP JUMP JUMPDEST PUSH1 0x0 DUP1 PUSH1 0x40 DUP4 DUP6 SUB SLT ISZERO PUSH3 0x1B2 JUMPI PUSH3 0x1B1 PUSH3 0x213 JUMP JUMPDEST JUMPDEST PUSH1 0x0 PUSH3 0x1C2 DUP6 DUP3 DUP7 ADD PUSH3 0x181 JUMP JUMPDEST SWAP3 POP POP PUSH1 0x20 PUSH3 0x1D5 DUP6 DUP3 DUP7 ADD PUSH3 0x181 JUMP JUMPDEST SWAP2 POP POP SWAP3 POP SWAP3 SWAP1 POP JUMP JUMPDEST PUSH1 0x0 PUSH3 0x1EC DUP3 PUSH3 0x1F3 JUMP JUMPDEST SWAP1 POP SWAP2 SWAP1 POP JUMP JUMPDEST PUSH1 0x0 PUSH20 0xFFFFFFFFFFFFFFFFFFFFFFFFFFFFFFFFFFFFFFFF DUP3 AND SWAP1 POP SWAP2 SWAP1 POP JUMP JUMPDEST PUSH1 0x0 DUP1 REVERT JUMPDEST PUSH3 0x223 DUP2 PUSH3 0x1DF JUMP JUMPDEST DUP2 EQ PUSH3 0x22F JUMPI PUSH1 0x0 DUP1 REVERT JUMPDEST POP JUMP JUMPDEST PUSH2 0x1464 DUP1 PUSH3 0x242 PUSH1 0x0 CODECOPY PUSH1 0x0 RETURN INVALID PUSH1 0x80 PUSH1 0x40 MSTORE CALLVALUE DUP1 ISZERO PUSH2 0x10 JUMPI PUSH1 0x0 DUP1 REVERT JUMPDEST POP PUSH1 0x4 CALLDATASIZE LT PUSH2 0xEA JUMPI PUSH1 0x0 CALLDATALOAD PUSH1 0xE0 SHR DUP1 PUSH4 0x737EBE58 GT PUSH2 0x8C JUMPI DUP1 PUSH4 0xDEB22E9A GT PUSH2 0x66 JUMPI DUP1 PUSH4 0xDEB22E9A EQ PUSH2 0x217 JUMPI DUP1 PUSH4 0xE3AC5D26 EQ PUSH2 0x235 JUMPI DUP1 PUSH4 0xED873865 EQ PUSH2 0x253 JUMPI DUP1 PUSH4 0xF4E11BBE EQ PUSH2 0x271 JUMPI PUSH2 0xEA JUMP JUMPDEST DUP1 PUSH4 0x737EBE58 EQ PUSH2 0x1BF JUMPI DUP1 PUSH4 0xA28BFB3E EQ PUSH2 0x1DD JUMPI DUP1 PUSH4 0xCB1A295F EQ PUSH2 0x1F9 JUMPI PUSH2 0xEA JUMP JUMPDEST DUP1 PUSH4 0x481C6A75 GT PUSH2 0xC8 JUMPI DUP1 PUSH4 0x481C6A75 EQ PUSH2 0x149 JUMPI DUP1 PUSH4 0x495717E2 EQ PUSH2 0x167 JUMPI DUP1 PUSH4 0x4D178640 EQ PUSH2 0x185 JUMPI DUP1 PUSH4 0x5BA1B2C7 EQ PUSH2 0x1A3 JUMPI PUSH2 0xEA JUMP JUMPDEST DUP1 PUSH4 0x3C0F500 EQ PUSH2 0xEF JUMPI DUP1 PUSH4 0x12FA6FEB EQ PUSH2 0x10D JUMPI DUP1 PUSH4 0x3D4FFB93 EQ PUSH2 0x12B JUMPI JUMPDEST PUSH1 0x0 DUP1 REVERT JUMPDEST PUSH2 0xF7 PUSH2 0x27B JUMP JUMPDEST PUSH1 0x40 MLOAD PUSH2 0x104 SWAP2 SWAP1 PUSH2 0x1207 JUMP JUMPDEST PUSH1 0x40 MLOAD DUP1 SWAP2 SUB SWAP1 RETURN JUMPDEST PUSH2 0x115 PUSH2 0x28E JUMP JUMPDEST PUSH1 0x40 MLOAD PUSH2 0x122 SWAP2 SWAP1 PUSH2 0x1207 JUMP JUMPDEST PUSH1 0x40 MLOAD DUP1 SWAP2 SUB SWAP1 RETURN JUMPDEST PUSH2 0x133 PUSH2 0x2A1 JUMP JUMPDEST PUSH1 0x40 MLOAD PUSH2 0x140 SWAP2 SWAP1 PUSH2 0x1222 JUMP JUMPDEST PUSH1 0x40 MLOAD DUP1 SWAP2 SUB SWAP1 RETURN JUMPDEST PUSH2 0x151 PUSH2 0x32F JUMP JUMPDEST PUSH1 0x40 MLOAD PUSH2 0x15E SWAP2 SWAP1 PUSH2 0x11D1 JUMP JUMPDEST PUSH1 0x40 MLOAD DUP1 SWAP2 SUB SWAP1 RETURN JUMPDEST PUSH2 0x16F PUSH2 0x355 JUMP JUMPDEST PUSH1 0x40 MLOAD PUSH2 0x17C SWAP2 SWAP1 PUSH2 0x1222 JUMP JUMPDEST PUSH1 0x40 MLOAD DUP1 SWAP2 SUB SWAP1 RETURN JUMPDEST PUSH2 0x18D PUSH2 0x3E3 JUMP JUMPDEST PUSH1 0x40 MLOAD PUSH2 0x19A SWAP2 SWAP1 PUSH2 0x1207 JUMP JUMPDEST PUSH1 0x40 MLOAD DUP1 SWAP2 SUB SWAP1 RETURN JUMPDEST PUSH2 0x1BD PUSH1 0x4 DUP1 CALLDATASIZE SUB DUP2 ADD SWAP1 PUSH2 0x1B8 SWAP2 SWAP1 PUSH2 0x108E JUMP JUMPDEST PUSH2 0x3F6 JUMP JUMPDEST STOP JUMPDEST PUSH2 0x1C7 PUSH2 0x7C3 JUMP JUMPDEST PUSH1 0x40 MLOAD PUSH2 0x1D4 SWAP2 SWAP1 PUSH2 0x1207 JUMP JUMPDEST PUSH1 0x40 MLOAD DUP1 SWAP2 SUB SWAP1 RETURN JUMPDEST PUSH2 0x1F7 PUSH1 0x4 DUP1 CALLDATASIZE SUB DUP2 ADD SWAP1 PUSH2 0x1F2 SWAP2 SWAP1 PUSH2 0x1061 JUMP JUMPDEST PUSH2 0x7D6 JUMP JUMPDEST STOP JUMPDEST PUSH2 0x201 PUSH2 0xAA6 JUMP JUMPDEST PUSH1 0x40 MLOAD PUSH2 0x20E SWAP2 SWAP1 PUSH2 0x11EC JUMP JUMPDEST PUSH1 0x40 MLOAD DUP1 SWAP2 SUB SWAP1 RETURN JUMPDEST PUSH2 0x21F PUSH2 0xACC JUMP JUMPDEST PUSH1 0x40 MLOAD PUSH2 0x22C SWAP2 SWAP1 PUSH2 0x11EC JUMP JUMPDEST PUSH1 0x40 MLOAD DUP1 SWAP2 SUB SWAP1 RETURN JUMPDEST PUSH2 0x23D PUSH2 0xAF0 JUMP JUMPDEST PUSH1 0x40 MLOAD PUSH2 0x24A SWAP2 SWAP1 PUSH2 0x1244 JUMP JUMPDEST PUSH1 0x40 MLOAD DUP1 SWAP2 SUB SWAP1 RETURN JUMPDEST PUSH2 0x25B PUSH2 0xAF6 JUMP JUMPDEST PUSH1 0x40 MLOAD PUSH2 0x268 SWAP2 SWAP1 PUSH2 0x1207 JUMP JUMPDEST PUSH1 0x40 MLOAD DUP1 SWAP2 SUB SWAP1 RETURN JUMPDEST PUSH2 0x279 PUSH2 0xB09 JUMP JUMPDEST STOP JUMPDEST PUSH1 0x7 PUSH1 0x1 SWAP1 SLOAD SWAP1 PUSH2 0x100 EXP SWAP1 DIV PUSH1 0xFF AND DUP2 JUMP JUMPDEST PUSH1 0xA PUSH1 0x0 SWAP1 SLOAD SWAP1 PUSH2 0x100 EXP SWAP1 DIV PUSH1 0xFF AND DUP2 JUMP JUMPDEST PUSH1 0x8 DUP1 SLOAD PUSH2 0x2AE SWAP1 PUSH2 0x135D JUMP JUMPDEST DUP1 PUSH1 0x1F ADD PUSH1 0x20 DUP1 SWAP2 DIV MUL PUSH1 0x20 ADD PUSH1 0x40 MLOAD SWAP1 DUP2 ADD PUSH1 0x40 MSTORE DUP1 SWAP3 SWAP2 SWAP1 DUP2 DUP2 MSTORE PUSH1 0x20 ADD DUP3 DUP1 SLOAD PUSH2 0x2DA SWAP1 PUSH2 0x135D JUMP JUMPDEST DUP1 ISZERO PUSH2 0x327 JUMPI DUP1 PUSH1 0x1F LT PUSH2 0x2FC JUMPI PUSH2 0x100 DUP1 DUP4 SLOAD DIV MUL DUP4 MSTORE SWAP2 PUSH1 0x20 ADD SWAP2 PUSH2 0x327 JUMP JUMPDEST DUP3 ADD SWAP2 SWAP1 PUSH1 0x0 MSTORE PUSH1 0x20 PUSH1 0x0 KECCAK256 SWAP1 JUMPDEST DUP2 SLOAD DUP2 MSTORE SWAP1 PUSH1 0x1 ADD SWAP1 PUSH1 0x20 ADD DUP1 DUP4 GT PUSH2 0x30A JUMPI DUP3 SWAP1 SUB PUSH1 0x1F AND DUP3 ADD SWAP2 JUMPDEST POP POP POP POP POP DUP2 JUMP JUMPDEST PUSH1 0x2 PUSH1 0x0 SWAP1 SLOAD SWAP1 PUSH2 0x100 EXP SWAP1 DIV PUSH20 0xFFFFFFFFFFFFFFFFFFFFFFFFFFFFFFFFFFFFFFFF AND DUP2 JUMP JUMPDEST PUSH1 0x9 DUP1 SLOAD PUSH2 0x362 SWAP1 PUSH2 0x135D JUMP JUMPDEST DUP1 PUSH1 0x1F ADD PUSH1 0x20 DUP1 SWAP2 DIV MUL PUSH1 0x20 ADD PUSH1 0x40 MLOAD SWAP1 DUP2 ADD PUSH1 0x40 MSTORE DUP1 SWAP3 SWAP2 SWAP1 DUP2 DUP2 MSTORE PUSH1 0x20 ADD DUP3 DUP1 SLOAD PUSH2 0x38E SWAP1 PUSH2 0x135D JUMP JUMPDEST DUP1 ISZERO PUSH2 0x3DB JUMPI DUP1 PUSH1 0x1F LT PUSH2 0x3B0 JUMPI PUSH2 0x100 DUP1 DUP4 SLOAD DIV MUL DUP4 MSTORE SWAP2 PUSH1 0x20 ADD SWAP2 PUSH2 0x3DB JUMP JUMPDEST DUP3 ADD SWAP2 SWAP1 PUSH1 0x0 MSTORE PUSH1 0x20 PUSH1 0x0 KECCAK256 SWAP1 JUMPDEST DUP2 SLOAD DUP2 MSTORE SWAP1 PUSH1 0x1 ADD SWAP1 PUSH1 0x20 ADD DUP1 DUP4 GT PUSH2 0x3BE JUMPI DUP3 SWAP1 SUB PUSH1 0x1F AND DUP3 ADD SWAP2 JUMPDEST POP POP POP POP POP DUP2 JUMP JUMPDEST PUSH1 0x7 PUSH1 0x0 SWAP1 SLOAD SWAP1 PUSH2 0x100 EXP SWAP1 DIV PUSH1 0xFF AND DUP2 JUMP JUMPDEST CALLER PUSH1 0x0 DUP1 SLOAD SWAP1 PUSH2 0x100 EXP SWAP1 DIV PUSH20 0xFFFFFFFFFFFFFFFFFFFFFFFFFFFFFFFFFFFFFFFF AND PUSH20 0xFFFFFFFFFFFFFFFFFFFFFFFFFFFFFFFFFFFFFFFF AND DUP2 PUSH20 0xFFFFFFFFFFFFFFFFFFFFFFFFFFFFFFFFFFFFFFFF AND EQ ISZERO DUP1 ISZERO PUSH2 0x4A1 JUMPI POP PUSH1 0x1 PUSH1 0x0 SWAP1 SLOAD SWAP1 PUSH2 0x100 EXP SWAP1 DIV PUSH20 0xFFFFFFFFFFFFFFFFFFFFFFFFFFFFFFFFFFFFFFFF AND PUSH20 0xFFFFFFFFFFFFFFFFFFFFFFFFFFFFFFFFFFFFFFFF AND DUP2 PUSH20 0xFFFFFFFFFFFFFFFFFFFFFFFFFFFFFFFFFFFFFFFF AND EQ ISZERO JUMPDEST ISZERO PUSH2 0x4D8 JUMPI PUSH1 0x40 MLOAD PUSH32 0xEA42158000000000000000000000000000000000000000000000000000000000 DUP2 MSTORE PUSH1 0x4 ADD PUSH1 0x40 MLOAD DUP1 SWAP2 SUB SWAP1 REVERT JUMPDEST PUSH1 0x0 DUP1 SLOAD SWAP1 PUSH2 0x100 EXP SWAP1 DIV PUSH20 0xFFFFFFFFFFFFFFFFFFFFFFFFFFFFFFFFFFFFFFFF AND PUSH20 0xFFFFFFFFFFFFFFFFFFFFFFFFFFFFFFFFFFFFFFFF AND DUP2 PUSH20 0xFFFFFFFFFFFFFFFFFFFFFFFFFFFFFFFFFFFFFFFF AND EQ DUP1 ISZERO PUSH2 0x546 JUMPI POP PUSH1 0x1 ISZERO ISZERO PUSH1 0x7 PUSH1 0x0 SWAP1 SLOAD SWAP1 PUSH2 0x100 EXP SWAP1 DIV PUSH1 0xFF AND ISZERO ISZERO EQ JUMPDEST ISZERO PUSH2 0x57D JUMPI PUSH1 0x40 MLOAD PUSH32 0xA981EEBC00000000000000000000000000000000000000000000000000000000 DUP2 MSTORE PUSH1 0x4 ADD PUSH1 0x40 MLOAD DUP1 SWAP2 SUB SWAP1 REVERT JUMPDEST PUSH1 0x1 PUSH1 0x0 SWAP1 SLOAD SWAP1 PUSH2 0x100 EXP SWAP1 DIV PUSH20 0xFFFFFFFFFFFFFFFFFFFFFFFFFFFFFFFFFFFFFFFF AND PUSH20 0xFFFFFFFFFFFFFFFFFFFFFFFFFFFFFFFFFFFFFFFF AND DUP2 PUSH20 0xFFFFFFFFFFFFFFFFFFFFFFFFFFFFFFFFFFFFFFFF AND EQ DUP1 ISZERO PUSH2 0x5ED JUMPI POP PUSH1 0x1 ISZERO ISZERO PUSH1 0x7 PUSH1 0x1 SWAP1 SLOAD SWAP1 PUSH2 0x100 EXP SWAP1 DIV PUSH1 0xFF AND ISZERO ISZERO EQ JUMPDEST ISZERO PUSH2 0x624 JUMPI PUSH1 0x40 MLOAD PUSH32 0xA981EEBC00000000000000000000000000000000000000000000000000000000 DUP2 MSTORE PUSH1 0x4 ADD PUSH1 0x40 MLOAD DUP1 SWAP2 SUB SWAP1 REVERT JUMPDEST PUSH1 0x0 DUP1 SLOAD SWAP1 PUSH2 0x100 EXP SWAP1 DIV PUSH20 0xFFFFFFFFFFFFFFFFFFFFFFFFFFFFFFFFFFFFFFFF AND PUSH20 0xFFFFFFFFFFFFFFFFFFFFFFFFFFFFFFFFFFFFFFFF AND CALLER PUSH20 0xFFFFFFFFFFFFFFFFFFFFFFFFFFFFFFFFFFFFFFFF AND EQ DUP1 ISZERO PUSH2 0x692 JUMPI POP PUSH1 0x1 ISZERO ISZERO PUSH1 0x4 PUSH1 0x0 SWAP1 SLOAD SWAP1 PUSH2 0x100 EXP SWAP1 DIV PUSH1 0xFF AND ISZERO ISZERO EQ JUMPDEST DUP1 ISZERO PUSH2 0x6CB JUMPI POP DUP5 DUP5 DUP5 DUP5 PUSH1 0x40 MLOAD PUSH1 0x20 ADD PUSH2 0x6B0 SWAP5 SWAP4 SWAP3 SWAP2 SWAP1 PUSH2 0x11A9 JUMP JUMPDEST PUSH1 0x40 MLOAD PUSH1 0x20 DUP2 DUP4 SUB SUB DUP2 MSTORE SWAP1 PUSH1 0x40 MSTORE DUP1 MLOAD SWAP1 PUSH1 0x20 ADD KECCAK256 PUSH1 0x5 SLOAD EQ JUMPDEST ISZERO PUSH2 0x702 JUMPI PUSH1 0x1 PUSH1 0x7 PUSH1 0x0 PUSH2 0x100 EXP DUP2 SLOAD DUP2 PUSH1 0xFF MUL NOT AND SWAP1 DUP4 ISZERO ISZERO MUL OR SWAP1 SSTORE POP DUP5 DUP5 PUSH1 0x8 SWAP2 SWAP1 PUSH2 0x6FC SWAP3 SWAP2 SWAP1 PUSH2 0xF53 JUMP JUMPDEST POP PUSH2 0x7BC JUMP JUMPDEST PUSH1 0x1 ISZERO ISZERO PUSH1 0x4 PUSH1 0x1 SWAP1 SLOAD SWAP1 PUSH2 0x100 EXP SWAP1 DIV PUSH1 0xFF AND ISZERO ISZERO EQ DUP1 ISZERO PUSH2 0x752 JUMPI POP DUP5 DUP5 DUP5 DUP5 PUSH1 0x40 MLOAD PUSH1 0x20 ADD PUSH2 0x737 SWAP5 SWAP4 SWAP3 SWAP2 SWAP1 PUSH2 0x11A9 JUMP JUMPDEST PUSH1 0x40 MLOAD PUSH1 0x20 DUP2 DUP4 SUB SUB DUP2 MSTORE SWAP1 PUSH1 0x40 MSTORE DUP1 MLOAD SWAP1 PUSH1 0x20 ADD KECCAK256 PUSH1 0x6 SLOAD EQ JUMPDEST ISZERO PUSH2 0x789 JUMPI PUSH1 0x1 PUSH1 0x7 PUSH1 0x1 PUSH2 0x100 EXP DUP2 SLOAD DUP2 PUSH1 0xFF MUL NOT AND SWAP1 DUP4 ISZERO ISZERO MUL OR SWAP1 SSTORE POP DUP5 DUP5 PUSH1 0x9 SWAP2 SWAP1 PUSH2 0x783 SWAP3 SWAP2 SWAP1 PUSH2 0xF53 JUMP JUMPDEST POP PUSH2 0x7BB JUMP JUMPDEST PUSH1 0x40 MLOAD PUSH32 0x6701DE1400000000000000000000000000000000000000000000000000000000 DUP2 MSTORE PUSH1 0x4 ADD PUSH1 0x40 MLOAD DUP1 SWAP2 SUB SWAP1 REVERT JUMPDEST JUMPDEST POP POP POP POP POP JUMP JUMPDEST PUSH1 0x4 PUSH1 0x1 SWAP1 SLOAD SWAP1 PUSH2 0x100 EXP SWAP1 DIV PUSH1 0xFF AND DUP2 JUMP JUMPDEST CALLER PUSH1 0x0 DUP1 SLOAD SWAP1 PUSH2 0x100 EXP SWAP1 DIV PUSH20 0xFFFFFFFFFFFFFFFFFFFFFFFFFFFFFFFFFFFFFFFF AND PUSH20 0xFFFFFFFFFFFFFFFFFFFFFFFFFFFFFFFFFFFFFFFF AND DUP2 PUSH20 0xFFFFFFFFFFFFFFFFFFFFFFFFFFFFFFFFFFFFFFFF AND EQ ISZERO DUP1 ISZERO PUSH2 0x881 JUMPI POP PUSH1 0x1 PUSH1 0x0 SWAP1 SLOAD SWAP1 PUSH2 0x100 EXP SWAP1 DIV PUSH20 0xFFFFFFFFFFFFFFFFFFFFFFFFFFFFFFFFFFFFFFFF AND PUSH20 0xFFFFFFFFFFFFFFFFFFFFFFFFFFFFFFFFFFFFFFFF AND DUP2 PUSH20 0xFFFFFFFFFFFFFFFFFFFFFFFFFFFFFFFFFFFFFFFF AND EQ ISZERO JUMPDEST ISZERO PUSH2 0x8B8 JUMPI PUSH1 0x40 MLOAD PUSH32 0x5774D9A500000000000000000000000000000000000000000000000000000000 DUP2 MSTORE PUSH1 0x4 ADD PUSH1 0x40 MLOAD DUP1 SWAP2 SUB SWAP1 REVERT JUMPDEST PUSH1 0x0 DUP1 SLOAD SWAP1 PUSH2 0x100 EXP SWAP1 DIV PUSH20 0xFFFFFFFFFFFFFFFFFFFFFFFFFFFFFFFFFFFFFFFF AND PUSH20 0xFFFFFFFFFFFFFFFFFFFFFFFFFFFFFFFFFFFFFFFF AND DUP2 PUSH20 0xFFFFFFFFFFFFFFFFFFFFFFFFFFFFFFFFFFFFFFFF AND EQ DUP1 ISZERO PUSH2 0x926 JUMPI POP PUSH1 0x1 ISZERO ISZERO PUSH1 0x4 PUSH1 0x0 SWAP1 SLOAD SWAP1 PUSH2 0x100 EXP SWAP1 DIV PUSH1 0xFF AND ISZERO ISZERO EQ JUMPDEST ISZERO PUSH2 0x95D JUMPI PUSH1 0x40 MLOAD PUSH32 0xA245B07D00000000000000000000000000000000000000000000000000000000 DUP2 MSTORE PUSH1 0x4 ADD PUSH1 0x40 MLOAD DUP1 SWAP2 SUB SWAP1 REVERT JUMPDEST PUSH1 0x1 PUSH1 0x0 SWAP1 SLOAD SWAP1 PUSH2 0x100 EXP SWAP1 DIV PUSH20 0xFFFFFFFFFFFFFFFFFFFFFFFFFFFFFFFFFFFFFFFF AND PUSH20 0xFFFFFFFFFFFFFFFFFFFFFFFFFFFFFFFFFFFFFFFF AND DUP2 PUSH20 0xFFFFFFFFFFFFFFFFFFFFFFFFFFFFFFFFFFFFFFFF AND EQ DUP1 ISZERO PUSH2 0x9CD JUMPI POP PUSH1 0x1 ISZERO ISZERO PUSH1 0x4 PUSH1 0x1 SWAP1 SLOAD SWAP1 PUSH2 0x100 EXP SWAP1 DIV PUSH1 0xFF AND ISZERO ISZERO EQ JUMPDEST ISZERO PUSH2 0xA04 JUMPI PUSH1 0x40 MLOAD PUSH32 0xA245B07D00000000000000000000000000000000000000000000000000000000 DUP2 MSTORE PUSH1 0x4 ADD PUSH1 0x40 MLOAD DUP1 SWAP2 SUB SWAP1 REVERT JUMPDEST PUSH1 0x0 DUP1 SLOAD SWAP1 PUSH2 0x100 EXP SWAP1 DIV PUSH20 0xFFFFFFFFFFFFFFFFFFFFFFFFFFFFFFFFFFFFFFFF AND PUSH20 0xFFFFFFFFFFFFFFFFFFFFFFFFFFFFFFFFFFFFFFFF AND CALLER PUSH20 0xFFFFFFFFFFFFFFFFFFFFFFFFFFFFFFFFFFFFFFFF AND EQ ISZERO PUSH2 0xA7F JUMPI PUSH1 0x1 PUSH1 0x4 PUSH1 0x0 PUSH2 0x100 EXP DUP2 SLOAD DUP2 PUSH1 0xFF MUL NOT AND SWAP1 DUP4 ISZERO ISZERO MUL OR SWAP1 SSTORE POP DUP2 PUSH1 0x5 DUP2 SWAP1 SSTORE POP PUSH2 0xAA2 JUMP JUMPDEST PUSH1 0x1 PUSH1 0x4 PUSH1 0x1 PUSH2 0x100 EXP DUP2 SLOAD DUP2 PUSH1 0xFF MUL NOT AND SWAP1 DUP4 ISZERO ISZERO MUL OR SWAP1 SSTORE POP DUP2 PUSH1 0x6 DUP2 SWAP1 SSTORE POP JUMPDEST POP POP JUMP JUMPDEST PUSH1 0x1 PUSH1 0x0 SWAP1 SLOAD SWAP1 PUSH2 0x100 EXP SWAP1 DIV PUSH20 0xFFFFFFFFFFFFFFFFFFFFFFFFFFFFFFFFFFFFFFFF AND DUP2 JUMP JUMPDEST PUSH1 0x0 DUP1 SLOAD SWAP1 PUSH2 0x100 EXP SWAP1 DIV PUSH20 0xFFFFFFFFFFFFFFFFFFFFFFFFFFFFFFFFFFFFFFFF AND DUP2 JUMP JUMPDEST PUSH1 0x3 SLOAD DUP2 JUMP JUMPDEST PUSH1 0x4 PUSH1 0x0 SWAP1 SLOAD SWAP1 PUSH2 0x100 EXP SWAP1 DIV PUSH1 0xFF AND DUP2 JUMP JUMPDEST PUSH1 0x1 ISZERO ISZERO PUSH1 0xA PUSH1 0x0 SWAP1 SLOAD SWAP1 PUSH2 0x100 EXP SWAP1 DIV PUSH1 0xFF AND ISZERO ISZERO EQ ISZERO PUSH2 0xB57 JUMPI PUSH1 0x40 MLOAD PUSH32 0xCDA3C43D00000000000000000000000000000000000000000000000000000000 DUP2 MSTORE PUSH1 0x4 ADD PUSH1 0x40 MLOAD DUP1 SWAP2 SUB SWAP1 REVERT JUMPDEST PUSH1 0x2 PUSH1 0x0 SWAP1 SLOAD SWAP1 PUSH2 0x100 EXP SWAP1 DIV PUSH20 0xFFFFFFFFFFFFFFFFFFFFFFFFFFFFFFFFFFFFFFFF AND PUSH20 0xFFFFFFFFFFFFFFFFFFFFFFFFFFFFFFFFFFFFFFFF AND CALLER PUSH20 0xFFFFFFFFFFFFFFFFFFFFFFFFFFFFFFFFFFFFFFFF AND EQ ISZERO DUP1 ISZERO PUSH2 0xC01 JUMPI POP PUSH1 0x0 DUP1 SLOAD SWAP1 PUSH2 0x100 EXP SWAP1 DIV PUSH20 0xFFFFFFFFFFFFFFFFFFFFFFFFFFFFFFFFFFFFFFFF AND PUSH20 0xFFFFFFFFFFFFFFFFFFFFFFFFFFFFFFFFFFFFFFFF AND CALLER PUSH20 0xFFFFFFFFFFFFFFFFFFFFFFFFFFFFFFFFFFFFFFFF AND EQ ISZERO JUMPDEST DUP1 ISZERO PUSH2 0xC5B JUMPI POP PUSH1 0x1 PUSH1 0x0 SWAP1 SLOAD SWAP1 PUSH2 0x100 EXP SWAP1 DIV PUSH20 0xFFFFFFFFFFFFFFFFFFFFFFFFFFFFFFFFFFFFFFFF AND PUSH20 0xFFFFFFFFFFFFFFFFFFFFFFFFFFFFFFFFFFFFFFFF AND CALLER PUSH20 0xFFFFFFFFFFFFFFFFFFFFFFFFFFFFFFFFFFFFFFFF AND EQ ISZERO JUMPDEST ISZERO PUSH2 0xC92 JUMPI PUSH1 0x40 MLOAD PUSH32 0x8FBADE400000000000000000000000000000000000000000000000000000000 DUP2 MSTORE PUSH1 0x4 ADD PUSH1 0x40 MLOAD DUP1 SWAP2 SUB SWAP1 REVERT JUMPDEST PUSH1 0x1 ISZERO ISZERO PUSH1 0x7 PUSH1 0x0 SWAP1 SLOAD SWAP1 PUSH2 0x100 EXP SWAP1 DIV PUSH1 0xFF AND ISZERO ISZERO EQ DUP1 ISZERO PUSH2 0xCC8 JUMPI POP PUSH1 0x1 ISZERO ISZERO PUSH1 0x7 PUSH1 0x1 SWAP1 SLOAD SWAP1 PUSH2 0x100 EXP SWAP1 DIV PUSH1 0xFF AND ISZERO ISZERO EQ JUMPDEST ISZERO PUSH2 0xCD2 JUMPI PUSH2 0xF51 JUMP JUMPDEST PUSH1 0x1 ISZERO ISZERO PUSH1 0x7 PUSH1 0x0 SWAP1 SLOAD SWAP1 PUSH2 0x100 EXP SWAP1 DIV PUSH1 0xFF AND ISZERO ISZERO EQ DUP1 ISZERO PUSH2 0xD08 JUMPI POP PUSH1 0x0 ISZERO ISZERO PUSH1 0x7 PUSH1 0x1 SWAP1 SLOAD SWAP1 PUSH2 0x100 EXP SWAP1 DIV PUSH1 0xFF AND ISZERO ISZERO EQ JUMPDEST ISZERO PUSH2 0xD7B JUMPI PUSH1 0x0 DUP1 SLOAD SWAP1 PUSH2 0x100 EXP SWAP1 DIV PUSH20 0xFFFFFFFFFFFFFFFFFFFFFFFFFFFFFFFFFFFFFFFF AND PUSH20 0xFFFFFFFFFFFFFFFFFFFFFFFFFFFFFFFFFFFFFFFF AND PUSH2 0x8FC PUSH1 0x3 SLOAD SWAP1 DUP2 ISZERO MUL SWAP1 PUSH1 0x40 MLOAD PUSH1 0x0 PUSH1 0x40 MLOAD DUP1 DUP4 SUB DUP2 DUP6 DUP9 DUP9 CALL SWAP4 POP POP POP POP ISZERO DUP1 ISZERO PUSH2 0xD75 JUMPI RETURNDATASIZE PUSH1 0x0 DUP1 RETURNDATACOPY RETURNDATASIZE PUSH1 0x0 REVERT JUMPDEST POP PUSH2 0xF50 JUMP JUMPDEST PUSH1 0x0 ISZERO ISZERO PUSH1 0x7 PUSH1 0x0 SWAP1 SLOAD SWAP1 PUSH2 0x100 EXP SWAP1 DIV PUSH1 0xFF AND ISZERO ISZERO EQ DUP1 ISZERO PUSH2 0xDB1 JUMPI POP PUSH1 0x1 ISZERO ISZERO PUSH1 0x7 PUSH1 0x1 SWAP1 SLOAD SWAP1 PUSH2 0x100 EXP SWAP1 DIV PUSH1 0xFF AND ISZERO ISZERO EQ JUMPDEST ISZERO PUSH2 0xE26 JUMPI PUSH1 0x1 PUSH1 0x0 SWAP1 SLOAD SWAP1 PUSH2 0x100 EXP SWAP1 DIV PUSH20 0xFFFFFFFFFFFFFFFFFFFFFFFFFFFFFFFFFFFFFFFF AND PUSH20 0xFFFFFFFFFFFFFFFFFFFFFFFFFFFFFFFFFFFFFFFF AND PUSH2 0x8FC PUSH1 0x3 SLOAD SWAP1 DUP2 ISZERO MUL SWAP1 PUSH1 0x40 MLOAD PUSH1 0x0 PUSH1 0x40 MLOAD DUP1 DUP4 SUB DUP2 DUP6 DUP9 DUP9 CALL SWAP4 POP POP POP POP ISZERO DUP1 ISZERO PUSH2 0xE20 JUMPI RETURNDATASIZE PUSH1 0x0 DUP1 RETURNDATACOPY RETURNDATASIZE PUSH1 0x0 REVERT JUMPDEST POP PUSH2 0xF4F JUMP JUMPDEST PUSH1 0x0 ISZERO ISZERO PUSH1 0x7 PUSH1 0x0 SWAP1 SLOAD SWAP1 PUSH2 0x100 EXP SWAP1 DIV PUSH1 0xFF AND ISZERO ISZERO EQ DUP1 ISZERO PUSH2 0xE5C JUMPI POP PUSH1 0x0 ISZERO ISZERO PUSH1 0x7 PUSH1 0x1 SWAP1 SLOAD SWAP1 PUSH2 0x100 EXP SWAP1 DIV PUSH1 0xFF AND ISZERO ISZERO EQ JUMPDEST ISZERO PUSH2 0xF4E JUMPI PUSH1 0x0 DUP1 SLOAD SWAP1 PUSH2 0x100 EXP SWAP1 DIV PUSH20 0xFFFFFFFFFFFFFFFFFFFFFFFFFFFFFFFFFFFFFFFF AND PUSH20 0xFFFFFFFFFFFFFFFFFFFFFFFFFFFFFFFFFFFFFFFF AND PUSH2 0x8FC PUSH1 0x2 PUSH1 0x3 SLOAD PUSH2 0xEAA SWAP2 SWAP1 PUSH2 0x1286 JUMP JUMPDEST SWAP1 DUP2 ISZERO MUL SWAP1 PUSH1 0x40 MLOAD PUSH1 0x0 PUSH1 0x40 MLOAD DUP1 DUP4 SUB DUP2 DUP6 DUP9 DUP9 CALL SWAP4 POP POP POP POP ISZERO DUP1 ISZERO PUSH2 0xED5 JUMPI RETURNDATASIZE PUSH1 0x0 DUP1 RETURNDATACOPY RETURNDATASIZE PUSH1 0x0 REVERT JUMPDEST POP PUSH1 0x1 PUSH1 0x0 SWAP1 SLOAD SWAP1 PUSH2 0x100 EXP SWAP1 DIV PUSH20 0xFFFFFFFFFFFFFFFFFFFFFFFFFFFFFFFFFFFFFFFF AND PUSH20 0xFFFFFFFFFFFFFFFFFFFFFFFFFFFFFFFFFFFFFFFF AND PUSH2 0x8FC PUSH1 0x2 PUSH1 0x3 SLOAD PUSH2 0xF21 SWAP2 SWAP1 PUSH2 0x1286 JUMP JUMPDEST SWAP1 DUP2 ISZERO MUL SWAP1 PUSH1 0x40 MLOAD PUSH1 0x0 PUSH1 0x40 MLOAD DUP1 DUP4 SUB DUP2 DUP6 DUP9 DUP9 CALL SWAP4 POP POP POP POP ISZERO DUP1 ISZERO PUSH2 0xF4C JUMPI RETURNDATASIZE PUSH1 0x0 DUP1 RETURNDATACOPY RETURNDATASIZE PUSH1 0x0 REVERT JUMPDEST POP JUMPDEST JUMPDEST JUMPDEST JUMPDEST JUMP JUMPDEST DUP3 DUP1 SLOAD PUSH2 0xF5F SWAP1 PUSH2 0x135D JUMP JUMPDEST SWAP1 PUSH1 0x0 MSTORE PUSH1 0x20 PUSH1 0x0 KECCAK256 SWAP1 PUSH1 0x1F ADD PUSH1 0x20 SWAP1 DIV DUP2 ADD SWAP3 DUP3 PUSH2 0xF81 JUMPI PUSH1 0x0 DUP6 SSTORE PUSH2 0xFC8 JUMP JUMPDEST DUP3 PUSH1 0x1F LT PUSH2 0xF9A JUMPI DUP1 CALLDATALOAD PUSH1 0xFF NOT AND DUP4 DUP1 ADD OR DUP6 SSTORE PUSH2 0xFC8 JUMP JUMPDEST DUP3 DUP1 ADD PUSH1 0x1 ADD DUP6 SSTORE DUP3 ISZERO PUSH2 0xFC8 JUMPI SWAP2 DUP3 ADD JUMPDEST DUP3 DUP2 GT ISZERO PUSH2 0xFC7 JUMPI DUP3 CALLDATALOAD DUP3 SSTORE SWAP2 PUSH1 0x20 ADD SWAP2 SWAP1 PUSH1 0x1 ADD SWAP1 PUSH2 0xFAC JUMP JUMPDEST JUMPDEST POP SWAP1 POP PUSH2 0xFD5 SWAP2 SWAP1 PUSH2 0xFD9 JUMP JUMPDEST POP SWAP1 JUMP JUMPDEST JUMPDEST DUP1 DUP3 GT ISZERO PUSH2 0xFF2 JUMPI PUSH1 0x0 DUP2 PUSH1 0x0 SWAP1 SSTORE POP PUSH1 0x1 ADD PUSH2 0xFDA JUMP JUMPDEST POP SWAP1 JUMP JUMPDEST PUSH1 0x0 DUP2 CALLDATALOAD SWAP1 POP PUSH2 0x1005 DUP2 PUSH2 0x1417 JUMP JUMPDEST SWAP3 SWAP2 POP POP JUMP JUMPDEST PUSH1 0x0 DUP1 DUP4 PUSH1 0x1F DUP5 ADD SLT PUSH2 0x1021 JUMPI PUSH2 0x1020 PUSH2 0x13F2 JUMP JUMPDEST JUMPDEST DUP3 CALLDATALOAD SWAP1 POP PUSH8 0xFFFFFFFFFFFFFFFF DUP2 GT ISZERO PUSH2 0x103E JUMPI PUSH2 0x103D PUSH2 0x13ED JUMP JUMPDEST JUMPDEST PUSH1 0x20 DUP4 ADD SWAP2 POP DUP4 PUSH1 0x1 DUP3 MUL DUP4 ADD GT ISZERO PUSH2 0x105A JUMPI PUSH2 0x1059 PUSH2 0x13F7 JUMP JUMPDEST JUMPDEST SWAP3 POP SWAP3 SWAP1 POP JUMP JUMPDEST PUSH1 0x0 PUSH1 0x20 DUP3 DUP5 SUB SLT ISZERO PUSH2 0x1077 JUMPI PUSH2 0x1076 PUSH2 0x1401 JUMP JUMPDEST JUMPDEST PUSH1 0x0 PUSH2 0x1085 DUP5 DUP3 DUP6 ADD PUSH2 0xFF6 JUMP JUMPDEST SWAP2 POP POP SWAP3 SWAP2 POP POP JUMP JUMPDEST PUSH1 0x0 DUP1 PUSH1 0x0 DUP1 PUSH1 0x40 DUP6 DUP8 SUB SLT ISZERO PUSH2 0x10A8 JUMPI PUSH2 0x10A7 PUSH2 0x1401 JUMP JUMPDEST JUMPDEST PUSH1 0x0 DUP6 ADD CALLDATALOAD PUSH8 0xFFFFFFFFFFFFFFFF DUP2 GT ISZERO PUSH2 0x10C6 JUMPI PUSH2 0x10C5 PUSH2 0x13FC JUMP JUMPDEST JUMPDEST PUSH2 0x10D2 DUP8 DUP3 DUP9 ADD PUSH2 0x100B JUMP JUMPDEST SWAP5 POP SWAP5 POP POP PUSH1 0x20 DUP6 ADD CALLDATALOAD PUSH8 0xFFFFFFFFFFFFFFFF DUP2 GT ISZERO PUSH2 0x10F5 JUMPI PUSH2 0x10F4 PUSH2 0x13FC JUMP JUMPDEST JUMPDEST PUSH2 0x1101 DUP8 DUP3 DUP9 ADD PUSH2 0x100B JUMP JUMPDEST SWAP3 POP SWAP3 POP POP SWAP3 SWAP6 SWAP2 SWAP5 POP SWAP3 POP JUMP JUMPDEST PUSH2 0x1118 DUP2 PUSH2 0x12C9 JUMP JUMPDEST DUP3 MSTORE POP POP JUMP JUMPDEST PUSH2 0x1127 DUP2 PUSH2 0x12B7 JUMP JUMPDEST DUP3 MSTORE POP POP JUMP JUMPDEST PUSH2 0x1136 DUP2 PUSH2 0x12DB JUMP JUMPDEST DUP3 MSTORE POP POP JUMP JUMPDEST PUSH1 0x0 PUSH2 0x1148 DUP4 DUP6 PUSH2 0x127B JUMP JUMPDEST SWAP4 POP PUSH2 0x1155 DUP4 DUP6 DUP5 PUSH2 0x131B JUMP JUMPDEST DUP3 DUP5 ADD SWAP1 POP SWAP4 SWAP3 POP POP POP JUMP JUMPDEST PUSH1 0x0 PUSH2 0x116C DUP3 PUSH2 0x125F JUMP JUMPDEST PUSH2 0x1176 DUP2 DUP6 PUSH2 0x126A JUMP JUMPDEST SWAP4 POP PUSH2 0x1186 DUP2 DUP6 PUSH1 0x20 DUP7 ADD PUSH2 0x132A JUMP JUMPDEST PUSH2 0x118F DUP2 PUSH2 0x1406 JUMP JUMPDEST DUP5 ADD SWAP2 POP POP SWAP3 SWAP2 POP POP JUMP JUMPDEST PUSH2 0x11A3 DUP2 PUSH2 0x1311 JUMP JUMPDEST DUP3 MSTORE POP POP JUMP JUMPDEST PUSH1 0x0 PUSH2 0x11B6 DUP3 DUP7 DUP9 PUSH2 0x113C JUMP JUMPDEST SWAP2 POP PUSH2 0x11C3 DUP3 DUP5 DUP7 PUSH2 0x113C JUMP JUMPDEST SWAP2 POP DUP2 SWAP1 POP SWAP6 SWAP5 POP POP POP POP POP JUMP JUMPDEST PUSH1 0x0 PUSH1 0x20 DUP3 ADD SWAP1 POP PUSH2 0x11E6 PUSH1 0x0 DUP4 ADD DUP5 PUSH2 0x111E JUMP JUMPDEST SWAP3 SWAP2 POP POP JUMP JUMPDEST PUSH1 0x0 PUSH1 0x20 DUP3 ADD SWAP1 POP PUSH2 0x1201 PUSH1 0x0 DUP4 ADD DUP5 PUSH2 0x110F JUMP JUMPDEST SWAP3 SWAP2 POP POP JUMP JUMPDEST PUSH1 0x0 PUSH1 0x20 DUP3 ADD SWAP1 POP PUSH2 0x121C PUSH1 0x0 DUP4 ADD DUP5 PUSH2 0x112D JUMP JUMPDEST SWAP3 SWAP2 POP POP JUMP JUMPDEST PUSH1 0x0 PUSH1 0x20 DUP3 ADD SWAP1 POP DUP2 DUP2 SUB PUSH1 0x0 DUP4 ADD MSTORE PUSH2 0x123C DUP2 DUP5 PUSH2 0x1161 JUMP JUMPDEST SWAP1 POP SWAP3 SWAP2 POP POP JUMP JUMPDEST PUSH1 0x0 PUSH1 0x20 DUP3 ADD SWAP1 POP PUSH2 0x1259 PUSH1 0x0 DUP4 ADD DUP5 PUSH2 0x119A JUMP JUMPDEST SWAP3 SWAP2 POP POP JUMP JUMPDEST PUSH1 0x0 DUP2 MLOAD SWAP1 POP SWAP2 SWAP1 POP JUMP JUMPDEST PUSH1 0x0 DUP3 DUP3 MSTORE PUSH1 0x20 DUP3 ADD SWAP1 POP SWAP3 SWAP2 POP POP JUMP JUMPDEST PUSH1 0x0 DUP2 SWAP1 POP SWAP3 SWAP2 POP POP JUMP JUMPDEST PUSH1 0x0 PUSH2 0x1291 DUP3 PUSH2 0x1311 JUMP JUMPDEST SWAP2 POP PUSH2 0x129C DUP4 PUSH2 0x1311 JUMP JUMPDEST SWAP3 POP DUP3 PUSH2 0x12AC JUMPI PUSH2 0x12AB PUSH2 0x138F JUMP JUMPDEST JUMPDEST DUP3 DUP3 DIV SWAP1 POP SWAP3 SWAP2 POP POP JUMP JUMPDEST PUSH1 0x0 PUSH2 0x12C2 DUP3 PUSH2 0x12F1 JUMP JUMPDEST SWAP1 POP SWAP2 SWAP1 POP JUMP JUMPDEST PUSH1 0x0 PUSH2 0x12D4 DUP3 PUSH2 0x12F1 JUMP JUMPDEST SWAP1 POP SWAP2 SWAP1 POP JUMP JUMPDEST PUSH1 0x0 DUP2 ISZERO ISZERO SWAP1 POP SWAP2 SWAP1 POP JUMP JUMPDEST PUSH1 0x0 DUP2 SWAP1 POP SWAP2 SWAP1 POP JUMP JUMPDEST PUSH1 0x0 PUSH20 0xFFFFFFFFFFFFFFFFFFFFFFFFFFFFFFFFFFFFFFFF DUP3 AND SWAP1 POP SWAP2 SWAP1 POP JUMP JUMPDEST PUSH1 0x0 DUP2 SWAP1 POP SWAP2 SWAP1 POP JUMP JUMPDEST DUP3 DUP2 DUP4 CALLDATACOPY PUSH1 0x0 DUP4 DUP4 ADD MSTORE POP POP POP JUMP JUMPDEST PUSH1 0x0 JUMPDEST DUP4 DUP2 LT ISZERO PUSH2 0x1348 JUMPI DUP1 DUP3 ADD MLOAD DUP2 DUP5 ADD MSTORE PUSH1 0x20 DUP2 ADD SWAP1 POP PUSH2 0x132D JUMP JUMPDEST DUP4 DUP2 GT ISZERO PUSH2 0x1357 JUMPI PUSH1 0x0 DUP5 DUP5 ADD MSTORE JUMPDEST POP POP POP POP JUMP JUMPDEST PUSH1 0x0 PUSH1 0x2 DUP3 DIV SWAP1 POP PUSH1 0x1 DUP3 AND DUP1 PUSH2 0x1375 JUMPI PUSH1 0x7F DUP3 AND SWAP2 POP JUMPDEST PUSH1 0x20 DUP3 LT DUP2 EQ ISZERO PUSH2 0x1389 JUMPI PUSH2 0x1388 PUSH2 0x13BE JUMP JUMPDEST JUMPDEST POP SWAP2 SWAP1 POP JUMP JUMPDEST PUSH32 0x4E487B7100000000000000000000000000000000000000000000000000000000 PUSH1 0x0 MSTORE PUSH1 0x12 PUSH1 0x4 MSTORE PUSH1 0x24 PUSH1 0x0 REVERT JUMPDEST PUSH32 0x4E487B7100000000000000000000000000000000000000000000000000000000 PUSH1 0x0 MSTORE PUSH1 0x22 PUSH1 0x4 MSTORE PUSH1 0x24 PUSH1 0x0 REVERT JUMPDEST PUSH1 0x0 DUP1 REVERT JUMPDEST PUSH1 0x0 DUP1 REVERT JUMPDEST PUSH1 0x0 DUP1 REVERT JUMPDEST PUSH1 0x0 DUP1 REVERT JUMPDEST PUSH1 0x0 DUP1 REVERT JUMPDEST PUSH1 0x0 PUSH1 0x1F NOT PUSH1 0x1F DUP4 ADD AND SWAP1 POP SWAP2 SWAP1 POP JUMP JUMPDEST PUSH2 0x1420 DUP2 PUSH2 0x12E7 JUMP JUMPDEST DUP2 EQ PUSH2 0x142B JUMPI PUSH1 0x0 DUP1 REVERT JUMPDEST POP JUMP INVALID LOG2 PUSH5 0x6970667358 0x22 SLT KECCAK256 0xC2 SWAP15 SELFBALANCE DUP16 CREATE SWAP2 EXP SELFBALANCE 0xC9 DUP9 DUP8 0xB5 PUSH27 0x41D5B6B2125B765DE24BB1E339A718B0E4910864736F6C63430008 SMOD STOP CALLER "
				},
				"gasEstimates": {
					"creation": {
						"codeDepositCost": "1044000",
						"executionCost": "infinite",
						"totalCost": "infinite"
					},
					"external": {
						"announceResult()": "infinite",
						"ended()": "2517",
						"hasPickedA()": "2537",
						"hasPickedB()": "2544",
						"hasRevealedA()": "2538",
						"hasRevealedB()": "2545",
						"manager()": "2537",
						"pick(bytes32)": "62166",
						"pickA()": "infinite",
						"pickB()": "infinite",
						"prize()": "2473",
						"reveal(string,string)": "infinite",
						"userA()": "2533",
						"userB()": "2581"
					}
				},
				"methodIdentifiers": {
					"announceResult()": "f4e11bbe",
					"ended()": "12fa6feb",
					"hasPickedA()": "ed873865",
					"hasPickedB()": "737ebe58",
					"hasRevealedA()": "4d178640",
					"hasRevealedB()": "03c0f500",
					"manager()": "481c6a75",
					"pick(bytes32)": "a28bfb3e",
					"pickA()": "3d4ffb93",
					"pickB()": "495717e2",
					"prize()": "e3ac5d26",
					"reveal(string,string)": "5ba1b2c7",
					"userA()": "deb22e9a",
					"userB()": "cb1a295f"
				}
			},
			"storageLayout": {
				"storage": [
					{
						"astId": 3,
						"contract": "RockPaperScissors.sol:RockPaperScissors",
						"label": "userA",
						"offset": 0,
						"slot": "0",
						"type": "t_address_payable"
					},
					{
						"astId": 5,
						"contract": "RockPaperScissors.sol:RockPaperScissors",
						"label": "userB",
						"offset": 0,
						"slot": "1",
						"type": "t_address_payable"
					},
					{
						"astId": 7,
						"contract": "RockPaperScissors.sol:RockPaperScissors",
						"label": "manager",
						"offset": 0,
						"slot": "2",
						"type": "t_address"
					},
					{
						"astId": 9,
						"contract": "RockPaperScissors.sol:RockPaperScissors",
						"label": "prize",
						"offset": 0,
						"slot": "3",
						"type": "t_uint256"
					},
					{
						"astId": 11,
						"contract": "RockPaperScissors.sol:RockPaperScissors",
						"label": "hasPickedA",
						"offset": 0,
						"slot": "4",
						"type": "t_bool"
					},
					{
						"astId": 13,
						"contract": "RockPaperScissors.sol:RockPaperScissors",
						"label": "hasPickedB",
						"offset": 1,
						"slot": "4",
						"type": "t_bool"
					},
					{
						"astId": 15,
						"contract": "RockPaperScissors.sol:RockPaperScissors",
						"label": "commitmentA",
						"offset": 0,
						"slot": "5",
						"type": "t_bytes32"
					},
					{
						"astId": 17,
						"contract": "RockPaperScissors.sol:RockPaperScissors",
						"label": "commitmentB",
						"offset": 0,
						"slot": "6",
						"type": "t_bytes32"
					},
					{
						"astId": 19,
						"contract": "RockPaperScissors.sol:RockPaperScissors",
						"label": "hasRevealedA",
						"offset": 0,
						"slot": "7",
						"type": "t_bool"
					},
					{
						"astId": 21,
						"contract": "RockPaperScissors.sol:RockPaperScissors",
						"label": "hasRevealedB",
						"offset": 1,
						"slot": "7",
						"type": "t_bool"
					},
					{
						"astId": 23,
						"contract": "RockPaperScissors.sol:RockPaperScissors",
						"label": "pickA",
						"offset": 0,
						"slot": "8",
						"type": "t_string_storage"
					},
					{
						"astId": 25,
						"contract": "RockPaperScissors.sol:RockPaperScissors",
						"label": "pickB",
						"offset": 0,
						"slot": "9",
						"type": "t_string_storage"
					},
					{
						"astId": 27,
						"contract": "RockPaperScissors.sol:RockPaperScissors",
						"label": "ended",
						"offset": 0,
						"slot": "10",
						"type": "t_bool"
					}
				],
				"types": {
					"t_address": {
						"encoding": "inplace",
						"label": "address",
						"numberOfBytes": "20"
					},
					"t_address_payable": {
						"encoding": "inplace",
						"label": "address payable",
						"numberOfBytes": "20"
					},
					"t_bool": {
						"encoding": "inplace",
						"label": "bool",
						"numberOfBytes": "1"
					},
					"t_bytes32": {
						"encoding": "inplace",
						"label": "bytes32",
						"numberOfBytes": "32"
					},
					"t_string_storage": {
						"encoding": "bytes",
						"label": "string",
						"numberOfBytes": "32"
					},
					"t_uint256": {
						"encoding": "inplace",
						"label": "uint256",
						"numberOfBytes": "32"
					}
				}
			},
			"userdoc": {
				"errors": {
					"gamedEnded()": [
						{
							"notice": "The game has already ended."
						}
					],
					"noRightToAnnounceTheResult()": [
						{
							"notice": "User has no right to announce the result."
						}
					],
					"noRightToPick()": [
						{
							"notice": "User doesn't have the right to pick."
						}
					],
					"noRightToReveal()": [
						{
							"notice": "User doesn't have the right to reveal."
						}
					],
					"userAlreadyCommited()": [
						{
							"notice": "User have already commited before."
						}
					],
					"userAlreadyRevealed()": [
						{
							"notice": "User have already revealed before."
						}
					],
					"wrongData()": [
						{
							"notice": "User has entered wrong data while revealing"
						}
					]
				},
				"kind": "user",
				"methods": {},
				"version": 1
			}
		}
	}
}