{
	"RockPaperScissors.sol": {
		"RockPaperScissors": {
			"abi": [
				{
					"inputs": [
						{
							"internalType": "address payable",
							"name": "userA_in",
							"type": "address"
						},
						{
							"internalType": "address payable",
							"name": "userB_in",
							"type": "address"
						}
					],
					"stateMutability": "payable",
					"type": "constructor"
				},
				{
					"inputs": [],
					"name": "gamedEnded",
					"type": "error"
				},
				{
					"inputs": [],
					"name": "noRightToAnnounceTheResult",
					"type": "error"
				},
				{
					"inputs": [],
					"name": "noRightToPick",
					"type": "error"
				},
				{
					"inputs": [],
					"name": "noRightToReveal",
					"type": "error"
				},
				{
					"inputs": [],
					"name": "sameUserAddresses",
					"type": "error"
				},
				{
					"inputs": [],
					"name": "userAlreadyCommited",
					"type": "error"
				},
				{
					"inputs": [],
					"name": "userAlreadyRevealed",
					"type": "error"
				},
				{
					"inputs": [],
					"name": "wrongData",
					"type": "error"
				},
				{
					"anonymous": false,
					"inputs": [
						{
							"indexed": false,
							"internalType": "address",
							"name": "winner",
							"type": "address"
						}
					],
					"name": "announceWinner",
					"type": "event"
				},
				{
					"anonymous": false,
					"inputs": [],
					"name": "tie",
					"type": "event"
				},
				{
					"inputs": [],
					"name": "announceResult",
					"outputs": [],
					"stateMutability": "nonpayable",
					"type": "function"
				},
				{
					"inputs": [],
					"name": "ended",
					"outputs": [
						{
							"internalType": "bool",
							"name": "",
							"type": "bool"
						}
					],
					"stateMutability": "view",
					"type": "function"
				},
				{
					"inputs": [],
					"name": "hasPickedA",
					"outputs": [
						{
							"internalType": "bool",
							"name": "",
							"type": "bool"
						}
					],
					"stateMutability": "view",
					"type": "function"
				},
				{
					"inputs": [],
					"name": "hasPickedB",
					"outputs": [
						{
							"internalType": "bool",
							"name": "",
							"type": "bool"
						}
					],
					"stateMutability": "view",
					"type": "function"
				},
				{
					"inputs": [],
					"name": "hasRevealedA",
					"outputs": [
						{
							"internalType": "bool",
							"name": "",
							"type": "bool"
						}
					],
					"stateMutability": "view",
					"type": "function"
				},
				{
					"inputs": [],
					"name": "hasRevealedB",
					"outputs": [
						{
							"internalType": "bool",
							"name": "",
							"type": "bool"
						}
					],
					"stateMutability": "view",
					"type": "function"
				},
				{
					"inputs": [],
					"name": "manager",
					"outputs": [
						{
							"internalType": "address",
							"name": "",
							"type": "address"
						}
					],
					"stateMutability": "view",
					"type": "function"
				},
				{
					"inputs": [
						{
							"internalType": "bytes32",
							"name": "userPick",
							"type": "bytes32"
						}
					],
					"name": "pick",
					"outputs": [],
					"stateMutability": "nonpayable",
					"type": "function"
				},
				{
					"inputs": [],
					"name": "pickA",
					"outputs": [
						{
							"internalType": "bytes32",
							"name": "",
							"type": "bytes32"
						}
					],
					"stateMutability": "view",
					"type": "function"
				},
				{
					"inputs": [],
					"name": "pickB",
					"outputs": [
						{
							"internalType": "bytes32",
							"name": "",
							"type": "bytes32"
						}
					],
					"stateMutability": "view",
					"type": "function"
				},
				{
					"inputs": [],
					"name": "prize",
					"outputs": [
						{
							"internalType": "uint256",
							"name": "",
							"type": "uint256"
						}
					],
					"stateMutability": "view",
					"type": "function"
				},
				{
					"inputs": [
						{
							"internalType": "string",
							"name": "pick",
							"type": "string"
						},
						{
							"internalType": "string",
							"name": "nonce",
							"type": "string"
						}
					],
					"name": "reveal",
					"outputs": [],
					"stateMutability": "nonpayable",
					"type": "function"
				},
				{
					"inputs": [],
					"name": "userA",
					"outputs": [
						{
							"internalType": "address payable",
							"name": "",
							"type": "address"
						}
					],
					"stateMutability": "view",
					"type": "function"
				},
				{
					"inputs": [],
					"name": "userB",
					"outputs": [
						{
							"internalType": "address payable",
							"name": "",
							"type": "address"
						}
					],
					"stateMutability": "view",
					"type": "function"
				}
			],
			"devdoc": {
				"kind": "dev",
				"methods": {},
				"version": 1
			},
			"evm": {
				"assembly": "    /* \"RockPaperScissors.sol\":116:7963  contract RockPaperScissors {\r... */\n  mstore(0x40, 0x80)\n    /* \"RockPaperScissors.sol\":2618:3043  constructor(\r... */\n  mload(0x40)\n  sub(codesize, bytecodeSize)\n  dup1\n  bytecodeSize\n  dup4\n  codecopy\n  dup2\n  dup2\n  add\n  0x40\n  mstore\n  dup2\n  add\n  swap1\n  tag_1\n  swap2\n  swap1\n  tag_2\n  jump\t// in\ntag_1:\n    /* \"RockPaperScissors.sol\":2742:2750  userB_in */\n  dup1\n    /* \"RockPaperScissors.sol\":2730:2750  userA_in == userB_in */\n  0xffffffffffffffffffffffffffffffffffffffff\n  and\n    /* \"RockPaperScissors.sol\":2730:2738  userA_in */\n  dup3\n    /* \"RockPaperScissors.sol\":2730:2750  userA_in == userB_in */\n  0xffffffffffffffffffffffffffffffffffffffff\n  and\n  eq\n    /* \"RockPaperScissors.sol\":2726:2778  if (userA_in == userB_in) revert sameUserAddresses() */\n  iszero\n  tag_5\n  jumpi\n    /* \"RockPaperScissors.sol\":2759:2778  sameUserAddresses() */\n  mload(0x40)\n  0x422217da00000000000000000000000000000000000000000000000000000000\n  dup2\n  mstore\n  0x04\n  add\n  mload(0x40)\n  dup1\n  swap2\n  sub\n  swap1\n  revert\n    /* \"RockPaperScissors.sol\":2726:2778  if (userA_in == userB_in) revert sameUserAddresses() */\ntag_5:\n    /* \"RockPaperScissors.sol\":2797:2805  userA_in */\n  dup2\n    /* \"RockPaperScissors.sol\":2789:2794  userA */\n  0x00\n  dup1\n    /* \"RockPaperScissors.sol\":2789:2805  userA = userA_in */\n  0x0100\n  exp\n  dup2\n  sload\n  dup2\n  0xffffffffffffffffffffffffffffffffffffffff\n  mul\n  not\n  and\n  swap1\n  dup4\n  0xffffffffffffffffffffffffffffffffffffffff\n  and\n  mul\n  or\n  swap1\n  sstore\n  pop\n    /* \"RockPaperScissors.sol\":2824:2832  userB_in */\n  dup1\n    /* \"RockPaperScissors.sol\":2816:2821  userB */\n  0x01\n  0x00\n    /* \"RockPaperScissors.sol\":2816:2832  userB = userB_in */\n  0x0100\n  exp\n  dup2\n  sload\n  dup2\n  0xffffffffffffffffffffffffffffffffffffffff\n  mul\n  not\n  and\n  swap1\n  dup4\n  0xffffffffffffffffffffffffffffffffffffffff\n  and\n  mul\n  or\n  swap1\n  sstore\n  pop\n    /* \"RockPaperScissors.sol\":2853:2863  msg.sender */\n  caller\n    /* \"RockPaperScissors.sol\":2843:2850  manager */\n  0x02\n  0x00\n    /* \"RockPaperScissors.sol\":2843:2863  manager = msg.sender */\n  0x0100\n  exp\n  dup2\n  sload\n  dup2\n  0xffffffffffffffffffffffffffffffffffffffff\n  mul\n  not\n  and\n  swap1\n  dup4\n  0xffffffffffffffffffffffffffffffffffffffff\n  and\n  mul\n  or\n  swap1\n  sstore\n  pop\n    /* \"RockPaperScissors.sol\":2882:2891  msg.value */\n  callvalue\n    /* \"RockPaperScissors.sol\":2874:2879  prize */\n  0x03\n    /* \"RockPaperScissors.sol\":2874:2891  prize = msg.value */\n  dup2\n  swap1\n  sstore\n  pop\n    /* \"RockPaperScissors.sol\":2915:2920  false */\n  0x00\n    /* \"RockPaperScissors.sol\":2902:2912  hasPickedA */\n  0x04\n  0x00\n    /* \"RockPaperScissors.sol\":2902:2920  hasPickedA = false */\n  0x0100\n  exp\n  dup2\n  sload\n  dup2\n  0xff\n  mul\n  not\n  and\n  swap1\n  dup4\n  iszero\n  iszero\n  mul\n  or\n  swap1\n  sstore\n  pop\n    /* \"RockPaperScissors.sol\":2944:2949  false */\n  0x00\n    /* \"RockPaperScissors.sol\":2931:2941  hasPickedB */\n  0x04\n  0x01\n    /* \"RockPaperScissors.sol\":2931:2949  hasPickedB = false */\n  0x0100\n  exp\n  dup2\n  sload\n  dup2\n  0xff\n  mul\n  not\n  and\n  swap1\n  dup4\n  iszero\n  iszero\n  mul\n  or\n  swap1\n  sstore\n  pop\n    /* \"RockPaperScissors.sol\":2975:2980  false */\n  0x00\n    /* \"RockPaperScissors.sol\":2960:2972  hasRevealedA */\n  0x07\n  0x00\n    /* \"RockPaperScissors.sol\":2960:2980  hasRevealedA = false */\n  0x0100\n  exp\n  dup2\n  sload\n  dup2\n  0xff\n  mul\n  not\n  and\n  swap1\n  dup4\n  iszero\n  iszero\n  mul\n  or\n  swap1\n  sstore\n  pop\n    /* \"RockPaperScissors.sol\":3006:3011  false */\n  0x00\n    /* \"RockPaperScissors.sol\":2991:3003  hasRevealedB */\n  0x07\n  0x01\n    /* \"RockPaperScissors.sol\":2991:3011  hasRevealedB = false */\n  0x0100\n  exp\n  dup2\n  sload\n  dup2\n  0xff\n  mul\n  not\n  and\n  swap1\n  dup4\n  iszero\n  iszero\n  mul\n  or\n  swap1\n  sstore\n  pop\n    /* \"RockPaperScissors.sol\":3030:3035  false */\n  0x00\n    /* \"RockPaperScissors.sol\":3022:3027  ended */\n  0x0a\n  0x00\n    /* \"RockPaperScissors.sol\":3022:3035  ended = false */\n  0x0100\n  exp\n  dup2\n  sload\n  dup2\n  0xff\n  mul\n  not\n  and\n  swap1\n  dup4\n  iszero\n  iszero\n  mul\n  or\n  swap1\n  sstore\n  pop\n    /* \"RockPaperScissors.sol\":2618:3043  constructor(\r... */\n  pop\n  pop\n    /* \"RockPaperScissors.sol\":116:7963  contract RockPaperScissors {\r... */\n  jump(tag_6)\n    /* \"#utility.yul\":7:166   */\ntag_8:\n    /* \"#utility.yul\":72:77   */\n  0x00\n    /* \"#utility.yul\":103:109   */\n  dup2\n    /* \"#utility.yul\":97:110   */\n  mload\n    /* \"#utility.yul\":88:110   */\n  swap1\n  pop\n    /* \"#utility.yul\":119:160   */\n  tag_10\n    /* \"#utility.yul\":154:159   */\n  dup2\n    /* \"#utility.yul\":119:160   */\n  tag_11\n  jump\t// in\ntag_10:\n    /* \"#utility.yul\":7:166   */\n  swap3\n  swap2\n  pop\n  pop\n  jump\t// out\n    /* \"#utility.yul\":172:711   */\ntag_2:\n    /* \"#utility.yul\":267:273   */\n  0x00\n    /* \"#utility.yul\":275:281   */\n  dup1\n    /* \"#utility.yul\":324:326   */\n  0x40\n    /* \"#utility.yul\":312:321   */\n  dup4\n    /* \"#utility.yul\":303:310   */\n  dup6\n    /* \"#utility.yul\":299:322   */\n  sub\n    /* \"#utility.yul\":295:327   */\n  slt\n    /* \"#utility.yul\":292:411   */\n  iszero\n  tag_13\n  jumpi\n    /* \"#utility.yul\":330:409   */\n  tag_14\n  tag_15\n  jump\t// in\ntag_14:\n    /* \"#utility.yul\":292:411   */\ntag_13:\n    /* \"#utility.yul\":450:451   */\n  0x00\n    /* \"#utility.yul\":475:547   */\n  tag_16\n    /* \"#utility.yul\":539:546   */\n  dup6\n    /* \"#utility.yul\":530:536   */\n  dup3\n    /* \"#utility.yul\":519:528   */\n  dup7\n    /* \"#utility.yul\":515:537   */\n  add\n    /* \"#utility.yul\":475:547   */\n  tag_8\n  jump\t// in\ntag_16:\n    /* \"#utility.yul\":465:547   */\n  swap3\n  pop\n    /* \"#utility.yul\":421:557   */\n  pop\n    /* \"#utility.yul\":596:598   */\n  0x20\n    /* \"#utility.yul\":622:694   */\n  tag_17\n    /* \"#utility.yul\":686:693   */\n  dup6\n    /* \"#utility.yul\":677:683   */\n  dup3\n    /* \"#utility.yul\":666:675   */\n  dup7\n    /* \"#utility.yul\":662:684   */\n  add\n    /* \"#utility.yul\":622:694   */\n  tag_8\n  jump\t// in\ntag_17:\n    /* \"#utility.yul\":612:694   */\n  swap2\n  pop\n    /* \"#utility.yul\":567:704   */\n  pop\n    /* \"#utility.yul\":172:711   */\n  swap3\n  pop\n  swap3\n  swap1\n  pop\n  jump\t// out\n    /* \"#utility.yul\":798:902   */\ntag_20:\n    /* \"#utility.yul\":843:850   */\n  0x00\n    /* \"#utility.yul\":872:896   */\n  tag_22\n    /* \"#utility.yul\":890:895   */\n  dup3\n    /* \"#utility.yul\":872:896   */\n  tag_23\n  jump\t// in\ntag_22:\n    /* \"#utility.yul\":861:896   */\n  swap1\n  pop\n    /* \"#utility.yul\":798:902   */\n  swap2\n  swap1\n  pop\n  jump\t// out\n    /* \"#utility.yul\":908:1034   */\ntag_23:\n    /* \"#utility.yul\":945:952   */\n  0x00\n    /* \"#utility.yul\":985:1027   */\n  0xffffffffffffffffffffffffffffffffffffffff\n    /* \"#utility.yul\":978:983   */\n  dup3\n    /* \"#utility.yul\":974:1028   */\n  and\n    /* \"#utility.yul\":963:1028   */\n  swap1\n  pop\n    /* \"#utility.yul\":908:1034   */\n  swap2\n  swap1\n  pop\n  jump\t// out\n    /* \"#utility.yul\":1163:1280   */\ntag_15:\n    /* \"#utility.yul\":1272:1273   */\n  0x00\n    /* \"#utility.yul\":1269:1270   */\n  dup1\n    /* \"#utility.yul\":1262:1274   */\n  revert\n    /* \"#utility.yul\":1286:1424   */\ntag_11:\n    /* \"#utility.yul\":1367:1399   */\n  tag_29\n    /* \"#utility.yul\":1393:1398   */\n  dup2\n    /* \"#utility.yul\":1367:1399   */\n  tag_20\n  jump\t// in\ntag_29:\n    /* \"#utility.yul\":1360:1365   */\n  dup2\n    /* \"#utility.yul\":1357:1400   */\n  eq\n    /* \"#utility.yul\":1347:1418   */\n  tag_30\n  jumpi\n    /* \"#utility.yul\":1414:1415   */\n  0x00\n    /* \"#utility.yul\":1411:1412   */\n  dup1\n    /* \"#utility.yul\":1404:1416   */\n  revert\n    /* \"#utility.yul\":1347:1418   */\ntag_30:\n    /* \"#utility.yul\":1286:1424   */\n  pop\n  jump\t// out\n    /* \"RockPaperScissors.sol\":116:7963  contract RockPaperScissors {\r... */\ntag_6:\n  dataSize(sub_0)\n  dup1\n  dataOffset(sub_0)\n  0x00\n  codecopy\n  0x00\n  return\nstop\n\nsub_0: assembly {\n        /* \"RockPaperScissors.sol\":116:7963  contract RockPaperScissors {\r... */\n      mstore(0x40, 0x80)\n      callvalue\n      dup1\n      iszero\n      tag_1\n      jumpi\n      0x00\n      dup1\n      revert\n    tag_1:\n      pop\n      jumpi(tag_2, lt(calldatasize, 0x04))\n      shr(0xe0, calldataload(0x00))\n      dup1\n      0x737ebe58\n      gt\n      tag_17\n      jumpi\n      dup1\n      0xdeb22e9a\n      gt\n      tag_18\n      jumpi\n      dup1\n      0xdeb22e9a\n      eq\n      tag_13\n      jumpi\n      dup1\n      0xe3ac5d26\n      eq\n      tag_14\n      jumpi\n      dup1\n      0xed873865\n      eq\n      tag_15\n      jumpi\n      dup1\n      0xf4e11bbe\n      eq\n      tag_16\n      jumpi\n      jump(tag_2)\n    tag_18:\n      dup1\n      0x737ebe58\n      eq\n      tag_10\n      jumpi\n      dup1\n      0xa28bfb3e\n      eq\n      tag_11\n      jumpi\n      dup1\n      0xcb1a295f\n      eq\n      tag_12\n      jumpi\n      jump(tag_2)\n    tag_17:\n      dup1\n      0x481c6a75\n      gt\n      tag_19\n      jumpi\n      dup1\n      0x481c6a75\n      eq\n      tag_6\n      jumpi\n      dup1\n      0x495717e2\n      eq\n      tag_7\n      jumpi\n      dup1\n      0x4d178640\n      eq\n      tag_8\n      jumpi\n      dup1\n      0x5ba1b2c7\n      eq\n      tag_9\n      jumpi\n      jump(tag_2)\n    tag_19:\n      dup1\n      0x03c0f500\n      eq\n      tag_3\n      jumpi\n      dup1\n      0x12fa6feb\n      eq\n      tag_4\n      jumpi\n      dup1\n      0x3d4ffb93\n      eq\n      tag_5\n      jumpi\n    tag_2:\n      0x00\n      dup1\n      revert\n        /* \"RockPaperScissors.sol\":665:689  bool public hasRevealedB */\n    tag_3:\n      tag_20\n      tag_21\n      jump\t// in\n    tag_20:\n      mload(0x40)\n      tag_22\n      swap2\n      swap1\n      tag_23\n      jump\t// in\n    tag_22:\n      mload(0x40)\n      dup1\n      swap2\n      sub\n      swap1\n      return\n        /* \"RockPaperScissors.sol\":829:846  bool public ended */\n    tag_4:\n      tag_24\n      tag_25\n      jump\t// in\n    tag_24:\n      mload(0x40)\n      tag_26\n      swap2\n      swap1\n      tag_23\n      jump\t// in\n    tag_26:\n      mload(0x40)\n      dup1\n      swap2\n      sub\n      swap1\n      return\n        /* \"RockPaperScissors.sol\":730:750  bytes32 public pickA */\n    tag_5:\n      tag_27\n      tag_28\n      jump\t// in\n    tag_27:\n      mload(0x40)\n      tag_29\n      swap2\n      swap1\n      tag_30\n      jump\t// in\n    tag_29:\n      mload(0x40)\n      dup1\n      swap2\n      sub\n      swap1\n      return\n        /* \"RockPaperScissors.sol\":267:289  address public manager */\n    tag_6:\n      tag_31\n      tag_32\n      jump\t// in\n    tag_31:\n      mload(0x40)\n      tag_33\n      swap2\n      swap1\n      tag_34\n      jump\t// in\n    tag_33:\n      mload(0x40)\n      dup1\n      swap2\n      sub\n      swap1\n      return\n        /* \"RockPaperScissors.sol\":757:777  bytes32 public pickB */\n    tag_7:\n      tag_35\n      tag_36\n      jump\t// in\n    tag_35:\n      mload(0x40)\n      tag_37\n      swap2\n      swap1\n      tag_30\n      jump\t// in\n    tag_37:\n      mload(0x40)\n      dup1\n      swap2\n      sub\n      swap1\n      return\n        /* \"RockPaperScissors.sol\":634:658  bool public hasRevealedA */\n    tag_8:\n      tag_38\n      tag_39\n      jump\t// in\n    tag_38:\n      mload(0x40)\n      tag_40\n      swap2\n      swap1\n      tag_23\n      jump\t// in\n    tag_40:\n      mload(0x40)\n      dup1\n      swap2\n      sub\n      swap1\n      return\n        /* \"RockPaperScissors.sol\":3499:4052  function reveal(string calldata pick, string calldata nonce) external\r... */\n    tag_9:\n      tag_41\n      0x04\n      dup1\n      calldatasize\n      sub\n      dup2\n      add\n      swap1\n      tag_42\n      swap2\n      swap1\n      tag_43\n      jump\t// in\n    tag_42:\n      tag_44\n      jump\t// in\n    tag_41:\n      stop\n        /* \"RockPaperScissors.sol\":440:462  bool public hasPickedB */\n    tag_10:\n      tag_45\n      tag_46\n      jump\t// in\n    tag_45:\n      mload(0x40)\n      tag_47\n      swap2\n      swap1\n      tag_23\n      jump\t// in\n    tag_47:\n      mload(0x40)\n      dup1\n      swap2\n      sub\n      swap1\n      return\n        /* \"RockPaperScissors.sol\":3118:3423  function pick(bytes32 userPick) external \r... */\n    tag_11:\n      tag_48\n      0x04\n      dup1\n      calldatasize\n      sub\n      dup2\n      add\n      swap1\n      tag_49\n      swap2\n      swap1\n      tag_50\n      jump\t// in\n    tag_49:\n      tag_51\n      jump\t// in\n    tag_48:\n      stop\n        /* \"RockPaperScissors.sol\":232:260  address payable public userB */\n    tag_12:\n      tag_52\n      tag_53\n      jump\t// in\n    tag_52:\n      mload(0x40)\n      tag_54\n      swap2\n      swap1\n      tag_55\n      jump\t// in\n    tag_54:\n      mload(0x40)\n      dup1\n      swap2\n      sub\n      swap1\n      return\n        /* \"RockPaperScissors.sol\":197:225  address payable public userA */\n    tag_13:\n      tag_56\n      tag_57\n      jump\t// in\n    tag_56:\n      mload(0x40)\n      tag_58\n      swap2\n      swap1\n      tag_55\n      jump\t// in\n    tag_58:\n      mload(0x40)\n      dup1\n      swap2\n      sub\n      swap1\n      return\n        /* \"RockPaperScissors.sol\":315:332  uint public prize */\n    tag_14:\n      tag_59\n      tag_60\n      jump\t// in\n    tag_59:\n      mload(0x40)\n      tag_61\n      swap2\n      swap1\n      tag_62\n      jump\t// in\n    tag_61:\n      mload(0x40)\n      dup1\n      swap2\n      sub\n      swap1\n      return\n        /* \"RockPaperScissors.sol\":411:433  bool public hasPickedA */\n    tag_15:\n      tag_63\n      tag_64\n      jump\t// in\n    tag_63:\n      mload(0x40)\n      tag_65\n      swap2\n      swap1\n      tag_23\n      jump\t// in\n    tag_65:\n      mload(0x40)\n      dup1\n      swap2\n      sub\n      swap1\n      return\n        /* \"RockPaperScissors.sol\":4178:7506  function announceResult() external {\r... */\n    tag_16:\n      tag_66\n      tag_67\n      jump\t// in\n    tag_66:\n      stop\n        /* \"RockPaperScissors.sol\":665:689  bool public hasRevealedB */\n    tag_21:\n      0x07\n      0x01\n      swap1\n      sload\n      swap1\n      0x0100\n      exp\n      swap1\n      div\n      0xff\n      and\n      dup2\n      jump\t// out\n        /* \"RockPaperScissors.sol\":829:846  bool public ended */\n    tag_25:\n      0x0a\n      0x00\n      swap1\n      sload\n      swap1\n      0x0100\n      exp\n      swap1\n      div\n      0xff\n      and\n      dup2\n      jump\t// out\n        /* \"RockPaperScissors.sol\":730:750  bytes32 public pickA */\n    tag_28:\n      sload(0x08)\n      dup2\n      jump\t// out\n        /* \"RockPaperScissors.sol\":267:289  address public manager */\n    tag_32:\n      0x02\n      0x00\n      swap1\n      sload\n      swap1\n      0x0100\n      exp\n      swap1\n      div\n      0xffffffffffffffffffffffffffffffffffffffff\n      and\n      dup2\n      jump\t// out\n        /* \"RockPaperScissors.sol\":757:777  bytes32 public pickB */\n    tag_36:\n      sload(0x09)\n      dup2\n      jump\t// out\n        /* \"RockPaperScissors.sol\":634:658  bool public hasRevealedA */\n    tag_39:\n      0x07\n      0x00\n      swap1\n      sload\n      swap1\n      0x0100\n      exp\n      swap1\n      div\n      0xff\n      and\n      dup2\n      jump\t// out\n        /* \"RockPaperScissors.sol\":3499:4052  function reveal(string calldata pick, string calldata nonce) external\r... */\n    tag_44:\n        /* \"RockPaperScissors.sol\":3600:3610  msg.sender */\n      caller\n        /* \"RockPaperScissors.sol\":2341:2346  userA */\n      0x00\n      dup1\n      sload\n      swap1\n      0x0100\n      exp\n      swap1\n      div\n      0xffffffffffffffffffffffffffffffffffffffff\n      and\n        /* \"RockPaperScissors.sol\":2333:2346  user != userA */\n      0xffffffffffffffffffffffffffffffffffffffff\n      and\n        /* \"RockPaperScissors.sol\":2333:2337  user */\n      dup2\n        /* \"RockPaperScissors.sol\":2333:2346  user != userA */\n      0xffffffffffffffffffffffffffffffffffffffff\n      and\n      eq\n      iszero\n        /* \"RockPaperScissors.sol\":2333:2363  user != userA && user != userB */\n      dup1\n      iszero\n      tag_69\n      jumpi\n      pop\n        /* \"RockPaperScissors.sol\":2358:2363  userB */\n      0x01\n      0x00\n      swap1\n      sload\n      swap1\n      0x0100\n      exp\n      swap1\n      div\n      0xffffffffffffffffffffffffffffffffffffffff\n      and\n        /* \"RockPaperScissors.sol\":2350:2363  user != userB */\n      0xffffffffffffffffffffffffffffffffffffffff\n      and\n        /* \"RockPaperScissors.sol\":2350:2354  user */\n      dup2\n        /* \"RockPaperScissors.sol\":2350:2363  user != userB */\n      0xffffffffffffffffffffffffffffffffffffffff\n      and\n      eq\n      iszero\n        /* \"RockPaperScissors.sol\":2333:2363  user != userA && user != userB */\n    tag_69:\n        /* \"RockPaperScissors.sol\":2329:2389  if (user != userA && user != userB) revert noRightToReveal() */\n      iszero\n      tag_70\n      jumpi\n        /* \"RockPaperScissors.sol\":2372:2389  noRightToReveal() */\n      mload(0x40)\n      0xea42158000000000000000000000000000000000000000000000000000000000\n      dup2\n      mstore\n      0x04\n      add\n      mload(0x40)\n      dup1\n      swap2\n      sub\n      swap1\n      revert\n        /* \"RockPaperScissors.sol\":2329:2389  if (user != userA && user != userB) revert noRightToReveal() */\n    tag_70:\n        /* \"RockPaperScissors.sol\":2412:2417  userA */\n      0x00\n      dup1\n      sload\n      swap1\n      0x0100\n      exp\n      swap1\n      div\n      0xffffffffffffffffffffffffffffffffffffffff\n      and\n        /* \"RockPaperScissors.sol\":2404:2417  user == userA */\n      0xffffffffffffffffffffffffffffffffffffffff\n      and\n        /* \"RockPaperScissors.sol\":2404:2408  user */\n      dup2\n        /* \"RockPaperScissors.sol\":2404:2417  user == userA */\n      0xffffffffffffffffffffffffffffffffffffffff\n      and\n      eq\n        /* \"RockPaperScissors.sol\":2404:2441  user == userA && hasRevealedA == true */\n      dup1\n      iszero\n      tag_71\n      jumpi\n      pop\n        /* \"RockPaperScissors.sol\":2437:2441  true */\n      0x01\n        /* \"RockPaperScissors.sol\":2421:2441  hasRevealedA == true */\n      iszero\n      iszero\n        /* \"RockPaperScissors.sol\":2421:2433  hasRevealedA */\n      0x07\n      0x00\n      swap1\n      sload\n      swap1\n      0x0100\n      exp\n      swap1\n      div\n      0xff\n      and\n        /* \"RockPaperScissors.sol\":2421:2441  hasRevealedA == true */\n      iszero\n      iszero\n      eq\n        /* \"RockPaperScissors.sol\":2404:2441  user == userA && hasRevealedA == true */\n    tag_71:\n        /* \"RockPaperScissors.sol\":2400:2471  if (user == userA && hasRevealedA == true) revert userAlreadyRevealed() */\n      iszero\n      tag_72\n      jumpi\n        /* \"RockPaperScissors.sol\":2450:2471  userAlreadyRevealed() */\n      mload(0x40)\n      0xa981eebc00000000000000000000000000000000000000000000000000000000\n      dup2\n      mstore\n      0x04\n      add\n      mload(0x40)\n      dup1\n      swap2\n      sub\n      swap1\n      revert\n        /* \"RockPaperScissors.sol\":2400:2471  if (user == userA && hasRevealedA == true) revert userAlreadyRevealed() */\n    tag_72:\n        /* \"RockPaperScissors.sol\":2494:2499  userB */\n      0x01\n      0x00\n      swap1\n      sload\n      swap1\n      0x0100\n      exp\n      swap1\n      div\n      0xffffffffffffffffffffffffffffffffffffffff\n      and\n        /* \"RockPaperScissors.sol\":2486:2499  user == userB */\n      0xffffffffffffffffffffffffffffffffffffffff\n      and\n        /* \"RockPaperScissors.sol\":2486:2490  user */\n      dup2\n        /* \"RockPaperScissors.sol\":2486:2499  user == userB */\n      0xffffffffffffffffffffffffffffffffffffffff\n      and\n      eq\n        /* \"RockPaperScissors.sol\":2486:2523  user == userB && hasRevealedB == true */\n      dup1\n      iszero\n      tag_73\n      jumpi\n      pop\n        /* \"RockPaperScissors.sol\":2519:2523  true */\n      0x01\n        /* \"RockPaperScissors.sol\":2503:2523  hasRevealedB == true */\n      iszero\n      iszero\n        /* \"RockPaperScissors.sol\":2503:2515  hasRevealedB */\n      0x07\n      0x01\n      swap1\n      sload\n      swap1\n      0x0100\n      exp\n      swap1\n      div\n      0xff\n      and\n        /* \"RockPaperScissors.sol\":2503:2523  hasRevealedB == true */\n      iszero\n      iszero\n      eq\n        /* \"RockPaperScissors.sol\":2486:2523  user == userB && hasRevealedB == true */\n    tag_73:\n        /* \"RockPaperScissors.sol\":2482:2553  if (user == userB && hasRevealedB == true) revert userAlreadyRevealed() */\n      iszero\n      tag_74\n      jumpi\n        /* \"RockPaperScissors.sol\":2532:2553  userAlreadyRevealed() */\n      mload(0x40)\n      0xa981eebc00000000000000000000000000000000000000000000000000000000\n      dup2\n      mstore\n      0x04\n      add\n      mload(0x40)\n      dup1\n      swap2\n      sub\n      swap1\n      revert\n        /* \"RockPaperScissors.sol\":2482:2553  if (user == userB && hasRevealedB == true) revert userAlreadyRevealed() */\n    tag_74:\n        /* \"RockPaperScissors.sol\":3643:3648  userA */\n      0x00\n      dup1\n      sload\n      swap1\n      0x0100\n      exp\n      swap1\n      div\n      0xffffffffffffffffffffffffffffffffffffffff\n      and\n        /* \"RockPaperScissors.sol\":3629:3648  msg.sender == userA */\n      0xffffffffffffffffffffffffffffffffffffffff\n      and\n        /* \"RockPaperScissors.sol\":3629:3639  msg.sender */\n      caller\n        /* \"RockPaperScissors.sol\":3629:3648  msg.sender == userA */\n      0xffffffffffffffffffffffffffffffffffffffff\n      and\n      eq\n        /* \"RockPaperScissors.sol\":3629:3670  msg.sender == userA && hasPickedA == true */\n      dup1\n      iszero\n      tag_76\n      jumpi\n      pop\n        /* \"RockPaperScissors.sol\":3666:3670  true */\n      0x01\n        /* \"RockPaperScissors.sol\":3652:3670  hasPickedA == true */\n      iszero\n      iszero\n        /* \"RockPaperScissors.sol\":3652:3662  hasPickedA */\n      0x04\n      0x00\n      swap1\n      sload\n      swap1\n      0x0100\n      exp\n      swap1\n      div\n      0xff\n      and\n        /* \"RockPaperScissors.sol\":3652:3670  hasPickedA == true */\n      iszero\n      iszero\n      eq\n        /* \"RockPaperScissors.sol\":3629:3670  msg.sender == userA && hasPickedA == true */\n    tag_76:\n        /* \"RockPaperScissors.sol\":3629:3729  msg.sender == userA && hasPickedA == true && commitmentA == keccak256(abi.encodePacked(pick, nonce)) */\n      dup1\n      iszero\n      tag_77\n      jumpi\n      pop\n        /* \"RockPaperScissors.sol\":3716:3720  pick */\n      dup5\n      dup5\n        /* \"RockPaperScissors.sol\":3722:3727  nonce */\n      dup5\n      dup5\n        /* \"RockPaperScissors.sol\":3699:3728  abi.encodePacked(pick, nonce) */\n      add(0x20, mload(0x40))\n      tag_78\n      swap5\n      swap4\n      swap3\n      swap2\n      swap1\n      tag_79\n      jump\t// in\n    tag_78:\n      mload(0x40)\n      0x20\n      dup2\n      dup4\n      sub\n      sub\n      dup2\n      mstore\n      swap1\n      0x40\n      mstore\n        /* \"RockPaperScissors.sol\":3689:3729  keccak256(abi.encodePacked(pick, nonce)) */\n      dup1\n      mload\n      swap1\n      0x20\n      add\n      keccak256\n        /* \"RockPaperScissors.sol\":3674:3685  commitmentA */\n      sload(0x05)\n        /* \"RockPaperScissors.sol\":3674:3729  commitmentA == keccak256(abi.encodePacked(pick, nonce)) */\n      eq\n        /* \"RockPaperScissors.sol\":3629:3729  msg.sender == userA && hasPickedA == true && commitmentA == keccak256(abi.encodePacked(pick, nonce)) */\n    tag_77:\n        /* \"RockPaperScissors.sol\":3625:4044  if (msg.sender == userA && hasPickedA == true && commitmentA == keccak256(abi.encodePacked(pick, nonce))) {\r... */\n      iszero\n      tag_80\n      jumpi\n        /* \"RockPaperScissors.sol\":3761:3765  true */\n      0x01\n        /* \"RockPaperScissors.sol\":3746:3758  hasRevealedA */\n      0x07\n      0x00\n        /* \"RockPaperScissors.sol\":3746:3765  hasRevealedA = true */\n      0x0100\n      exp\n      dup2\n      sload\n      dup2\n      0xff\n      mul\n      not\n      and\n      swap1\n      dup4\n      iszero\n      iszero\n      mul\n      or\n      swap1\n      sstore\n      pop\n        /* \"RockPaperScissors.sol\":3804:3808  pick */\n      dup5\n      dup5\n        /* \"RockPaperScissors.sol\":3788:3810  keccak256(bytes(pick)) */\n      mload(0x40)\n      tag_81\n      swap3\n      swap2\n      swap1\n      tag_82\n      jump\t// in\n    tag_81:\n      mload(0x40)\n      dup1\n      swap2\n      sub\n      swap1\n      keccak256\n        /* \"RockPaperScissors.sol\":3780:3785  pickA */\n      0x08\n        /* \"RockPaperScissors.sol\":3780:3810  pickA = keccak256(bytes(pick)) */\n      dup2\n      swap1\n      sstore\n      pop\n        /* \"RockPaperScissors.sol\":3625:4044  if (msg.sender == userA && hasPickedA == true && commitmentA == keccak256(abi.encodePacked(pick, nonce))) {\r... */\n      jump(tag_83)\n    tag_80:\n        /* \"RockPaperScissors.sol\":3855:3859  true */\n      0x01\n        /* \"RockPaperScissors.sol\":3841:3859  hasPickedB == true */\n      iszero\n      iszero\n        /* \"RockPaperScissors.sol\":3841:3851  hasPickedB */\n      0x04\n      0x01\n      swap1\n      sload\n      swap1\n      0x0100\n      exp\n      swap1\n      div\n      0xff\n      and\n        /* \"RockPaperScissors.sol\":3841:3859  hasPickedB == true */\n      iszero\n      iszero\n      eq\n        /* \"RockPaperScissors.sol\":3841:3918  hasPickedB == true && commitmentB == keccak256(abi.encodePacked(pick, nonce)) */\n      dup1\n      iszero\n      tag_84\n      jumpi\n      pop\n        /* \"RockPaperScissors.sol\":3905:3909  pick */\n      dup5\n      dup5\n        /* \"RockPaperScissors.sol\":3911:3916  nonce */\n      dup5\n      dup5\n        /* \"RockPaperScissors.sol\":3888:3917  abi.encodePacked(pick, nonce) */\n      add(0x20, mload(0x40))\n      tag_85\n      swap5\n      swap4\n      swap3\n      swap2\n      swap1\n      tag_79\n      jump\t// in\n    tag_85:\n      mload(0x40)\n      0x20\n      dup2\n      dup4\n      sub\n      sub\n      dup2\n      mstore\n      swap1\n      0x40\n      mstore\n        /* \"RockPaperScissors.sol\":3878:3918  keccak256(abi.encodePacked(pick, nonce)) */\n      dup1\n      mload\n      swap1\n      0x20\n      add\n      keccak256\n        /* \"RockPaperScissors.sol\":3863:3874  commitmentB */\n      sload(0x06)\n        /* \"RockPaperScissors.sol\":3863:3918  commitmentB == keccak256(abi.encodePacked(pick, nonce)) */\n      eq\n        /* \"RockPaperScissors.sol\":3841:3918  hasPickedB == true && commitmentB == keccak256(abi.encodePacked(pick, nonce)) */\n    tag_84:\n        /* \"RockPaperScissors.sol\":3837:4044  if (hasPickedB == true && commitmentB == keccak256(abi.encodePacked(pick, nonce))) {\r... */\n      iszero\n      tag_86\n      jumpi\n        /* \"RockPaperScissors.sol\":3950:3954  true */\n      0x01\n        /* \"RockPaperScissors.sol\":3935:3947  hasRevealedB */\n      0x07\n      0x01\n        /* \"RockPaperScissors.sol\":3935:3954  hasRevealedB = true */\n      0x0100\n      exp\n      dup2\n      sload\n      dup2\n      0xff\n      mul\n      not\n      and\n      swap1\n      dup4\n      iszero\n      iszero\n      mul\n      or\n      swap1\n      sstore\n      pop\n        /* \"RockPaperScissors.sol\":3993:3997  pick */\n      dup5\n      dup5\n        /* \"RockPaperScissors.sol\":3977:3999  keccak256(bytes(pick)) */\n      mload(0x40)\n      tag_87\n      swap3\n      swap2\n      swap1\n      tag_82\n      jump\t// in\n    tag_87:\n      mload(0x40)\n      dup1\n      swap2\n      sub\n      swap1\n      keccak256\n        /* \"RockPaperScissors.sol\":3969:3974  pickB */\n      0x09\n        /* \"RockPaperScissors.sol\":3969:3999  pickB = keccak256(bytes(pick)) */\n      dup2\n      swap1\n      sstore\n      pop\n        /* \"RockPaperScissors.sol\":3837:4044  if (hasPickedB == true && commitmentB == keccak256(abi.encodePacked(pick, nonce))) {\r... */\n      jump(tag_88)\n    tag_86:\n        /* \"RockPaperScissors.sol\":4033:4044  wrongData() */\n      mload(0x40)\n      0x6701de1400000000000000000000000000000000000000000000000000000000\n      dup2\n      mstore\n      0x04\n      add\n      mload(0x40)\n      dup1\n      swap2\n      sub\n      swap1\n      revert\n        /* \"RockPaperScissors.sol\":3837:4044  if (hasPickedB == true && commitmentB == keccak256(abi.encodePacked(pick, nonce))) {\r... */\n    tag_88:\n        /* \"RockPaperScissors.sol\":3625:4044  if (msg.sender == userA && hasPickedA == true && commitmentA == keccak256(abi.encodePacked(pick, nonce))) {\r... */\n    tag_83:\n        /* \"RockPaperScissors.sol\":3499:4052  function reveal(string calldata pick, string calldata nonce) external\r... */\n      pop\n      pop\n      pop\n      pop\n      pop\n      jump\t// out\n        /* \"RockPaperScissors.sol\":440:462  bool public hasPickedB */\n    tag_46:\n      0x04\n      0x01\n      swap1\n      sload\n      swap1\n      0x0100\n      exp\n      swap1\n      div\n      0xff\n      and\n      dup2\n      jump\t// out\n        /* \"RockPaperScissors.sol\":3118:3423  function pick(bytes32 userPick) external \r... */\n    tag_51:\n        /* \"RockPaperScissors.sol\":3189:3199  msg.sender */\n      caller\n        /* \"RockPaperScissors.sol\":1851:1856  userA */\n      0x00\n      dup1\n      sload\n      swap1\n      0x0100\n      exp\n      swap1\n      div\n      0xffffffffffffffffffffffffffffffffffffffff\n      and\n        /* \"RockPaperScissors.sol\":1843:1856  user != userA */\n      0xffffffffffffffffffffffffffffffffffffffff\n      and\n        /* \"RockPaperScissors.sol\":1843:1847  user */\n      dup2\n        /* \"RockPaperScissors.sol\":1843:1856  user != userA */\n      0xffffffffffffffffffffffffffffffffffffffff\n      and\n      eq\n      iszero\n        /* \"RockPaperScissors.sol\":1843:1873  user != userA && user != userB */\n      dup1\n      iszero\n      tag_90\n      jumpi\n      pop\n        /* \"RockPaperScissors.sol\":1868:1873  userB */\n      0x01\n      0x00\n      swap1\n      sload\n      swap1\n      0x0100\n      exp\n      swap1\n      div\n      0xffffffffffffffffffffffffffffffffffffffff\n      and\n        /* \"RockPaperScissors.sol\":1860:1873  user != userB */\n      0xffffffffffffffffffffffffffffffffffffffff\n      and\n        /* \"RockPaperScissors.sol\":1860:1864  user */\n      dup2\n        /* \"RockPaperScissors.sol\":1860:1873  user != userB */\n      0xffffffffffffffffffffffffffffffffffffffff\n      and\n      eq\n      iszero\n        /* \"RockPaperScissors.sol\":1843:1873  user != userA && user != userB */\n    tag_90:\n        /* \"RockPaperScissors.sol\":1839:1897  if (user != userA && user != userB) revert noRightToPick() */\n      iszero\n      tag_91\n      jumpi\n        /* \"RockPaperScissors.sol\":1882:1897  noRightToPick() */\n      mload(0x40)\n      0x5774d9a500000000000000000000000000000000000000000000000000000000\n      dup2\n      mstore\n      0x04\n      add\n      mload(0x40)\n      dup1\n      swap2\n      sub\n      swap1\n      revert\n        /* \"RockPaperScissors.sol\":1839:1897  if (user != userA && user != userB) revert noRightToPick() */\n    tag_91:\n        /* \"RockPaperScissors.sol\":1920:1925  userA */\n      0x00\n      dup1\n      sload\n      swap1\n      0x0100\n      exp\n      swap1\n      div\n      0xffffffffffffffffffffffffffffffffffffffff\n      and\n        /* \"RockPaperScissors.sol\":1912:1925  user == userA */\n      0xffffffffffffffffffffffffffffffffffffffff\n      and\n        /* \"RockPaperScissors.sol\":1912:1916  user */\n      dup2\n        /* \"RockPaperScissors.sol\":1912:1925  user == userA */\n      0xffffffffffffffffffffffffffffffffffffffff\n      and\n      eq\n        /* \"RockPaperScissors.sol\":1912:1947  user == userA && hasPickedA == true */\n      dup1\n      iszero\n      tag_92\n      jumpi\n      pop\n        /* \"RockPaperScissors.sol\":1943:1947  true */\n      0x01\n        /* \"RockPaperScissors.sol\":1929:1947  hasPickedA == true */\n      iszero\n      iszero\n        /* \"RockPaperScissors.sol\":1929:1939  hasPickedA */\n      0x04\n      0x00\n      swap1\n      sload\n      swap1\n      0x0100\n      exp\n      swap1\n      div\n      0xff\n      and\n        /* \"RockPaperScissors.sol\":1929:1947  hasPickedA == true */\n      iszero\n      iszero\n      eq\n        /* \"RockPaperScissors.sol\":1912:1947  user == userA && hasPickedA == true */\n    tag_92:\n        /* \"RockPaperScissors.sol\":1908:1977  if (user == userA && hasPickedA == true) revert userAlreadyCommited() */\n      iszero\n      tag_93\n      jumpi\n        /* \"RockPaperScissors.sol\":1956:1977  userAlreadyCommited() */\n      mload(0x40)\n      0xa245b07d00000000000000000000000000000000000000000000000000000000\n      dup2\n      mstore\n      0x04\n      add\n      mload(0x40)\n      dup1\n      swap2\n      sub\n      swap1\n      revert\n        /* \"RockPaperScissors.sol\":1908:1977  if (user == userA && hasPickedA == true) revert userAlreadyCommited() */\n    tag_93:\n        /* \"RockPaperScissors.sol\":2000:2005  userB */\n      0x01\n      0x00\n      swap1\n      sload\n      swap1\n      0x0100\n      exp\n      swap1\n      div\n      0xffffffffffffffffffffffffffffffffffffffff\n      and\n        /* \"RockPaperScissors.sol\":1992:2005  user == userB */\n      0xffffffffffffffffffffffffffffffffffffffff\n      and\n        /* \"RockPaperScissors.sol\":1992:1996  user */\n      dup2\n        /* \"RockPaperScissors.sol\":1992:2005  user == userB */\n      0xffffffffffffffffffffffffffffffffffffffff\n      and\n      eq\n        /* \"RockPaperScissors.sol\":1992:2027  user == userB && hasPickedB == true */\n      dup1\n      iszero\n      tag_94\n      jumpi\n      pop\n        /* \"RockPaperScissors.sol\":2023:2027  true */\n      0x01\n        /* \"RockPaperScissors.sol\":2009:2027  hasPickedB == true */\n      iszero\n      iszero\n        /* \"RockPaperScissors.sol\":2009:2019  hasPickedB */\n      0x04\n      0x01\n      swap1\n      sload\n      swap1\n      0x0100\n      exp\n      swap1\n      div\n      0xff\n      and\n        /* \"RockPaperScissors.sol\":2009:2027  hasPickedB == true */\n      iszero\n      iszero\n      eq\n        /* \"RockPaperScissors.sol\":1992:2027  user == userB && hasPickedB == true */\n    tag_94:\n        /* \"RockPaperScissors.sol\":1988:2057  if (user == userB && hasPickedB == true) revert userAlreadyCommited() */\n      iszero\n      tag_95\n      jumpi\n        /* \"RockPaperScissors.sol\":2036:2057  userAlreadyCommited() */\n      mload(0x40)\n      0xa245b07d00000000000000000000000000000000000000000000000000000000\n      dup2\n      mstore\n      0x04\n      add\n      mload(0x40)\n      dup1\n      swap2\n      sub\n      swap1\n      revert\n        /* \"RockPaperScissors.sol\":1988:2057  if (user == userB && hasPickedB == true) revert userAlreadyCommited() */\n    tag_95:\n        /* \"RockPaperScissors.sol\":3232:3237  userA */\n      0x00\n      dup1\n      sload\n      swap1\n      0x0100\n      exp\n      swap1\n      div\n      0xffffffffffffffffffffffffffffffffffffffff\n      and\n        /* \"RockPaperScissors.sol\":3218:3237  msg.sender == userA */\n      0xffffffffffffffffffffffffffffffffffffffff\n      and\n        /* \"RockPaperScissors.sol\":3218:3228  msg.sender */\n      caller\n        /* \"RockPaperScissors.sol\":3218:3237  msg.sender == userA */\n      0xffffffffffffffffffffffffffffffffffffffff\n      and\n      eq\n        /* \"RockPaperScissors.sol\":3214:3416  if (msg.sender == userA) {\r... */\n      iszero\n      tag_97\n      jumpi\n        /* \"RockPaperScissors.sol\":3267:3271  true */\n      0x01\n        /* \"RockPaperScissors.sol\":3254:3264  hasPickedA */\n      0x04\n      0x00\n        /* \"RockPaperScissors.sol\":3254:3271  hasPickedA = true */\n      0x0100\n      exp\n      dup2\n      sload\n      dup2\n      0xff\n      mul\n      not\n      and\n      swap1\n      dup4\n      iszero\n      iszero\n      mul\n      or\n      swap1\n      sstore\n      pop\n        /* \"RockPaperScissors.sol\":3300:3308  userPick */\n      dup2\n        /* \"RockPaperScissors.sol\":3286:3297  commitmentA */\n      0x05\n        /* \"RockPaperScissors.sol\":3286:3308  commitmentA = userPick */\n      dup2\n      swap1\n      sstore\n      pop\n        /* \"RockPaperScissors.sol\":3214:3416  if (msg.sender == userA) {\r... */\n      jump(tag_98)\n    tag_97:\n        /* \"RockPaperScissors.sol\":3363:3367  true */\n      0x01\n        /* \"RockPaperScissors.sol\":3350:3360  hasPickedB */\n      0x04\n      0x01\n        /* \"RockPaperScissors.sol\":3350:3367  hasPickedB = true */\n      0x0100\n      exp\n      dup2\n      sload\n      dup2\n      0xff\n      mul\n      not\n      and\n      swap1\n      dup4\n      iszero\n      iszero\n      mul\n      or\n      swap1\n      sstore\n      pop\n        /* \"RockPaperScissors.sol\":3396:3404  userPick */\n      dup2\n        /* \"RockPaperScissors.sol\":3382:3393  commitmentB */\n      0x06\n        /* \"RockPaperScissors.sol\":3382:3404  commitmentB = userPick */\n      dup2\n      swap1\n      sstore\n      pop\n        /* \"RockPaperScissors.sol\":3214:3416  if (msg.sender == userA) {\r... */\n    tag_98:\n        /* \"RockPaperScissors.sol\":3118:3423  function pick(bytes32 userPick) external \r... */\n      pop\n      pop\n      jump\t// out\n        /* \"RockPaperScissors.sol\":232:260  address payable public userB */\n    tag_53:\n      0x01\n      0x00\n      swap1\n      sload\n      swap1\n      0x0100\n      exp\n      swap1\n      div\n      0xffffffffffffffffffffffffffffffffffffffff\n      and\n      dup2\n      jump\t// out\n        /* \"RockPaperScissors.sol\":197:225  address payable public userA */\n    tag_57:\n      0x00\n      dup1\n      sload\n      swap1\n      0x0100\n      exp\n      swap1\n      div\n      0xffffffffffffffffffffffffffffffffffffffff\n      and\n      dup2\n      jump\t// out\n        /* \"RockPaperScissors.sol\":315:332  uint public prize */\n    tag_60:\n      sload(0x03)\n      dup2\n      jump\t// out\n        /* \"RockPaperScissors.sol\":411:433  bool public hasPickedA */\n    tag_64:\n      0x04\n      0x00\n      swap1\n      sload\n      swap1\n      0x0100\n      exp\n      swap1\n      div\n      0xff\n      and\n      dup2\n      jump\t// out\n        /* \"RockPaperScissors.sol\":4178:7506  function announceResult() external {\r... */\n    tag_67:\n        /* \"RockPaperScissors.sol\":4237:4241  true */\n      0x01\n        /* \"RockPaperScissors.sol\":4228:4241  ended == true */\n      iszero\n      iszero\n        /* \"RockPaperScissors.sol\":4228:4233  ended */\n      0x0a\n      0x00\n      swap1\n      sload\n      swap1\n      0x0100\n      exp\n      swap1\n      div\n      0xff\n      and\n        /* \"RockPaperScissors.sol\":4228:4241  ended == true */\n      iszero\n      iszero\n      eq\n        /* \"RockPaperScissors.sol\":4224:4262  if (ended == true) revert gamedEnded() */\n      iszero\n      tag_100\n      jumpi\n        /* \"RockPaperScissors.sol\":4250:4262  gamedEnded() */\n      mload(0x40)\n      0xcda3c43d00000000000000000000000000000000000000000000000000000000\n      dup2\n      mstore\n      0x04\n      add\n      mload(0x40)\n      dup1\n      swap2\n      sub\n      swap1\n      revert\n        /* \"RockPaperScissors.sol\":4224:4262  if (ended == true) revert gamedEnded() */\n    tag_100:\n        /* \"RockPaperScissors.sol\":4291:4298  manager */\n      0x02\n      0x00\n      swap1\n      sload\n      swap1\n      0x0100\n      exp\n      swap1\n      div\n      0xffffffffffffffffffffffffffffffffffffffff\n      and\n        /* \"RockPaperScissors.sol\":4277:4298  msg.sender != manager */\n      0xffffffffffffffffffffffffffffffffffffffff\n      and\n        /* \"RockPaperScissors.sol\":4277:4287  msg.sender */\n      caller\n        /* \"RockPaperScissors.sol\":4277:4298  msg.sender != manager */\n      0xffffffffffffffffffffffffffffffffffffffff\n      and\n      eq\n      iszero\n        /* \"RockPaperScissors.sol\":4277:4321  msg.sender != manager && msg.sender != userA */\n      dup1\n      iszero\n      tag_101\n      jumpi\n      pop\n        /* \"RockPaperScissors.sol\":4316:4321  userA */\n      0x00\n      dup1\n      sload\n      swap1\n      0x0100\n      exp\n      swap1\n      div\n      0xffffffffffffffffffffffffffffffffffffffff\n      and\n        /* \"RockPaperScissors.sol\":4302:4321  msg.sender != userA */\n      0xffffffffffffffffffffffffffffffffffffffff\n      and\n        /* \"RockPaperScissors.sol\":4302:4312  msg.sender */\n      caller\n        /* \"RockPaperScissors.sol\":4302:4321  msg.sender != userA */\n      0xffffffffffffffffffffffffffffffffffffffff\n      and\n      eq\n      iszero\n        /* \"RockPaperScissors.sol\":4277:4321  msg.sender != manager && msg.sender != userA */\n    tag_101:\n        /* \"RockPaperScissors.sol\":4277:4344  msg.sender != manager && msg.sender != userA && msg.sender != userB */\n      dup1\n      iszero\n      tag_102\n      jumpi\n      pop\n        /* \"RockPaperScissors.sol\":4339:4344  userB */\n      0x01\n      0x00\n      swap1\n      sload\n      swap1\n      0x0100\n      exp\n      swap1\n      div\n      0xffffffffffffffffffffffffffffffffffffffff\n      and\n        /* \"RockPaperScissors.sol\":4325:4344  msg.sender != userB */\n      0xffffffffffffffffffffffffffffffffffffffff\n      and\n        /* \"RockPaperScissors.sol\":4325:4335  msg.sender */\n      caller\n        /* \"RockPaperScissors.sol\":4325:4344  msg.sender != userB */\n      0xffffffffffffffffffffffffffffffffffffffff\n      and\n      eq\n      iszero\n        /* \"RockPaperScissors.sol\":4277:4344  msg.sender != manager && msg.sender != userA && msg.sender != userB */\n    tag_102:\n        /* \"RockPaperScissors.sol\":4273:4394  if (msg.sender != manager && msg.sender != userA && msg.sender != userB)\r... */\n      iszero\n      tag_103\n      jumpi\n        /* \"RockPaperScissors.sol\":4366:4394  noRightToAnnounceTheResult() */\n      mload(0x40)\n      0x08fbade400000000000000000000000000000000000000000000000000000000\n      dup2\n      mstore\n      0x04\n      add\n      mload(0x40)\n      dup1\n      swap2\n      sub\n      swap1\n      revert\n        /* \"RockPaperScissors.sol\":4273:4394  if (msg.sender != manager && msg.sender != userA && msg.sender != userB)\r... */\n    tag_103:\n        /* \"RockPaperScissors.sol\":4413:4417  true */\n      0x01\n        /* \"RockPaperScissors.sol\":4405:4410  ended */\n      0x0a\n      0x00\n        /* \"RockPaperScissors.sol\":4405:4417  ended = true */\n      0x0100\n      exp\n      dup2\n      sload\n      dup2\n      0xff\n      mul\n      not\n      and\n      swap1\n      dup4\n      iszero\n      iszero\n      mul\n      or\n      swap1\n      sstore\n      pop\n        /* \"RockPaperScissors.sol\":4448:4452  true */\n      0x01\n        /* \"RockPaperScissors.sol\":4432:4452  hasRevealedA == true */\n      iszero\n      iszero\n        /* \"RockPaperScissors.sol\":4432:4444  hasRevealedA */\n      0x07\n      0x00\n      swap1\n      sload\n      swap1\n      0x0100\n      exp\n      swap1\n      div\n      0xff\n      and\n        /* \"RockPaperScissors.sol\":4432:4452  hasRevealedA == true */\n      iszero\n      iszero\n      eq\n        /* \"RockPaperScissors.sol\":4432:4476  hasRevealedA == true && hasRevealedB == true */\n      dup1\n      iszero\n      tag_104\n      jumpi\n      pop\n        /* \"RockPaperScissors.sol\":4472:4476  true */\n      0x01\n        /* \"RockPaperScissors.sol\":4456:4476  hasRevealedB == true */\n      iszero\n      iszero\n        /* \"RockPaperScissors.sol\":4456:4468  hasRevealedB */\n      0x07\n      0x01\n      swap1\n      sload\n      swap1\n      0x0100\n      exp\n      swap1\n      div\n      0xff\n      and\n        /* \"RockPaperScissors.sol\":4456:4476  hasRevealedB == true */\n      iszero\n      iszero\n      eq\n        /* \"RockPaperScissors.sol\":4432:4476  hasRevealedA == true && hasRevealedB == true */\n    tag_104:\n        /* \"RockPaperScissors.sol\":4428:7479  if (hasRevealedA == true && hasRevealedB == true) { // Both revealed\r... */\n      iszero\n      tag_105\n      jumpi\n        /* \"RockPaperScissors.sol\":4510:4521  uint stateA */\n      0x00\n        /* \"RockPaperScissors.sol\":4524:4544  parseUserPick(pickA) */\n      tag_106\n        /* \"RockPaperScissors.sol\":4538:4543  pickA */\n      sload(0x08)\n        /* \"RockPaperScissors.sol\":4524:4537  parseUserPick */\n      tag_107\n        /* \"RockPaperScissors.sol\":4524:4544  parseUserPick(pickA) */\n      jump\t// in\n    tag_106:\n        /* \"RockPaperScissors.sol\":4510:4544  uint stateA = parseUserPick(pickA) */\n      swap1\n      pop\n        /* \"RockPaperScissors.sol\":4559:4570  uint stateB */\n      0x00\n        /* \"RockPaperScissors.sol\":4573:4593  parseUserPick(pickB) */\n      tag_108\n        /* \"RockPaperScissors.sol\":4587:4592  pickB */\n      sload(0x09)\n        /* \"RockPaperScissors.sol\":4573:4586  parseUserPick */\n      tag_107\n        /* \"RockPaperScissors.sol\":4573:4593  parseUserPick(pickB) */\n      jump\t// in\n    tag_108:\n        /* \"RockPaperScissors.sol\":4559:4593  uint stateB = parseUserPick(pickB) */\n      swap1\n      pop\n        /* \"RockPaperScissors.sol\":4621:4622  0 */\n      0x00\n        /* \"RockPaperScissors.sol\":4612:4618  stateA */\n      dup3\n        /* \"RockPaperScissors.sol\":4612:4622  stateA > 0 */\n      gt\n        /* \"RockPaperScissors.sol\":4612:4636  stateA > 0 && stateB > 0 */\n      dup1\n      iszero\n      tag_109\n      jumpi\n      pop\n        /* \"RockPaperScissors.sol\":4635:4636  0 */\n      0x00\n        /* \"RockPaperScissors.sol\":4626:4632  stateB */\n      dup2\n        /* \"RockPaperScissors.sol\":4626:4636  stateB > 0 */\n      gt\n        /* \"RockPaperScissors.sol\":4612:4636  stateA > 0 && stateB > 0 */\n    tag_109:\n        /* \"RockPaperScissors.sol\":4608:7004  if (stateA > 0 && stateB > 0) { // Both inputs are correct\r... */\n      iszero\n      tag_110\n      jumpi\n        /* \"RockPaperScissors.sol\":4811:4812  1 */\n      0x01\n        /* \"RockPaperScissors.sol\":4801:4807  stateA */\n      dup3\n        /* \"RockPaperScissors.sol\":4801:4812  stateA == 1 */\n      eq\n        /* \"RockPaperScissors.sol\":4797:6512  if (stateA == 1) {\r... */\n      iszero\n      tag_111\n      jumpi\n        /* \"RockPaperScissors.sol\":4851:4852  1 */\n      0x01\n        /* \"RockPaperScissors.sol\":4841:4847  stateB */\n      dup2\n        /* \"RockPaperScissors.sol\":4841:4852  stateB == 1 */\n      eq\n        /* \"RockPaperScissors.sol\":4837:5340  if (stateB == 1) {\r... */\n      iszero\n      tag_112\n      jumpi\n        /* \"RockPaperScissors.sol\":4886:4891  tie() */\n      0xd6f5c93907b47fb5605cafc7535e8f56e8ce072b6259b851602c62e57a4dc60d\n      mload(0x40)\n      mload(0x40)\n      dup1\n      swap2\n      sub\n      swap1\n      log1\n        /* \"RockPaperScissors.sol\":4918:4923  userA */\n      0x00\n      dup1\n      sload\n      swap1\n      0x0100\n      exp\n      swap1\n      div\n      0xffffffffffffffffffffffffffffffffffffffff\n      and\n        /* \"RockPaperScissors.sol\":4918:4932  userA.transfer */\n      0xffffffffffffffffffffffffffffffffffffffff\n      and\n        /* \"RockPaperScissors.sol\":4918:4943  userA.transfer((prize/2)) */\n      0x08fc\n        /* \"RockPaperScissors.sol\":4940:4941  2 */\n      0x02\n        /* \"RockPaperScissors.sol\":4934:4939  prize */\n      sload(0x03)\n        /* \"RockPaperScissors.sol\":4934:4941  prize/2 */\n      tag_113\n      swap2\n      swap1\n      tag_114\n      jump\t// in\n    tag_113:\n        /* \"RockPaperScissors.sol\":4918:4943  userA.transfer((prize/2)) */\n      swap1\n      dup2\n      iszero\n      mul\n      swap1\n      mload(0x40)\n      0x00\n      mload(0x40)\n      dup1\n      dup4\n      sub\n      dup2\n      dup6\n      dup9\n      dup9\n      call\n      swap4\n      pop\n      pop\n      pop\n      pop\n      iszero\n      dup1\n      iszero\n      tag_116\n      jumpi\n      returndatasize\n      0x00\n      dup1\n      returndatacopy\n      revert(0x00, returndatasize)\n    tag_116:\n      pop\n        /* \"RockPaperScissors.sol\":4970:4975  userB */\n      0x01\n      0x00\n      swap1\n      sload\n      swap1\n      0x0100\n      exp\n      swap1\n      div\n      0xffffffffffffffffffffffffffffffffffffffff\n      and\n        /* \"RockPaperScissors.sol\":4970:4984  userB.transfer */\n      0xffffffffffffffffffffffffffffffffffffffff\n      and\n        /* \"RockPaperScissors.sol\":4970:4995  userB.transfer((prize/2)) */\n      0x08fc\n        /* \"RockPaperScissors.sol\":4992:4993  2 */\n      0x02\n        /* \"RockPaperScissors.sol\":4986:4991  prize */\n      sload(0x03)\n        /* \"RockPaperScissors.sol\":4986:4993  prize/2 */\n      tag_117\n      swap2\n      swap1\n      tag_114\n      jump\t// in\n    tag_117:\n        /* \"RockPaperScissors.sol\":4970:4995  userB.transfer((prize/2)) */\n      swap1\n      dup2\n      iszero\n      mul\n      swap1\n      mload(0x40)\n      0x00\n      mload(0x40)\n      dup1\n      dup4\n      sub\n      dup2\n      dup6\n      dup9\n      dup9\n      call\n      swap4\n      pop\n      pop\n      pop\n      pop\n      iszero\n      dup1\n      iszero\n      tag_119\n      jumpi\n      returndatasize\n      0x00\n      dup1\n      returndatacopy\n      revert(0x00, returndatasize)\n    tag_119:\n      pop\n        /* \"RockPaperScissors.sol\":4837:5340  if (stateB == 1) {\r... */\n      jump(tag_120)\n    tag_112:\n        /* \"RockPaperScissors.sol\":5060:5061  2 */\n      0x02\n        /* \"RockPaperScissors.sol\":5050:5056  stateB */\n      dup2\n        /* \"RockPaperScissors.sol\":5050:5061  stateB == 2 */\n      eq\n        /* \"RockPaperScissors.sol\":5046:5340  if (stateB == 2) {\r... */\n      iszero\n      tag_121\n      jumpi\n        /* \"RockPaperScissors.sol\":5095:5116  announceWinner(userB) */\n      0xb8da1b0c48f64354010c03d6da0395ab8afa6e195dc68d8a02e23ee0ae53cf6f\n        /* \"RockPaperScissors.sol\":5110:5115  userB */\n      0x01\n      0x00\n      swap1\n      sload\n      swap1\n      0x0100\n      exp\n      swap1\n      div\n      0xffffffffffffffffffffffffffffffffffffffff\n      and\n        /* \"RockPaperScissors.sol\":5095:5116  announceWinner(userB) */\n      mload(0x40)\n      tag_122\n      swap2\n      swap1\n      tag_123\n      jump\t// in\n    tag_122:\n      mload(0x40)\n      dup1\n      swap2\n      sub\n      swap1\n      log1\n        /* \"RockPaperScissors.sol\":5143:5148  userB */\n      0x01\n      0x00\n      swap1\n      sload\n      swap1\n      0x0100\n      exp\n      swap1\n      div\n      0xffffffffffffffffffffffffffffffffffffffff\n      and\n        /* \"RockPaperScissors.sol\":5143:5157  userB.transfer */\n      0xffffffffffffffffffffffffffffffffffffffff\n      and\n        /* \"RockPaperScissors.sol\":5143:5164  userB.transfer(prize) */\n      0x08fc\n        /* \"RockPaperScissors.sol\":5158:5163  prize */\n      sload(0x03)\n        /* \"RockPaperScissors.sol\":5143:5164  userB.transfer(prize) */\n      swap1\n      dup2\n      iszero\n      mul\n      swap1\n      mload(0x40)\n      0x00\n      mload(0x40)\n      dup1\n      dup4\n      sub\n      dup2\n      dup6\n      dup9\n      dup9\n      call\n      swap4\n      pop\n      pop\n      pop\n      pop\n      iszero\n      dup1\n      iszero\n      tag_125\n      jumpi\n      returndatasize\n      0x00\n      dup1\n      returndatacopy\n      revert(0x00, returndatasize)\n    tag_125:\n      pop\n        /* \"RockPaperScissors.sol\":5046:5340  if (stateB == 2) {\r... */\n      jump(tag_126)\n    tag_121:\n        /* \"RockPaperScissors.sol\":5247:5268  announceWinner(userA) */\n      0xb8da1b0c48f64354010c03d6da0395ab8afa6e195dc68d8a02e23ee0ae53cf6f\n        /* \"RockPaperScissors.sol\":5262:5267  userA */\n      0x00\n      dup1\n      sload\n      swap1\n      0x0100\n      exp\n      swap1\n      div\n      0xffffffffffffffffffffffffffffffffffffffff\n      and\n        /* \"RockPaperScissors.sol\":5247:5268  announceWinner(userA) */\n      mload(0x40)\n      tag_127\n      swap2\n      swap1\n      tag_123\n      jump\t// in\n    tag_127:\n      mload(0x40)\n      dup1\n      swap2\n      sub\n      swap1\n      log1\n        /* \"RockPaperScissors.sol\":5295:5300  userA */\n      0x00\n      dup1\n      sload\n      swap1\n      0x0100\n      exp\n      swap1\n      div\n      0xffffffffffffffffffffffffffffffffffffffff\n      and\n        /* \"RockPaperScissors.sol\":5295:5309  userA.transfer */\n      0xffffffffffffffffffffffffffffffffffffffff\n      and\n        /* \"RockPaperScissors.sol\":5295:5316  userA.transfer(prize) */\n      0x08fc\n        /* \"RockPaperScissors.sol\":5310:5315  prize */\n      sload(0x03)\n        /* \"RockPaperScissors.sol\":5295:5316  userA.transfer(prize) */\n      swap1\n      dup2\n      iszero\n      mul\n      swap1\n      mload(0x40)\n      0x00\n      mload(0x40)\n      dup1\n      dup4\n      sub\n      dup2\n      dup6\n      dup9\n      dup9\n      call\n      swap4\n      pop\n      pop\n      pop\n      pop\n      iszero\n      dup1\n      iszero\n      tag_129\n      jumpi\n      returndatasize\n      0x00\n      dup1\n      returndatacopy\n      revert(0x00, returndatasize)\n    tag_129:\n      pop\n        /* \"RockPaperScissors.sol\":5046:5340  if (stateB == 2) {\r... */\n    tag_126:\n        /* \"RockPaperScissors.sol\":4837:5340  if (stateB == 1) {\r... */\n    tag_120:\n        /* \"RockPaperScissors.sol\":4797:6512  if (stateA == 1) {\r... */\n      jump(tag_130)\n    tag_111:\n        /* \"RockPaperScissors.sol\":5396:5397  2 */\n      0x02\n        /* \"RockPaperScissors.sol\":5386:5392  stateA */\n      dup3\n        /* \"RockPaperScissors.sol\":5386:5397  stateA == 2 */\n      eq\n        /* \"RockPaperScissors.sol\":5382:6512  if (stateA == 2) {\r... */\n      iszero\n      tag_131\n      jumpi\n        /* \"RockPaperScissors.sol\":5436:5437  1 */\n      0x01\n        /* \"RockPaperScissors.sol\":5426:5432  stateB */\n      dup2\n        /* \"RockPaperScissors.sol\":5426:5437  stateB == 1 */\n      eq\n        /* \"RockPaperScissors.sol\":5422:5925  if (stateB == 1) {\r... */\n      iszero\n      tag_132\n      jumpi\n        /* \"RockPaperScissors.sol\":5471:5492  announceWinner(userA) */\n      0xb8da1b0c48f64354010c03d6da0395ab8afa6e195dc68d8a02e23ee0ae53cf6f\n        /* \"RockPaperScissors.sol\":5486:5491  userA */\n      0x00\n      dup1\n      sload\n      swap1\n      0x0100\n      exp\n      swap1\n      div\n      0xffffffffffffffffffffffffffffffffffffffff\n      and\n        /* \"RockPaperScissors.sol\":5471:5492  announceWinner(userA) */\n      mload(0x40)\n      tag_133\n      swap2\n      swap1\n      tag_123\n      jump\t// in\n    tag_133:\n      mload(0x40)\n      dup1\n      swap2\n      sub\n      swap1\n      log1\n        /* \"RockPaperScissors.sol\":5519:5524  userA */\n      0x00\n      dup1\n      sload\n      swap1\n      0x0100\n      exp\n      swap1\n      div\n      0xffffffffffffffffffffffffffffffffffffffff\n      and\n        /* \"RockPaperScissors.sol\":5519:5533  userA.transfer */\n      0xffffffffffffffffffffffffffffffffffffffff\n      and\n        /* \"RockPaperScissors.sol\":5519:5540  userA.transfer(prize) */\n      0x08fc\n        /* \"RockPaperScissors.sol\":5534:5539  prize */\n      sload(0x03)\n        /* \"RockPaperScissors.sol\":5519:5540  userA.transfer(prize) */\n      swap1\n      dup2\n      iszero\n      mul\n      swap1\n      mload(0x40)\n      0x00\n      mload(0x40)\n      dup1\n      dup4\n      sub\n      dup2\n      dup6\n      dup9\n      dup9\n      call\n      swap4\n      pop\n      pop\n      pop\n      pop\n      iszero\n      dup1\n      iszero\n      tag_135\n      jumpi\n      returndatasize\n      0x00\n      dup1\n      returndatacopy\n      revert(0x00, returndatasize)\n    tag_135:\n      pop\n        /* \"RockPaperScissors.sol\":5422:5925  if (stateB == 1) {\r... */\n      jump(tag_136)\n    tag_132:\n        /* \"RockPaperScissors.sol\":5605:5606  2 */\n      0x02\n        /* \"RockPaperScissors.sol\":5595:5601  stateB */\n      dup2\n        /* \"RockPaperScissors.sol\":5595:5606  stateB == 2 */\n      eq\n        /* \"RockPaperScissors.sol\":5591:5925  if (stateB == 2) {\r... */\n      iszero\n      tag_137\n      jumpi\n        /* \"RockPaperScissors.sol\":5640:5645  tie() */\n      0xd6f5c93907b47fb5605cafc7535e8f56e8ce072b6259b851602c62e57a4dc60d\n      mload(0x40)\n      mload(0x40)\n      dup1\n      swap2\n      sub\n      swap1\n      log1\n        /* \"RockPaperScissors.sol\":5672:5677  userA */\n      0x00\n      dup1\n      sload\n      swap1\n      0x0100\n      exp\n      swap1\n      div\n      0xffffffffffffffffffffffffffffffffffffffff\n      and\n        /* \"RockPaperScissors.sol\":5672:5686  userA.transfer */\n      0xffffffffffffffffffffffffffffffffffffffff\n      and\n        /* \"RockPaperScissors.sol\":5672:5697  userA.transfer((prize/2)) */\n      0x08fc\n        /* \"RockPaperScissors.sol\":5694:5695  2 */\n      0x02\n        /* \"RockPaperScissors.sol\":5688:5693  prize */\n      sload(0x03)\n        /* \"RockPaperScissors.sol\":5688:5695  prize/2 */\n      tag_138\n      swap2\n      swap1\n      tag_114\n      jump\t// in\n    tag_138:\n        /* \"RockPaperScissors.sol\":5672:5697  userA.transfer((prize/2)) */\n      swap1\n      dup2\n      iszero\n      mul\n      swap1\n      mload(0x40)\n      0x00\n      mload(0x40)\n      dup1\n      dup4\n      sub\n      dup2\n      dup6\n      dup9\n      dup9\n      call\n      swap4\n      pop\n      pop\n      pop\n      pop\n      iszero\n      dup1\n      iszero\n      tag_140\n      jumpi\n      returndatasize\n      0x00\n      dup1\n      returndatacopy\n      revert(0x00, returndatasize)\n    tag_140:\n      pop\n        /* \"RockPaperScissors.sol\":5724:5729  userB */\n      0x01\n      0x00\n      swap1\n      sload\n      swap1\n      0x0100\n      exp\n      swap1\n      div\n      0xffffffffffffffffffffffffffffffffffffffff\n      and\n        /* \"RockPaperScissors.sol\":5724:5738  userB.transfer */\n      0xffffffffffffffffffffffffffffffffffffffff\n      and\n        /* \"RockPaperScissors.sol\":5724:5749  userB.transfer((prize/2)) */\n      0x08fc\n        /* \"RockPaperScissors.sol\":5746:5747  2 */\n      0x02\n        /* \"RockPaperScissors.sol\":5740:5745  prize */\n      sload(0x03)\n        /* \"RockPaperScissors.sol\":5740:5747  prize/2 */\n      tag_141\n      swap2\n      swap1\n      tag_114\n      jump\t// in\n    tag_141:\n        /* \"RockPaperScissors.sol\":5724:5749  userB.transfer((prize/2)) */\n      swap1\n      dup2\n      iszero\n      mul\n      swap1\n      mload(0x40)\n      0x00\n      mload(0x40)\n      dup1\n      dup4\n      sub\n      dup2\n      dup6\n      dup9\n      dup9\n      call\n      swap4\n      pop\n      pop\n      pop\n      pop\n      iszero\n      dup1\n      iszero\n      tag_143\n      jumpi\n      returndatasize\n      0x00\n      dup1\n      returndatacopy\n      revert(0x00, returndatasize)\n    tag_143:\n      pop\n        /* \"RockPaperScissors.sol\":5591:5925  if (stateB == 2) {\r... */\n      jump(tag_144)\n    tag_137:\n        /* \"RockPaperScissors.sol\":5832:5853  announceWinner(userB) */\n      0xb8da1b0c48f64354010c03d6da0395ab8afa6e195dc68d8a02e23ee0ae53cf6f\n        /* \"RockPaperScissors.sol\":5847:5852  userB */\n      0x01\n      0x00\n      swap1\n      sload\n      swap1\n      0x0100\n      exp\n      swap1\n      div\n      0xffffffffffffffffffffffffffffffffffffffff\n      and\n        /* \"RockPaperScissors.sol\":5832:5853  announceWinner(userB) */\n      mload(0x40)\n      tag_145\n      swap2\n      swap1\n      tag_123\n      jump\t// in\n    tag_145:\n      mload(0x40)\n      dup1\n      swap2\n      sub\n      swap1\n      log1\n        /* \"RockPaperScissors.sol\":5880:5885  userB */\n      0x01\n      0x00\n      swap1\n      sload\n      swap1\n      0x0100\n      exp\n      swap1\n      div\n      0xffffffffffffffffffffffffffffffffffffffff\n      and\n        /* \"RockPaperScissors.sol\":5880:5894  userB.transfer */\n      0xffffffffffffffffffffffffffffffffffffffff\n      and\n        /* \"RockPaperScissors.sol\":5880:5901  userB.transfer(prize) */\n      0x08fc\n        /* \"RockPaperScissors.sol\":5895:5900  prize */\n      sload(0x03)\n        /* \"RockPaperScissors.sol\":5880:5901  userB.transfer(prize) */\n      swap1\n      dup2\n      iszero\n      mul\n      swap1\n      mload(0x40)\n      0x00\n      mload(0x40)\n      dup1\n      dup4\n      sub\n      dup2\n      dup6\n      dup9\n      dup9\n      call\n      swap4\n      pop\n      pop\n      pop\n      pop\n      iszero\n      dup1\n      iszero\n      tag_147\n      jumpi\n      returndatasize\n      0x00\n      dup1\n      returndatacopy\n      revert(0x00, returndatasize)\n    tag_147:\n      pop\n        /* \"RockPaperScissors.sol\":5591:5925  if (stateB == 2) {\r... */\n    tag_144:\n        /* \"RockPaperScissors.sol\":5422:5925  if (stateB == 1) {\r... */\n    tag_136:\n        /* \"RockPaperScissors.sol\":5382:6512  if (stateA == 2) {\r... */\n      jump(tag_148)\n    tag_131:\n        /* \"RockPaperScissors.sol\":6004:6005  1 */\n      0x01\n        /* \"RockPaperScissors.sol\":5994:6000  stateB */\n      dup2\n        /* \"RockPaperScissors.sol\":5994:6005  stateB == 1 */\n      eq\n        /* \"RockPaperScissors.sol\":5990:6493  if (stateB == 1) {\r... */\n      iszero\n      tag_149\n      jumpi\n        /* \"RockPaperScissors.sol\":6039:6060  announceWinner(userB) */\n      0xb8da1b0c48f64354010c03d6da0395ab8afa6e195dc68d8a02e23ee0ae53cf6f\n        /* \"RockPaperScissors.sol\":6054:6059  userB */\n      0x01\n      0x00\n      swap1\n      sload\n      swap1\n      0x0100\n      exp\n      swap1\n      div\n      0xffffffffffffffffffffffffffffffffffffffff\n      and\n        /* \"RockPaperScissors.sol\":6039:6060  announceWinner(userB) */\n      mload(0x40)\n      tag_150\n      swap2\n      swap1\n      tag_123\n      jump\t// in\n    tag_150:\n      mload(0x40)\n      dup1\n      swap2\n      sub\n      swap1\n      log1\n        /* \"RockPaperScissors.sol\":6087:6092  userB */\n      0x01\n      0x00\n      swap1\n      sload\n      swap1\n      0x0100\n      exp\n      swap1\n      div\n      0xffffffffffffffffffffffffffffffffffffffff\n      and\n        /* \"RockPaperScissors.sol\":6087:6101  userB.transfer */\n      0xffffffffffffffffffffffffffffffffffffffff\n      and\n        /* \"RockPaperScissors.sol\":6087:6108  userB.transfer(prize) */\n      0x08fc\n        /* \"RockPaperScissors.sol\":6102:6107  prize */\n      sload(0x03)\n        /* \"RockPaperScissors.sol\":6087:6108  userB.transfer(prize) */\n      swap1\n      dup2\n      iszero\n      mul\n      swap1\n      mload(0x40)\n      0x00\n      mload(0x40)\n      dup1\n      dup4\n      sub\n      dup2\n      dup6\n      dup9\n      dup9\n      call\n      swap4\n      pop\n      pop\n      pop\n      pop\n      iszero\n      dup1\n      iszero\n      tag_152\n      jumpi\n      returndatasize\n      0x00\n      dup1\n      returndatacopy\n      revert(0x00, returndatasize)\n    tag_152:\n      pop\n        /* \"RockPaperScissors.sol\":5990:6493  if (stateB == 1) {\r... */\n      jump(tag_153)\n    tag_149:\n        /* \"RockPaperScissors.sol\":6173:6174  2 */\n      0x02\n        /* \"RockPaperScissors.sol\":6163:6169  stateB */\n      dup2\n        /* \"RockPaperScissors.sol\":6163:6174  stateB == 2 */\n      eq\n        /* \"RockPaperScissors.sol\":6159:6493  if (stateB == 2) {\r... */\n      iszero\n      tag_154\n      jumpi\n        /* \"RockPaperScissors.sol\":6208:6229  announceWinner(userA) */\n      0xb8da1b0c48f64354010c03d6da0395ab8afa6e195dc68d8a02e23ee0ae53cf6f\n        /* \"RockPaperScissors.sol\":6223:6228  userA */\n      0x00\n      dup1\n      sload\n      swap1\n      0x0100\n      exp\n      swap1\n      div\n      0xffffffffffffffffffffffffffffffffffffffff\n      and\n        /* \"RockPaperScissors.sol\":6208:6229  announceWinner(userA) */\n      mload(0x40)\n      tag_155\n      swap2\n      swap1\n      tag_123\n      jump\t// in\n    tag_155:\n      mload(0x40)\n      dup1\n      swap2\n      sub\n      swap1\n      log1\n        /* \"RockPaperScissors.sol\":6256:6261  userA */\n      0x00\n      dup1\n      sload\n      swap1\n      0x0100\n      exp\n      swap1\n      div\n      0xffffffffffffffffffffffffffffffffffffffff\n      and\n        /* \"RockPaperScissors.sol\":6256:6270  userA.transfer */\n      0xffffffffffffffffffffffffffffffffffffffff\n      and\n        /* \"RockPaperScissors.sol\":6256:6277  userA.transfer(prize) */\n      0x08fc\n        /* \"RockPaperScissors.sol\":6271:6276  prize */\n      sload(0x03)\n        /* \"RockPaperScissors.sol\":6256:6277  userA.transfer(prize) */\n      swap1\n      dup2\n      iszero\n      mul\n      swap1\n      mload(0x40)\n      0x00\n      mload(0x40)\n      dup1\n      dup4\n      sub\n      dup2\n      dup6\n      dup9\n      dup9\n      call\n      swap4\n      pop\n      pop\n      pop\n      pop\n      iszero\n      dup1\n      iszero\n      tag_157\n      jumpi\n      returndatasize\n      0x00\n      dup1\n      returndatacopy\n      revert(0x00, returndatasize)\n    tag_157:\n      pop\n        /* \"RockPaperScissors.sol\":6159:6493  if (stateB == 2) {\r... */\n      jump(tag_158)\n    tag_154:\n        /* \"RockPaperScissors.sol\":6360:6365  tie() */\n      0xd6f5c93907b47fb5605cafc7535e8f56e8ce072b6259b851602c62e57a4dc60d\n      mload(0x40)\n      mload(0x40)\n      dup1\n      swap2\n      sub\n      swap1\n      log1\n        /* \"RockPaperScissors.sol\":6392:6397  userA */\n      0x00\n      dup1\n      sload\n      swap1\n      0x0100\n      exp\n      swap1\n      div\n      0xffffffffffffffffffffffffffffffffffffffff\n      and\n        /* \"RockPaperScissors.sol\":6392:6406  userA.transfer */\n      0xffffffffffffffffffffffffffffffffffffffff\n      and\n        /* \"RockPaperScissors.sol\":6392:6417  userA.transfer((prize/2)) */\n      0x08fc\n        /* \"RockPaperScissors.sol\":6414:6415  2 */\n      0x02\n        /* \"RockPaperScissors.sol\":6408:6413  prize */\n      sload(0x03)\n        /* \"RockPaperScissors.sol\":6408:6415  prize/2 */\n      tag_159\n      swap2\n      swap1\n      tag_114\n      jump\t// in\n    tag_159:\n        /* \"RockPaperScissors.sol\":6392:6417  userA.transfer((prize/2)) */\n      swap1\n      dup2\n      iszero\n      mul\n      swap1\n      mload(0x40)\n      0x00\n      mload(0x40)\n      dup1\n      dup4\n      sub\n      dup2\n      dup6\n      dup9\n      dup9\n      call\n      swap4\n      pop\n      pop\n      pop\n      pop\n      iszero\n      dup1\n      iszero\n      tag_161\n      jumpi\n      returndatasize\n      0x00\n      dup1\n      returndatacopy\n      revert(0x00, returndatasize)\n    tag_161:\n      pop\n        /* \"RockPaperScissors.sol\":6444:6449  userB */\n      0x01\n      0x00\n      swap1\n      sload\n      swap1\n      0x0100\n      exp\n      swap1\n      div\n      0xffffffffffffffffffffffffffffffffffffffff\n      and\n        /* \"RockPaperScissors.sol\":6444:6458  userB.transfer */\n      0xffffffffffffffffffffffffffffffffffffffff\n      and\n        /* \"RockPaperScissors.sol\":6444:6469  userB.transfer((prize/2)) */\n      0x08fc\n        /* \"RockPaperScissors.sol\":6466:6467  2 */\n      0x02\n        /* \"RockPaperScissors.sol\":6460:6465  prize */\n      sload(0x03)\n        /* \"RockPaperScissors.sol\":6460:6467  prize/2 */\n      tag_162\n      swap2\n      swap1\n      tag_114\n      jump\t// in\n    tag_162:\n        /* \"RockPaperScissors.sol\":6444:6469  userB.transfer((prize/2)) */\n      swap1\n      dup2\n      iszero\n      mul\n      swap1\n      mload(0x40)\n      0x00\n      mload(0x40)\n      dup1\n      dup4\n      sub\n      dup2\n      dup6\n      dup9\n      dup9\n      call\n      swap4\n      pop\n      pop\n      pop\n      pop\n      iszero\n      dup1\n      iszero\n      tag_164\n      jumpi\n      returndatasize\n      0x00\n      dup1\n      returndatacopy\n      revert(0x00, returndatasize)\n    tag_164:\n      pop\n        /* \"RockPaperScissors.sol\":6159:6493  if (stateB == 2) {\r... */\n    tag_158:\n        /* \"RockPaperScissors.sol\":5990:6493  if (stateB == 1) {\r... */\n    tag_153:\n        /* \"RockPaperScissors.sol\":5382:6512  if (stateA == 2) {\r... */\n    tag_148:\n        /* \"RockPaperScissors.sol\":4797:6512  if (stateA == 1) {\r... */\n    tag_130:\n        /* \"RockPaperScissors.sol\":4608:7004  if (stateA > 0 && stateB > 0) { // Both inputs are correct\r... */\n      jump(tag_165)\n    tag_110:\n        /* \"RockPaperScissors.sol\":6559:6560  0 */\n      0x00\n        /* \"RockPaperScissors.sol\":6550:6556  stateA */\n      dup3\n        /* \"RockPaperScissors.sol\":6550:6560  stateA > 0 */\n      gt\n        /* \"RockPaperScissors.sol\":6550:6575  stateA > 0 && stateB == 0 */\n      dup1\n      iszero\n      tag_166\n      jumpi\n      pop\n        /* \"RockPaperScissors.sol\":6574:6575  0 */\n      0x00\n        /* \"RockPaperScissors.sol\":6564:6570  stateB */\n      dup2\n        /* \"RockPaperScissors.sol\":6564:6575  stateB == 0 */\n      eq\n        /* \"RockPaperScissors.sol\":6550:6575  stateA > 0 && stateB == 0 */\n    tag_166:\n        /* \"RockPaperScissors.sol\":6546:7004  if (stateA > 0 && stateB == 0) {\r... */\n      iszero\n      tag_167\n      jumpi\n        /* \"RockPaperScissors.sol\":6601:6622  announceWinner(userA) */\n      0xb8da1b0c48f64354010c03d6da0395ab8afa6e195dc68d8a02e23ee0ae53cf6f\n        /* \"RockPaperScissors.sol\":6616:6621  userA */\n      0x00\n      dup1\n      sload\n      swap1\n      0x0100\n      exp\n      swap1\n      div\n      0xffffffffffffffffffffffffffffffffffffffff\n      and\n        /* \"RockPaperScissors.sol\":6601:6622  announceWinner(userA) */\n      mload(0x40)\n      tag_168\n      swap2\n      swap1\n      tag_123\n      jump\t// in\n    tag_168:\n      mload(0x40)\n      dup1\n      swap2\n      sub\n      swap1\n      log1\n        /* \"RockPaperScissors.sol\":6641:6646  userA */\n      0x00\n      dup1\n      sload\n      swap1\n      0x0100\n      exp\n      swap1\n      div\n      0xffffffffffffffffffffffffffffffffffffffff\n      and\n        /* \"RockPaperScissors.sol\":6641:6655  userA.transfer */\n      0xffffffffffffffffffffffffffffffffffffffff\n      and\n        /* \"RockPaperScissors.sol\":6641:6662  userA.transfer(prize) */\n      0x08fc\n        /* \"RockPaperScissors.sol\":6656:6661  prize */\n      sload(0x03)\n        /* \"RockPaperScissors.sol\":6641:6662  userA.transfer(prize) */\n      swap1\n      dup2\n      iszero\n      mul\n      swap1\n      mload(0x40)\n      0x00\n      mload(0x40)\n      dup1\n      dup4\n      sub\n      dup2\n      dup6\n      dup9\n      dup9\n      call\n      swap4\n      pop\n      pop\n      pop\n      pop\n      iszero\n      dup1\n      iszero\n      tag_170\n      jumpi\n      returndatasize\n      0x00\n      dup1\n      returndatacopy\n      revert(0x00, returndatasize)\n    tag_170:\n      pop\n        /* \"RockPaperScissors.sol\":6546:7004  if (stateA > 0 && stateB == 0) {\r... */\n      jump(tag_171)\n    tag_167:\n        /* \"RockPaperScissors.sol\":6711:6712  0 */\n      0x00\n        /* \"RockPaperScissors.sol\":6701:6707  stateA */\n      dup3\n        /* \"RockPaperScissors.sol\":6701:6712  stateA == 0 */\n      eq\n        /* \"RockPaperScissors.sol\":6701:6726  stateA == 0 && stateB > 0 */\n      dup1\n      iszero\n      tag_172\n      jumpi\n      pop\n        /* \"RockPaperScissors.sol\":6725:6726  0 */\n      0x00\n        /* \"RockPaperScissors.sol\":6716:6722  stateB */\n      dup2\n        /* \"RockPaperScissors.sol\":6716:6726  stateB > 0 */\n      gt\n        /* \"RockPaperScissors.sol\":6701:6726  stateA == 0 && stateB > 0 */\n    tag_172:\n        /* \"RockPaperScissors.sol\":6697:7004  if (stateA == 0 && stateB > 0) {\r... */\n      iszero\n      tag_173\n      jumpi\n        /* \"RockPaperScissors.sol\":6752:6773  announceWinner(userB) */\n      0xb8da1b0c48f64354010c03d6da0395ab8afa6e195dc68d8a02e23ee0ae53cf6f\n        /* \"RockPaperScissors.sol\":6767:6772  userB */\n      0x01\n      0x00\n      swap1\n      sload\n      swap1\n      0x0100\n      exp\n      swap1\n      div\n      0xffffffffffffffffffffffffffffffffffffffff\n      and\n        /* \"RockPaperScissors.sol\":6752:6773  announceWinner(userB) */\n      mload(0x40)\n      tag_174\n      swap2\n      swap1\n      tag_123\n      jump\t// in\n    tag_174:\n      mload(0x40)\n      dup1\n      swap2\n      sub\n      swap1\n      log1\n        /* \"RockPaperScissors.sol\":6792:6797  userB */\n      0x01\n      0x00\n      swap1\n      sload\n      swap1\n      0x0100\n      exp\n      swap1\n      div\n      0xffffffffffffffffffffffffffffffffffffffff\n      and\n        /* \"RockPaperScissors.sol\":6792:6806  userB.transfer */\n      0xffffffffffffffffffffffffffffffffffffffff\n      and\n        /* \"RockPaperScissors.sol\":6792:6813  userB.transfer(prize) */\n      0x08fc\n        /* \"RockPaperScissors.sol\":6807:6812  prize */\n      sload(0x03)\n        /* \"RockPaperScissors.sol\":6792:6813  userB.transfer(prize) */\n      swap1\n      dup2\n      iszero\n      mul\n      swap1\n      mload(0x40)\n      0x00\n      mload(0x40)\n      dup1\n      dup4\n      sub\n      dup2\n      dup6\n      dup9\n      dup9\n      call\n      swap4\n      pop\n      pop\n      pop\n      pop\n      iszero\n      dup1\n      iszero\n      tag_176\n      jumpi\n      returndatasize\n      0x00\n      dup1\n      returndatacopy\n      revert(0x00, returndatasize)\n    tag_176:\n      pop\n        /* \"RockPaperScissors.sol\":6697:7004  if (stateA == 0 && stateB > 0) {\r... */\n      jump(tag_177)\n    tag_173:\n        /* \"RockPaperScissors.sol\":6895:6900  tie() */\n      0xd6f5c93907b47fb5605cafc7535e8f56e8ce072b6259b851602c62e57a4dc60d\n      mload(0x40)\n      mload(0x40)\n      dup1\n      swap2\n      sub\n      swap1\n      log1\n        /* \"RockPaperScissors.sol\":6919:6924  userA */\n      0x00\n      dup1\n      sload\n      swap1\n      0x0100\n      exp\n      swap1\n      div\n      0xffffffffffffffffffffffffffffffffffffffff\n      and\n        /* \"RockPaperScissors.sol\":6919:6933  userA.transfer */\n      0xffffffffffffffffffffffffffffffffffffffff\n      and\n        /* \"RockPaperScissors.sol\":6919:6944  userA.transfer((prize/2)) */\n      0x08fc\n        /* \"RockPaperScissors.sol\":6941:6942  2 */\n      0x02\n        /* \"RockPaperScissors.sol\":6935:6940  prize */\n      sload(0x03)\n        /* \"RockPaperScissors.sol\":6935:6942  prize/2 */\n      tag_178\n      swap2\n      swap1\n      tag_114\n      jump\t// in\n    tag_178:\n        /* \"RockPaperScissors.sol\":6919:6944  userA.transfer((prize/2)) */\n      swap1\n      dup2\n      iszero\n      mul\n      swap1\n      mload(0x40)\n      0x00\n      mload(0x40)\n      dup1\n      dup4\n      sub\n      dup2\n      dup6\n      dup9\n      dup9\n      call\n      swap4\n      pop\n      pop\n      pop\n      pop\n      iszero\n      dup1\n      iszero\n      tag_180\n      jumpi\n      returndatasize\n      0x00\n      dup1\n      returndatacopy\n      revert(0x00, returndatasize)\n    tag_180:\n      pop\n        /* \"RockPaperScissors.sol\":6963:6968  userB */\n      0x01\n      0x00\n      swap1\n      sload\n      swap1\n      0x0100\n      exp\n      swap1\n      div\n      0xffffffffffffffffffffffffffffffffffffffff\n      and\n        /* \"RockPaperScissors.sol\":6963:6977  userB.transfer */\n      0xffffffffffffffffffffffffffffffffffffffff\n      and\n        /* \"RockPaperScissors.sol\":6963:6988  userB.transfer((prize/2)) */\n      0x08fc\n        /* \"RockPaperScissors.sol\":6985:6986  2 */\n      0x02\n        /* \"RockPaperScissors.sol\":6979:6984  prize */\n      sload(0x03)\n        /* \"RockPaperScissors.sol\":6979:6986  prize/2 */\n      tag_181\n      swap2\n      swap1\n      tag_114\n      jump\t// in\n    tag_181:\n        /* \"RockPaperScissors.sol\":6963:6988  userB.transfer((prize/2)) */\n      swap1\n      dup2\n      iszero\n      mul\n      swap1\n      mload(0x40)\n      0x00\n      mload(0x40)\n      dup1\n      dup4\n      sub\n      dup2\n      dup6\n      dup9\n      dup9\n      call\n      swap4\n      pop\n      pop\n      pop\n      pop\n      iszero\n      dup1\n      iszero\n      tag_183\n      jumpi\n      returndatasize\n      0x00\n      dup1\n      returndatacopy\n      revert(0x00, returndatasize)\n    tag_183:\n      pop\n        /* \"RockPaperScissors.sol\":6697:7004  if (stateA == 0 && stateB > 0) {\r... */\n    tag_177:\n        /* \"RockPaperScissors.sol\":6546:7004  if (stateA > 0 && stateB == 0) {\r... */\n    tag_171:\n        /* \"RockPaperScissors.sol\":4608:7004  if (stateA > 0 && stateB > 0) { // Both inputs are correct\r... */\n    tag_165:\n        /* \"RockPaperScissors.sol\":4478:7015  { // Both revealed\r... */\n      pop\n      pop\n        /* \"RockPaperScissors.sol\":4428:7479  if (hasRevealedA == true && hasRevealedB == true) { // Both revealed\r... */\n      jump(tag_184)\n    tag_105:\n        /* \"RockPaperScissors.sol\":7050:7054  true */\n      0x01\n        /* \"RockPaperScissors.sol\":7034:7054  hasRevealedA == true */\n      iszero\n      iszero\n        /* \"RockPaperScissors.sol\":7034:7046  hasRevealedA */\n      0x07\n      0x00\n      swap1\n      sload\n      swap1\n      0x0100\n      exp\n      swap1\n      div\n      0xff\n      and\n        /* \"RockPaperScissors.sol\":7034:7054  hasRevealedA == true */\n      iszero\n      iszero\n      eq\n        /* \"RockPaperScissors.sol\":7034:7079  hasRevealedA == true && hasRevealedB == false */\n      dup1\n      iszero\n      tag_185\n      jumpi\n      pop\n        /* \"RockPaperScissors.sol\":7074:7079  false */\n      0x00\n        /* \"RockPaperScissors.sol\":7058:7079  hasRevealedB == false */\n      iszero\n      iszero\n        /* \"RockPaperScissors.sol\":7058:7070  hasRevealedB */\n      0x07\n      0x01\n      swap1\n      sload\n      swap1\n      0x0100\n      exp\n      swap1\n      div\n      0xff\n      and\n        /* \"RockPaperScissors.sol\":7058:7079  hasRevealedB == false */\n      iszero\n      iszero\n      eq\n        /* \"RockPaperScissors.sol\":7034:7079  hasRevealedA == true && hasRevealedB == false */\n    tag_185:\n        /* \"RockPaperScissors.sol\":7030:7479  if (hasRevealedA == true && hasRevealedB == false) {\r... */\n      iszero\n      tag_186\n      jumpi\n        /* \"RockPaperScissors.sol\":7101:7122  announceWinner(userA) */\n      0xb8da1b0c48f64354010c03d6da0395ab8afa6e195dc68d8a02e23ee0ae53cf6f\n        /* \"RockPaperScissors.sol\":7116:7121  userA */\n      0x00\n      dup1\n      sload\n      swap1\n      0x0100\n      exp\n      swap1\n      div\n      0xffffffffffffffffffffffffffffffffffffffff\n      and\n        /* \"RockPaperScissors.sol\":7101:7122  announceWinner(userA) */\n      mload(0x40)\n      tag_187\n      swap2\n      swap1\n      tag_123\n      jump\t// in\n    tag_187:\n      mload(0x40)\n      dup1\n      swap2\n      sub\n      swap1\n      log1\n        /* \"RockPaperScissors.sol\":7137:7142  userA */\n      0x00\n      dup1\n      sload\n      swap1\n      0x0100\n      exp\n      swap1\n      div\n      0xffffffffffffffffffffffffffffffffffffffff\n      and\n        /* \"RockPaperScissors.sol\":7137:7151  userA.transfer */\n      0xffffffffffffffffffffffffffffffffffffffff\n      and\n        /* \"RockPaperScissors.sol\":7137:7158  userA.transfer(prize) */\n      0x08fc\n        /* \"RockPaperScissors.sol\":7152:7157  prize */\n      sload(0x03)\n        /* \"RockPaperScissors.sol\":7137:7158  userA.transfer(prize) */\n      swap1\n      dup2\n      iszero\n      mul\n      swap1\n      mload(0x40)\n      0x00\n      mload(0x40)\n      dup1\n      dup4\n      sub\n      dup2\n      dup6\n      dup9\n      dup9\n      call\n      swap4\n      pop\n      pop\n      pop\n      pop\n      iszero\n      dup1\n      iszero\n      tag_189\n      jumpi\n      returndatasize\n      0x00\n      dup1\n      returndatacopy\n      revert(0x00, returndatasize)\n    tag_189:\n      pop\n        /* \"RockPaperScissors.sol\":7030:7479  if (hasRevealedA == true && hasRevealedB == false) {\r... */\n      jump(tag_190)\n    tag_186:\n        /* \"RockPaperScissors.sol\":7205:7210  false */\n      0x00\n        /* \"RockPaperScissors.sol\":7189:7210  hasRevealedA == false */\n      iszero\n      iszero\n        /* \"RockPaperScissors.sol\":7189:7201  hasRevealedA */\n      0x07\n      0x00\n      swap1\n      sload\n      swap1\n      0x0100\n      exp\n      swap1\n      div\n      0xff\n      and\n        /* \"RockPaperScissors.sol\":7189:7210  hasRevealedA == false */\n      iszero\n      iszero\n      eq\n        /* \"RockPaperScissors.sol\":7189:7234  hasRevealedA == false && hasRevealedB == true */\n      dup1\n      iszero\n      tag_191\n      jumpi\n      pop\n        /* \"RockPaperScissors.sol\":7230:7234  true */\n      0x01\n        /* \"RockPaperScissors.sol\":7214:7234  hasRevealedB == true */\n      iszero\n      iszero\n        /* \"RockPaperScissors.sol\":7214:7226  hasRevealedB */\n      0x07\n      0x01\n      swap1\n      sload\n      swap1\n      0x0100\n      exp\n      swap1\n      div\n      0xff\n      and\n        /* \"RockPaperScissors.sol\":7214:7234  hasRevealedB == true */\n      iszero\n      iszero\n      eq\n        /* \"RockPaperScissors.sol\":7189:7234  hasRevealedA == false && hasRevealedB == true */\n    tag_191:\n        /* \"RockPaperScissors.sol\":7185:7479  if (hasRevealedA == false && hasRevealedB == true) {\r... */\n      iszero\n      tag_192\n      jumpi\n        /* \"RockPaperScissors.sol\":7256:7277  announceWinner(userB) */\n      0xb8da1b0c48f64354010c03d6da0395ab8afa6e195dc68d8a02e23ee0ae53cf6f\n        /* \"RockPaperScissors.sol\":7271:7276  userB */\n      0x01\n      0x00\n      swap1\n      sload\n      swap1\n      0x0100\n      exp\n      swap1\n      div\n      0xffffffffffffffffffffffffffffffffffffffff\n      and\n        /* \"RockPaperScissors.sol\":7256:7277  announceWinner(userB) */\n      mload(0x40)\n      tag_193\n      swap2\n      swap1\n      tag_123\n      jump\t// in\n    tag_193:\n      mload(0x40)\n      dup1\n      swap2\n      sub\n      swap1\n      log1\n        /* \"RockPaperScissors.sol\":7292:7297  userB */\n      0x01\n      0x00\n      swap1\n      sload\n      swap1\n      0x0100\n      exp\n      swap1\n      div\n      0xffffffffffffffffffffffffffffffffffffffff\n      and\n        /* \"RockPaperScissors.sol\":7292:7306  userB.transfer */\n      0xffffffffffffffffffffffffffffffffffffffff\n      and\n        /* \"RockPaperScissors.sol\":7292:7313  userB.transfer(prize) */\n      0x08fc\n        /* \"RockPaperScissors.sol\":7307:7312  prize */\n      sload(0x03)\n        /* \"RockPaperScissors.sol\":7292:7313  userB.transfer(prize) */\n      swap1\n      dup2\n      iszero\n      mul\n      swap1\n      mload(0x40)\n      0x00\n      mload(0x40)\n      dup1\n      dup4\n      sub\n      dup2\n      dup6\n      dup9\n      dup9\n      call\n      swap4\n      pop\n      pop\n      pop\n      pop\n      iszero\n      dup1\n      iszero\n      tag_195\n      jumpi\n      returndatasize\n      0x00\n      dup1\n      returndatacopy\n      revert(0x00, returndatasize)\n    tag_195:\n      pop\n        /* \"RockPaperScissors.sol\":7185:7479  if (hasRevealedA == false && hasRevealedB == true) {\r... */\n      jump(tag_196)\n    tag_192:\n        /* \"RockPaperScissors.sol\":7382:7387  tie() */\n      0xd6f5c93907b47fb5605cafc7535e8f56e8ce072b6259b851602c62e57a4dc60d\n      mload(0x40)\n      mload(0x40)\n      dup1\n      swap2\n      sub\n      swap1\n      log1\n        /* \"RockPaperScissors.sol\":7402:7407  userA */\n      0x00\n      dup1\n      sload\n      swap1\n      0x0100\n      exp\n      swap1\n      div\n      0xffffffffffffffffffffffffffffffffffffffff\n      and\n        /* \"RockPaperScissors.sol\":7402:7416  userA.transfer */\n      0xffffffffffffffffffffffffffffffffffffffff\n      and\n        /* \"RockPaperScissors.sol\":7402:7427  userA.transfer((prize/2)) */\n      0x08fc\n        /* \"RockPaperScissors.sol\":7424:7425  2 */\n      0x02\n        /* \"RockPaperScissors.sol\":7418:7423  prize */\n      sload(0x03)\n        /* \"RockPaperScissors.sol\":7418:7425  prize/2 */\n      tag_197\n      swap2\n      swap1\n      tag_114\n      jump\t// in\n    tag_197:\n        /* \"RockPaperScissors.sol\":7402:7427  userA.transfer((prize/2)) */\n      swap1\n      dup2\n      iszero\n      mul\n      swap1\n      mload(0x40)\n      0x00\n      mload(0x40)\n      dup1\n      dup4\n      sub\n      dup2\n      dup6\n      dup9\n      dup9\n      call\n      swap4\n      pop\n      pop\n      pop\n      pop\n      iszero\n      dup1\n      iszero\n      tag_199\n      jumpi\n      returndatasize\n      0x00\n      dup1\n      returndatacopy\n      revert(0x00, returndatasize)\n    tag_199:\n      pop\n        /* \"RockPaperScissors.sol\":7442:7447  userB */\n      0x01\n      0x00\n      swap1\n      sload\n      swap1\n      0x0100\n      exp\n      swap1\n      div\n      0xffffffffffffffffffffffffffffffffffffffff\n      and\n        /* \"RockPaperScissors.sol\":7442:7456  userB.transfer */\n      0xffffffffffffffffffffffffffffffffffffffff\n      and\n        /* \"RockPaperScissors.sol\":7442:7467  userB.transfer((prize/2)) */\n      0x08fc\n        /* \"RockPaperScissors.sol\":7464:7465  2 */\n      0x02\n        /* \"RockPaperScissors.sol\":7458:7463  prize */\n      sload(0x03)\n        /* \"RockPaperScissors.sol\":7458:7465  prize/2 */\n      tag_200\n      swap2\n      swap1\n      tag_114\n      jump\t// in\n    tag_200:\n        /* \"RockPaperScissors.sol\":7442:7467  userB.transfer((prize/2)) */\n      swap1\n      dup2\n      iszero\n      mul\n      swap1\n      mload(0x40)\n      0x00\n      mload(0x40)\n      dup1\n      dup4\n      sub\n      dup2\n      dup6\n      dup9\n      dup9\n      call\n      swap4\n      pop\n      pop\n      pop\n      pop\n      iszero\n      dup1\n      iszero\n      tag_202\n      jumpi\n      returndatasize\n      0x00\n      dup1\n      returndatacopy\n      revert(0x00, returndatasize)\n    tag_202:\n      pop\n        /* \"RockPaperScissors.sol\":7185:7479  if (hasRevealedA == false && hasRevealedB == true) {\r... */\n    tag_196:\n        /* \"RockPaperScissors.sol\":7030:7479  if (hasRevealedA == true && hasRevealedB == false) {\r... */\n    tag_190:\n        /* \"RockPaperScissors.sol\":4428:7479  if (hasRevealedA == true && hasRevealedB == true) { // Both revealed\r... */\n    tag_184:\n        /* \"RockPaperScissors.sol\":7497:7498  0 */\n      0x00\n        /* \"RockPaperScissors.sol\":7489:7494  prize */\n      0x03\n        /* \"RockPaperScissors.sol\":7489:7498  prize = 0 */\n      dup2\n      swap1\n      sstore\n      pop\n        /* \"RockPaperScissors.sol\":4178:7506  function announceResult() external {\r... */\n      jump\t// out\n        /* \"RockPaperScissors.sol\":7696:7960  function parseUserPick(bytes32 pick) internal pure returns (uint state) {\r... */\n    tag_107:\n        /* \"RockPaperScissors.sol\":7756:7766  uint state */\n      0x00\n        /* \"RockPaperScissors.sol\":7791:7808  keccak256(\"rock\") */\n      0x10977e4d68108d418408bc9310b60fc6d0a750c63ccef42cfb0ead23ab73d102\n        /* \"RockPaperScissors.sol\":7783:7787  pick */\n      dup3\n        /* \"RockPaperScissors.sol\":7783:7808  pick == keccak256(\"rock\") */\n      eq\n        /* \"RockPaperScissors.sol\":7779:7933  if (pick == keccak256(\"rock\")) return 1;\r... */\n      iszero\n      tag_204\n      jumpi\n        /* \"RockPaperScissors.sol\":7817:7818  1 */\n      0x01\n        /* \"RockPaperScissors.sol\":7810:7818  return 1 */\n      swap1\n      pop\n      jump(tag_203)\n        /* \"RockPaperScissors.sol\":7779:7933  if (pick == keccak256(\"rock\")) return 1;\r... */\n    tag_204:\n        /* \"RockPaperScissors.sol\":7846:7864  keccak256(\"paper\") */\n      0xea923ca2cdda6b54f4fb2bf6a063e5a59a6369ca4c4ae2c4ce02a147b3036a21\n        /* \"RockPaperScissors.sol\":7838:7842  pick */\n      dup3\n        /* \"RockPaperScissors.sol\":7838:7864  pick == keccak256(\"paper\") */\n      eq\n        /* \"RockPaperScissors.sol\":7834:7933  if (pick == keccak256(\"paper\")) return 2;\r... */\n      iszero\n      tag_206\n      jumpi\n        /* \"RockPaperScissors.sol\":7873:7874  2 */\n      0x02\n        /* \"RockPaperScissors.sol\":7866:7874  return 2 */\n      swap1\n      pop\n      jump(tag_203)\n        /* \"RockPaperScissors.sol\":7834:7933  if (pick == keccak256(\"paper\")) return 2;\r... */\n    tag_206:\n        /* \"RockPaperScissors.sol\":7902:7923  keccak256(\"scissors\") */\n      0x389a2d4e358d901bfdf22245f32b4b0a401cc16a4b92155a2ee5da98273dad9a\n        /* \"RockPaperScissors.sol\":7894:7898  pick */\n      dup3\n        /* \"RockPaperScissors.sol\":7894:7923  pick == keccak256(\"scissors\") */\n      eq\n        /* \"RockPaperScissors.sol\":7890:7933  if (pick == keccak256(\"scissors\")) return 3 */\n      iszero\n      tag_208\n      jumpi\n        /* \"RockPaperScissors.sol\":7932:7933  3 */\n      0x03\n        /* \"RockPaperScissors.sol\":7925:7933  return 3 */\n      swap1\n      pop\n      jump(tag_203)\n        /* \"RockPaperScissors.sol\":7890:7933  if (pick == keccak256(\"scissors\")) return 3 */\n    tag_208:\n        /* \"RockPaperScissors.sol\":7951:7952  0 */\n      0x00\n        /* \"RockPaperScissors.sol\":7944:7952  return 0 */\n      swap1\n      pop\n        /* \"RockPaperScissors.sol\":7696:7960  function parseUserPick(bytes32 pick) internal pure returns (uint state) {\r... */\n    tag_203:\n      swap2\n      swap1\n      pop\n      jump\t// out\n        /* \"#utility.yul\":7:146   */\n    tag_210:\n        /* \"#utility.yul\":53:58   */\n      0x00\n        /* \"#utility.yul\":91:97   */\n      dup2\n        /* \"#utility.yul\":78:98   */\n      calldataload\n        /* \"#utility.yul\":69:98   */\n      swap1\n      pop\n        /* \"#utility.yul\":107:140   */\n      tag_212\n        /* \"#utility.yul\":134:139   */\n      dup2\n        /* \"#utility.yul\":107:140   */\n      tag_213\n      jump\t// in\n    tag_212:\n        /* \"#utility.yul\":7:146   */\n      swap3\n      swap2\n      pop\n      pop\n      jump\t// out\n        /* \"#utility.yul\":166:719   */\n    tag_214:\n        /* \"#utility.yul\":224:232   */\n      0x00\n        /* \"#utility.yul\":234:240   */\n      dup1\n        /* \"#utility.yul\":284:287   */\n      dup4\n        /* \"#utility.yul\":277:281   */\n      0x1f\n        /* \"#utility.yul\":269:275   */\n      dup5\n        /* \"#utility.yul\":265:282   */\n      add\n        /* \"#utility.yul\":261:288   */\n      slt\n        /* \"#utility.yul\":251:373   */\n      tag_216\n      jumpi\n        /* \"#utility.yul\":292:371   */\n      tag_217\n      tag_218\n      jump\t// in\n    tag_217:\n        /* \"#utility.yul\":251:373   */\n    tag_216:\n        /* \"#utility.yul\":405:411   */\n      dup3\n        /* \"#utility.yul\":392:412   */\n      calldataload\n        /* \"#utility.yul\":382:412   */\n      swap1\n      pop\n        /* \"#utility.yul\":435:453   */\n      0xffffffffffffffff\n        /* \"#utility.yul\":427:433   */\n      dup2\n        /* \"#utility.yul\":424:454   */\n      gt\n        /* \"#utility.yul\":421:538   */\n      iszero\n      tag_219\n      jumpi\n        /* \"#utility.yul\":457:536   */\n      tag_220\n      tag_221\n      jump\t// in\n    tag_220:\n        /* \"#utility.yul\":421:538   */\n    tag_219:\n        /* \"#utility.yul\":571:575   */\n      0x20\n        /* \"#utility.yul\":563:569   */\n      dup4\n        /* \"#utility.yul\":559:576   */\n      add\n        /* \"#utility.yul\":547:576   */\n      swap2\n      pop\n        /* \"#utility.yul\":625:628   */\n      dup4\n        /* \"#utility.yul\":617:621   */\n      0x01\n        /* \"#utility.yul\":609:615   */\n      dup3\n        /* \"#utility.yul\":605:622   */\n      mul\n        /* \"#utility.yul\":595:603   */\n      dup4\n        /* \"#utility.yul\":591:623   */\n      add\n        /* \"#utility.yul\":588:629   */\n      gt\n        /* \"#utility.yul\":585:713   */\n      iszero\n      tag_222\n      jumpi\n        /* \"#utility.yul\":632:711   */\n      tag_223\n      tag_224\n      jump\t// in\n    tag_223:\n        /* \"#utility.yul\":585:713   */\n    tag_222:\n        /* \"#utility.yul\":166:719   */\n      swap3\n      pop\n      swap3\n      swap1\n      pop\n      jump\t// out\n        /* \"#utility.yul\":725:1054   */\n    tag_50:\n        /* \"#utility.yul\":784:790   */\n      0x00\n        /* \"#utility.yul\":833:835   */\n      0x20\n        /* \"#utility.yul\":821:830   */\n      dup3\n        /* \"#utility.yul\":812:819   */\n      dup5\n        /* \"#utility.yul\":808:831   */\n      sub\n        /* \"#utility.yul\":804:836   */\n      slt\n        /* \"#utility.yul\":801:920   */\n      iszero\n      tag_226\n      jumpi\n        /* \"#utility.yul\":839:918   */\n      tag_227\n      tag_228\n      jump\t// in\n    tag_227:\n        /* \"#utility.yul\":801:920   */\n    tag_226:\n        /* \"#utility.yul\":959:960   */\n      0x00\n        /* \"#utility.yul\":984:1037   */\n      tag_229\n        /* \"#utility.yul\":1029:1036   */\n      dup5\n        /* \"#utility.yul\":1020:1026   */\n      dup3\n        /* \"#utility.yul\":1009:1018   */\n      dup6\n        /* \"#utility.yul\":1005:1027   */\n      add\n        /* \"#utility.yul\":984:1037   */\n      tag_210\n      jump\t// in\n    tag_229:\n        /* \"#utility.yul\":974:1037   */\n      swap2\n      pop\n        /* \"#utility.yul\":930:1047   */\n      pop\n        /* \"#utility.yul\":725:1054   */\n      swap3\n      swap2\n      pop\n      pop\n      jump\t// out\n        /* \"#utility.yul\":1060:1934   */\n    tag_43:\n        /* \"#utility.yul\":1152:1158   */\n      0x00\n        /* \"#utility.yul\":1160:1166   */\n      dup1\n        /* \"#utility.yul\":1168:1174   */\n      0x00\n        /* \"#utility.yul\":1176:1182   */\n      dup1\n        /* \"#utility.yul\":1225:1227   */\n      0x40\n        /* \"#utility.yul\":1213:1222   */\n      dup6\n        /* \"#utility.yul\":1204:1211   */\n      dup8\n        /* \"#utility.yul\":1200:1223   */\n      sub\n        /* \"#utility.yul\":1196:1228   */\n      slt\n        /* \"#utility.yul\":1193:1312   */\n      iszero\n      tag_231\n      jumpi\n        /* \"#utility.yul\":1231:1310   */\n      tag_232\n      tag_228\n      jump\t// in\n    tag_232:\n        /* \"#utility.yul\":1193:1312   */\n    tag_231:\n        /* \"#utility.yul\":1379:1380   */\n      0x00\n        /* \"#utility.yul\":1368:1377   */\n      dup6\n        /* \"#utility.yul\":1364:1381   */\n      add\n        /* \"#utility.yul\":1351:1382   */\n      calldataload\n        /* \"#utility.yul\":1409:1427   */\n      0xffffffffffffffff\n        /* \"#utility.yul\":1401:1407   */\n      dup2\n        /* \"#utility.yul\":1398:1428   */\n      gt\n        /* \"#utility.yul\":1395:1512   */\n      iszero\n      tag_233\n      jumpi\n        /* \"#utility.yul\":1431:1510   */\n      tag_234\n      tag_235\n      jump\t// in\n    tag_234:\n        /* \"#utility.yul\":1395:1512   */\n    tag_233:\n        /* \"#utility.yul\":1544:1609   */\n      tag_236\n        /* \"#utility.yul\":1601:1608   */\n      dup8\n        /* \"#utility.yul\":1592:1598   */\n      dup3\n        /* \"#utility.yul\":1581:1590   */\n      dup9\n        /* \"#utility.yul\":1577:1599   */\n      add\n        /* \"#utility.yul\":1544:1609   */\n      tag_214\n      jump\t// in\n    tag_236:\n        /* \"#utility.yul\":1526:1609   */\n      swap5\n      pop\n      swap5\n      pop\n        /* \"#utility.yul\":1322:1619   */\n      pop\n        /* \"#utility.yul\":1686:1688   */\n      0x20\n        /* \"#utility.yul\":1675:1684   */\n      dup6\n        /* \"#utility.yul\":1671:1689   */\n      add\n        /* \"#utility.yul\":1658:1690   */\n      calldataload\n        /* \"#utility.yul\":1717:1735   */\n      0xffffffffffffffff\n        /* \"#utility.yul\":1709:1715   */\n      dup2\n        /* \"#utility.yul\":1706:1736   */\n      gt\n        /* \"#utility.yul\":1703:1820   */\n      iszero\n      tag_237\n      jumpi\n        /* \"#utility.yul\":1739:1818   */\n      tag_238\n      tag_235\n      jump\t// in\n    tag_238:\n        /* \"#utility.yul\":1703:1820   */\n    tag_237:\n        /* \"#utility.yul\":1852:1917   */\n      tag_239\n        /* \"#utility.yul\":1909:1916   */\n      dup8\n        /* \"#utility.yul\":1900:1906   */\n      dup3\n        /* \"#utility.yul\":1889:1898   */\n      dup9\n        /* \"#utility.yul\":1885:1907   */\n      add\n        /* \"#utility.yul\":1852:1917   */\n      tag_214\n      jump\t// in\n    tag_239:\n        /* \"#utility.yul\":1834:1917   */\n      swap3\n      pop\n      swap3\n      pop\n        /* \"#utility.yul\":1629:1927   */\n      pop\n        /* \"#utility.yul\":1060:1934   */\n      swap3\n      swap6\n      swap2\n      swap5\n      pop\n      swap3\n      pop\n      jump\t// out\n        /* \"#utility.yul\":1940:2087   */\n    tag_240:\n        /* \"#utility.yul\":2035:2080   */\n      tag_242\n        /* \"#utility.yul\":2074:2079   */\n      dup2\n        /* \"#utility.yul\":2035:2080   */\n      tag_243\n      jump\t// in\n    tag_242:\n        /* \"#utility.yul\":2030:2033   */\n      dup3\n        /* \"#utility.yul\":2023:2081   */\n      mstore\n        /* \"#utility.yul\":1940:2087   */\n      pop\n      pop\n      jump\t// out\n        /* \"#utility.yul\":2093:2235   */\n    tag_244:\n        /* \"#utility.yul\":2196:2228   */\n      tag_246\n        /* \"#utility.yul\":2222:2227   */\n      dup2\n        /* \"#utility.yul\":2196:2228   */\n      tag_247\n      jump\t// in\n    tag_246:\n        /* \"#utility.yul\":2191:2194   */\n      dup3\n        /* \"#utility.yul\":2184:2229   */\n      mstore\n        /* \"#utility.yul\":2093:2235   */\n      pop\n      pop\n      jump\t// out\n        /* \"#utility.yul\":2241:2359   */\n    tag_248:\n        /* \"#utility.yul\":2328:2352   */\n      tag_250\n        /* \"#utility.yul\":2346:2351   */\n      dup2\n        /* \"#utility.yul\":2328:2352   */\n      tag_251\n      jump\t// in\n    tag_250:\n        /* \"#utility.yul\":2323:2326   */\n      dup3\n        /* \"#utility.yul\":2316:2353   */\n      mstore\n        /* \"#utility.yul\":2241:2359   */\n      pop\n      pop\n      jump\t// out\n        /* \"#utility.yul\":2365:2474   */\n    tag_252:\n        /* \"#utility.yul\":2446:2467   */\n      tag_254\n        /* \"#utility.yul\":2461:2466   */\n      dup2\n        /* \"#utility.yul\":2446:2467   */\n      tag_255\n      jump\t// in\n    tag_254:\n        /* \"#utility.yul\":2441:2444   */\n      dup3\n        /* \"#utility.yul\":2434:2468   */\n      mstore\n        /* \"#utility.yul\":2365:2474   */\n      pop\n      pop\n      jump\t// out\n        /* \"#utility.yul\":2480:2598   */\n    tag_256:\n        /* \"#utility.yul\":2567:2591   */\n      tag_258\n        /* \"#utility.yul\":2585:2590   */\n      dup2\n        /* \"#utility.yul\":2567:2591   */\n      tag_259\n      jump\t// in\n    tag_258:\n        /* \"#utility.yul\":2562:2565   */\n      dup3\n        /* \"#utility.yul\":2555:2592   */\n      mstore\n        /* \"#utility.yul\":2480:2598   */\n      pop\n      pop\n      jump\t// out\n        /* \"#utility.yul\":2626:2940   */\n    tag_260:\n        /* \"#utility.yul\":2740:2743   */\n      0x00\n        /* \"#utility.yul\":2761:2849   */\n      tag_262\n        /* \"#utility.yul\":2842:2848   */\n      dup4\n        /* \"#utility.yul\":2837:2840   */\n      dup6\n        /* \"#utility.yul\":2761:2849   */\n      tag_263\n      jump\t// in\n    tag_262:\n        /* \"#utility.yul\":2754:2849   */\n      swap4\n      pop\n        /* \"#utility.yul\":2859:2902   */\n      tag_264\n        /* \"#utility.yul\":2895:2901   */\n      dup4\n        /* \"#utility.yul\":2890:2893   */\n      dup6\n        /* \"#utility.yul\":2883:2888   */\n      dup5\n        /* \"#utility.yul\":2859:2902   */\n      tag_265\n      jump\t// in\n    tag_264:\n        /* \"#utility.yul\":2927:2933   */\n      dup3\n        /* \"#utility.yul\":2922:2925   */\n      dup5\n        /* \"#utility.yul\":2918:2934   */\n      add\n        /* \"#utility.yul\":2911:2934   */\n      swap1\n      pop\n        /* \"#utility.yul\":2626:2940   */\n      swap4\n      swap3\n      pop\n      pop\n      pop\n      jump\t// out\n        /* \"#utility.yul\":2970:3287   */\n    tag_266:\n        /* \"#utility.yul\":3086:3089   */\n      0x00\n        /* \"#utility.yul\":3107:3196   */\n      tag_268\n        /* \"#utility.yul\":3189:3195   */\n      dup4\n        /* \"#utility.yul\":3184:3187   */\n      dup6\n        /* \"#utility.yul\":3107:3196   */\n      tag_269\n      jump\t// in\n    tag_268:\n        /* \"#utility.yul\":3100:3196   */\n      swap4\n      pop\n        /* \"#utility.yul\":3206:3249   */\n      tag_270\n        /* \"#utility.yul\":3242:3248   */\n      dup4\n        /* \"#utility.yul\":3237:3240   */\n      dup6\n        /* \"#utility.yul\":3230:3235   */\n      dup5\n        /* \"#utility.yul\":3206:3249   */\n      tag_265\n      jump\t// in\n    tag_270:\n        /* \"#utility.yul\":3274:3280   */\n      dup3\n        /* \"#utility.yul\":3269:3272   */\n      dup5\n        /* \"#utility.yul\":3265:3281   */\n      add\n        /* \"#utility.yul\":3258:3281   */\n      swap1\n      pop\n        /* \"#utility.yul\":2970:3287   */\n      swap4\n      swap3\n      pop\n      pop\n      pop\n      jump\t// out\n        /* \"#utility.yul\":3293:3411   */\n    tag_271:\n        /* \"#utility.yul\":3380:3404   */\n      tag_273\n        /* \"#utility.yul\":3398:3403   */\n      dup2\n        /* \"#utility.yul\":3380:3404   */\n      tag_274\n      jump\t// in\n    tag_273:\n        /* \"#utility.yul\":3375:3378   */\n      dup3\n        /* \"#utility.yul\":3368:3405   */\n      mstore\n        /* \"#utility.yul\":3293:3411   */\n      pop\n      pop\n      jump\t// out\n        /* \"#utility.yul\":3417:3708   */\n    tag_82:\n        /* \"#utility.yul\":3557:3560   */\n      0x00\n        /* \"#utility.yul\":3579:3682   */\n      tag_276\n        /* \"#utility.yul\":3678:3681   */\n      dup3\n        /* \"#utility.yul\":3669:3675   */\n      dup5\n        /* \"#utility.yul\":3661:3667   */\n      dup7\n        /* \"#utility.yul\":3579:3682   */\n      tag_260\n      jump\t// in\n    tag_276:\n        /* \"#utility.yul\":3572:3682   */\n      swap2\n      pop\n        /* \"#utility.yul\":3699:3702   */\n      dup2\n        /* \"#utility.yul\":3692:3702   */\n      swap1\n      pop\n        /* \"#utility.yul\":3417:3708   */\n      swap4\n      swap3\n      pop\n      pop\n      pop\n      jump\t// out\n        /* \"#utility.yul\":3714:4189   */\n    tag_79:\n        /* \"#utility.yul\":3914:3917   */\n      0x00\n        /* \"#utility.yul\":3936:4041   */\n      tag_278\n        /* \"#utility.yul\":4037:4040   */\n      dup3\n        /* \"#utility.yul\":4028:4034   */\n      dup7\n        /* \"#utility.yul\":4020:4026   */\n      dup9\n        /* \"#utility.yul\":3936:4041   */\n      tag_266\n      jump\t// in\n    tag_278:\n        /* \"#utility.yul\":3929:4041   */\n      swap2\n      pop\n        /* \"#utility.yul\":4058:4163   */\n      tag_279\n        /* \"#utility.yul\":4159:4162   */\n      dup3\n        /* \"#utility.yul\":4150:4156   */\n      dup5\n        /* \"#utility.yul\":4142:4148   */\n      dup7\n        /* \"#utility.yul\":4058:4163   */\n      tag_266\n      jump\t// in\n    tag_279:\n        /* \"#utility.yul\":4051:4163   */\n      swap2\n      pop\n        /* \"#utility.yul\":4180:4183   */\n      dup2\n        /* \"#utility.yul\":4173:4183   */\n      swap1\n      pop\n        /* \"#utility.yul\":3714:4189   */\n      swap6\n      swap5\n      pop\n      pop\n      pop\n      pop\n      pop\n      jump\t// out\n        /* \"#utility.yul\":4195:4417   */\n    tag_34:\n        /* \"#utility.yul\":4288:4292   */\n      0x00\n        /* \"#utility.yul\":4326:4328   */\n      0x20\n        /* \"#utility.yul\":4315:4324   */\n      dup3\n        /* \"#utility.yul\":4311:4329   */\n      add\n        /* \"#utility.yul\":4303:4329   */\n      swap1\n      pop\n        /* \"#utility.yul\":4339:4410   */\n      tag_281\n        /* \"#utility.yul\":4407:4408   */\n      0x00\n        /* \"#utility.yul\":4396:4405   */\n      dup4\n        /* \"#utility.yul\":4392:4409   */\n      add\n        /* \"#utility.yul\":4383:4389   */\n      dup5\n        /* \"#utility.yul\":4339:4410   */\n      tag_248\n      jump\t// in\n    tag_281:\n        /* \"#utility.yul\":4195:4417   */\n      swap3\n      swap2\n      pop\n      pop\n      jump\t// out\n        /* \"#utility.yul\":4423:4661   */\n    tag_123:\n        /* \"#utility.yul\":4524:4528   */\n      0x00\n        /* \"#utility.yul\":4562:4564   */\n      0x20\n        /* \"#utility.yul\":4551:4560   */\n      dup3\n        /* \"#utility.yul\":4547:4565   */\n      add\n        /* \"#utility.yul\":4539:4565   */\n      swap1\n      pop\n        /* \"#utility.yul\":4575:4654   */\n      tag_283\n        /* \"#utility.yul\":4651:4652   */\n      0x00\n        /* \"#utility.yul\":4640:4649   */\n      dup4\n        /* \"#utility.yul\":4636:4653   */\n      add\n        /* \"#utility.yul\":4627:4633   */\n      dup5\n        /* \"#utility.yul\":4575:4654   */\n      tag_240\n      jump\t// in\n    tag_283:\n        /* \"#utility.yul\":4423:4661   */\n      swap3\n      swap2\n      pop\n      pop\n      jump\t// out\n        /* \"#utility.yul\":4667:4921   */\n    tag_55:\n        /* \"#utility.yul\":4776:4780   */\n      0x00\n        /* \"#utility.yul\":4814:4816   */\n      0x20\n        /* \"#utility.yul\":4803:4812   */\n      dup3\n        /* \"#utility.yul\":4799:4817   */\n      add\n        /* \"#utility.yul\":4791:4817   */\n      swap1\n      pop\n        /* \"#utility.yul\":4827:4914   */\n      tag_285\n        /* \"#utility.yul\":4911:4912   */\n      0x00\n        /* \"#utility.yul\":4900:4909   */\n      dup4\n        /* \"#utility.yul\":4896:4913   */\n      add\n        /* \"#utility.yul\":4887:4893   */\n      dup5\n        /* \"#utility.yul\":4827:4914   */\n      tag_244\n      jump\t// in\n    tag_285:\n        /* \"#utility.yul\":4667:4921   */\n      swap3\n      swap2\n      pop\n      pop\n      jump\t// out\n        /* \"#utility.yul\":4927:5137   */\n    tag_23:\n        /* \"#utility.yul\":5014:5018   */\n      0x00\n        /* \"#utility.yul\":5052:5054   */\n      0x20\n        /* \"#utility.yul\":5041:5050   */\n      dup3\n        /* \"#utility.yul\":5037:5055   */\n      add\n        /* \"#utility.yul\":5029:5055   */\n      swap1\n      pop\n        /* \"#utility.yul\":5065:5130   */\n      tag_287\n        /* \"#utility.yul\":5127:5128   */\n      0x00\n        /* \"#utility.yul\":5116:5125   */\n      dup4\n        /* \"#utility.yul\":5112:5129   */\n      add\n        /* \"#utility.yul\":5103:5109   */\n      dup5\n        /* \"#utility.yul\":5065:5130   */\n      tag_252\n      jump\t// in\n    tag_287:\n        /* \"#utility.yul\":4927:5137   */\n      swap3\n      swap2\n      pop\n      pop\n      jump\t// out\n        /* \"#utility.yul\":5143:5365   */\n    tag_30:\n        /* \"#utility.yul\":5236:5240   */\n      0x00\n        /* \"#utility.yul\":5274:5276   */\n      0x20\n        /* \"#utility.yul\":5263:5272   */\n      dup3\n        /* \"#utility.yul\":5259:5277   */\n      add\n        /* \"#utility.yul\":5251:5277   */\n      swap1\n      pop\n        /* \"#utility.yul\":5287:5358   */\n      tag_289\n        /* \"#utility.yul\":5355:5356   */\n      0x00\n        /* \"#utility.yul\":5344:5353   */\n      dup4\n        /* \"#utility.yul\":5340:5357   */\n      add\n        /* \"#utility.yul\":5331:5337   */\n      dup5\n        /* \"#utility.yul\":5287:5358   */\n      tag_256\n      jump\t// in\n    tag_289:\n        /* \"#utility.yul\":5143:5365   */\n      swap3\n      swap2\n      pop\n      pop\n      jump\t// out\n        /* \"#utility.yul\":5371:5593   */\n    tag_62:\n        /* \"#utility.yul\":5464:5468   */\n      0x00\n        /* \"#utility.yul\":5502:5504   */\n      0x20\n        /* \"#utility.yul\":5491:5500   */\n      dup3\n        /* \"#utility.yul\":5487:5505   */\n      add\n        /* \"#utility.yul\":5479:5505   */\n      swap1\n      pop\n        /* \"#utility.yul\":5515:5586   */\n      tag_291\n        /* \"#utility.yul\":5583:5584   */\n      0x00\n        /* \"#utility.yul\":5572:5581   */\n      dup4\n        /* \"#utility.yul\":5568:5585   */\n      add\n        /* \"#utility.yul\":5559:5565   */\n      dup5\n        /* \"#utility.yul\":5515:5586   */\n      tag_271\n      jump\t// in\n    tag_291:\n        /* \"#utility.yul\":5371:5593   */\n      swap3\n      swap2\n      pop\n      pop\n      jump\t// out\n        /* \"#utility.yul\":5680:5827   */\n    tag_263:\n        /* \"#utility.yul\":5781:5792   */\n      0x00\n        /* \"#utility.yul\":5818:5821   */\n      dup2\n        /* \"#utility.yul\":5803:5821   */\n      swap1\n      pop\n        /* \"#utility.yul\":5680:5827   */\n      swap3\n      swap2\n      pop\n      pop\n      jump\t// out\n        /* \"#utility.yul\":5833:5981   */\n    tag_269:\n        /* \"#utility.yul\":5935:5946   */\n      0x00\n        /* \"#utility.yul\":5972:5975   */\n      dup2\n        /* \"#utility.yul\":5957:5975   */\n      swap1\n      pop\n        /* \"#utility.yul\":5833:5981   */\n      swap3\n      swap2\n      pop\n      pop\n      jump\t// out\n        /* \"#utility.yul\":5987:6172   */\n    tag_114:\n        /* \"#utility.yul\":6027:6028   */\n      0x00\n        /* \"#utility.yul\":6044:6064   */\n      tag_297\n        /* \"#utility.yul\":6062:6063   */\n      dup3\n        /* \"#utility.yul\":6044:6064   */\n      tag_274\n      jump\t// in\n    tag_297:\n        /* \"#utility.yul\":6039:6064   */\n      swap2\n      pop\n        /* \"#utility.yul\":6078:6098   */\n      tag_298\n        /* \"#utility.yul\":6096:6097   */\n      dup4\n        /* \"#utility.yul\":6078:6098   */\n      tag_274\n      jump\t// in\n    tag_298:\n        /* \"#utility.yul\":6073:6098   */\n      swap3\n      pop\n        /* \"#utility.yul\":6117:6118   */\n      dup3\n        /* \"#utility.yul\":6107:6142   */\n      tag_299\n      jumpi\n        /* \"#utility.yul\":6122:6140   */\n      tag_300\n      tag_301\n      jump\t// in\n    tag_300:\n        /* \"#utility.yul\":6107:6142   */\n    tag_299:\n        /* \"#utility.yul\":6164:6165   */\n      dup3\n        /* \"#utility.yul\":6161:6162   */\n      dup3\n        /* \"#utility.yul\":6157:6166   */\n      div\n        /* \"#utility.yul\":6152:6166   */\n      swap1\n      pop\n        /* \"#utility.yul\":5987:6172   */\n      swap3\n      swap2\n      pop\n      pop\n      jump\t// out\n        /* \"#utility.yul\":6178:6274   */\n    tag_251:\n        /* \"#utility.yul\":6215:6222   */\n      0x00\n        /* \"#utility.yul\":6244:6268   */\n      tag_303\n        /* \"#utility.yul\":6262:6267   */\n      dup3\n        /* \"#utility.yul\":6244:6268   */\n      tag_304\n      jump\t// in\n    tag_303:\n        /* \"#utility.yul\":6233:6268   */\n      swap1\n      pop\n        /* \"#utility.yul\":6178:6274   */\n      swap2\n      swap1\n      pop\n      jump\t// out\n        /* \"#utility.yul\":6280:6384   */\n    tag_247:\n        /* \"#utility.yul\":6325:6332   */\n      0x00\n        /* \"#utility.yul\":6354:6378   */\n      tag_306\n        /* \"#utility.yul\":6372:6377   */\n      dup3\n        /* \"#utility.yul\":6354:6378   */\n      tag_304\n      jump\t// in\n    tag_306:\n        /* \"#utility.yul\":6343:6378   */\n      swap1\n      pop\n        /* \"#utility.yul\":6280:6384   */\n      swap2\n      swap1\n      pop\n      jump\t// out\n        /* \"#utility.yul\":6390:6480   */\n    tag_255:\n        /* \"#utility.yul\":6424:6431   */\n      0x00\n        /* \"#utility.yul\":6467:6472   */\n      dup2\n        /* \"#utility.yul\":6460:6473   */\n      iszero\n        /* \"#utility.yul\":6453:6474   */\n      iszero\n        /* \"#utility.yul\":6442:6474   */\n      swap1\n      pop\n        /* \"#utility.yul\":6390:6480   */\n      swap2\n      swap1\n      pop\n      jump\t// out\n        /* \"#utility.yul\":6486:6563   */\n    tag_259:\n        /* \"#utility.yul\":6523:6530   */\n      0x00\n        /* \"#utility.yul\":6552:6557   */\n      dup2\n        /* \"#utility.yul\":6541:6557   */\n      swap1\n      pop\n        /* \"#utility.yul\":6486:6563   */\n      swap2\n      swap1\n      pop\n      jump\t// out\n        /* \"#utility.yul\":6569:6695   */\n    tag_304:\n        /* \"#utility.yul\":6606:6613   */\n      0x00\n        /* \"#utility.yul\":6646:6688   */\n      0xffffffffffffffffffffffffffffffffffffffff\n        /* \"#utility.yul\":6639:6644   */\n      dup3\n        /* \"#utility.yul\":6635:6689   */\n      and\n        /* \"#utility.yul\":6624:6689   */\n      swap1\n      pop\n        /* \"#utility.yul\":6569:6695   */\n      swap2\n      swap1\n      pop\n      jump\t// out\n        /* \"#utility.yul\":6701:6778   */\n    tag_274:\n        /* \"#utility.yul\":6738:6745   */\n      0x00\n        /* \"#utility.yul\":6767:6772   */\n      dup2\n        /* \"#utility.yul\":6756:6772   */\n      swap1\n      pop\n        /* \"#utility.yul\":6701:6778   */\n      swap2\n      swap1\n      pop\n      jump\t// out\n        /* \"#utility.yul\":6784:6918   */\n    tag_243:\n        /* \"#utility.yul\":6842:6851   */\n      0x00\n        /* \"#utility.yul\":6875:6912   */\n      tag_312\n        /* \"#utility.yul\":6906:6911   */\n      dup3\n        /* \"#utility.yul\":6875:6912   */\n      tag_313\n      jump\t// in\n    tag_312:\n        /* \"#utility.yul\":6862:6912   */\n      swap1\n      pop\n        /* \"#utility.yul\":6784:6918   */\n      swap2\n      swap1\n      pop\n      jump\t// out\n        /* \"#utility.yul\":6924:7050   */\n    tag_313:\n        /* \"#utility.yul\":6974:6983   */\n      0x00\n        /* \"#utility.yul\":7007:7044   */\n      tag_315\n        /* \"#utility.yul\":7038:7043   */\n      dup3\n        /* \"#utility.yul\":7007:7044   */\n      tag_316\n      jump\t// in\n    tag_315:\n        /* \"#utility.yul\":6994:7044   */\n      swap1\n      pop\n        /* \"#utility.yul\":6924:7050   */\n      swap2\n      swap1\n      pop\n      jump\t// out\n        /* \"#utility.yul\":7056:7169   */\n    tag_316:\n        /* \"#utility.yul\":7106:7115   */\n      0x00\n        /* \"#utility.yul\":7139:7163   */\n      tag_318\n        /* \"#utility.yul\":7157:7162   */\n      dup3\n        /* \"#utility.yul\":7139:7163   */\n      tag_304\n      jump\t// in\n    tag_318:\n        /* \"#utility.yul\":7126:7163   */\n      swap1\n      pop\n        /* \"#utility.yul\":7056:7169   */\n      swap2\n      swap1\n      pop\n      jump\t// out\n        /* \"#utility.yul\":7175:7329   */\n    tag_265:\n        /* \"#utility.yul\":7259:7265   */\n      dup3\n        /* \"#utility.yul\":7254:7257   */\n      dup2\n        /* \"#utility.yul\":7249:7252   */\n      dup4\n        /* \"#utility.yul\":7236:7266   */\n      calldatacopy\n        /* \"#utility.yul\":7321:7322   */\n      0x00\n        /* \"#utility.yul\":7312:7318   */\n      dup4\n        /* \"#utility.yul\":7307:7310   */\n      dup4\n        /* \"#utility.yul\":7303:7319   */\n      add\n        /* \"#utility.yul\":7296:7323   */\n      mstore\n        /* \"#utility.yul\":7175:7329   */\n      pop\n      pop\n      pop\n      jump\t// out\n        /* \"#utility.yul\":7521:7701   */\n    tag_301:\n        /* \"#utility.yul\":7569:7646   */\n      0x4e487b7100000000000000000000000000000000000000000000000000000000\n        /* \"#utility.yul\":7566:7567   */\n      0x00\n        /* \"#utility.yul\":7559:7647   */\n      mstore\n        /* \"#utility.yul\":7666:7670   */\n      0x12\n        /* \"#utility.yul\":7663:7664   */\n      0x04\n        /* \"#utility.yul\":7656:7671   */\n      mstore\n        /* \"#utility.yul\":7690:7694   */\n      0x24\n        /* \"#utility.yul\":7687:7688   */\n      0x00\n        /* \"#utility.yul\":7680:7695   */\n      revert\n        /* \"#utility.yul\":7707:7824   */\n    tag_221:\n        /* \"#utility.yul\":7816:7817   */\n      0x00\n        /* \"#utility.yul\":7813:7814   */\n      dup1\n        /* \"#utility.yul\":7806:7818   */\n      revert\n        /* \"#utility.yul\":7830:7947   */\n    tag_218:\n        /* \"#utility.yul\":7939:7940   */\n      0x00\n        /* \"#utility.yul\":7936:7937   */\n      dup1\n        /* \"#utility.yul\":7929:7941   */\n      revert\n        /* \"#utility.yul\":7953:8070   */\n    tag_224:\n        /* \"#utility.yul\":8062:8063   */\n      0x00\n        /* \"#utility.yul\":8059:8060   */\n      dup1\n        /* \"#utility.yul\":8052:8064   */\n      revert\n        /* \"#utility.yul\":8076:8193   */\n    tag_235:\n        /* \"#utility.yul\":8185:8186   */\n      0x00\n        /* \"#utility.yul\":8182:8183   */\n      dup1\n        /* \"#utility.yul\":8175:8187   */\n      revert\n        /* \"#utility.yul\":8199:8316   */\n    tag_228:\n        /* \"#utility.yul\":8308:8309   */\n      0x00\n        /* \"#utility.yul\":8305:8306   */\n      dup1\n        /* \"#utility.yul\":8298:8310   */\n      revert\n        /* \"#utility.yul\":8322:8444   */\n    tag_213:\n        /* \"#utility.yul\":8395:8419   */\n      tag_329\n        /* \"#utility.yul\":8413:8418   */\n      dup2\n        /* \"#utility.yul\":8395:8419   */\n      tag_259\n      jump\t// in\n    tag_329:\n        /* \"#utility.yul\":8388:8393   */\n      dup2\n        /* \"#utility.yul\":8385:8420   */\n      eq\n        /* \"#utility.yul\":8375:8438   */\n      tag_330\n      jumpi\n        /* \"#utility.yul\":8434:8435   */\n      0x00\n        /* \"#utility.yul\":8431:8432   */\n      dup1\n        /* \"#utility.yul\":8424:8436   */\n      revert\n        /* \"#utility.yul\":8375:8438   */\n    tag_330:\n        /* \"#utility.yul\":8322:8444   */\n      pop\n      jump\t// out\n\n    auxdata: 0xa26469706673582212208e0b2166d2cb9f591eaad7169ab3f8cf96db3d6b38407b5521f717aaae70c18364736f6c63430008070033\n}\n",
				"bytecode": {
					"linkReferences": {},
					"object": "6080604052604051620021e4380380620021e48339818101604052810190620000299190620001ff565b8073ffffffffffffffffffffffffffffffffffffffff168273ffffffffffffffffffffffffffffffffffffffff16141562000090576040517f422217da00000000000000000000000000000000000000000000000000000000815260040160405180910390fd5b816000806101000a81548173ffffffffffffffffffffffffffffffffffffffff021916908373ffffffffffffffffffffffffffffffffffffffff16021790555080600160006101000a81548173ffffffffffffffffffffffffffffffffffffffff021916908373ffffffffffffffffffffffffffffffffffffffff16021790555033600260006101000a81548173ffffffffffffffffffffffffffffffffffffffff021916908373ffffffffffffffffffffffffffffffffffffffff160217905550346003819055506000600460006101000a81548160ff0219169083151502179055506000600460016101000a81548160ff0219169083151502179055506000600760006101000a81548160ff0219169083151502179055506000600760016101000a81548160ff0219169083151502179055506000600a60006101000a81548160ff021916908315150217905550505062000299565b600081519050620001f9816200027f565b92915050565b600080604083850312156200021957620002186200027a565b5b60006200022985828601620001e8565b92505060206200023c85828601620001e8565b9150509250929050565b600062000253826200025a565b9050919050565b600073ffffffffffffffffffffffffffffffffffffffff82169050919050565b600080fd5b6200028a8162000246565b81146200029657600080fd5b50565b611f3b80620002a96000396000f3fe608060405234801561001057600080fd5b50600436106100ea5760003560e01c8063737ebe581161008c578063deb22e9a11610066578063deb22e9a14610217578063e3ac5d2614610235578063ed87386514610253578063f4e11bbe14610271576100ea565b8063737ebe58146101bf578063a28bfb3e146101dd578063cb1a295f146101f9576100ea565b8063481c6a75116100c8578063481c6a7514610149578063495717e2146101675780634d178640146101855780635ba1b2c7146101a3576100ea565b806303c0f500146100ef57806312fa6feb1461010d5780633d4ffb931461012b575b600080fd5b6100f761027b565b6040516101049190611d65565b60405180910390f35b61011561028e565b6040516101229190611d65565b60405180910390f35b6101336102a1565b6040516101409190611d80565b60405180910390f35b6101516102a7565b60405161015e9190611d14565b60405180910390f35b61016f6102cd565b60405161017c9190611d80565b60405180910390f35b61018d6102d3565b60405161019a9190611d65565b60405180910390f35b6101bd60048036038101906101b89190611bae565b6102e6565b005b6101c76106cb565b6040516101d49190611d65565b60405180910390f35b6101f760048036038101906101f29190611b81565b6106de565b005b6102016109ae565b60405161020e9190611d4a565b60405180910390f35b61021f6109d4565b60405161022c9190611d4a565b60405180910390f35b61023d6109f8565b60405161024a9190611d9b565b60405180910390f35b61025b6109fe565b6040516102689190611d65565b60405180910390f35b610279610a11565b005b600760019054906101000a900460ff1681565b600a60009054906101000a900460ff1681565b60085481565b600260009054906101000a900473ffffffffffffffffffffffffffffffffffffffff1681565b60095481565b600760009054906101000a900460ff1681565b3360008054906101000a900473ffffffffffffffffffffffffffffffffffffffff1673ffffffffffffffffffffffffffffffffffffffff168173ffffffffffffffffffffffffffffffffffffffff16141580156103915750600160009054906101000a900473ffffffffffffffffffffffffffffffffffffffff1673ffffffffffffffffffffffffffffffffffffffff168173ffffffffffffffffffffffffffffffffffffffff1614155b156103c8576040517fea42158000000000000000000000000000000000000000000000000000000000815260040160405180910390fd5b60008054906101000a900473ffffffffffffffffffffffffffffffffffffffff1673ffffffffffffffffffffffffffffffffffffffff168173ffffffffffffffffffffffffffffffffffffffff16148015610436575060011515600760009054906101000a900460ff161515145b1561046d576040517fa981eebc00000000000000000000000000000000000000000000000000000000815260040160405180910390fd5b600160009054906101000a900473ffffffffffffffffffffffffffffffffffffffff1673ffffffffffffffffffffffffffffffffffffffff168173ffffffffffffffffffffffffffffffffffffffff161480156104dd575060011515600760019054906101000a900460ff161515145b15610514576040517fa981eebc00000000000000000000000000000000000000000000000000000000815260040160405180910390fd5b60008054906101000a900473ffffffffffffffffffffffffffffffffffffffff1673ffffffffffffffffffffffffffffffffffffffff163373ffffffffffffffffffffffffffffffffffffffff16148015610582575060011515600460009054906101000a900460ff161515145b80156105bb5750848484846040516020016105a09493929190611cec565b60405160208183030381529060405280519060200120600554145b156105fe576001600760006101000a81548160ff02191690831515021790555084846040516105eb929190611cd3565b60405180910390206008819055506106c4565b60011515600460019054906101000a900460ff16151514801561064e5750848484846040516020016106339493929190611cec565b60405160208183030381529060405280519060200120600654145b15610691576001600760016101000a81548160ff021916908315150217905550848460405161067e929190611cd3565b60405180910390206009819055506106c3565b6040517f6701de1400000000000000000000000000000000000000000000000000000000815260040160405180910390fd5b5b5050505050565b600460019054906101000a900460ff1681565b3360008054906101000a900473ffffffffffffffffffffffffffffffffffffffff1673ffffffffffffffffffffffffffffffffffffffff168173ffffffffffffffffffffffffffffffffffffffff16141580156107895750600160009054906101000a900473ffffffffffffffffffffffffffffffffffffffff1673ffffffffffffffffffffffffffffffffffffffff168173ffffffffffffffffffffffffffffffffffffffff1614155b156107c0576040517f5774d9a500000000000000000000000000000000000000000000000000000000815260040160405180910390fd5b60008054906101000a900473ffffffffffffffffffffffffffffffffffffffff1673ffffffffffffffffffffffffffffffffffffffff168173ffffffffffffffffffffffffffffffffffffffff1614801561082e575060011515600460009054906101000a900460ff161515145b15610865576040517fa245b07d00000000000000000000000000000000000000000000000000000000815260040160405180910390fd5b600160009054906101000a900473ffffffffffffffffffffffffffffffffffffffff1673ffffffffffffffffffffffffffffffffffffffff168173ffffffffffffffffffffffffffffffffffffffff161480156108d5575060011515600460019054906101000a900460ff161515145b1561090c576040517fa245b07d00000000000000000000000000000000000000000000000000000000815260040160405180910390fd5b60008054906101000a900473ffffffffffffffffffffffffffffffffffffffff1673ffffffffffffffffffffffffffffffffffffffff163373ffffffffffffffffffffffffffffffffffffffff161415610987576001600460006101000a81548160ff021916908315150217905550816005819055506109aa565b6001600460016101000a81548160ff021916908315150217905550816006819055505b5050565b600160009054906101000a900473ffffffffffffffffffffffffffffffffffffffff1681565b60008054906101000a900473ffffffffffffffffffffffffffffffffffffffff1681565b60035481565b600460009054906101000a900460ff1681565b60011515600a60009054906101000a900460ff1615151415610a5f576040517fcda3c43d00000000000000000000000000000000000000000000000000000000815260040160405180910390fd5b600260009054906101000a900473ffffffffffffffffffffffffffffffffffffffff1673ffffffffffffffffffffffffffffffffffffffff163373ffffffffffffffffffffffffffffffffffffffff1614158015610b09575060008054906101000a900473ffffffffffffffffffffffffffffffffffffffff1673ffffffffffffffffffffffffffffffffffffffff163373ffffffffffffffffffffffffffffffffffffffff1614155b8015610b635750600160009054906101000a900473ffffffffffffffffffffffffffffffffffffffff1673ffffffffffffffffffffffffffffffffffffffff163373ffffffffffffffffffffffffffffffffffffffff1614155b15610b9a576040517f08fbade400000000000000000000000000000000000000000000000000000000815260040160405180910390fd5b6001600a60006101000a81548160ff02191690831515021790555060011515600760009054906101000a900460ff161515148015610beb575060011515600760019054906101000a900460ff161515145b1561174e576000610bfd600854611a77565b90506000610c0c600954611a77565b9050600082118015610c1e5750600081115b15611474576001821415610eeb576001811415610d52577fd6f5c93907b47fb5605cafc7535e8f56e8ce072b6259b851602c62e57a4dc60d60405160405180910390a160008054906101000a900473ffffffffffffffffffffffffffffffffffffffff1673ffffffffffffffffffffffffffffffffffffffff166108fc6002600354610caa9190611dcc565b9081150290604051600060405180830381858888f19350505050158015610cd5573d6000803e3d6000fd5b50600160009054906101000a900473ffffffffffffffffffffffffffffffffffffffff1673ffffffffffffffffffffffffffffffffffffffff166108fc6002600354610d219190611dcc565b9081150290604051600060405180830381858888f19350505050158015610d4c573d6000803e3d6000fd5b50610ee6565b6002811415610e24577fb8da1b0c48f64354010c03d6da0395ab8afa6e195dc68d8a02e23ee0ae53cf6f600160009054906101000a900473ffffffffffffffffffffffffffffffffffffffff16604051610dac9190611d2f565b60405180910390a1600160009054906101000a900473ffffffffffffffffffffffffffffffffffffffff1673ffffffffffffffffffffffffffffffffffffffff166108fc6003549081150290604051600060405180830381858888f19350505050158015610e1e573d6000803e3d6000fd5b50610ee5565b7fb8da1b0c48f64354010c03d6da0395ab8afa6e195dc68d8a02e23ee0ae53cf6f60008054906101000a900473ffffffffffffffffffffffffffffffffffffffff16604051610e739190611d2f565b60405180910390a160008054906101000a900473ffffffffffffffffffffffffffffffffffffffff1673ffffffffffffffffffffffffffffffffffffffff166108fc6003549081150290604051600060405180830381858888f19350505050158015610ee3573d6000803e3d6000fd5b505b5b61146f565b60028214156111b3576001811415610fc2577fb8da1b0c48f64354010c03d6da0395ab8afa6e195dc68d8a02e23ee0ae53cf6f60008054906101000a900473ffffffffffffffffffffffffffffffffffffffff16604051610f4c9190611d2f565b60405180910390a160008054906101000a900473ffffffffffffffffffffffffffffffffffffffff1673ffffffffffffffffffffffffffffffffffffffff166108fc6003549081150290604051600060405180830381858888f19350505050158015610fbc573d6000803e3d6000fd5b506111ae565b60028114156110e8577fd6f5c93907b47fb5605cafc7535e8f56e8ce072b6259b851602c62e57a4dc60d60405160405180910390a160008054906101000a900473ffffffffffffffffffffffffffffffffffffffff1673ffffffffffffffffffffffffffffffffffffffff166108fc60026003546110409190611dcc565b9081150290604051600060405180830381858888f1935050505015801561106b573d6000803e3d6000fd5b50600160009054906101000a900473ffffffffffffffffffffffffffffffffffffffff1673ffffffffffffffffffffffffffffffffffffffff166108fc60026003546110b79190611dcc565b9081150290604051600060405180830381858888f193505050501580156110e2573d6000803e3d6000fd5b506111ad565b7fb8da1b0c48f64354010c03d6da0395ab8afa6e195dc68d8a02e23ee0ae53cf6f600160009054906101000a900473ffffffffffffffffffffffffffffffffffffffff166040516111399190611d2f565b60405180910390a1600160009054906101000a900473ffffffffffffffffffffffffffffffffffffffff1673ffffffffffffffffffffffffffffffffffffffff166108fc6003549081150290604051600060405180830381858888f193505050501580156111ab573d6000803e3d6000fd5b505b5b61146e565b6001811415611285577fb8da1b0c48f64354010c03d6da0395ab8afa6e195dc68d8a02e23ee0ae53cf6f600160009054906101000a900473ffffffffffffffffffffffffffffffffffffffff1660405161120d9190611d2f565b60405180910390a1600160009054906101000a900473ffffffffffffffffffffffffffffffffffffffff1673ffffffffffffffffffffffffffffffffffffffff166108fc6003549081150290604051600060405180830381858888f1935050505015801561127f573d6000803e3d6000fd5b5061146d565b6002811415611353577fb8da1b0c48f64354010c03d6da0395ab8afa6e195dc68d8a02e23ee0ae53cf6f60008054906101000a900473ffffffffffffffffffffffffffffffffffffffff166040516112dd9190611d2f565b60405180910390a160008054906101000a900473ffffffffffffffffffffffffffffffffffffffff1673ffffffffffffffffffffffffffffffffffffffff166108fc6003549081150290604051600060405180830381858888f1935050505015801561134d573d6000803e3d6000fd5b5061146c565b7fd6f5c93907b47fb5605cafc7535e8f56e8ce072b6259b851602c62e57a4dc60d60405160405180910390a160008054906101000a900473ffffffffffffffffffffffffffffffffffffffff1673ffffffffffffffffffffffffffffffffffffffff166108fc60026003546113c89190611dcc565b9081150290604051600060405180830381858888f193505050501580156113f3573d6000803e3d6000fd5b50600160009054906101000a900473ffffffffffffffffffffffffffffffffffffffff1673ffffffffffffffffffffffffffffffffffffffff166108fc600260035461143f9190611dcc565b9081150290604051600060405180830381858888f1935050505015801561146a573d6000803e3d6000fd5b505b5b5b5b611747565b6000821180156114845750600081145b1561154e577fb8da1b0c48f64354010c03d6da0395ab8afa6e195dc68d8a02e23ee0ae53cf6f60008054906101000a900473ffffffffffffffffffffffffffffffffffffffff166040516114d89190611d2f565b60405180910390a160008054906101000a900473ffffffffffffffffffffffffffffffffffffffff1673ffffffffffffffffffffffffffffffffffffffff166108fc6003549081150290604051600060405180830381858888f19350505050158015611548573d6000803e3d6000fd5b50611746565b60008214801561155e5750600081115b1561162c577fb8da1b0c48f64354010c03d6da0395ab8afa6e195dc68d8a02e23ee0ae53cf6f600160009054906101000a900473ffffffffffffffffffffffffffffffffffffffff166040516115b49190611d2f565b60405180910390a1600160009054906101000a900473ffffffffffffffffffffffffffffffffffffffff1673ffffffffffffffffffffffffffffffffffffffff166108fc6003549081150290604051600060405180830381858888f19350505050158015611626573d6000803e3d6000fd5b50611745565b7fd6f5c93907b47fb5605cafc7535e8f56e8ce072b6259b851602c62e57a4dc60d60405160405180910390a160008054906101000a900473ffffffffffffffffffffffffffffffffffffffff1673ffffffffffffffffffffffffffffffffffffffff166108fc60026003546116a19190611dcc565b9081150290604051600060405180830381858888f193505050501580156116cc573d6000803e3d6000fd5b50600160009054906101000a900473ffffffffffffffffffffffffffffffffffffffff1673ffffffffffffffffffffffffffffffffffffffff166108fc60026003546117189190611dcc565b9081150290604051600060405180830381858888f19350505050158015611743573d6000803e3d6000fd5b505b5b5b5050611a6d565b60011515600760009054906101000a900460ff161515148015611784575060001515600760019054906101000a900460ff161515145b1561184e577fb8da1b0c48f64354010c03d6da0395ab8afa6e195dc68d8a02e23ee0ae53cf6f60008054906101000a900473ffffffffffffffffffffffffffffffffffffffff166040516117d89190611d2f565b60405180910390a160008054906101000a900473ffffffffffffffffffffffffffffffffffffffff1673ffffffffffffffffffffffffffffffffffffffff166108fc6003549081150290604051600060405180830381858888f19350505050158015611848573d6000803e3d6000fd5b50611a6c565b60001515600760009054906101000a900460ff161515148015611884575060011515600760019054906101000a900460ff161515145b15611952577fb8da1b0c48f64354010c03d6da0395ab8afa6e195dc68d8a02e23ee0ae53cf6f600160009054906101000a900473ffffffffffffffffffffffffffffffffffffffff166040516118da9190611d2f565b60405180910390a1600160009054906101000a900473ffffffffffffffffffffffffffffffffffffffff1673ffffffffffffffffffffffffffffffffffffffff166108fc6003549081150290604051600060405180830381858888f1935050505015801561194c573d6000803e3d6000fd5b50611a6b565b7fd6f5c93907b47fb5605cafc7535e8f56e8ce072b6259b851602c62e57a4dc60d60405160405180910390a160008054906101000a900473ffffffffffffffffffffffffffffffffffffffff1673ffffffffffffffffffffffffffffffffffffffff166108fc60026003546119c79190611dcc565b9081150290604051600060405180830381858888f193505050501580156119f2573d6000803e3d6000fd5b50600160009054906101000a900473ffffffffffffffffffffffffffffffffffffffff1673ffffffffffffffffffffffffffffffffffffffff166108fc6002600354611a3e9190611dcc565b9081150290604051600060405180830381858888f19350505050158015611a69573d6000803e3d6000fd5b505b5b5b6000600381905550565b60007f10977e4d68108d418408bc9310b60fc6d0a750c63ccef42cfb0ead23ab73d102821415611aaa5760019050611b11565b7fea923ca2cdda6b54f4fb2bf6a063e5a59a6369ca4c4ae2c4ce02a147b3036a21821415611adb5760029050611b11565b7f389a2d4e358d901bfdf22245f32b4b0a401cc16a4b92155a2ee5da98273dad9a821415611b0c5760039050611b11565b600090505b919050565b600081359050611b2581611eee565b92915050565b60008083601f840112611b4157611b40611eda565b5b8235905067ffffffffffffffff811115611b5e57611b5d611ed5565b5b602083019150836001820283011115611b7a57611b79611edf565b5b9250929050565b600060208284031215611b9757611b96611ee9565b5b6000611ba584828501611b16565b91505092915050565b60008060008060408587031215611bc857611bc7611ee9565b5b600085013567ffffffffffffffff811115611be657611be5611ee4565b5b611bf287828801611b2b565b9450945050602085013567ffffffffffffffff811115611c1557611c14611ee4565b5b611c2187828801611b2b565b925092505092959194509250565b611c3881611e61565b82525050565b611c4781611e0f565b82525050565b611c5681611dfd565b82525050565b611c6581611e21565b82525050565b611c7481611e2d565b82525050565b6000611c868385611db6565b9350611c93838584611e97565b82840190509392505050565b6000611cab8385611dc1565b9350611cb8838584611e97565b82840190509392505050565b611ccd81611e57565b82525050565b6000611ce0828486611c7a565b91508190509392505050565b6000611cf9828688611c9f565b9150611d06828486611c9f565b915081905095945050505050565b6000602082019050611d296000830184611c4d565b92915050565b6000602082019050611d446000830184611c2f565b92915050565b6000602082019050611d5f6000830184611c3e565b92915050565b6000602082019050611d7a6000830184611c5c565b92915050565b6000602082019050611d956000830184611c6b565b92915050565b6000602082019050611db06000830184611cc4565b92915050565b600081905092915050565b600081905092915050565b6000611dd782611e57565b9150611de283611e57565b925082611df257611df1611ea6565b5b828204905092915050565b6000611e0882611e37565b9050919050565b6000611e1a82611e37565b9050919050565b60008115159050919050565b6000819050919050565b600073ffffffffffffffffffffffffffffffffffffffff82169050919050565b6000819050919050565b6000611e6c82611e73565b9050919050565b6000611e7e82611e85565b9050919050565b6000611e9082611e37565b9050919050565b82818337600083830152505050565b7f4e487b7100000000000000000000000000000000000000000000000000000000600052601260045260246000fd5b600080fd5b600080fd5b600080fd5b600080fd5b600080fd5b611ef781611e2d565b8114611f0257600080fd5b5056fea26469706673582212208e0b2166d2cb9f591eaad7169ab3f8cf96db3d6b38407b5521f717aaae70c18364736f6c63430008070033",
					"opcodes": "PUSH1 0x80 PUSH1 0x40 MSTORE PUSH1 0x40 MLOAD PUSH3 0x21E4 CODESIZE SUB DUP1 PUSH3 0x21E4 DUP4 CODECOPY DUP2 DUP2 ADD PUSH1 0x40 MSTORE DUP2 ADD SWAP1 PUSH3 0x29 SWAP2 SWAP1 PUSH3 0x1FF JUMP JUMPDEST DUP1 PUSH20 0xFFFFFFFFFFFFFFFFFFFFFFFFFFFFFFFFFFFFFFFF AND DUP3 PUSH20 0xFFFFFFFFFFFFFFFFFFFFFFFFFFFFFFFFFFFFFFFF AND EQ ISZERO PUSH3 0x90 JUMPI PUSH1 0x40 MLOAD PUSH32 0x422217DA00000000000000000000000000000000000000000000000000000000 DUP2 MSTORE PUSH1 0x4 ADD PUSH1 0x40 MLOAD DUP1 SWAP2 SUB SWAP1 REVERT JUMPDEST DUP2 PUSH1 0x0 DUP1 PUSH2 0x100 EXP DUP2 SLOAD DUP2 PUSH20 0xFFFFFFFFFFFFFFFFFFFFFFFFFFFFFFFFFFFFFFFF MUL NOT AND SWAP1 DUP4 PUSH20 0xFFFFFFFFFFFFFFFFFFFFFFFFFFFFFFFFFFFFFFFF AND MUL OR SWAP1 SSTORE POP DUP1 PUSH1 0x1 PUSH1 0x0 PUSH2 0x100 EXP DUP2 SLOAD DUP2 PUSH20 0xFFFFFFFFFFFFFFFFFFFFFFFFFFFFFFFFFFFFFFFF MUL NOT AND SWAP1 DUP4 PUSH20 0xFFFFFFFFFFFFFFFFFFFFFFFFFFFFFFFFFFFFFFFF AND MUL OR SWAP1 SSTORE POP CALLER PUSH1 0x2 PUSH1 0x0 PUSH2 0x100 EXP DUP2 SLOAD DUP2 PUSH20 0xFFFFFFFFFFFFFFFFFFFFFFFFFFFFFFFFFFFFFFFF MUL NOT AND SWAP1 DUP4 PUSH20 0xFFFFFFFFFFFFFFFFFFFFFFFFFFFFFFFFFFFFFFFF AND MUL OR SWAP1 SSTORE POP CALLVALUE PUSH1 0x3 DUP2 SWAP1 SSTORE POP PUSH1 0x0 PUSH1 0x4 PUSH1 0x0 PUSH2 0x100 EXP DUP2 SLOAD DUP2 PUSH1 0xFF MUL NOT AND SWAP1 DUP4 ISZERO ISZERO MUL OR SWAP1 SSTORE POP PUSH1 0x0 PUSH1 0x4 PUSH1 0x1 PUSH2 0x100 EXP DUP2 SLOAD DUP2 PUSH1 0xFF MUL NOT AND SWAP1 DUP4 ISZERO ISZERO MUL OR SWAP1 SSTORE POP PUSH1 0x0 PUSH1 0x7 PUSH1 0x0 PUSH2 0x100 EXP DUP2 SLOAD DUP2 PUSH1 0xFF MUL NOT AND SWAP1 DUP4 ISZERO ISZERO MUL OR SWAP1 SSTORE POP PUSH1 0x0 PUSH1 0x7 PUSH1 0x1 PUSH2 0x100 EXP DUP2 SLOAD DUP2 PUSH1 0xFF MUL NOT AND SWAP1 DUP4 ISZERO ISZERO MUL OR SWAP1 SSTORE POP PUSH1 0x0 PUSH1 0xA PUSH1 0x0 PUSH2 0x100 EXP DUP2 SLOAD DUP2 PUSH1 0xFF MUL NOT AND SWAP1 DUP4 ISZERO ISZERO MUL OR SWAP1 SSTORE POP POP POP PUSH3 0x299 JUMP JUMPDEST PUSH1 0x0 DUP2 MLOAD SWAP1 POP PUSH3 0x1F9 DUP2 PUSH3 0x27F JUMP JUMPDEST SWAP3 SWAP2 POP POP JUMP JUMPDEST PUSH1 0x0 DUP1 PUSH1 0x40 DUP4 DUP6 SUB SLT ISZERO PUSH3 0x219 JUMPI PUSH3 0x218 PUSH3 0x27A JUMP JUMPDEST JUMPDEST PUSH1 0x0 PUSH3 0x229 DUP6 DUP3 DUP7 ADD PUSH3 0x1E8 JUMP JUMPDEST SWAP3 POP POP PUSH1 0x20 PUSH3 0x23C DUP6 DUP3 DUP7 ADD PUSH3 0x1E8 JUMP JUMPDEST SWAP2 POP POP SWAP3 POP SWAP3 SWAP1 POP JUMP JUMPDEST PUSH1 0x0 PUSH3 0x253 DUP3 PUSH3 0x25A JUMP JUMPDEST SWAP1 POP SWAP2 SWAP1 POP JUMP JUMPDEST PUSH1 0x0 PUSH20 0xFFFFFFFFFFFFFFFFFFFFFFFFFFFFFFFFFFFFFFFF DUP3 AND SWAP1 POP SWAP2 SWAP1 POP JUMP JUMPDEST PUSH1 0x0 DUP1 REVERT JUMPDEST PUSH3 0x28A DUP2 PUSH3 0x246 JUMP JUMPDEST DUP2 EQ PUSH3 0x296 JUMPI PUSH1 0x0 DUP1 REVERT JUMPDEST POP JUMP JUMPDEST PUSH2 0x1F3B DUP1 PUSH3 0x2A9 PUSH1 0x0 CODECOPY PUSH1 0x0 RETURN INVALID PUSH1 0x80 PUSH1 0x40 MSTORE CALLVALUE DUP1 ISZERO PUSH2 0x10 JUMPI PUSH1 0x0 DUP1 REVERT JUMPDEST POP PUSH1 0x4 CALLDATASIZE LT PUSH2 0xEA JUMPI PUSH1 0x0 CALLDATALOAD PUSH1 0xE0 SHR DUP1 PUSH4 0x737EBE58 GT PUSH2 0x8C JUMPI DUP1 PUSH4 0xDEB22E9A GT PUSH2 0x66 JUMPI DUP1 PUSH4 0xDEB22E9A EQ PUSH2 0x217 JUMPI DUP1 PUSH4 0xE3AC5D26 EQ PUSH2 0x235 JUMPI DUP1 PUSH4 0xED873865 EQ PUSH2 0x253 JUMPI DUP1 PUSH4 0xF4E11BBE EQ PUSH2 0x271 JUMPI PUSH2 0xEA JUMP JUMPDEST DUP1 PUSH4 0x737EBE58 EQ PUSH2 0x1BF JUMPI DUP1 PUSH4 0xA28BFB3E EQ PUSH2 0x1DD JUMPI DUP1 PUSH4 0xCB1A295F EQ PUSH2 0x1F9 JUMPI PUSH2 0xEA JUMP JUMPDEST DUP1 PUSH4 0x481C6A75 GT PUSH2 0xC8 JUMPI DUP1 PUSH4 0x481C6A75 EQ PUSH2 0x149 JUMPI DUP1 PUSH4 0x495717E2 EQ PUSH2 0x167 JUMPI DUP1 PUSH4 0x4D178640 EQ PUSH2 0x185 JUMPI DUP1 PUSH4 0x5BA1B2C7 EQ PUSH2 0x1A3 JUMPI PUSH2 0xEA JUMP JUMPDEST DUP1 PUSH4 0x3C0F500 EQ PUSH2 0xEF JUMPI DUP1 PUSH4 0x12FA6FEB EQ PUSH2 0x10D JUMPI DUP1 PUSH4 0x3D4FFB93 EQ PUSH2 0x12B JUMPI JUMPDEST PUSH1 0x0 DUP1 REVERT JUMPDEST PUSH2 0xF7 PUSH2 0x27B JUMP JUMPDEST PUSH1 0x40 MLOAD PUSH2 0x104 SWAP2 SWAP1 PUSH2 0x1D65 JUMP JUMPDEST PUSH1 0x40 MLOAD DUP1 SWAP2 SUB SWAP1 RETURN JUMPDEST PUSH2 0x115 PUSH2 0x28E JUMP JUMPDEST PUSH1 0x40 MLOAD PUSH2 0x122 SWAP2 SWAP1 PUSH2 0x1D65 JUMP JUMPDEST PUSH1 0x40 MLOAD DUP1 SWAP2 SUB SWAP1 RETURN JUMPDEST PUSH2 0x133 PUSH2 0x2A1 JUMP JUMPDEST PUSH1 0x40 MLOAD PUSH2 0x140 SWAP2 SWAP1 PUSH2 0x1D80 JUMP JUMPDEST PUSH1 0x40 MLOAD DUP1 SWAP2 SUB SWAP1 RETURN JUMPDEST PUSH2 0x151 PUSH2 0x2A7 JUMP JUMPDEST PUSH1 0x40 MLOAD PUSH2 0x15E SWAP2 SWAP1 PUSH2 0x1D14 JUMP JUMPDEST PUSH1 0x40 MLOAD DUP1 SWAP2 SUB SWAP1 RETURN JUMPDEST PUSH2 0x16F PUSH2 0x2CD JUMP JUMPDEST PUSH1 0x40 MLOAD PUSH2 0x17C SWAP2 SWAP1 PUSH2 0x1D80 JUMP JUMPDEST PUSH1 0x40 MLOAD DUP1 SWAP2 SUB SWAP1 RETURN JUMPDEST PUSH2 0x18D PUSH2 0x2D3 JUMP JUMPDEST PUSH1 0x40 MLOAD PUSH2 0x19A SWAP2 SWAP1 PUSH2 0x1D65 JUMP JUMPDEST PUSH1 0x40 MLOAD DUP1 SWAP2 SUB SWAP1 RETURN JUMPDEST PUSH2 0x1BD PUSH1 0x4 DUP1 CALLDATASIZE SUB DUP2 ADD SWAP1 PUSH2 0x1B8 SWAP2 SWAP1 PUSH2 0x1BAE JUMP JUMPDEST PUSH2 0x2E6 JUMP JUMPDEST STOP JUMPDEST PUSH2 0x1C7 PUSH2 0x6CB JUMP JUMPDEST PUSH1 0x40 MLOAD PUSH2 0x1D4 SWAP2 SWAP1 PUSH2 0x1D65 JUMP JUMPDEST PUSH1 0x40 MLOAD DUP1 SWAP2 SUB SWAP1 RETURN JUMPDEST PUSH2 0x1F7 PUSH1 0x4 DUP1 CALLDATASIZE SUB DUP2 ADD SWAP1 PUSH2 0x1F2 SWAP2 SWAP1 PUSH2 0x1B81 JUMP JUMPDEST PUSH2 0x6DE JUMP JUMPDEST STOP JUMPDEST PUSH2 0x201 PUSH2 0x9AE JUMP JUMPDEST PUSH1 0x40 MLOAD PUSH2 0x20E SWAP2 SWAP1 PUSH2 0x1D4A JUMP JUMPDEST PUSH1 0x40 MLOAD DUP1 SWAP2 SUB SWAP1 RETURN JUMPDEST PUSH2 0x21F PUSH2 0x9D4 JUMP JUMPDEST PUSH1 0x40 MLOAD PUSH2 0x22C SWAP2 SWAP1 PUSH2 0x1D4A JUMP JUMPDEST PUSH1 0x40 MLOAD DUP1 SWAP2 SUB SWAP1 RETURN JUMPDEST PUSH2 0x23D PUSH2 0x9F8 JUMP JUMPDEST PUSH1 0x40 MLOAD PUSH2 0x24A SWAP2 SWAP1 PUSH2 0x1D9B JUMP JUMPDEST PUSH1 0x40 MLOAD DUP1 SWAP2 SUB SWAP1 RETURN JUMPDEST PUSH2 0x25B PUSH2 0x9FE JUMP JUMPDEST PUSH1 0x40 MLOAD PUSH2 0x268 SWAP2 SWAP1 PUSH2 0x1D65 JUMP JUMPDEST PUSH1 0x40 MLOAD DUP1 SWAP2 SUB SWAP1 RETURN JUMPDEST PUSH2 0x279 PUSH2 0xA11 JUMP JUMPDEST STOP JUMPDEST PUSH1 0x7 PUSH1 0x1 SWAP1 SLOAD SWAP1 PUSH2 0x100 EXP SWAP1 DIV PUSH1 0xFF AND DUP2 JUMP JUMPDEST PUSH1 0xA PUSH1 0x0 SWAP1 SLOAD SWAP1 PUSH2 0x100 EXP SWAP1 DIV PUSH1 0xFF AND DUP2 JUMP JUMPDEST PUSH1 0x8 SLOAD DUP2 JUMP JUMPDEST PUSH1 0x2 PUSH1 0x0 SWAP1 SLOAD SWAP1 PUSH2 0x100 EXP SWAP1 DIV PUSH20 0xFFFFFFFFFFFFFFFFFFFFFFFFFFFFFFFFFFFFFFFF AND DUP2 JUMP JUMPDEST PUSH1 0x9 SLOAD DUP2 JUMP JUMPDEST PUSH1 0x7 PUSH1 0x0 SWAP1 SLOAD SWAP1 PUSH2 0x100 EXP SWAP1 DIV PUSH1 0xFF AND DUP2 JUMP JUMPDEST CALLER PUSH1 0x0 DUP1 SLOAD SWAP1 PUSH2 0x100 EXP SWAP1 DIV PUSH20 0xFFFFFFFFFFFFFFFFFFFFFFFFFFFFFFFFFFFFFFFF AND PUSH20 0xFFFFFFFFFFFFFFFFFFFFFFFFFFFFFFFFFFFFFFFF AND DUP2 PUSH20 0xFFFFFFFFFFFFFFFFFFFFFFFFFFFFFFFFFFFFFFFF AND EQ ISZERO DUP1 ISZERO PUSH2 0x391 JUMPI POP PUSH1 0x1 PUSH1 0x0 SWAP1 SLOAD SWAP1 PUSH2 0x100 EXP SWAP1 DIV PUSH20 0xFFFFFFFFFFFFFFFFFFFFFFFFFFFFFFFFFFFFFFFF AND PUSH20 0xFFFFFFFFFFFFFFFFFFFFFFFFFFFFFFFFFFFFFFFF AND DUP2 PUSH20 0xFFFFFFFFFFFFFFFFFFFFFFFFFFFFFFFFFFFFFFFF AND EQ ISZERO JUMPDEST ISZERO PUSH2 0x3C8 JUMPI PUSH1 0x40 MLOAD PUSH32 0xEA42158000000000000000000000000000000000000000000000000000000000 DUP2 MSTORE PUSH1 0x4 ADD PUSH1 0x40 MLOAD DUP1 SWAP2 SUB SWAP1 REVERT JUMPDEST PUSH1 0x0 DUP1 SLOAD SWAP1 PUSH2 0x100 EXP SWAP1 DIV PUSH20 0xFFFFFFFFFFFFFFFFFFFFFFFFFFFFFFFFFFFFFFFF AND PUSH20 0xFFFFFFFFFFFFFFFFFFFFFFFFFFFFFFFFFFFFFFFF AND DUP2 PUSH20 0xFFFFFFFFFFFFFFFFFFFFFFFFFFFFFFFFFFFFFFFF AND EQ DUP1 ISZERO PUSH2 0x436 JUMPI POP PUSH1 0x1 ISZERO ISZERO PUSH1 0x7 PUSH1 0x0 SWAP1 SLOAD SWAP1 PUSH2 0x100 EXP SWAP1 DIV PUSH1 0xFF AND ISZERO ISZERO EQ JUMPDEST ISZERO PUSH2 0x46D JUMPI PUSH1 0x40 MLOAD PUSH32 0xA981EEBC00000000000000000000000000000000000000000000000000000000 DUP2 MSTORE PUSH1 0x4 ADD PUSH1 0x40 MLOAD DUP1 SWAP2 SUB SWAP1 REVERT JUMPDEST PUSH1 0x1 PUSH1 0x0 SWAP1 SLOAD SWAP1 PUSH2 0x100 EXP SWAP1 DIV PUSH20 0xFFFFFFFFFFFFFFFFFFFFFFFFFFFFFFFFFFFFFFFF AND PUSH20 0xFFFFFFFFFFFFFFFFFFFFFFFFFFFFFFFFFFFFFFFF AND DUP2 PUSH20 0xFFFFFFFFFFFFFFFFFFFFFFFFFFFFFFFFFFFFFFFF AND EQ DUP1 ISZERO PUSH2 0x4DD JUMPI POP PUSH1 0x1 ISZERO ISZERO PUSH1 0x7 PUSH1 0x1 SWAP1 SLOAD SWAP1 PUSH2 0x100 EXP SWAP1 DIV PUSH1 0xFF AND ISZERO ISZERO EQ JUMPDEST ISZERO PUSH2 0x514 JUMPI PUSH1 0x40 MLOAD PUSH32 0xA981EEBC00000000000000000000000000000000000000000000000000000000 DUP2 MSTORE PUSH1 0x4 ADD PUSH1 0x40 MLOAD DUP1 SWAP2 SUB SWAP1 REVERT JUMPDEST PUSH1 0x0 DUP1 SLOAD SWAP1 PUSH2 0x100 EXP SWAP1 DIV PUSH20 0xFFFFFFFFFFFFFFFFFFFFFFFFFFFFFFFFFFFFFFFF AND PUSH20 0xFFFFFFFFFFFFFFFFFFFFFFFFFFFFFFFFFFFFFFFF AND CALLER PUSH20 0xFFFFFFFFFFFFFFFFFFFFFFFFFFFFFFFFFFFFFFFF AND EQ DUP1 ISZERO PUSH2 0x582 JUMPI POP PUSH1 0x1 ISZERO ISZERO PUSH1 0x4 PUSH1 0x0 SWAP1 SLOAD SWAP1 PUSH2 0x100 EXP SWAP1 DIV PUSH1 0xFF AND ISZERO ISZERO EQ JUMPDEST DUP1 ISZERO PUSH2 0x5BB JUMPI POP DUP5 DUP5 DUP5 DUP5 PUSH1 0x40 MLOAD PUSH1 0x20 ADD PUSH2 0x5A0 SWAP5 SWAP4 SWAP3 SWAP2 SWAP1 PUSH2 0x1CEC JUMP JUMPDEST PUSH1 0x40 MLOAD PUSH1 0x20 DUP2 DUP4 SUB SUB DUP2 MSTORE SWAP1 PUSH1 0x40 MSTORE DUP1 MLOAD SWAP1 PUSH1 0x20 ADD KECCAK256 PUSH1 0x5 SLOAD EQ JUMPDEST ISZERO PUSH2 0x5FE JUMPI PUSH1 0x1 PUSH1 0x7 PUSH1 0x0 PUSH2 0x100 EXP DUP2 SLOAD DUP2 PUSH1 0xFF MUL NOT AND SWAP1 DUP4 ISZERO ISZERO MUL OR SWAP1 SSTORE POP DUP5 DUP5 PUSH1 0x40 MLOAD PUSH2 0x5EB SWAP3 SWAP2 SWAP1 PUSH2 0x1CD3 JUMP JUMPDEST PUSH1 0x40 MLOAD DUP1 SWAP2 SUB SWAP1 KECCAK256 PUSH1 0x8 DUP2 SWAP1 SSTORE POP PUSH2 0x6C4 JUMP JUMPDEST PUSH1 0x1 ISZERO ISZERO PUSH1 0x4 PUSH1 0x1 SWAP1 SLOAD SWAP1 PUSH2 0x100 EXP SWAP1 DIV PUSH1 0xFF AND ISZERO ISZERO EQ DUP1 ISZERO PUSH2 0x64E JUMPI POP DUP5 DUP5 DUP5 DUP5 PUSH1 0x40 MLOAD PUSH1 0x20 ADD PUSH2 0x633 SWAP5 SWAP4 SWAP3 SWAP2 SWAP1 PUSH2 0x1CEC JUMP JUMPDEST PUSH1 0x40 MLOAD PUSH1 0x20 DUP2 DUP4 SUB SUB DUP2 MSTORE SWAP1 PUSH1 0x40 MSTORE DUP1 MLOAD SWAP1 PUSH1 0x20 ADD KECCAK256 PUSH1 0x6 SLOAD EQ JUMPDEST ISZERO PUSH2 0x691 JUMPI PUSH1 0x1 PUSH1 0x7 PUSH1 0x1 PUSH2 0x100 EXP DUP2 SLOAD DUP2 PUSH1 0xFF MUL NOT AND SWAP1 DUP4 ISZERO ISZERO MUL OR SWAP1 SSTORE POP DUP5 DUP5 PUSH1 0x40 MLOAD PUSH2 0x67E SWAP3 SWAP2 SWAP1 PUSH2 0x1CD3 JUMP JUMPDEST PUSH1 0x40 MLOAD DUP1 SWAP2 SUB SWAP1 KECCAK256 PUSH1 0x9 DUP2 SWAP1 SSTORE POP PUSH2 0x6C3 JUMP JUMPDEST PUSH1 0x40 MLOAD PUSH32 0x6701DE1400000000000000000000000000000000000000000000000000000000 DUP2 MSTORE PUSH1 0x4 ADD PUSH1 0x40 MLOAD DUP1 SWAP2 SUB SWAP1 REVERT JUMPDEST JUMPDEST POP POP POP POP POP JUMP JUMPDEST PUSH1 0x4 PUSH1 0x1 SWAP1 SLOAD SWAP1 PUSH2 0x100 EXP SWAP1 DIV PUSH1 0xFF AND DUP2 JUMP JUMPDEST CALLER PUSH1 0x0 DUP1 SLOAD SWAP1 PUSH2 0x100 EXP SWAP1 DIV PUSH20 0xFFFFFFFFFFFFFFFFFFFFFFFFFFFFFFFFFFFFFFFF AND PUSH20 0xFFFFFFFFFFFFFFFFFFFFFFFFFFFFFFFFFFFFFFFF AND DUP2 PUSH20 0xFFFFFFFFFFFFFFFFFFFFFFFFFFFFFFFFFFFFFFFF AND EQ ISZERO DUP1 ISZERO PUSH2 0x789 JUMPI POP PUSH1 0x1 PUSH1 0x0 SWAP1 SLOAD SWAP1 PUSH2 0x100 EXP SWAP1 DIV PUSH20 0xFFFFFFFFFFFFFFFFFFFFFFFFFFFFFFFFFFFFFFFF AND PUSH20 0xFFFFFFFFFFFFFFFFFFFFFFFFFFFFFFFFFFFFFFFF AND DUP2 PUSH20 0xFFFFFFFFFFFFFFFFFFFFFFFFFFFFFFFFFFFFFFFF AND EQ ISZERO JUMPDEST ISZERO PUSH2 0x7C0 JUMPI PUSH1 0x40 MLOAD PUSH32 0x5774D9A500000000000000000000000000000000000000000000000000000000 DUP2 MSTORE PUSH1 0x4 ADD PUSH1 0x40 MLOAD DUP1 SWAP2 SUB SWAP1 REVERT JUMPDEST PUSH1 0x0 DUP1 SLOAD SWAP1 PUSH2 0x100 EXP SWAP1 DIV PUSH20 0xFFFFFFFFFFFFFFFFFFFFFFFFFFFFFFFFFFFFFFFF AND PUSH20 0xFFFFFFFFFFFFFFFFFFFFFFFFFFFFFFFFFFFFFFFF AND DUP2 PUSH20 0xFFFFFFFFFFFFFFFFFFFFFFFFFFFFFFFFFFFFFFFF AND EQ DUP1 ISZERO PUSH2 0x82E JUMPI POP PUSH1 0x1 ISZERO ISZERO PUSH1 0x4 PUSH1 0x0 SWAP1 SLOAD SWAP1 PUSH2 0x100 EXP SWAP1 DIV PUSH1 0xFF AND ISZERO ISZERO EQ JUMPDEST ISZERO PUSH2 0x865 JUMPI PUSH1 0x40 MLOAD PUSH32 0xA245B07D00000000000000000000000000000000000000000000000000000000 DUP2 MSTORE PUSH1 0x4 ADD PUSH1 0x40 MLOAD DUP1 SWAP2 SUB SWAP1 REVERT JUMPDEST PUSH1 0x1 PUSH1 0x0 SWAP1 SLOAD SWAP1 PUSH2 0x100 EXP SWAP1 DIV PUSH20 0xFFFFFFFFFFFFFFFFFFFFFFFFFFFFFFFFFFFFFFFF AND PUSH20 0xFFFFFFFFFFFFFFFFFFFFFFFFFFFFFFFFFFFFFFFF AND DUP2 PUSH20 0xFFFFFFFFFFFFFFFFFFFFFFFFFFFFFFFFFFFFFFFF AND EQ DUP1 ISZERO PUSH2 0x8D5 JUMPI POP PUSH1 0x1 ISZERO ISZERO PUSH1 0x4 PUSH1 0x1 SWAP1 SLOAD SWAP1 PUSH2 0x100 EXP SWAP1 DIV PUSH1 0xFF AND ISZERO ISZERO EQ JUMPDEST ISZERO PUSH2 0x90C JUMPI PUSH1 0x40 MLOAD PUSH32 0xA245B07D00000000000000000000000000000000000000000000000000000000 DUP2 MSTORE PUSH1 0x4 ADD PUSH1 0x40 MLOAD DUP1 SWAP2 SUB SWAP1 REVERT JUMPDEST PUSH1 0x0 DUP1 SLOAD SWAP1 PUSH2 0x100 EXP SWAP1 DIV PUSH20 0xFFFFFFFFFFFFFFFFFFFFFFFFFFFFFFFFFFFFFFFF AND PUSH20 0xFFFFFFFFFFFFFFFFFFFFFFFFFFFFFFFFFFFFFFFF AND CALLER PUSH20 0xFFFFFFFFFFFFFFFFFFFFFFFFFFFFFFFFFFFFFFFF AND EQ ISZERO PUSH2 0x987 JUMPI PUSH1 0x1 PUSH1 0x4 PUSH1 0x0 PUSH2 0x100 EXP DUP2 SLOAD DUP2 PUSH1 0xFF MUL NOT AND SWAP1 DUP4 ISZERO ISZERO MUL OR SWAP1 SSTORE POP DUP2 PUSH1 0x5 DUP2 SWAP1 SSTORE POP PUSH2 0x9AA JUMP JUMPDEST PUSH1 0x1 PUSH1 0x4 PUSH1 0x1 PUSH2 0x100 EXP DUP2 SLOAD DUP2 PUSH1 0xFF MUL NOT AND SWAP1 DUP4 ISZERO ISZERO MUL OR SWAP1 SSTORE POP DUP2 PUSH1 0x6 DUP2 SWAP1 SSTORE POP JUMPDEST POP POP JUMP JUMPDEST PUSH1 0x1 PUSH1 0x0 SWAP1 SLOAD SWAP1 PUSH2 0x100 EXP SWAP1 DIV PUSH20 0xFFFFFFFFFFFFFFFFFFFFFFFFFFFFFFFFFFFFFFFF AND DUP2 JUMP JUMPDEST PUSH1 0x0 DUP1 SLOAD SWAP1 PUSH2 0x100 EXP SWAP1 DIV PUSH20 0xFFFFFFFFFFFFFFFFFFFFFFFFFFFFFFFFFFFFFFFF AND DUP2 JUMP JUMPDEST PUSH1 0x3 SLOAD DUP2 JUMP JUMPDEST PUSH1 0x4 PUSH1 0x0 SWAP1 SLOAD SWAP1 PUSH2 0x100 EXP SWAP1 DIV PUSH1 0xFF AND DUP2 JUMP JUMPDEST PUSH1 0x1 ISZERO ISZERO PUSH1 0xA PUSH1 0x0 SWAP1 SLOAD SWAP1 PUSH2 0x100 EXP SWAP1 DIV PUSH1 0xFF AND ISZERO ISZERO EQ ISZERO PUSH2 0xA5F JUMPI PUSH1 0x40 MLOAD PUSH32 0xCDA3C43D00000000000000000000000000000000000000000000000000000000 DUP2 MSTORE PUSH1 0x4 ADD PUSH1 0x40 MLOAD DUP1 SWAP2 SUB SWAP1 REVERT JUMPDEST PUSH1 0x2 PUSH1 0x0 SWAP1 SLOAD SWAP1 PUSH2 0x100 EXP SWAP1 DIV PUSH20 0xFFFFFFFFFFFFFFFFFFFFFFFFFFFFFFFFFFFFFFFF AND PUSH20 0xFFFFFFFFFFFFFFFFFFFFFFFFFFFFFFFFFFFFFFFF AND CALLER PUSH20 0xFFFFFFFFFFFFFFFFFFFFFFFFFFFFFFFFFFFFFFFF AND EQ ISZERO DUP1 ISZERO PUSH2 0xB09 JUMPI POP PUSH1 0x0 DUP1 SLOAD SWAP1 PUSH2 0x100 EXP SWAP1 DIV PUSH20 0xFFFFFFFFFFFFFFFFFFFFFFFFFFFFFFFFFFFFFFFF AND PUSH20 0xFFFFFFFFFFFFFFFFFFFFFFFFFFFFFFFFFFFFFFFF AND CALLER PUSH20 0xFFFFFFFFFFFFFFFFFFFFFFFFFFFFFFFFFFFFFFFF AND EQ ISZERO JUMPDEST DUP1 ISZERO PUSH2 0xB63 JUMPI POP PUSH1 0x1 PUSH1 0x0 SWAP1 SLOAD SWAP1 PUSH2 0x100 EXP SWAP1 DIV PUSH20 0xFFFFFFFFFFFFFFFFFFFFFFFFFFFFFFFFFFFFFFFF AND PUSH20 0xFFFFFFFFFFFFFFFFFFFFFFFFFFFFFFFFFFFFFFFF AND CALLER PUSH20 0xFFFFFFFFFFFFFFFFFFFFFFFFFFFFFFFFFFFFFFFF AND EQ ISZERO JUMPDEST ISZERO PUSH2 0xB9A JUMPI PUSH1 0x40 MLOAD PUSH32 0x8FBADE400000000000000000000000000000000000000000000000000000000 DUP2 MSTORE PUSH1 0x4 ADD PUSH1 0x40 MLOAD DUP1 SWAP2 SUB SWAP1 REVERT JUMPDEST PUSH1 0x1 PUSH1 0xA PUSH1 0x0 PUSH2 0x100 EXP DUP2 SLOAD DUP2 PUSH1 0xFF MUL NOT AND SWAP1 DUP4 ISZERO ISZERO MUL OR SWAP1 SSTORE POP PUSH1 0x1 ISZERO ISZERO PUSH1 0x7 PUSH1 0x0 SWAP1 SLOAD SWAP1 PUSH2 0x100 EXP SWAP1 DIV PUSH1 0xFF AND ISZERO ISZERO EQ DUP1 ISZERO PUSH2 0xBEB JUMPI POP PUSH1 0x1 ISZERO ISZERO PUSH1 0x7 PUSH1 0x1 SWAP1 SLOAD SWAP1 PUSH2 0x100 EXP SWAP1 DIV PUSH1 0xFF AND ISZERO ISZERO EQ JUMPDEST ISZERO PUSH2 0x174E JUMPI PUSH1 0x0 PUSH2 0xBFD PUSH1 0x8 SLOAD PUSH2 0x1A77 JUMP JUMPDEST SWAP1 POP PUSH1 0x0 PUSH2 0xC0C PUSH1 0x9 SLOAD PUSH2 0x1A77 JUMP JUMPDEST SWAP1 POP PUSH1 0x0 DUP3 GT DUP1 ISZERO PUSH2 0xC1E JUMPI POP PUSH1 0x0 DUP2 GT JUMPDEST ISZERO PUSH2 0x1474 JUMPI PUSH1 0x1 DUP3 EQ ISZERO PUSH2 0xEEB JUMPI PUSH1 0x1 DUP2 EQ ISZERO PUSH2 0xD52 JUMPI PUSH32 0xD6F5C93907B47FB5605CAFC7535E8F56E8CE072B6259B851602C62E57A4DC60D PUSH1 0x40 MLOAD PUSH1 0x40 MLOAD DUP1 SWAP2 SUB SWAP1 LOG1 PUSH1 0x0 DUP1 SLOAD SWAP1 PUSH2 0x100 EXP SWAP1 DIV PUSH20 0xFFFFFFFFFFFFFFFFFFFFFFFFFFFFFFFFFFFFFFFF AND PUSH20 0xFFFFFFFFFFFFFFFFFFFFFFFFFFFFFFFFFFFFFFFF AND PUSH2 0x8FC PUSH1 0x2 PUSH1 0x3 SLOAD PUSH2 0xCAA SWAP2 SWAP1 PUSH2 0x1DCC JUMP JUMPDEST SWAP1 DUP2 ISZERO MUL SWAP1 PUSH1 0x40 MLOAD PUSH1 0x0 PUSH1 0x40 MLOAD DUP1 DUP4 SUB DUP2 DUP6 DUP9 DUP9 CALL SWAP4 POP POP POP POP ISZERO DUP1 ISZERO PUSH2 0xCD5 JUMPI RETURNDATASIZE PUSH1 0x0 DUP1 RETURNDATACOPY RETURNDATASIZE PUSH1 0x0 REVERT JUMPDEST POP PUSH1 0x1 PUSH1 0x0 SWAP1 SLOAD SWAP1 PUSH2 0x100 EXP SWAP1 DIV PUSH20 0xFFFFFFFFFFFFFFFFFFFFFFFFFFFFFFFFFFFFFFFF AND PUSH20 0xFFFFFFFFFFFFFFFFFFFFFFFFFFFFFFFFFFFFFFFF AND PUSH2 0x8FC PUSH1 0x2 PUSH1 0x3 SLOAD PUSH2 0xD21 SWAP2 SWAP1 PUSH2 0x1DCC JUMP JUMPDEST SWAP1 DUP2 ISZERO MUL SWAP1 PUSH1 0x40 MLOAD PUSH1 0x0 PUSH1 0x40 MLOAD DUP1 DUP4 SUB DUP2 DUP6 DUP9 DUP9 CALL SWAP4 POP POP POP POP ISZERO DUP1 ISZERO PUSH2 0xD4C JUMPI RETURNDATASIZE PUSH1 0x0 DUP1 RETURNDATACOPY RETURNDATASIZE PUSH1 0x0 REVERT JUMPDEST POP PUSH2 0xEE6 JUMP JUMPDEST PUSH1 0x2 DUP2 EQ ISZERO PUSH2 0xE24 JUMPI PUSH32 0xB8DA1B0C48F64354010C03D6DA0395AB8AFA6E195DC68D8A02E23EE0AE53CF6F PUSH1 0x1 PUSH1 0x0 SWAP1 SLOAD SWAP1 PUSH2 0x100 EXP SWAP1 DIV PUSH20 0xFFFFFFFFFFFFFFFFFFFFFFFFFFFFFFFFFFFFFFFF AND PUSH1 0x40 MLOAD PUSH2 0xDAC SWAP2 SWAP1 PUSH2 0x1D2F JUMP JUMPDEST PUSH1 0x40 MLOAD DUP1 SWAP2 SUB SWAP1 LOG1 PUSH1 0x1 PUSH1 0x0 SWAP1 SLOAD SWAP1 PUSH2 0x100 EXP SWAP1 DIV PUSH20 0xFFFFFFFFFFFFFFFFFFFFFFFFFFFFFFFFFFFFFFFF AND PUSH20 0xFFFFFFFFFFFFFFFFFFFFFFFFFFFFFFFFFFFFFFFF AND PUSH2 0x8FC PUSH1 0x3 SLOAD SWAP1 DUP2 ISZERO MUL SWAP1 PUSH1 0x40 MLOAD PUSH1 0x0 PUSH1 0x40 MLOAD DUP1 DUP4 SUB DUP2 DUP6 DUP9 DUP9 CALL SWAP4 POP POP POP POP ISZERO DUP1 ISZERO PUSH2 0xE1E JUMPI RETURNDATASIZE PUSH1 0x0 DUP1 RETURNDATACOPY RETURNDATASIZE PUSH1 0x0 REVERT JUMPDEST POP PUSH2 0xEE5 JUMP JUMPDEST PUSH32 0xB8DA1B0C48F64354010C03D6DA0395AB8AFA6E195DC68D8A02E23EE0AE53CF6F PUSH1 0x0 DUP1 SLOAD SWAP1 PUSH2 0x100 EXP SWAP1 DIV PUSH20 0xFFFFFFFFFFFFFFFFFFFFFFFFFFFFFFFFFFFFFFFF AND PUSH1 0x40 MLOAD PUSH2 0xE73 SWAP2 SWAP1 PUSH2 0x1D2F JUMP JUMPDEST PUSH1 0x40 MLOAD DUP1 SWAP2 SUB SWAP1 LOG1 PUSH1 0x0 DUP1 SLOAD SWAP1 PUSH2 0x100 EXP SWAP1 DIV PUSH20 0xFFFFFFFFFFFFFFFFFFFFFFFFFFFFFFFFFFFFFFFF AND PUSH20 0xFFFFFFFFFFFFFFFFFFFFFFFFFFFFFFFFFFFFFFFF AND PUSH2 0x8FC PUSH1 0x3 SLOAD SWAP1 DUP2 ISZERO MUL SWAP1 PUSH1 0x40 MLOAD PUSH1 0x0 PUSH1 0x40 MLOAD DUP1 DUP4 SUB DUP2 DUP6 DUP9 DUP9 CALL SWAP4 POP POP POP POP ISZERO DUP1 ISZERO PUSH2 0xEE3 JUMPI RETURNDATASIZE PUSH1 0x0 DUP1 RETURNDATACOPY RETURNDATASIZE PUSH1 0x0 REVERT JUMPDEST POP JUMPDEST JUMPDEST PUSH2 0x146F JUMP JUMPDEST PUSH1 0x2 DUP3 EQ ISZERO PUSH2 0x11B3 JUMPI PUSH1 0x1 DUP2 EQ ISZERO PUSH2 0xFC2 JUMPI PUSH32 0xB8DA1B0C48F64354010C03D6DA0395AB8AFA6E195DC68D8A02E23EE0AE53CF6F PUSH1 0x0 DUP1 SLOAD SWAP1 PUSH2 0x100 EXP SWAP1 DIV PUSH20 0xFFFFFFFFFFFFFFFFFFFFFFFFFFFFFFFFFFFFFFFF AND PUSH1 0x40 MLOAD PUSH2 0xF4C SWAP2 SWAP1 PUSH2 0x1D2F JUMP JUMPDEST PUSH1 0x40 MLOAD DUP1 SWAP2 SUB SWAP1 LOG1 PUSH1 0x0 DUP1 SLOAD SWAP1 PUSH2 0x100 EXP SWAP1 DIV PUSH20 0xFFFFFFFFFFFFFFFFFFFFFFFFFFFFFFFFFFFFFFFF AND PUSH20 0xFFFFFFFFFFFFFFFFFFFFFFFFFFFFFFFFFFFFFFFF AND PUSH2 0x8FC PUSH1 0x3 SLOAD SWAP1 DUP2 ISZERO MUL SWAP1 PUSH1 0x40 MLOAD PUSH1 0x0 PUSH1 0x40 MLOAD DUP1 DUP4 SUB DUP2 DUP6 DUP9 DUP9 CALL SWAP4 POP POP POP POP ISZERO DUP1 ISZERO PUSH2 0xFBC JUMPI RETURNDATASIZE PUSH1 0x0 DUP1 RETURNDATACOPY RETURNDATASIZE PUSH1 0x0 REVERT JUMPDEST POP PUSH2 0x11AE JUMP JUMPDEST PUSH1 0x2 DUP2 EQ ISZERO PUSH2 0x10E8 JUMPI PUSH32 0xD6F5C93907B47FB5605CAFC7535E8F56E8CE072B6259B851602C62E57A4DC60D PUSH1 0x40 MLOAD PUSH1 0x40 MLOAD DUP1 SWAP2 SUB SWAP1 LOG1 PUSH1 0x0 DUP1 SLOAD SWAP1 PUSH2 0x100 EXP SWAP1 DIV PUSH20 0xFFFFFFFFFFFFFFFFFFFFFFFFFFFFFFFFFFFFFFFF AND PUSH20 0xFFFFFFFFFFFFFFFFFFFFFFFFFFFFFFFFFFFFFFFF AND PUSH2 0x8FC PUSH1 0x2 PUSH1 0x3 SLOAD PUSH2 0x1040 SWAP2 SWAP1 PUSH2 0x1DCC JUMP JUMPDEST SWAP1 DUP2 ISZERO MUL SWAP1 PUSH1 0x40 MLOAD PUSH1 0x0 PUSH1 0x40 MLOAD DUP1 DUP4 SUB DUP2 DUP6 DUP9 DUP9 CALL SWAP4 POP POP POP POP ISZERO DUP1 ISZERO PUSH2 0x106B JUMPI RETURNDATASIZE PUSH1 0x0 DUP1 RETURNDATACOPY RETURNDATASIZE PUSH1 0x0 REVERT JUMPDEST POP PUSH1 0x1 PUSH1 0x0 SWAP1 SLOAD SWAP1 PUSH2 0x100 EXP SWAP1 DIV PUSH20 0xFFFFFFFFFFFFFFFFFFFFFFFFFFFFFFFFFFFFFFFF AND PUSH20 0xFFFFFFFFFFFFFFFFFFFFFFFFFFFFFFFFFFFFFFFF AND PUSH2 0x8FC PUSH1 0x2 PUSH1 0x3 SLOAD PUSH2 0x10B7 SWAP2 SWAP1 PUSH2 0x1DCC JUMP JUMPDEST SWAP1 DUP2 ISZERO MUL SWAP1 PUSH1 0x40 MLOAD PUSH1 0x0 PUSH1 0x40 MLOAD DUP1 DUP4 SUB DUP2 DUP6 DUP9 DUP9 CALL SWAP4 POP POP POP POP ISZERO DUP1 ISZERO PUSH2 0x10E2 JUMPI RETURNDATASIZE PUSH1 0x0 DUP1 RETURNDATACOPY RETURNDATASIZE PUSH1 0x0 REVERT JUMPDEST POP PUSH2 0x11AD JUMP JUMPDEST PUSH32 0xB8DA1B0C48F64354010C03D6DA0395AB8AFA6E195DC68D8A02E23EE0AE53CF6F PUSH1 0x1 PUSH1 0x0 SWAP1 SLOAD SWAP1 PUSH2 0x100 EXP SWAP1 DIV PUSH20 0xFFFFFFFFFFFFFFFFFFFFFFFFFFFFFFFFFFFFFFFF AND PUSH1 0x40 MLOAD PUSH2 0x1139 SWAP2 SWAP1 PUSH2 0x1D2F JUMP JUMPDEST PUSH1 0x40 MLOAD DUP1 SWAP2 SUB SWAP1 LOG1 PUSH1 0x1 PUSH1 0x0 SWAP1 SLOAD SWAP1 PUSH2 0x100 EXP SWAP1 DIV PUSH20 0xFFFFFFFFFFFFFFFFFFFFFFFFFFFFFFFFFFFFFFFF AND PUSH20 0xFFFFFFFFFFFFFFFFFFFFFFFFFFFFFFFFFFFFFFFF AND PUSH2 0x8FC PUSH1 0x3 SLOAD SWAP1 DUP2 ISZERO MUL SWAP1 PUSH1 0x40 MLOAD PUSH1 0x0 PUSH1 0x40 MLOAD DUP1 DUP4 SUB DUP2 DUP6 DUP9 DUP9 CALL SWAP4 POP POP POP POP ISZERO DUP1 ISZERO PUSH2 0x11AB JUMPI RETURNDATASIZE PUSH1 0x0 DUP1 RETURNDATACOPY RETURNDATASIZE PUSH1 0x0 REVERT JUMPDEST POP JUMPDEST JUMPDEST PUSH2 0x146E JUMP JUMPDEST PUSH1 0x1 DUP2 EQ ISZERO PUSH2 0x1285 JUMPI PUSH32 0xB8DA1B0C48F64354010C03D6DA0395AB8AFA6E195DC68D8A02E23EE0AE53CF6F PUSH1 0x1 PUSH1 0x0 SWAP1 SLOAD SWAP1 PUSH2 0x100 EXP SWAP1 DIV PUSH20 0xFFFFFFFFFFFFFFFFFFFFFFFFFFFFFFFFFFFFFFFF AND PUSH1 0x40 MLOAD PUSH2 0x120D SWAP2 SWAP1 PUSH2 0x1D2F JUMP JUMPDEST PUSH1 0x40 MLOAD DUP1 SWAP2 SUB SWAP1 LOG1 PUSH1 0x1 PUSH1 0x0 SWAP1 SLOAD SWAP1 PUSH2 0x100 EXP SWAP1 DIV PUSH20 0xFFFFFFFFFFFFFFFFFFFFFFFFFFFFFFFFFFFFFFFF AND PUSH20 0xFFFFFFFFFFFFFFFFFFFFFFFFFFFFFFFFFFFFFFFF AND PUSH2 0x8FC PUSH1 0x3 SLOAD SWAP1 DUP2 ISZERO MUL SWAP1 PUSH1 0x40 MLOAD PUSH1 0x0 PUSH1 0x40 MLOAD DUP1 DUP4 SUB DUP2 DUP6 DUP9 DUP9 CALL SWAP4 POP POP POP POP ISZERO DUP1 ISZERO PUSH2 0x127F JUMPI RETURNDATASIZE PUSH1 0x0 DUP1 RETURNDATACOPY RETURNDATASIZE PUSH1 0x0 REVERT JUMPDEST POP PUSH2 0x146D JUMP JUMPDEST PUSH1 0x2 DUP2 EQ ISZERO PUSH2 0x1353 JUMPI PUSH32 0xB8DA1B0C48F64354010C03D6DA0395AB8AFA6E195DC68D8A02E23EE0AE53CF6F PUSH1 0x0 DUP1 SLOAD SWAP1 PUSH2 0x100 EXP SWAP1 DIV PUSH20 0xFFFFFFFFFFFFFFFFFFFFFFFFFFFFFFFFFFFFFFFF AND PUSH1 0x40 MLOAD PUSH2 0x12DD SWAP2 SWAP1 PUSH2 0x1D2F JUMP JUMPDEST PUSH1 0x40 MLOAD DUP1 SWAP2 SUB SWAP1 LOG1 PUSH1 0x0 DUP1 SLOAD SWAP1 PUSH2 0x100 EXP SWAP1 DIV PUSH20 0xFFFFFFFFFFFFFFFFFFFFFFFFFFFFFFFFFFFFFFFF AND PUSH20 0xFFFFFFFFFFFFFFFFFFFFFFFFFFFFFFFFFFFFFFFF AND PUSH2 0x8FC PUSH1 0x3 SLOAD SWAP1 DUP2 ISZERO MUL SWAP1 PUSH1 0x40 MLOAD PUSH1 0x0 PUSH1 0x40 MLOAD DUP1 DUP4 SUB DUP2 DUP6 DUP9 DUP9 CALL SWAP4 POP POP POP POP ISZERO DUP1 ISZERO PUSH2 0x134D JUMPI RETURNDATASIZE PUSH1 0x0 DUP1 RETURNDATACOPY RETURNDATASIZE PUSH1 0x0 REVERT JUMPDEST POP PUSH2 0x146C JUMP JUMPDEST PUSH32 0xD6F5C93907B47FB5605CAFC7535E8F56E8CE072B6259B851602C62E57A4DC60D PUSH1 0x40 MLOAD PUSH1 0x40 MLOAD DUP1 SWAP2 SUB SWAP1 LOG1 PUSH1 0x0 DUP1 SLOAD SWAP1 PUSH2 0x100 EXP SWAP1 DIV PUSH20 0xFFFFFFFFFFFFFFFFFFFFFFFFFFFFFFFFFFFFFFFF AND PUSH20 0xFFFFFFFFFFFFFFFFFFFFFFFFFFFFFFFFFFFFFFFF AND PUSH2 0x8FC PUSH1 0x2 PUSH1 0x3 SLOAD PUSH2 0x13C8 SWAP2 SWAP1 PUSH2 0x1DCC JUMP JUMPDEST SWAP1 DUP2 ISZERO MUL SWAP1 PUSH1 0x40 MLOAD PUSH1 0x0 PUSH1 0x40 MLOAD DUP1 DUP4 SUB DUP2 DUP6 DUP9 DUP9 CALL SWAP4 POP POP POP POP ISZERO DUP1 ISZERO PUSH2 0x13F3 JUMPI RETURNDATASIZE PUSH1 0x0 DUP1 RETURNDATACOPY RETURNDATASIZE PUSH1 0x0 REVERT JUMPDEST POP PUSH1 0x1 PUSH1 0x0 SWAP1 SLOAD SWAP1 PUSH2 0x100 EXP SWAP1 DIV PUSH20 0xFFFFFFFFFFFFFFFFFFFFFFFFFFFFFFFFFFFFFFFF AND PUSH20 0xFFFFFFFFFFFFFFFFFFFFFFFFFFFFFFFFFFFFFFFF AND PUSH2 0x8FC PUSH1 0x2 PUSH1 0x3 SLOAD PUSH2 0x143F SWAP2 SWAP1 PUSH2 0x1DCC JUMP JUMPDEST SWAP1 DUP2 ISZERO MUL SWAP1 PUSH1 0x40 MLOAD PUSH1 0x0 PUSH1 0x40 MLOAD DUP1 DUP4 SUB DUP2 DUP6 DUP9 DUP9 CALL SWAP4 POP POP POP POP ISZERO DUP1 ISZERO PUSH2 0x146A JUMPI RETURNDATASIZE PUSH1 0x0 DUP1 RETURNDATACOPY RETURNDATASIZE PUSH1 0x0 REVERT JUMPDEST POP JUMPDEST JUMPDEST JUMPDEST JUMPDEST PUSH2 0x1747 JUMP JUMPDEST PUSH1 0x0 DUP3 GT DUP1 ISZERO PUSH2 0x1484 JUMPI POP PUSH1 0x0 DUP2 EQ JUMPDEST ISZERO PUSH2 0x154E JUMPI PUSH32 0xB8DA1B0C48F64354010C03D6DA0395AB8AFA6E195DC68D8A02E23EE0AE53CF6F PUSH1 0x0 DUP1 SLOAD SWAP1 PUSH2 0x100 EXP SWAP1 DIV PUSH20 0xFFFFFFFFFFFFFFFFFFFFFFFFFFFFFFFFFFFFFFFF AND PUSH1 0x40 MLOAD PUSH2 0x14D8 SWAP2 SWAP1 PUSH2 0x1D2F JUMP JUMPDEST PUSH1 0x40 MLOAD DUP1 SWAP2 SUB SWAP1 LOG1 PUSH1 0x0 DUP1 SLOAD SWAP1 PUSH2 0x100 EXP SWAP1 DIV PUSH20 0xFFFFFFFFFFFFFFFFFFFFFFFFFFFFFFFFFFFFFFFF AND PUSH20 0xFFFFFFFFFFFFFFFFFFFFFFFFFFFFFFFFFFFFFFFF AND PUSH2 0x8FC PUSH1 0x3 SLOAD SWAP1 DUP2 ISZERO MUL SWAP1 PUSH1 0x40 MLOAD PUSH1 0x0 PUSH1 0x40 MLOAD DUP1 DUP4 SUB DUP2 DUP6 DUP9 DUP9 CALL SWAP4 POP POP POP POP ISZERO DUP1 ISZERO PUSH2 0x1548 JUMPI RETURNDATASIZE PUSH1 0x0 DUP1 RETURNDATACOPY RETURNDATASIZE PUSH1 0x0 REVERT JUMPDEST POP PUSH2 0x1746 JUMP JUMPDEST PUSH1 0x0 DUP3 EQ DUP1 ISZERO PUSH2 0x155E JUMPI POP PUSH1 0x0 DUP2 GT JUMPDEST ISZERO PUSH2 0x162C JUMPI PUSH32 0xB8DA1B0C48F64354010C03D6DA0395AB8AFA6E195DC68D8A02E23EE0AE53CF6F PUSH1 0x1 PUSH1 0x0 SWAP1 SLOAD SWAP1 PUSH2 0x100 EXP SWAP1 DIV PUSH20 0xFFFFFFFFFFFFFFFFFFFFFFFFFFFFFFFFFFFFFFFF AND PUSH1 0x40 MLOAD PUSH2 0x15B4 SWAP2 SWAP1 PUSH2 0x1D2F JUMP JUMPDEST PUSH1 0x40 MLOAD DUP1 SWAP2 SUB SWAP1 LOG1 PUSH1 0x1 PUSH1 0x0 SWAP1 SLOAD SWAP1 PUSH2 0x100 EXP SWAP1 DIV PUSH20 0xFFFFFFFFFFFFFFFFFFFFFFFFFFFFFFFFFFFFFFFF AND PUSH20 0xFFFFFFFFFFFFFFFFFFFFFFFFFFFFFFFFFFFFFFFF AND PUSH2 0x8FC PUSH1 0x3 SLOAD SWAP1 DUP2 ISZERO MUL SWAP1 PUSH1 0x40 MLOAD PUSH1 0x0 PUSH1 0x40 MLOAD DUP1 DUP4 SUB DUP2 DUP6 DUP9 DUP9 CALL SWAP4 POP POP POP POP ISZERO DUP1 ISZERO PUSH2 0x1626 JUMPI RETURNDATASIZE PUSH1 0x0 DUP1 RETURNDATACOPY RETURNDATASIZE PUSH1 0x0 REVERT JUMPDEST POP PUSH2 0x1745 JUMP JUMPDEST PUSH32 0xD6F5C93907B47FB5605CAFC7535E8F56E8CE072B6259B851602C62E57A4DC60D PUSH1 0x40 MLOAD PUSH1 0x40 MLOAD DUP1 SWAP2 SUB SWAP1 LOG1 PUSH1 0x0 DUP1 SLOAD SWAP1 PUSH2 0x100 EXP SWAP1 DIV PUSH20 0xFFFFFFFFFFFFFFFFFFFFFFFFFFFFFFFFFFFFFFFF AND PUSH20 0xFFFFFFFFFFFFFFFFFFFFFFFFFFFFFFFFFFFFFFFF AND PUSH2 0x8FC PUSH1 0x2 PUSH1 0x3 SLOAD PUSH2 0x16A1 SWAP2 SWAP1 PUSH2 0x1DCC JUMP JUMPDEST SWAP1 DUP2 ISZERO MUL SWAP1 PUSH1 0x40 MLOAD PUSH1 0x0 PUSH1 0x40 MLOAD DUP1 DUP4 SUB DUP2 DUP6 DUP9 DUP9 CALL SWAP4 POP POP POP POP ISZERO DUP1 ISZERO PUSH2 0x16CC JUMPI RETURNDATASIZE PUSH1 0x0 DUP1 RETURNDATACOPY RETURNDATASIZE PUSH1 0x0 REVERT JUMPDEST POP PUSH1 0x1 PUSH1 0x0 SWAP1 SLOAD SWAP1 PUSH2 0x100 EXP SWAP1 DIV PUSH20 0xFFFFFFFFFFFFFFFFFFFFFFFFFFFFFFFFFFFFFFFF AND PUSH20 0xFFFFFFFFFFFFFFFFFFFFFFFFFFFFFFFFFFFFFFFF AND PUSH2 0x8FC PUSH1 0x2 PUSH1 0x3 SLOAD PUSH2 0x1718 SWAP2 SWAP1 PUSH2 0x1DCC JUMP JUMPDEST SWAP1 DUP2 ISZERO MUL SWAP1 PUSH1 0x40 MLOAD PUSH1 0x0 PUSH1 0x40 MLOAD DUP1 DUP4 SUB DUP2 DUP6 DUP9 DUP9 CALL SWAP4 POP POP POP POP ISZERO DUP1 ISZERO PUSH2 0x1743 JUMPI RETURNDATASIZE PUSH1 0x0 DUP1 RETURNDATACOPY RETURNDATASIZE PUSH1 0x0 REVERT JUMPDEST POP JUMPDEST JUMPDEST JUMPDEST POP POP PUSH2 0x1A6D JUMP JUMPDEST PUSH1 0x1 ISZERO ISZERO PUSH1 0x7 PUSH1 0x0 SWAP1 SLOAD SWAP1 PUSH2 0x100 EXP SWAP1 DIV PUSH1 0xFF AND ISZERO ISZERO EQ DUP1 ISZERO PUSH2 0x1784 JUMPI POP PUSH1 0x0 ISZERO ISZERO PUSH1 0x7 PUSH1 0x1 SWAP1 SLOAD SWAP1 PUSH2 0x100 EXP SWAP1 DIV PUSH1 0xFF AND ISZERO ISZERO EQ JUMPDEST ISZERO PUSH2 0x184E JUMPI PUSH32 0xB8DA1B0C48F64354010C03D6DA0395AB8AFA6E195DC68D8A02E23EE0AE53CF6F PUSH1 0x0 DUP1 SLOAD SWAP1 PUSH2 0x100 EXP SWAP1 DIV PUSH20 0xFFFFFFFFFFFFFFFFFFFFFFFFFFFFFFFFFFFFFFFF AND PUSH1 0x40 MLOAD PUSH2 0x17D8 SWAP2 SWAP1 PUSH2 0x1D2F JUMP JUMPDEST PUSH1 0x40 MLOAD DUP1 SWAP2 SUB SWAP1 LOG1 PUSH1 0x0 DUP1 SLOAD SWAP1 PUSH2 0x100 EXP SWAP1 DIV PUSH20 0xFFFFFFFFFFFFFFFFFFFFFFFFFFFFFFFFFFFFFFFF AND PUSH20 0xFFFFFFFFFFFFFFFFFFFFFFFFFFFFFFFFFFFFFFFF AND PUSH2 0x8FC PUSH1 0x3 SLOAD SWAP1 DUP2 ISZERO MUL SWAP1 PUSH1 0x40 MLOAD PUSH1 0x0 PUSH1 0x40 MLOAD DUP1 DUP4 SUB DUP2 DUP6 DUP9 DUP9 CALL SWAP4 POP POP POP POP ISZERO DUP1 ISZERO PUSH2 0x1848 JUMPI RETURNDATASIZE PUSH1 0x0 DUP1 RETURNDATACOPY RETURNDATASIZE PUSH1 0x0 REVERT JUMPDEST POP PUSH2 0x1A6C JUMP JUMPDEST PUSH1 0x0 ISZERO ISZERO PUSH1 0x7 PUSH1 0x0 SWAP1 SLOAD SWAP1 PUSH2 0x100 EXP SWAP1 DIV PUSH1 0xFF AND ISZERO ISZERO EQ DUP1 ISZERO PUSH2 0x1884 JUMPI POP PUSH1 0x1 ISZERO ISZERO PUSH1 0x7 PUSH1 0x1 SWAP1 SLOAD SWAP1 PUSH2 0x100 EXP SWAP1 DIV PUSH1 0xFF AND ISZERO ISZERO EQ JUMPDEST ISZERO PUSH2 0x1952 JUMPI PUSH32 0xB8DA1B0C48F64354010C03D6DA0395AB8AFA6E195DC68D8A02E23EE0AE53CF6F PUSH1 0x1 PUSH1 0x0 SWAP1 SLOAD SWAP1 PUSH2 0x100 EXP SWAP1 DIV PUSH20 0xFFFFFFFFFFFFFFFFFFFFFFFFFFFFFFFFFFFFFFFF AND PUSH1 0x40 MLOAD PUSH2 0x18DA SWAP2 SWAP1 PUSH2 0x1D2F JUMP JUMPDEST PUSH1 0x40 MLOAD DUP1 SWAP2 SUB SWAP1 LOG1 PUSH1 0x1 PUSH1 0x0 SWAP1 SLOAD SWAP1 PUSH2 0x100 EXP SWAP1 DIV PUSH20 0xFFFFFFFFFFFFFFFFFFFFFFFFFFFFFFFFFFFFFFFF AND PUSH20 0xFFFFFFFFFFFFFFFFFFFFFFFFFFFFFFFFFFFFFFFF AND PUSH2 0x8FC PUSH1 0x3 SLOAD SWAP1 DUP2 ISZERO MUL SWAP1 PUSH1 0x40 MLOAD PUSH1 0x0 PUSH1 0x40 MLOAD DUP1 DUP4 SUB DUP2 DUP6 DUP9 DUP9 CALL SWAP4 POP POP POP POP ISZERO DUP1 ISZERO PUSH2 0x194C JUMPI RETURNDATASIZE PUSH1 0x0 DUP1 RETURNDATACOPY RETURNDATASIZE PUSH1 0x0 REVERT JUMPDEST POP PUSH2 0x1A6B JUMP JUMPDEST PUSH32 0xD6F5C93907B47FB5605CAFC7535E8F56E8CE072B6259B851602C62E57A4DC60D PUSH1 0x40 MLOAD PUSH1 0x40 MLOAD DUP1 SWAP2 SUB SWAP1 LOG1 PUSH1 0x0 DUP1 SLOAD SWAP1 PUSH2 0x100 EXP SWAP1 DIV PUSH20 0xFFFFFFFFFFFFFFFFFFFFFFFFFFFFFFFFFFFFFFFF AND PUSH20 0xFFFFFFFFFFFFFFFFFFFFFFFFFFFFFFFFFFFFFFFF AND PUSH2 0x8FC PUSH1 0x2 PUSH1 0x3 SLOAD PUSH2 0x19C7 SWAP2 SWAP1 PUSH2 0x1DCC JUMP JUMPDEST SWAP1 DUP2 ISZERO MUL SWAP1 PUSH1 0x40 MLOAD PUSH1 0x0 PUSH1 0x40 MLOAD DUP1 DUP4 SUB DUP2 DUP6 DUP9 DUP9 CALL SWAP4 POP POP POP POP ISZERO DUP1 ISZERO PUSH2 0x19F2 JUMPI RETURNDATASIZE PUSH1 0x0 DUP1 RETURNDATACOPY RETURNDATASIZE PUSH1 0x0 REVERT JUMPDEST POP PUSH1 0x1 PUSH1 0x0 SWAP1 SLOAD SWAP1 PUSH2 0x100 EXP SWAP1 DIV PUSH20 0xFFFFFFFFFFFFFFFFFFFFFFFFFFFFFFFFFFFFFFFF AND PUSH20 0xFFFFFFFFFFFFFFFFFFFFFFFFFFFFFFFFFFFFFFFF AND PUSH2 0x8FC PUSH1 0x2 PUSH1 0x3 SLOAD PUSH2 0x1A3E SWAP2 SWAP1 PUSH2 0x1DCC JUMP JUMPDEST SWAP1 DUP2 ISZERO MUL SWAP1 PUSH1 0x40 MLOAD PUSH1 0x0 PUSH1 0x40 MLOAD DUP1 DUP4 SUB DUP2 DUP6 DUP9 DUP9 CALL SWAP4 POP POP POP POP ISZERO DUP1 ISZERO PUSH2 0x1A69 JUMPI RETURNDATASIZE PUSH1 0x0 DUP1 RETURNDATACOPY RETURNDATASIZE PUSH1 0x0 REVERT JUMPDEST POP JUMPDEST JUMPDEST JUMPDEST PUSH1 0x0 PUSH1 0x3 DUP2 SWAP1 SSTORE POP JUMP JUMPDEST PUSH1 0x0 PUSH32 0x10977E4D68108D418408BC9310B60FC6D0A750C63CCEF42CFB0EAD23AB73D102 DUP3 EQ ISZERO PUSH2 0x1AAA JUMPI PUSH1 0x1 SWAP1 POP PUSH2 0x1B11 JUMP JUMPDEST PUSH32 0xEA923CA2CDDA6B54F4FB2BF6A063E5A59A6369CA4C4AE2C4CE02A147B3036A21 DUP3 EQ ISZERO PUSH2 0x1ADB JUMPI PUSH1 0x2 SWAP1 POP PUSH2 0x1B11 JUMP JUMPDEST PUSH32 0x389A2D4E358D901BFDF22245F32B4B0A401CC16A4B92155A2EE5DA98273DAD9A DUP3 EQ ISZERO PUSH2 0x1B0C JUMPI PUSH1 0x3 SWAP1 POP PUSH2 0x1B11 JUMP JUMPDEST PUSH1 0x0 SWAP1 POP JUMPDEST SWAP2 SWAP1 POP JUMP JUMPDEST PUSH1 0x0 DUP2 CALLDATALOAD SWAP1 POP PUSH2 0x1B25 DUP2 PUSH2 0x1EEE JUMP JUMPDEST SWAP3 SWAP2 POP POP JUMP JUMPDEST PUSH1 0x0 DUP1 DUP4 PUSH1 0x1F DUP5 ADD SLT PUSH2 0x1B41 JUMPI PUSH2 0x1B40 PUSH2 0x1EDA JUMP JUMPDEST JUMPDEST DUP3 CALLDATALOAD SWAP1 POP PUSH8 0xFFFFFFFFFFFFFFFF DUP2 GT ISZERO PUSH2 0x1B5E JUMPI PUSH2 0x1B5D PUSH2 0x1ED5 JUMP JUMPDEST JUMPDEST PUSH1 0x20 DUP4 ADD SWAP2 POP DUP4 PUSH1 0x1 DUP3 MUL DUP4 ADD GT ISZERO PUSH2 0x1B7A JUMPI PUSH2 0x1B79 PUSH2 0x1EDF JUMP JUMPDEST JUMPDEST SWAP3 POP SWAP3 SWAP1 POP JUMP JUMPDEST PUSH1 0x0 PUSH1 0x20 DUP3 DUP5 SUB SLT ISZERO PUSH2 0x1B97 JUMPI PUSH2 0x1B96 PUSH2 0x1EE9 JUMP JUMPDEST JUMPDEST PUSH1 0x0 PUSH2 0x1BA5 DUP5 DUP3 DUP6 ADD PUSH2 0x1B16 JUMP JUMPDEST SWAP2 POP POP SWAP3 SWAP2 POP POP JUMP JUMPDEST PUSH1 0x0 DUP1 PUSH1 0x0 DUP1 PUSH1 0x40 DUP6 DUP8 SUB SLT ISZERO PUSH2 0x1BC8 JUMPI PUSH2 0x1BC7 PUSH2 0x1EE9 JUMP JUMPDEST JUMPDEST PUSH1 0x0 DUP6 ADD CALLDATALOAD PUSH8 0xFFFFFFFFFFFFFFFF DUP2 GT ISZERO PUSH2 0x1BE6 JUMPI PUSH2 0x1BE5 PUSH2 0x1EE4 JUMP JUMPDEST JUMPDEST PUSH2 0x1BF2 DUP8 DUP3 DUP9 ADD PUSH2 0x1B2B JUMP JUMPDEST SWAP5 POP SWAP5 POP POP PUSH1 0x20 DUP6 ADD CALLDATALOAD PUSH8 0xFFFFFFFFFFFFFFFF DUP2 GT ISZERO PUSH2 0x1C15 JUMPI PUSH2 0x1C14 PUSH2 0x1EE4 JUMP JUMPDEST JUMPDEST PUSH2 0x1C21 DUP8 DUP3 DUP9 ADD PUSH2 0x1B2B JUMP JUMPDEST SWAP3 POP SWAP3 POP POP SWAP3 SWAP6 SWAP2 SWAP5 POP SWAP3 POP JUMP JUMPDEST PUSH2 0x1C38 DUP2 PUSH2 0x1E61 JUMP JUMPDEST DUP3 MSTORE POP POP JUMP JUMPDEST PUSH2 0x1C47 DUP2 PUSH2 0x1E0F JUMP JUMPDEST DUP3 MSTORE POP POP JUMP JUMPDEST PUSH2 0x1C56 DUP2 PUSH2 0x1DFD JUMP JUMPDEST DUP3 MSTORE POP POP JUMP JUMPDEST PUSH2 0x1C65 DUP2 PUSH2 0x1E21 JUMP JUMPDEST DUP3 MSTORE POP POP JUMP JUMPDEST PUSH2 0x1C74 DUP2 PUSH2 0x1E2D JUMP JUMPDEST DUP3 MSTORE POP POP JUMP JUMPDEST PUSH1 0x0 PUSH2 0x1C86 DUP4 DUP6 PUSH2 0x1DB6 JUMP JUMPDEST SWAP4 POP PUSH2 0x1C93 DUP4 DUP6 DUP5 PUSH2 0x1E97 JUMP JUMPDEST DUP3 DUP5 ADD SWAP1 POP SWAP4 SWAP3 POP POP POP JUMP JUMPDEST PUSH1 0x0 PUSH2 0x1CAB DUP4 DUP6 PUSH2 0x1DC1 JUMP JUMPDEST SWAP4 POP PUSH2 0x1CB8 DUP4 DUP6 DUP5 PUSH2 0x1E97 JUMP JUMPDEST DUP3 DUP5 ADD SWAP1 POP SWAP4 SWAP3 POP POP POP JUMP JUMPDEST PUSH2 0x1CCD DUP2 PUSH2 0x1E57 JUMP JUMPDEST DUP3 MSTORE POP POP JUMP JUMPDEST PUSH1 0x0 PUSH2 0x1CE0 DUP3 DUP5 DUP7 PUSH2 0x1C7A JUMP JUMPDEST SWAP2 POP DUP2 SWAP1 POP SWAP4 SWAP3 POP POP POP JUMP JUMPDEST PUSH1 0x0 PUSH2 0x1CF9 DUP3 DUP7 DUP9 PUSH2 0x1C9F JUMP JUMPDEST SWAP2 POP PUSH2 0x1D06 DUP3 DUP5 DUP7 PUSH2 0x1C9F JUMP JUMPDEST SWAP2 POP DUP2 SWAP1 POP SWAP6 SWAP5 POP POP POP POP POP JUMP JUMPDEST PUSH1 0x0 PUSH1 0x20 DUP3 ADD SWAP1 POP PUSH2 0x1D29 PUSH1 0x0 DUP4 ADD DUP5 PUSH2 0x1C4D JUMP JUMPDEST SWAP3 SWAP2 POP POP JUMP JUMPDEST PUSH1 0x0 PUSH1 0x20 DUP3 ADD SWAP1 POP PUSH2 0x1D44 PUSH1 0x0 DUP4 ADD DUP5 PUSH2 0x1C2F JUMP JUMPDEST SWAP3 SWAP2 POP POP JUMP JUMPDEST PUSH1 0x0 PUSH1 0x20 DUP3 ADD SWAP1 POP PUSH2 0x1D5F PUSH1 0x0 DUP4 ADD DUP5 PUSH2 0x1C3E JUMP JUMPDEST SWAP3 SWAP2 POP POP JUMP JUMPDEST PUSH1 0x0 PUSH1 0x20 DUP3 ADD SWAP1 POP PUSH2 0x1D7A PUSH1 0x0 DUP4 ADD DUP5 PUSH2 0x1C5C JUMP JUMPDEST SWAP3 SWAP2 POP POP JUMP JUMPDEST PUSH1 0x0 PUSH1 0x20 DUP3 ADD SWAP1 POP PUSH2 0x1D95 PUSH1 0x0 DUP4 ADD DUP5 PUSH2 0x1C6B JUMP JUMPDEST SWAP3 SWAP2 POP POP JUMP JUMPDEST PUSH1 0x0 PUSH1 0x20 DUP3 ADD SWAP1 POP PUSH2 0x1DB0 PUSH1 0x0 DUP4 ADD DUP5 PUSH2 0x1CC4 JUMP JUMPDEST SWAP3 SWAP2 POP POP JUMP JUMPDEST PUSH1 0x0 DUP2 SWAP1 POP SWAP3 SWAP2 POP POP JUMP JUMPDEST PUSH1 0x0 DUP2 SWAP1 POP SWAP3 SWAP2 POP POP JUMP JUMPDEST PUSH1 0x0 PUSH2 0x1DD7 DUP3 PUSH2 0x1E57 JUMP JUMPDEST SWAP2 POP PUSH2 0x1DE2 DUP4 PUSH2 0x1E57 JUMP JUMPDEST SWAP3 POP DUP3 PUSH2 0x1DF2 JUMPI PUSH2 0x1DF1 PUSH2 0x1EA6 JUMP JUMPDEST JUMPDEST DUP3 DUP3 DIV SWAP1 POP SWAP3 SWAP2 POP POP JUMP JUMPDEST PUSH1 0x0 PUSH2 0x1E08 DUP3 PUSH2 0x1E37 JUMP JUMPDEST SWAP1 POP SWAP2 SWAP1 POP JUMP JUMPDEST PUSH1 0x0 PUSH2 0x1E1A DUP3 PUSH2 0x1E37 JUMP JUMPDEST SWAP1 POP SWAP2 SWAP1 POP JUMP JUMPDEST PUSH1 0x0 DUP2 ISZERO ISZERO SWAP1 POP SWAP2 SWAP1 POP JUMP JUMPDEST PUSH1 0x0 DUP2 SWAP1 POP SWAP2 SWAP1 POP JUMP JUMPDEST PUSH1 0x0 PUSH20 0xFFFFFFFFFFFFFFFFFFFFFFFFFFFFFFFFFFFFFFFF DUP3 AND SWAP1 POP SWAP2 SWAP1 POP JUMP JUMPDEST PUSH1 0x0 DUP2 SWAP1 POP SWAP2 SWAP1 POP JUMP JUMPDEST PUSH1 0x0 PUSH2 0x1E6C DUP3 PUSH2 0x1E73 JUMP JUMPDEST SWAP1 POP SWAP2 SWAP1 POP JUMP JUMPDEST PUSH1 0x0 PUSH2 0x1E7E DUP3 PUSH2 0x1E85 JUMP JUMPDEST SWAP1 POP SWAP2 SWAP1 POP JUMP JUMPDEST PUSH1 0x0 PUSH2 0x1E90 DUP3 PUSH2 0x1E37 JUMP JUMPDEST SWAP1 POP SWAP2 SWAP1 POP JUMP JUMPDEST DUP3 DUP2 DUP4 CALLDATACOPY PUSH1 0x0 DUP4 DUP4 ADD MSTORE POP POP POP JUMP JUMPDEST PUSH32 0x4E487B7100000000000000000000000000000000000000000000000000000000 PUSH1 0x0 MSTORE PUSH1 0x12 PUSH1 0x4 MSTORE PUSH1 0x24 PUSH1 0x0 REVERT JUMPDEST PUSH1 0x0 DUP1 REVERT JUMPDEST PUSH1 0x0 DUP1 REVERT JUMPDEST PUSH1 0x0 DUP1 REVERT JUMPDEST PUSH1 0x0 DUP1 REVERT JUMPDEST PUSH1 0x0 DUP1 REVERT JUMPDEST PUSH2 0x1EF7 DUP2 PUSH2 0x1E2D JUMP JUMPDEST DUP2 EQ PUSH2 0x1F02 JUMPI PUSH1 0x0 DUP1 REVERT JUMPDEST POP JUMP INVALID LOG2 PUSH5 0x6970667358 0x22 SLT KECCAK256 DUP15 SIGNEXTEND 0x21 PUSH7 0xD2CB9F591EAAD7 AND SWAP11 0xB3 0xF8 0xCF SWAP7 0xDB RETURNDATASIZE PUSH12 0x38407B5521F717AAAE70C183 PUSH5 0x736F6C6343 STOP ADDMOD SMOD STOP CALLER "
				},
				"gasEstimates": {
					"creation": {
						"codeDepositCost": "1599000",
						"executionCost": "infinite",
						"totalCost": "infinite"
					},
					"external": {
						"announceResult()": "infinite",
						"ended()": "2517",
						"hasPickedA()": "2537",
						"hasPickedB()": "2544",
						"hasRevealedA()": "2538",
						"hasRevealedB()": "2545",
						"manager()": "2537",
						"pick(bytes32)": "62166",
						"pickA()": "2497",
						"pickB()": "2474",
						"prize()": "2473",
						"reveal(string,string)": "infinite",
						"userA()": "2533",
						"userB()": "2581"
					},
					"internal": {
						"parseUserPick(bytes32)": "117"
					}
				},
				"methodIdentifiers": {
					"announceResult()": "f4e11bbe",
					"ended()": "12fa6feb",
					"hasPickedA()": "ed873865",
					"hasPickedB()": "737ebe58",
					"hasRevealedA()": "4d178640",
					"hasRevealedB()": "03c0f500",
					"manager()": "481c6a75",
					"pick(bytes32)": "a28bfb3e",
					"pickA()": "3d4ffb93",
					"pickB()": "495717e2",
					"prize()": "e3ac5d26",
					"reveal(string,string)": "5ba1b2c7",
					"userA()": "deb22e9a",
					"userB()": "cb1a295f"
				}
			},
			"storageLayout": {
				"storage": [
					{
						"astId": 3,
						"contract": "RockPaperScissors.sol:RockPaperScissors",
						"label": "userA",
						"offset": 0,
						"slot": "0",
						"type": "t_address_payable"
					},
					{
						"astId": 5,
						"contract": "RockPaperScissors.sol:RockPaperScissors",
						"label": "userB",
						"offset": 0,
						"slot": "1",
						"type": "t_address_payable"
					},
					{
						"astId": 7,
						"contract": "RockPaperScissors.sol:RockPaperScissors",
						"label": "manager",
						"offset": 0,
						"slot": "2",
						"type": "t_address"
					},
					{
						"astId": 9,
						"contract": "RockPaperScissors.sol:RockPaperScissors",
						"label": "prize",
						"offset": 0,
						"slot": "3",
						"type": "t_uint256"
					},
					{
						"astId": 11,
						"contract": "RockPaperScissors.sol:RockPaperScissors",
						"label": "hasPickedA",
						"offset": 0,
						"slot": "4",
						"type": "t_bool"
					},
					{
						"astId": 13,
						"contract": "RockPaperScissors.sol:RockPaperScissors",
						"label": "hasPickedB",
						"offset": 1,
						"slot": "4",
						"type": "t_bool"
					},
					{
						"astId": 15,
						"contract": "RockPaperScissors.sol:RockPaperScissors",
						"label": "commitmentA",
						"offset": 0,
						"slot": "5",
						"type": "t_bytes32"
					},
					{
						"astId": 17,
						"contract": "RockPaperScissors.sol:RockPaperScissors",
						"label": "commitmentB",
						"offset": 0,
						"slot": "6",
						"type": "t_bytes32"
					},
					{
						"astId": 19,
						"contract": "RockPaperScissors.sol:RockPaperScissors",
						"label": "hasRevealedA",
						"offset": 0,
						"slot": "7",
						"type": "t_bool"
					},
					{
						"astId": 21,
						"contract": "RockPaperScissors.sol:RockPaperScissors",
						"label": "hasRevealedB",
						"offset": 1,
						"slot": "7",
						"type": "t_bool"
					},
					{
						"astId": 23,
						"contract": "RockPaperScissors.sol:RockPaperScissors",
						"label": "pickA",
						"offset": 0,
						"slot": "8",
						"type": "t_bytes32"
					},
					{
						"astId": 25,
						"contract": "RockPaperScissors.sol:RockPaperScissors",
						"label": "pickB",
						"offset": 0,
						"slot": "9",
						"type": "t_bytes32"
					},
					{
						"astId": 27,
						"contract": "RockPaperScissors.sol:RockPaperScissors",
						"label": "ended",
						"offset": 0,
						"slot": "10",
						"type": "t_bool"
					}
				],
				"types": {
					"t_address": {
						"encoding": "inplace",
						"label": "address",
						"numberOfBytes": "20"
					},
					"t_address_payable": {
						"encoding": "inplace",
						"label": "address payable",
						"numberOfBytes": "20"
					},
					"t_bool": {
						"encoding": "inplace",
						"label": "bool",
						"numberOfBytes": "1"
					},
					"t_bytes32": {
						"encoding": "inplace",
						"label": "bytes32",
						"numberOfBytes": "32"
					},
					"t_uint256": {
						"encoding": "inplace",
						"label": "uint256",
						"numberOfBytes": "32"
					}
				}
			},
			"userdoc": {
				"errors": {
					"gamedEnded()": [
						{
							"notice": "The game has already ended."
						}
					],
					"noRightToAnnounceTheResult()": [
						{
							"notice": "User has no right to announce the result."
						}
					],
					"noRightToPick()": [
						{
							"notice": "User doesn't have the right to pick."
						}
					],
					"noRightToReveal()": [
						{
							"notice": "User doesn't have the right to reveal."
						}
					],
					"sameUserAddresses()": [
						{
							"notice": "The competitors should be different"
						}
					],
					"userAlreadyCommited()": [
						{
							"notice": "User have already commited before."
						}
					],
					"userAlreadyRevealed()": [
						{
							"notice": "User have already revealed before."
						}
					],
					"wrongData()": [
						{
							"notice": "User has entered wrong data while revealing"
						}
					]
				},
				"kind": "user",
				"methods": {},
				"version": 1
			}
		}
	}
}