{
	"BlindAuction.sol": {
		"BlindAuction": {
			"abi": [
				{
					"inputs": [
						{
							"internalType": "uint256",
							"name": "biddingTime",
							"type": "uint256"
						},
						{
							"internalType": "uint256",
							"name": "revealTime",
							"type": "uint256"
						},
						{
							"internalType": "address payable",
							"name": "beneficiaryAddress",
							"type": "address"
						}
					],
					"stateMutability": "nonpayable",
					"type": "constructor"
				},
				{
					"inputs": [],
					"name": "AuctionEndAlreadyCalled",
					"type": "error"
				},
				{
					"inputs": [
						{
							"internalType": "uint256",
							"name": "time",
							"type": "uint256"
						}
					],
					"name": "TooEarly",
					"type": "error"
				},
				{
					"inputs": [
						{
							"internalType": "uint256",
							"name": "time",
							"type": "uint256"
						}
					],
					"name": "TooLate",
					"type": "error"
				},
				{
					"anonymous": false,
					"inputs": [
						{
							"indexed": false,
							"internalType": "address",
							"name": "winner",
							"type": "address"
						},
						{
							"indexed": false,
							"internalType": "uint256",
							"name": "highestBid",
							"type": "uint256"
						}
					],
					"name": "AuctionEnded",
					"type": "event"
				},
				{
					"anonymous": false,
					"inputs": [],
					"name": "AuctionEnded",
					"type": "event"
				},
				{
					"inputs": [],
					"name": "auctionEnd",
					"outputs": [],
					"stateMutability": "nonpayable",
					"type": "function"
				},
				{
					"inputs": [],
					"name": "beneficiary",
					"outputs": [
						{
							"internalType": "address payable",
							"name": "",
							"type": "address"
						}
					],
					"stateMutability": "view",
					"type": "function"
				},
				{
					"inputs": [
						{
							"internalType": "bytes32",
							"name": "blindedBid",
							"type": "bytes32"
						}
					],
					"name": "bid",
					"outputs": [],
					"stateMutability": "payable",
					"type": "function"
				},
				{
					"inputs": [],
					"name": "biddingEnd",
					"outputs": [
						{
							"internalType": "uint256",
							"name": "",
							"type": "uint256"
						}
					],
					"stateMutability": "view",
					"type": "function"
				},
				{
					"inputs": [
						{
							"internalType": "address",
							"name": "",
							"type": "address"
						},
						{
							"internalType": "uint256",
							"name": "",
							"type": "uint256"
						}
					],
					"name": "bids",
					"outputs": [
						{
							"internalType": "bytes32",
							"name": "blindedBid",
							"type": "bytes32"
						},
						{
							"internalType": "uint256",
							"name": "deposit",
							"type": "uint256"
						}
					],
					"stateMutability": "view",
					"type": "function"
				},
				{
					"inputs": [],
					"name": "ended",
					"outputs": [
						{
							"internalType": "bool",
							"name": "",
							"type": "bool"
						}
					],
					"stateMutability": "view",
					"type": "function"
				},
				{
					"inputs": [],
					"name": "highestBid",
					"outputs": [
						{
							"internalType": "uint256",
							"name": "",
							"type": "uint256"
						}
					],
					"stateMutability": "view",
					"type": "function"
				},
				{
					"inputs": [],
					"name": "highestBidder",
					"outputs": [
						{
							"internalType": "address",
							"name": "",
							"type": "address"
						}
					],
					"stateMutability": "view",
					"type": "function"
				},
				{
					"inputs": [
						{
							"internalType": "uint256[]",
							"name": "values",
							"type": "uint256[]"
						},
						{
							"internalType": "bool[]",
							"name": "fakes",
							"type": "bool[]"
						},
						{
							"internalType": "bytes32[]",
							"name": "secrets",
							"type": "bytes32[]"
						}
					],
					"name": "reveal",
					"outputs": [],
					"stateMutability": "nonpayable",
					"type": "function"
				},
				{
					"inputs": [],
					"name": "revealEnd",
					"outputs": [
						{
							"internalType": "uint256",
							"name": "",
							"type": "uint256"
						}
					],
					"stateMutability": "view",
					"type": "function"
				},
				{
					"inputs": [],
					"name": "secondHighestBid",
					"outputs": [
						{
							"internalType": "uint256",
							"name": "",
							"type": "uint256"
						}
					],
					"stateMutability": "view",
					"type": "function"
				},
				{
					"inputs": [],
					"name": "withdraw",
					"outputs": [],
					"stateMutability": "nonpayable",
					"type": "function"
				}
			],
			"devdoc": {
				"kind": "dev",
				"methods": {},
				"version": 1
			},
			"evm": {
				"assembly": "    /* \"BlindAuction.sol\":62:6062  contract BlindAuction {\r... */\n  mstore(0x40, 0x80)\n    /* \"BlindAuction.sol\":1458:1781  constructor(\r... */\n  callvalue\n  dup1\n  iszero\n  tag_1\n  jumpi\n  0x00\n  dup1\n  revert\ntag_1:\n  pop\n  mload(0x40)\n  sub(codesize, bytecodeSize)\n  dup1\n  bytecodeSize\n  dup4\n  codecopy\n  dup2\n  dup2\n  add\n  0x40\n  mstore\n  dup2\n  add\n  swap1\n  tag_2\n  swap2\n  swap1\n  tag_3\n  jump\t// in\ntag_2:\n    /* \"BlindAuction.sol\":1600:1618  beneficiaryAddress */\n  dup1\n    /* \"BlindAuction.sol\":1586:1597  beneficiary */\n  0x00\n  dup1\n    /* \"BlindAuction.sol\":1586:1618  beneficiary = beneficiaryAddress */\n  0x0100\n  exp\n  dup2\n  sload\n  dup2\n  0xffffffffffffffffffffffffffffffffffffffff\n  mul\n  not\n  and\n  swap1\n  dup4\n  0xffffffffffffffffffffffffffffffffffffffff\n  and\n  mul\n  or\n  swap1\n  sstore\n  pop\n    /* \"BlindAuction.sol\":1660:1671  biddingTime */\n  dup3\n    /* \"BlindAuction.sol\":1642:1657  block.timestamp */\n  timestamp\n    /* \"BlindAuction.sol\":1642:1671  block.timestamp + biddingTime */\n  tag_6\n  swap2\n  swap1\n  tag_7\n  jump\t// in\ntag_6:\n    /* \"BlindAuction.sol\":1629:1639  biddingEnd */\n  0x01\n    /* \"BlindAuction.sol\":1629:1671  biddingEnd = block.timestamp + biddingTime */\n  dup2\n  swap1\n  sstore\n  pop\n    /* \"BlindAuction.sol\":1707:1717  revealTime */\n  dup2\n    /* \"BlindAuction.sol\":1694:1704  biddingEnd */\n  sload(0x01)\n    /* \"BlindAuction.sol\":1694:1717  biddingEnd + revealTime */\n  tag_8\n  swap2\n  swap1\n  tag_7\n  jump\t// in\ntag_8:\n    /* \"BlindAuction.sol\":1682:1691  revealEnd */\n  0x02\n    /* \"BlindAuction.sol\":1682:1717  revealEnd = biddingEnd + revealTime */\n  dup2\n  swap1\n  sstore\n  pop\n    /* \"BlindAuction.sol\":1741:1742  0 */\n  0x00\n    /* \"BlindAuction.sol\":1728:1738  highestBid */\n  0x06\n    /* \"BlindAuction.sol\":1728:1742  highestBid = 0 */\n  dup2\n  swap1\n  sstore\n  pop\n    /* \"BlindAuction.sol\":1772:1773  0 */\n  0x00\n    /* \"BlindAuction.sol\":1753:1769  secondHighestBid */\n  0x07\n    /* \"BlindAuction.sol\":1753:1773  secondHighestBid = 0 */\n  dup2\n  swap1\n  sstore\n  pop\n    /* \"BlindAuction.sol\":1458:1781  constructor(\r... */\n  pop\n  pop\n  pop\n    /* \"BlindAuction.sol\":62:6062  contract BlindAuction {\r... */\n  jump(tag_9)\n    /* \"#utility.yul\":7:166   */\ntag_11:\n    /* \"#utility.yul\":72:77   */\n  0x00\n    /* \"#utility.yul\":103:109   */\n  dup2\n    /* \"#utility.yul\":97:110   */\n  mload\n    /* \"#utility.yul\":88:110   */\n  swap1\n  pop\n    /* \"#utility.yul\":119:160   */\n  tag_13\n    /* \"#utility.yul\":154:159   */\n  dup2\n    /* \"#utility.yul\":119:160   */\n  tag_14\n  jump\t// in\ntag_13:\n    /* \"#utility.yul\":7:166   */\n  swap3\n  swap2\n  pop\n  pop\n  jump\t// out\n    /* \"#utility.yul\":172:315   */\ntag_15:\n    /* \"#utility.yul\":229:234   */\n  0x00\n    /* \"#utility.yul\":260:266   */\n  dup2\n    /* \"#utility.yul\":254:267   */\n  mload\n    /* \"#utility.yul\":245:267   */\n  swap1\n  pop\n    /* \"#utility.yul\":276:309   */\n  tag_17\n    /* \"#utility.yul\":303:308   */\n  dup2\n    /* \"#utility.yul\":276:309   */\n  tag_18\n  jump\t// in\ntag_17:\n    /* \"#utility.yul\":172:315   */\n  swap3\n  swap2\n  pop\n  pop\n  jump\t// out\n    /* \"#utility.yul\":321:1000   */\ntag_3:\n    /* \"#utility.yul\":417:423   */\n  0x00\n    /* \"#utility.yul\":425:431   */\n  dup1\n    /* \"#utility.yul\":433:439   */\n  0x00\n    /* \"#utility.yul\":482:484   */\n  0x60\n    /* \"#utility.yul\":470:479   */\n  dup5\n    /* \"#utility.yul\":461:468   */\n  dup7\n    /* \"#utility.yul\":457:480   */\n  sub\n    /* \"#utility.yul\":453:485   */\n  slt\n    /* \"#utility.yul\":450:569   */\n  iszero\n  tag_20\n  jumpi\n    /* \"#utility.yul\":488:567   */\n  tag_21\n  tag_22\n  jump\t// in\ntag_21:\n    /* \"#utility.yul\":450:569   */\ntag_20:\n    /* \"#utility.yul\":608:609   */\n  0x00\n    /* \"#utility.yul\":633:697   */\n  tag_23\n    /* \"#utility.yul\":689:696   */\n  dup7\n    /* \"#utility.yul\":680:686   */\n  dup3\n    /* \"#utility.yul\":669:678   */\n  dup8\n    /* \"#utility.yul\":665:687   */\n  add\n    /* \"#utility.yul\":633:697   */\n  tag_15\n  jump\t// in\ntag_23:\n    /* \"#utility.yul\":623:697   */\n  swap4\n  pop\n    /* \"#utility.yul\":579:707   */\n  pop\n    /* \"#utility.yul\":746:748   */\n  0x20\n    /* \"#utility.yul\":772:836   */\n  tag_24\n    /* \"#utility.yul\":828:835   */\n  dup7\n    /* \"#utility.yul\":819:825   */\n  dup3\n    /* \"#utility.yul\":808:817   */\n  dup8\n    /* \"#utility.yul\":804:826   */\n  add\n    /* \"#utility.yul\":772:836   */\n  tag_15\n  jump\t// in\ntag_24:\n    /* \"#utility.yul\":762:836   */\n  swap3\n  pop\n    /* \"#utility.yul\":717:846   */\n  pop\n    /* \"#utility.yul\":885:887   */\n  0x40\n    /* \"#utility.yul\":911:983   */\n  tag_25\n    /* \"#utility.yul\":975:982   */\n  dup7\n    /* \"#utility.yul\":966:972   */\n  dup3\n    /* \"#utility.yul\":955:964   */\n  dup8\n    /* \"#utility.yul\":951:973   */\n  add\n    /* \"#utility.yul\":911:983   */\n  tag_11\n  jump\t// in\ntag_25:\n    /* \"#utility.yul\":901:983   */\n  swap2\n  pop\n    /* \"#utility.yul\":856:993   */\n  pop\n    /* \"#utility.yul\":321:1000   */\n  swap3\n  pop\n  swap3\n  pop\n  swap3\n  jump\t// out\n    /* \"#utility.yul\":1087:1392   */\ntag_7:\n    /* \"#utility.yul\":1127:1130   */\n  0x00\n    /* \"#utility.yul\":1146:1166   */\n  tag_29\n    /* \"#utility.yul\":1164:1165   */\n  dup3\n    /* \"#utility.yul\":1146:1166   */\n  tag_30\n  jump\t// in\ntag_29:\n    /* \"#utility.yul\":1141:1166   */\n  swap2\n  pop\n    /* \"#utility.yul\":1180:1200   */\n  tag_31\n    /* \"#utility.yul\":1198:1199   */\n  dup4\n    /* \"#utility.yul\":1180:1200   */\n  tag_30\n  jump\t// in\ntag_31:\n    /* \"#utility.yul\":1175:1200   */\n  swap3\n  pop\n    /* \"#utility.yul\":1334:1335   */\n  dup3\n    /* \"#utility.yul\":1266:1332   */\n  0xffffffffffffffffffffffffffffffffffffffffffffffffffffffffffffffff\n    /* \"#utility.yul\":1262:1336   */\n  sub\n    /* \"#utility.yul\":1259:1260   */\n  dup3\n    /* \"#utility.yul\":1256:1337   */\n  gt\n    /* \"#utility.yul\":1253:1360   */\n  iszero\n  tag_32\n  jumpi\n    /* \"#utility.yul\":1340:1358   */\n  tag_33\n  tag_34\n  jump\t// in\ntag_33:\n    /* \"#utility.yul\":1253:1360   */\ntag_32:\n    /* \"#utility.yul\":1384:1385   */\n  dup3\n    /* \"#utility.yul\":1381:1382   */\n  dup3\n    /* \"#utility.yul\":1377:1386   */\n  add\n    /* \"#utility.yul\":1370:1386   */\n  swap1\n  pop\n    /* \"#utility.yul\":1087:1392   */\n  swap3\n  swap2\n  pop\n  pop\n  jump\t// out\n    /* \"#utility.yul\":1398:1502   */\ntag_35:\n    /* \"#utility.yul\":1443:1450   */\n  0x00\n    /* \"#utility.yul\":1472:1496   */\n  tag_37\n    /* \"#utility.yul\":1490:1495   */\n  dup3\n    /* \"#utility.yul\":1472:1496   */\n  tag_38\n  jump\t// in\ntag_37:\n    /* \"#utility.yul\":1461:1496   */\n  swap1\n  pop\n    /* \"#utility.yul\":1398:1502   */\n  swap2\n  swap1\n  pop\n  jump\t// out\n    /* \"#utility.yul\":1508:1634   */\ntag_38:\n    /* \"#utility.yul\":1545:1552   */\n  0x00\n    /* \"#utility.yul\":1585:1627   */\n  0xffffffffffffffffffffffffffffffffffffffff\n    /* \"#utility.yul\":1578:1583   */\n  dup3\n    /* \"#utility.yul\":1574:1628   */\n  and\n    /* \"#utility.yul\":1563:1628   */\n  swap1\n  pop\n    /* \"#utility.yul\":1508:1634   */\n  swap2\n  swap1\n  pop\n  jump\t// out\n    /* \"#utility.yul\":1640:1717   */\ntag_30:\n    /* \"#utility.yul\":1677:1684   */\n  0x00\n    /* \"#utility.yul\":1706:1711   */\n  dup2\n    /* \"#utility.yul\":1695:1711   */\n  swap1\n  pop\n    /* \"#utility.yul\":1640:1717   */\n  swap2\n  swap1\n  pop\n  jump\t// out\n    /* \"#utility.yul\":1723:1903   */\ntag_34:\n    /* \"#utility.yul\":1771:1848   */\n  0x4e487b7100000000000000000000000000000000000000000000000000000000\n    /* \"#utility.yul\":1768:1769   */\n  0x00\n    /* \"#utility.yul\":1761:1849   */\n  mstore\n    /* \"#utility.yul\":1868:1872   */\n  0x11\n    /* \"#utility.yul\":1865:1866   */\n  0x04\n    /* \"#utility.yul\":1858:1873   */\n  mstore\n    /* \"#utility.yul\":1892:1896   */\n  0x24\n    /* \"#utility.yul\":1889:1890   */\n  0x00\n    /* \"#utility.yul\":1882:1897   */\n  revert\n    /* \"#utility.yul\":2032:2149   */\ntag_22:\n    /* \"#utility.yul\":2141:2142   */\n  0x00\n    /* \"#utility.yul\":2138:2139   */\n  dup1\n    /* \"#utility.yul\":2131:2143   */\n  revert\n    /* \"#utility.yul\":2155:2293   */\ntag_14:\n    /* \"#utility.yul\":2236:2268   */\n  tag_46\n    /* \"#utility.yul\":2262:2267   */\n  dup2\n    /* \"#utility.yul\":2236:2268   */\n  tag_35\n  jump\t// in\ntag_46:\n    /* \"#utility.yul\":2229:2234   */\n  dup2\n    /* \"#utility.yul\":2226:2269   */\n  eq\n    /* \"#utility.yul\":2216:2287   */\n  tag_47\n  jumpi\n    /* \"#utility.yul\":2283:2284   */\n  0x00\n    /* \"#utility.yul\":2280:2281   */\n  dup1\n    /* \"#utility.yul\":2273:2285   */\n  revert\n    /* \"#utility.yul\":2216:2287   */\ntag_47:\n    /* \"#utility.yul\":2155:2293   */\n  pop\n  jump\t// out\n    /* \"#utility.yul\":2299:2421   */\ntag_18:\n    /* \"#utility.yul\":2372:2396   */\n  tag_49\n    /* \"#utility.yul\":2390:2395   */\n  dup2\n    /* \"#utility.yul\":2372:2396   */\n  tag_30\n  jump\t// in\ntag_49:\n    /* \"#utility.yul\":2365:2370   */\n  dup2\n    /* \"#utility.yul\":2362:2397   */\n  eq\n    /* \"#utility.yul\":2352:2415   */\n  tag_50\n  jumpi\n    /* \"#utility.yul\":2411:2412   */\n  0x00\n    /* \"#utility.yul\":2408:2409   */\n  dup1\n    /* \"#utility.yul\":2401:2413   */\n  revert\n    /* \"#utility.yul\":2352:2415   */\ntag_50:\n    /* \"#utility.yul\":2299:2421   */\n  pop\n  jump\t// out\n    /* \"BlindAuction.sol\":62:6062  contract BlindAuction {\r... */\ntag_9:\n  dataSize(sub_0)\n  dup1\n  dataOffset(sub_0)\n  0x00\n  codecopy\n  0x00\n  return\nstop\n\nsub_0: assembly {\n        /* \"BlindAuction.sol\":62:6062  contract BlindAuction {\r... */\n      mstore(0x40, 0x80)\n      jumpi(tag_1, lt(calldatasize, 0x04))\n      shr(0xe0, calldataload(0x00))\n      dup1\n      0x900f080a\n      gt\n      tag_14\n      jumpi\n      dup1\n      0x900f080a\n      eq\n      tag_8\n      jumpi\n      dup1\n      0x91f90157\n      eq\n      tag_9\n      jumpi\n      dup1\n      0x957bb1e0\n      eq\n      tag_10\n      jumpi\n      dup1\n      0xa6e66477\n      eq\n      tag_11\n      jumpi\n      dup1\n      0xacb902f6\n      eq\n      tag_12\n      jumpi\n      dup1\n      0xd57bde79\n      eq\n      tag_13\n      jumpi\n      jump(tag_1)\n    tag_14:\n      dup1\n      0x01495c1c\n      eq\n      tag_2\n      jumpi\n      dup1\n      0x12fa6feb\n      eq\n      tag_3\n      jumpi\n      dup1\n      0x2a24f46c\n      eq\n      tag_4\n      jumpi\n      dup1\n      0x38af3eed\n      eq\n      tag_5\n      jumpi\n      dup1\n      0x3ccfd60b\n      eq\n      tag_6\n      jumpi\n      dup1\n      0x423b217f\n      eq\n      tag_7\n      jumpi\n    tag_1:\n      0x00\n      dup1\n      revert\n        /* \"BlindAuction.sol\":294:331  mapping(address => Bid[]) public bids */\n    tag_2:\n      callvalue\n      dup1\n      iszero\n      tag_15\n      jumpi\n      0x00\n      dup1\n      revert\n    tag_15:\n      pop\n      tag_16\n      0x04\n      dup1\n      calldatasize\n      sub\n      dup2\n      add\n      swap1\n      tag_17\n      swap2\n      swap1\n      tag_18\n      jump\t// in\n    tag_17:\n      tag_19\n      jump\t// in\n    tag_16:\n      mload(0x40)\n      tag_20\n      swap3\n      swap2\n      swap1\n      tag_21\n      jump\t// in\n    tag_20:\n      mload(0x40)\n      dup1\n      swap2\n      sub\n      swap1\n      return\n        /* \"BlindAuction.sol\":268:285  bool public ended */\n    tag_3:\n      callvalue\n      dup1\n      iszero\n      tag_22\n      jumpi\n      0x00\n      dup1\n      revert\n    tag_22:\n      pop\n      tag_23\n      tag_24\n      jump\t// in\n    tag_23:\n      mload(0x40)\n      tag_25\n      swap2\n      swap1\n      tag_26\n      jump\t// in\n    tag_25:\n      mload(0x40)\n      dup1\n      swap2\n      sub\n      swap1\n      return\n        /* \"BlindAuction.sol\":4622:5259  function auctionEnd()\r... */\n    tag_4:\n      callvalue\n      dup1\n      iszero\n      tag_27\n      jumpi\n      0x00\n      dup1\n      revert\n    tag_27:\n      pop\n      tag_28\n      tag_29\n      jump\t// in\n    tag_28:\n      stop\n        /* \"BlindAuction.sol\":170:204  address payable public beneficiary */\n    tag_5:\n      callvalue\n      dup1\n      iszero\n      tag_30\n      jumpi\n      0x00\n      dup1\n      revert\n    tag_30:\n      pop\n      tag_31\n      tag_32\n      jump\t// in\n    tag_31:\n      mload(0x40)\n      tag_33\n      swap2\n      swap1\n      tag_34\n      jump\t// in\n    tag_33:\n      mload(0x40)\n      dup1\n      swap2\n      sub\n      swap1\n      return\n        /* \"BlindAuction.sol\":4039:4535  function withdraw() external {\r... */\n    tag_6:\n      callvalue\n      dup1\n      iszero\n      tag_35\n      jumpi\n      0x00\n      dup1\n      revert\n    tag_35:\n      pop\n      tag_36\n      tag_37\n      jump\t// in\n    tag_36:\n      stop\n        /* \"BlindAuction.sol\":211:233  uint public biddingEnd */\n    tag_7:\n      callvalue\n      dup1\n      iszero\n      tag_38\n      jumpi\n      0x00\n      dup1\n      revert\n    tag_38:\n      pop\n      tag_39\n      tag_40\n      jump\t// in\n    tag_39:\n      mload(0x40)\n      tag_41\n      swap2\n      swap1\n      tag_42\n      jump\t// in\n    tag_41:\n      mload(0x40)\n      dup1\n      swap2\n      sub\n      swap1\n      return\n        /* \"BlindAuction.sol\":2719:3989  function reveal(\r... */\n    tag_8:\n      callvalue\n      dup1\n      iszero\n      tag_43\n      jumpi\n      0x00\n      dup1\n      revert\n    tag_43:\n      pop\n      tag_44\n      0x04\n      dup1\n      calldatasize\n      sub\n      dup2\n      add\n      swap1\n      tag_45\n      swap2\n      swap1\n      tag_46\n      jump\t// in\n    tag_45:\n      tag_47\n      jump\t// in\n    tag_44:\n      stop\n        /* \"BlindAuction.sol\":340:368  address public highestBidder */\n    tag_9:\n      callvalue\n      dup1\n      iszero\n      tag_48\n      jumpi\n      0x00\n      dup1\n      revert\n    tag_48:\n      pop\n      tag_49\n      tag_50\n      jump\t// in\n    tag_49:\n      mload(0x40)\n      tag_51\n      swap2\n      swap1\n      tag_52\n      jump\t// in\n    tag_51:\n      mload(0x40)\n      dup1\n      swap2\n      sub\n      swap1\n      return\n        /* \"BlindAuction.sol\":2315:2548  function bid(bytes32 blindedBid)\r... */\n    tag_10:\n      tag_53\n      0x04\n      dup1\n      calldatasize\n      sub\n      dup2\n      add\n      swap1\n      tag_54\n      swap2\n      swap1\n      tag_55\n      jump\t// in\n    tag_54:\n      tag_56\n      jump\t// in\n    tag_53:\n      stop\n        /* \"BlindAuction.sol\":240:261  uint public revealEnd */\n    tag_11:\n      callvalue\n      dup1\n      iszero\n      tag_57\n      jumpi\n      0x00\n      dup1\n      revert\n    tag_57:\n      pop\n      tag_58\n      tag_59\n      jump\t// in\n    tag_58:\n      mload(0x40)\n      tag_60\n      swap2\n      swap1\n      tag_42\n      jump\t// in\n    tag_60:\n      mload(0x40)\n      dup1\n      swap2\n      sub\n      swap1\n      return\n        /* \"BlindAuction.sol\":404:432  uint public secondHighestBid */\n    tag_12:\n      callvalue\n      dup1\n      iszero\n      tag_61\n      jumpi\n      0x00\n      dup1\n      revert\n    tag_61:\n      pop\n      tag_62\n      tag_63\n      jump\t// in\n    tag_62:\n      mload(0x40)\n      tag_64\n      swap2\n      swap1\n      tag_42\n      jump\t// in\n    tag_64:\n      mload(0x40)\n      dup1\n      swap2\n      sub\n      swap1\n      return\n        /* \"BlindAuction.sol\":375:397  uint public highestBid */\n    tag_13:\n      callvalue\n      dup1\n      iszero\n      tag_65\n      jumpi\n      0x00\n      dup1\n      revert\n    tag_65:\n      pop\n      tag_66\n      tag_67\n      jump\t// in\n    tag_66:\n      mload(0x40)\n      tag_68\n      swap2\n      swap1\n      tag_42\n      jump\t// in\n    tag_68:\n      mload(0x40)\n      dup1\n      swap2\n      sub\n      swap1\n      return\n        /* \"BlindAuction.sol\":294:331  mapping(address => Bid[]) public bids */\n    tag_19:\n      mstore(0x20, 0x04)\n      dup2\n      0x00\n      mstore\n      keccak256(0x00, 0x40)\n      dup2\n      dup2\n      sload\n      dup2\n      lt\n      tag_69\n      jumpi\n      0x00\n      dup1\n      revert\n    tag_69:\n      swap1\n      0x00\n      mstore\n      keccak256(0x00, 0x20)\n      swap1\n      0x02\n      mul\n      add\n      0x00\n      swap2\n      pop\n      swap2\n      pop\n      pop\n      dup1\n      0x00\n      add\n      sload\n      swap1\n      dup1\n      0x01\n      add\n      sload\n      swap1\n      pop\n      dup3\n      jump\t// out\n        /* \"BlindAuction.sol\":268:285  bool public ended */\n    tag_24:\n      0x03\n      0x00\n      swap1\n      sload\n      swap1\n      0x0100\n      exp\n      swap1\n      div\n      0xff\n      and\n      dup2\n      jump\t// out\n        /* \"BlindAuction.sol\":4622:5259  function auctionEnd()\r... */\n    tag_29:\n        /* \"BlindAuction.sol\":4681:4690  revealEnd */\n      sload(0x02)\n        /* \"BlindAuction.sol\":1403:1407  time */\n      dup1\n        /* \"BlindAuction.sol\":1384:1399  block.timestamp */\n      timestamp\n        /* \"BlindAuction.sol\":1384:1407  block.timestamp <= time */\n      gt\n        /* \"BlindAuction.sol\":1380:1430  if (block.timestamp <= time) revert TooEarly(time) */\n      tag_72\n      jumpi\n        /* \"BlindAuction.sol\":1425:1429  time */\n      dup1\n        /* \"BlindAuction.sol\":1416:1430  TooEarly(time) */\n      mload(0x40)\n      0x2a35a32400000000000000000000000000000000000000000000000000000000\n      dup2\n      mstore\n      0x04\n      add\n      tag_73\n      swap2\n      swap1\n      tag_42\n      jump\t// in\n    tag_73:\n      mload(0x40)\n      dup1\n      swap2\n      sub\n      swap1\n      revert\n        /* \"BlindAuction.sol\":1380:1430  if (block.timestamp <= time) revert TooEarly(time) */\n    tag_72:\n        /* \"BlindAuction.sol\":4712:4717  ended */\n      0x03\n      0x00\n      swap1\n      sload\n      swap1\n      0x0100\n      exp\n      swap1\n      div\n      0xff\n      and\n        /* \"BlindAuction.sol\":4708:4751  if (ended) revert AuctionEndAlreadyCalled() */\n      iszero\n      tag_75\n      jumpi\n        /* \"BlindAuction.sol\":4726:4751  AuctionEndAlreadyCalled() */\n      mload(0x40)\n      0x61cfdcf800000000000000000000000000000000000000000000000000000000\n      dup2\n      mstore\n      0x04\n      add\n      mload(0x40)\n      dup1\n      swap2\n      sub\n      swap1\n      revert\n        /* \"BlindAuction.sol\":4708:4751  if (ended) revert AuctionEndAlreadyCalled() */\n    tag_75:\n        /* \"BlindAuction.sol\":4786:4787  0 */\n      0x00\n        /* \"BlindAuction.sol\":4766:4782  secondHighestBid */\n      sload(0x07)\n        /* \"BlindAuction.sol\":4766:4787  secondHighestBid == 0 */\n      eq\n        /* \"BlindAuction.sol\":4762:5229  if (secondHighestBid == 0) {\r... */\n      iszero\n      tag_76\n      jumpi\n        /* \"BlindAuction.sol\":4928:4941  highestBidder */\n      0x05\n      0x00\n      swap1\n      sload\n      swap1\n      0x0100\n      exp\n      swap1\n      div\n      0xffffffffffffffffffffffffffffffffffffffff\n      and\n        /* \"BlindAuction.sol\":4920:4951  payable(highestBidder).transfer */\n      0xffffffffffffffffffffffffffffffffffffffff\n      and\n        /* \"BlindAuction.sol\":4920:4963  payable(highestBidder).transfer(highestBid) */\n      0x08fc\n        /* \"BlindAuction.sol\":4952:4962  highestBid */\n      sload(0x06)\n        /* \"BlindAuction.sol\":4920:4963  payable(highestBidder).transfer(highestBid) */\n      swap1\n      dup2\n      iszero\n      mul\n      swap1\n      mload(0x40)\n      0x00\n      mload(0x40)\n      dup1\n      dup4\n      sub\n      dup2\n      dup6\n      dup9\n      dup9\n      call\n      swap4\n      pop\n      pop\n      pop\n      pop\n      iszero\n      dup1\n      iszero\n      tag_78\n      jumpi\n      returndatasize\n      0x00\n      dup1\n      returndatacopy\n      revert(0x00, returndatasize)\n    tag_78:\n      pop\n        /* \"BlindAuction.sol\":4983:4997  AuctionEnded() */\n      0xa0e92984607195c326795751263414ee1074526323552e694c90ef2b99ae3f29\n      mload(0x40)\n      mload(0x40)\n      dup1\n      swap2\n      sub\n      swap1\n      log1\n        /* \"BlindAuction.sol\":4762:5229  if (secondHighestBid == 0) {\r... */\n      jump(tag_79)\n    tag_76:\n        /* \"BlindAuction.sol\":5047:5060  highestBidder */\n      0x05\n      0x00\n      swap1\n      sload\n      swap1\n      0x0100\n      exp\n      swap1\n      div\n      0xffffffffffffffffffffffffffffffffffffffff\n      and\n        /* \"BlindAuction.sol\":5039:5070  payable(highestBidder).transfer */\n      0xffffffffffffffffffffffffffffffffffffffff\n      and\n        /* \"BlindAuction.sol\":5039:5099  payable(highestBidder).transfer(highestBid-secondHighestBid) */\n      0x08fc\n        /* \"BlindAuction.sol\":5082:5098  secondHighestBid */\n      sload(0x07)\n        /* \"BlindAuction.sol\":5071:5081  highestBid */\n      sload(0x06)\n        /* \"BlindAuction.sol\":5071:5098  highestBid-secondHighestBid */\n      tag_80\n      swap2\n      swap1\n      tag_81\n      jump\t// in\n    tag_80:\n        /* \"BlindAuction.sol\":5039:5099  payable(highestBidder).transfer(highestBid-secondHighestBid) */\n      swap1\n      dup2\n      iszero\n      mul\n      swap1\n      mload(0x40)\n      0x00\n      mload(0x40)\n      dup1\n      dup4\n      sub\n      dup2\n      dup6\n      dup9\n      dup9\n      call\n      swap4\n      pop\n      pop\n      pop\n      pop\n      iszero\n      dup1\n      iszero\n      tag_83\n      jumpi\n      returndatasize\n      0x00\n      dup1\n      returndatacopy\n      revert(0x00, returndatasize)\n    tag_83:\n      pop\n        /* \"BlindAuction.sol\":5114:5125  beneficiary */\n      0x00\n      dup1\n      sload\n      swap1\n      0x0100\n      exp\n      swap1\n      div\n      0xffffffffffffffffffffffffffffffffffffffff\n      and\n        /* \"BlindAuction.sol\":5114:5134  beneficiary.transfer */\n      0xffffffffffffffffffffffffffffffffffffffff\n      and\n        /* \"BlindAuction.sol\":5114:5152  beneficiary.transfer(secondHighestBid) */\n      0x08fc\n        /* \"BlindAuction.sol\":5135:5151  secondHighestBid */\n      sload(0x07)\n        /* \"BlindAuction.sol\":5114:5152  beneficiary.transfer(secondHighestBid) */\n      swap1\n      dup2\n      iszero\n      mul\n      swap1\n      mload(0x40)\n      0x00\n      mload(0x40)\n      dup1\n      dup4\n      sub\n      dup2\n      dup6\n      dup9\n      dup9\n      call\n      swap4\n      pop\n      pop\n      pop\n      pop\n      iszero\n      dup1\n      iszero\n      tag_85\n      jumpi\n      returndatasize\n      0x00\n      dup1\n      returndatacopy\n      revert(0x00, returndatasize)\n    tag_85:\n      pop\n        /* \"BlindAuction.sol\":5172:5217  AuctionEnded(highestBidder, secondHighestBid) */\n      0xdaec4582d5d9595688c8c98545fdd1c696d41c6aeaeb636737e84ed2f5c00eda\n        /* \"BlindAuction.sol\":5185:5198  highestBidder */\n      0x05\n      0x00\n      swap1\n      sload\n      swap1\n      0x0100\n      exp\n      swap1\n      div\n      0xffffffffffffffffffffffffffffffffffffffff\n      and\n        /* \"BlindAuction.sol\":5200:5216  secondHighestBid */\n      sload(0x07)\n        /* \"BlindAuction.sol\":5172:5217  AuctionEnded(highestBidder, secondHighestBid) */\n      mload(0x40)\n      tag_86\n      swap3\n      swap2\n      swap1\n      tag_87\n      jump\t// in\n    tag_86:\n      mload(0x40)\n      dup1\n      swap2\n      sub\n      swap1\n      log1\n        /* \"BlindAuction.sol\":4762:5229  if (secondHighestBid == 0) {\r... */\n    tag_79:\n        /* \"BlindAuction.sol\":5247:5251  true */\n      0x01\n        /* \"BlindAuction.sol\":5239:5244  ended */\n      0x03\n      0x00\n        /* \"BlindAuction.sol\":5239:5251  ended = true */\n      0x0100\n      exp\n      dup2\n      sload\n      dup2\n      0xff\n      mul\n      not\n      and\n      swap1\n      dup4\n      iszero\n      iszero\n      mul\n      or\n      swap1\n      sstore\n      pop\n        /* \"BlindAuction.sol\":4622:5259  function auctionEnd()\r... */\n      pop\n      jump\t// out\n        /* \"BlindAuction.sol\":170:204  address payable public beneficiary */\n    tag_32:\n      0x00\n      dup1\n      sload\n      swap1\n      0x0100\n      exp\n      swap1\n      div\n      0xffffffffffffffffffffffffffffffffffffffff\n      and\n      dup2\n      jump\t// out\n        /* \"BlindAuction.sol\":4039:4535  function withdraw() external {\r... */\n    tag_37:\n        /* \"BlindAuction.sol\":4079:4090  uint amount */\n      0x00\n        /* \"BlindAuction.sol\":4093:4107  pendingReturns */\n      0x08\n        /* \"BlindAuction.sol\":4093:4119  pendingReturns[msg.sender] */\n      0x00\n        /* \"BlindAuction.sol\":4108:4118  msg.sender */\n      caller\n        /* \"BlindAuction.sol\":4093:4119  pendingReturns[msg.sender] */\n      0xffffffffffffffffffffffffffffffffffffffff\n      and\n      0xffffffffffffffffffffffffffffffffffffffff\n      and\n      dup2\n      mstore\n      0x20\n      add\n      swap1\n      dup2\n      mstore\n      0x20\n      add\n      0x00\n      keccak256\n      sload\n        /* \"BlindAuction.sol\":4079:4119  uint amount = pendingReturns[msg.sender] */\n      swap1\n      pop\n        /* \"BlindAuction.sol\":4143:4144  0 */\n      0x00\n        /* \"BlindAuction.sol\":4134:4140  amount */\n      dup2\n        /* \"BlindAuction.sol\":4134:4144  amount > 0 */\n      gt\n        /* \"BlindAuction.sol\":4130:4528  if (amount > 0) {\r... */\n      iszero\n      tag_89\n      jumpi\n        /* \"BlindAuction.sol\":4464:4465  0 */\n      0x00\n        /* \"BlindAuction.sol\":4435:4449  pendingReturns */\n      0x08\n        /* \"BlindAuction.sol\":4435:4461  pendingReturns[msg.sender] */\n      0x00\n        /* \"BlindAuction.sol\":4450:4460  msg.sender */\n      caller\n        /* \"BlindAuction.sol\":4435:4461  pendingReturns[msg.sender] */\n      0xffffffffffffffffffffffffffffffffffffffff\n      and\n      0xffffffffffffffffffffffffffffffffffffffff\n      and\n      dup2\n      mstore\n      0x20\n      add\n      swap1\n      dup2\n      mstore\n      0x20\n      add\n      0x00\n      keccak256\n        /* \"BlindAuction.sol\":4435:4465  pendingReturns[msg.sender] = 0 */\n      dup2\n      swap1\n      sstore\n      pop\n        /* \"BlindAuction.sol\":4488:4498  msg.sender */\n      caller\n        /* \"BlindAuction.sol\":4480:4508  payable(msg.sender).transfer */\n      0xffffffffffffffffffffffffffffffffffffffff\n      and\n        /* \"BlindAuction.sol\":4480:4516  payable(msg.sender).transfer(amount) */\n      0x08fc\n        /* \"BlindAuction.sol\":4509:4515  amount */\n      dup3\n        /* \"BlindAuction.sol\":4480:4516  payable(msg.sender).transfer(amount) */\n      swap1\n      dup2\n      iszero\n      mul\n      swap1\n      mload(0x40)\n      0x00\n      mload(0x40)\n      dup1\n      dup4\n      sub\n      dup2\n      dup6\n      dup9\n      dup9\n      call\n      swap4\n      pop\n      pop\n      pop\n      pop\n      iszero\n      dup1\n      iszero\n      tag_91\n      jumpi\n      returndatasize\n      0x00\n      dup1\n      returndatacopy\n      revert(0x00, returndatasize)\n    tag_91:\n      pop\n        /* \"BlindAuction.sol\":4130:4528  if (amount > 0) {\r... */\n    tag_89:\n        /* \"BlindAuction.sol\":4068:4535  {\r... */\n      pop\n        /* \"BlindAuction.sol\":4039:4535  function withdraw() external {\r... */\n      jump\t// out\n        /* \"BlindAuction.sol\":211:233  uint public biddingEnd */\n    tag_40:\n      sload(0x01)\n      dup2\n      jump\t// out\n        /* \"BlindAuction.sol\":2719:3989  function reveal(\r... */\n    tag_47:\n        /* \"BlindAuction.sol\":2881:2891  biddingEnd */\n      sload(0x01)\n        /* \"BlindAuction.sol\":1403:1407  time */\n      dup1\n        /* \"BlindAuction.sol\":1384:1399  block.timestamp */\n      timestamp\n        /* \"BlindAuction.sol\":1384:1407  block.timestamp <= time */\n      gt\n        /* \"BlindAuction.sol\":1380:1430  if (block.timestamp <= time) revert TooEarly(time) */\n      tag_93\n      jumpi\n        /* \"BlindAuction.sol\":1425:1429  time */\n      dup1\n        /* \"BlindAuction.sol\":1416:1430  TooEarly(time) */\n      mload(0x40)\n      0x2a35a32400000000000000000000000000000000000000000000000000000000\n      dup2\n      mstore\n      0x04\n      add\n      tag_94\n      swap2\n      swap1\n      tag_42\n      jump\t// in\n    tag_94:\n      mload(0x40)\n      dup1\n      swap2\n      sub\n      swap1\n      revert\n        /* \"BlindAuction.sol\":1380:1430  if (block.timestamp <= time) revert TooEarly(time) */\n    tag_93:\n        /* \"BlindAuction.sol\":2913:2922  revealEnd */\n      sload(0x02)\n        /* \"BlindAuction.sol\":1287:1291  time */\n      dup1\n        /* \"BlindAuction.sol\":1268:1283  block.timestamp */\n      timestamp\n        /* \"BlindAuction.sol\":1268:1291  block.timestamp >= time */\n      lt\n        /* \"BlindAuction.sol\":1264:1313  if (block.timestamp >= time) revert TooLate(time) */\n      tag_96\n      jumpi\n        /* \"BlindAuction.sol\":1308:1312  time */\n      dup1\n        /* \"BlindAuction.sol\":1300:1313  TooLate(time) */\n      mload(0x40)\n      0x691e568200000000000000000000000000000000000000000000000000000000\n      dup2\n      mstore\n      0x04\n      add\n      tag_97\n      swap2\n      swap1\n      tag_42\n      jump\t// in\n    tag_97:\n      mload(0x40)\n      dup1\n      swap2\n      sub\n      swap1\n      revert\n        /* \"BlindAuction.sol\":1264:1313  if (block.timestamp >= time) revert TooLate(time) */\n    tag_96:\n        /* \"BlindAuction.sol\":2940:2951  uint length */\n      0x00\n        /* \"BlindAuction.sol\":2954:2958  bids */\n      0x04\n        /* \"BlindAuction.sol\":2954:2970  bids[msg.sender] */\n      0x00\n        /* \"BlindAuction.sol\":2959:2969  msg.sender */\n      caller\n        /* \"BlindAuction.sol\":2954:2970  bids[msg.sender] */\n      0xffffffffffffffffffffffffffffffffffffffff\n      and\n      0xffffffffffffffffffffffffffffffffffffffff\n      and\n      dup2\n      mstore\n      0x20\n      add\n      swap1\n      dup2\n      mstore\n      0x20\n      add\n      0x00\n      keccak256\n        /* \"BlindAuction.sol\":2954:2977  bids[msg.sender].length */\n      dup1\n      sload\n      swap1\n      pop\n        /* \"BlindAuction.sol\":2940:2977  uint length = bids[msg.sender].length */\n      swap1\n      pop\n        /* \"BlindAuction.sol\":3013:3019  length */\n      dup1\n        /* \"BlindAuction.sol\":2996:3002  values */\n      dup10\n      dup10\n        /* \"BlindAuction.sol\":2996:3009  values.length */\n      swap1\n      pop\n        /* \"BlindAuction.sol\":2996:3019  values.length == length */\n      eq\n        /* \"BlindAuction.sol\":2988:3020  require(values.length == length) */\n      tag_99\n      jumpi\n      0x00\n      dup1\n      revert\n    tag_99:\n        /* \"BlindAuction.sol\":3055:3061  length */\n      dup1\n        /* \"BlindAuction.sol\":3039:3044  fakes */\n      dup8\n      dup8\n        /* \"BlindAuction.sol\":3039:3051  fakes.length */\n      swap1\n      pop\n        /* \"BlindAuction.sol\":3039:3061  fakes.length == length */\n      eq\n        /* \"BlindAuction.sol\":3031:3062  require(fakes.length == length) */\n      tag_100\n      jumpi\n      0x00\n      dup1\n      revert\n    tag_100:\n        /* \"BlindAuction.sol\":3099:3105  length */\n      dup1\n        /* \"BlindAuction.sol\":3081:3088  secrets */\n      dup6\n      dup6\n        /* \"BlindAuction.sol\":3081:3095  secrets.length */\n      swap1\n      pop\n        /* \"BlindAuction.sol\":3081:3105  secrets.length == length */\n      eq\n        /* \"BlindAuction.sol\":3073:3106  require(secrets.length == length) */\n      tag_101\n      jumpi\n      0x00\n      dup1\n      revert\n    tag_101:\n        /* \"BlindAuction.sol\":3119:3130  uint refund */\n      0x00\n        /* \"BlindAuction.sol\":3146:3152  uint i */\n      dup1\n        /* \"BlindAuction.sol\":3155:3156  0 */\n      0x00\n        /* \"BlindAuction.sol\":3146:3156  uint i = 0 */\n      swap1\n      pop\n        /* \"BlindAuction.sol\":3141:3935  for (uint i = 0; i < length; i++) {\r... */\n    tag_102:\n        /* \"BlindAuction.sol\":3162:3168  length */\n      dup3\n        /* \"BlindAuction.sol\":3158:3159  i */\n      dup2\n        /* \"BlindAuction.sol\":3158:3168  i < length */\n      lt\n        /* \"BlindAuction.sol\":3141:3935  for (uint i = 0; i < length; i++) {\r... */\n      iszero\n      tag_103\n      jumpi\n        /* \"BlindAuction.sol\":3190:3212  Bid storage bidToCheck */\n      0x00\n        /* \"BlindAuction.sol\":3215:3219  bids */\n      0x04\n        /* \"BlindAuction.sol\":3215:3231  bids[msg.sender] */\n      0x00\n        /* \"BlindAuction.sol\":3220:3230  msg.sender */\n      caller\n        /* \"BlindAuction.sol\":3215:3231  bids[msg.sender] */\n      0xffffffffffffffffffffffffffffffffffffffff\n      and\n      0xffffffffffffffffffffffffffffffffffffffff\n      and\n      dup2\n      mstore\n      0x20\n      add\n      swap1\n      dup2\n      mstore\n      0x20\n      add\n      0x00\n      keccak256\n        /* \"BlindAuction.sol\":3232:3233  i */\n      dup3\n        /* \"BlindAuction.sol\":3215:3234  bids[msg.sender][i] */\n      dup2\n      sload\n      dup2\n      lt\n      tag_105\n      jumpi\n      tag_106\n      tag_107\n      jump\t// in\n    tag_106:\n    tag_105:\n      swap1\n      0x00\n      mstore\n      keccak256(0x00, 0x20)\n      swap1\n      0x02\n      mul\n      add\n        /* \"BlindAuction.sol\":3190:3234  Bid storage bidToCheck = bids[msg.sender][i] */\n      swap1\n      pop\n        /* \"BlindAuction.sol\":3250:3260  uint value */\n      0x00\n        /* \"BlindAuction.sol\":3262:3271  bool fake */\n      dup1\n        /* \"BlindAuction.sol\":3273:3287  bytes32 secret */\n      0x00\n        /* \"BlindAuction.sol\":3313:3319  values */\n      dup15\n      dup15\n        /* \"BlindAuction.sol\":3320:3321  i */\n      dup7\n        /* \"BlindAuction.sol\":3313:3322  values[i] */\n      dup2\n      dup2\n      lt\n      tag_109\n      jumpi\n      tag_110\n      tag_107\n      jump\t// in\n    tag_110:\n    tag_109:\n      swap1\n      pop\n      0x20\n      mul\n      add\n      calldataload\n        /* \"BlindAuction.sol\":3324:3329  fakes */\n      dup14\n      dup14\n        /* \"BlindAuction.sol\":3330:3331  i */\n      dup8\n        /* \"BlindAuction.sol\":3324:3332  fakes[i] */\n      dup2\n      dup2\n      lt\n      tag_111\n      jumpi\n      tag_112\n      tag_107\n      jump\t// in\n    tag_112:\n    tag_111:\n      swap1\n      pop\n      0x20\n      mul\n      add\n      0x20\n      dup2\n      add\n      swap1\n      tag_113\n      swap2\n      swap1\n      tag_114\n      jump\t// in\n    tag_113:\n        /* \"BlindAuction.sol\":3334:3341  secrets */\n      dup13\n      dup13\n        /* \"BlindAuction.sol\":3342:3343  i */\n      dup9\n        /* \"BlindAuction.sol\":3334:3344  secrets[i] */\n      dup2\n      dup2\n      lt\n      tag_115\n      jumpi\n      tag_116\n      tag_107\n      jump\t// in\n    tag_116:\n    tag_115:\n      swap1\n      pop\n      0x20\n      mul\n      add\n      calldataload\n        /* \"BlindAuction.sol\":3249:3345  (uint value, bool fake, bytes32 secret) =\r... */\n      swap3\n      pop\n      swap3\n      pop\n      swap3\n      pop\n        /* \"BlindAuction.sol\":3416:3421  value */\n      dup3\n        /* \"BlindAuction.sol\":3423:3427  fake */\n      dup3\n        /* \"BlindAuction.sol\":3429:3435  secret */\n      dup3\n        /* \"BlindAuction.sol\":3399:3436  abi.encodePacked(value, fake, secret) */\n      add(0x20, mload(0x40))\n      tag_117\n      swap4\n      swap3\n      swap2\n      swap1\n      tag_118\n      jump\t// in\n    tag_117:\n      mload(0x40)\n      0x20\n      dup2\n      dup4\n      sub\n      sub\n      dup2\n      mstore\n      swap1\n      0x40\n      mstore\n        /* \"BlindAuction.sol\":3389:3437  keccak256(abi.encodePacked(value, fake, secret)) */\n      dup1\n      mload\n      swap1\n      0x20\n      add\n      keccak256\n        /* \"BlindAuction.sol\":3364:3374  bidToCheck */\n      dup5\n        /* \"BlindAuction.sol\":3364:3385  bidToCheck.blindedBid */\n      0x00\n      add\n      sload\n        /* \"BlindAuction.sol\":3364:3437  bidToCheck.blindedBid != keccak256(abi.encodePacked(value, fake, secret)) */\n      eq\n        /* \"BlindAuction.sol\":3360:3576  if (bidToCheck.blindedBid != keccak256(abi.encodePacked(value, fake, secret))) {\r... */\n      tag_119\n      jumpi\n        /* \"BlindAuction.sol\":3552:3560  continue */\n      pop\n      pop\n      pop\n      pop\n      jump(tag_104)\n        /* \"BlindAuction.sol\":3360:3576  if (bidToCheck.blindedBid != keccak256(abi.encodePacked(value, fake, secret))) {\r... */\n    tag_119:\n        /* \"BlindAuction.sol\":3600:3610  bidToCheck */\n      dup4\n        /* \"BlindAuction.sol\":3600:3618  bidToCheck.deposit */\n      0x01\n      add\n      sload\n        /* \"BlindAuction.sol\":3590:3618  refund += bidToCheck.deposit */\n      dup7\n      tag_120\n      swap2\n      swap1\n      tag_121\n      jump\t// in\n    tag_120:\n      swap6\n      pop\n        /* \"BlindAuction.sol\":3638:3642  fake */\n      dup2\n        /* \"BlindAuction.sol\":3637:3642  !fake */\n      iszero\n        /* \"BlindAuction.sol\":3637:3673  !fake && bidToCheck.deposit >= value */\n      dup1\n      iszero\n      tag_122\n      jumpi\n      pop\n        /* \"BlindAuction.sol\":3668:3673  value */\n      dup3\n        /* \"BlindAuction.sol\":3646:3656  bidToCheck */\n      dup5\n        /* \"BlindAuction.sol\":3646:3664  bidToCheck.deposit */\n      0x01\n      add\n      sload\n        /* \"BlindAuction.sol\":3646:3673  bidToCheck.deposit >= value */\n      lt\n      iszero\n        /* \"BlindAuction.sol\":3637:3673  !fake && bidToCheck.deposit >= value */\n    tag_122:\n        /* \"BlindAuction.sol\":3633:3779  if (!fake && bidToCheck.deposit >= value) {\r... */\n      iszero\n      tag_123\n      jumpi\n        /* \"BlindAuction.sol\":3698:3725  placeBid(msg.sender, value) */\n      tag_124\n        /* \"BlindAuction.sol\":3707:3717  msg.sender */\n      caller\n        /* \"BlindAuction.sol\":3719:3724  value */\n      dup5\n        /* \"BlindAuction.sol\":3698:3706  placeBid */\n      tag_125\n        /* \"BlindAuction.sol\":3698:3725  placeBid(msg.sender, value) */\n      jump\t// in\n    tag_124:\n        /* \"BlindAuction.sol\":3694:3763  if (placeBid(msg.sender, value))\r... */\n      iszero\n      tag_126\n      jumpi\n        /* \"BlindAuction.sol\":3758:3763  value */\n      dup3\n        /* \"BlindAuction.sol\":3748:3763  refund -= value */\n      dup7\n      tag_127\n      swap2\n      swap1\n      tag_81\n      jump\t// in\n    tag_127:\n      swap6\n      pop\n        /* \"BlindAuction.sol\":3694:3763  if (placeBid(msg.sender, value))\r... */\n    tag_126:\n        /* \"BlindAuction.sol\":3633:3779  if (!fake && bidToCheck.deposit >= value) {\r... */\n    tag_123:\n        /* \"BlindAuction.sol\":3921:3922  0 */\n      0x00\n        /* \"BlindAuction.sol\":3913:3923  bytes32(0) */\n      dup1\n      shl\n        /* \"BlindAuction.sol\":3889:3899  bidToCheck */\n      dup5\n        /* \"BlindAuction.sol\":3889:3910  bidToCheck.blindedBid */\n      0x00\n      add\n        /* \"BlindAuction.sol\":3889:3923  bidToCheck.blindedBid = bytes32(0) */\n      dup2\n      swap1\n      sstore\n      pop\n        /* \"BlindAuction.sol\":3175:3935  {\r... */\n      pop\n      pop\n      pop\n      pop\n        /* \"BlindAuction.sol\":3141:3935  for (uint i = 0; i < length; i++) {\r... */\n    tag_104:\n        /* \"BlindAuction.sol\":3170:3173  i++ */\n      dup1\n      dup1\n      tag_128\n      swap1\n      tag_129\n      jump\t// in\n    tag_128:\n      swap2\n      pop\n      pop\n        /* \"BlindAuction.sol\":3141:3935  for (uint i = 0; i < length; i++) {\r... */\n      jump(tag_102)\n    tag_103:\n      pop\n        /* \"BlindAuction.sol\":3953:3963  msg.sender */\n      caller\n        /* \"BlindAuction.sol\":3945:3973  payable(msg.sender).transfer */\n      0xffffffffffffffffffffffffffffffffffffffff\n      and\n        /* \"BlindAuction.sol\":3945:3981  payable(msg.sender).transfer(refund) */\n      0x08fc\n        /* \"BlindAuction.sol\":3974:3980  refund */\n      dup3\n        /* \"BlindAuction.sol\":3945:3981  payable(msg.sender).transfer(refund) */\n      swap1\n      dup2\n      iszero\n      mul\n      swap1\n      mload(0x40)\n      0x00\n      mload(0x40)\n      dup1\n      dup4\n      sub\n      dup2\n      dup6\n      dup9\n      dup9\n      call\n      swap4\n      pop\n      pop\n      pop\n      pop\n      iszero\n      dup1\n      iszero\n      tag_131\n      jumpi\n      returndatasize\n      0x00\n      dup1\n      returndatacopy\n      revert(0x00, returndatasize)\n    tag_131:\n      pop\n        /* \"BlindAuction.sol\":2929:3989  {\r... */\n      pop\n      pop\n        /* \"BlindAuction.sol\":1441:1442  _ */\n      pop\n        /* \"BlindAuction.sol\":2719:3989  function reveal(\r... */\n      pop\n      pop\n      pop\n      pop\n      pop\n      pop\n      pop\n      jump\t// out\n        /* \"BlindAuction.sol\":340:368  address public highestBidder */\n    tag_50:\n      0x05\n      0x00\n      swap1\n      sload\n      swap1\n      0x0100\n      exp\n      swap1\n      div\n      0xffffffffffffffffffffffffffffffffffffffff\n      and\n      dup2\n      jump\t// out\n        /* \"BlindAuction.sol\":2315:2548  function bid(bytes32 blindedBid)\r... */\n    tag_56:\n        /* \"BlindAuction.sol\":2403:2413  biddingEnd */\n      sload(0x01)\n        /* \"BlindAuction.sol\":1287:1291  time */\n      dup1\n        /* \"BlindAuction.sol\":1268:1283  block.timestamp */\n      timestamp\n        /* \"BlindAuction.sol\":1268:1291  block.timestamp >= time */\n      lt\n        /* \"BlindAuction.sol\":1264:1313  if (block.timestamp >= time) revert TooLate(time) */\n      tag_133\n      jumpi\n        /* \"BlindAuction.sol\":1308:1312  time */\n      dup1\n        /* \"BlindAuction.sol\":1300:1313  TooLate(time) */\n      mload(0x40)\n      0x691e568200000000000000000000000000000000000000000000000000000000\n      dup2\n      mstore\n      0x04\n      add\n      tag_134\n      swap2\n      swap1\n      tag_42\n      jump\t// in\n    tag_134:\n      mload(0x40)\n      dup1\n      swap2\n      sub\n      swap1\n      revert\n        /* \"BlindAuction.sol\":1264:1313  if (block.timestamp >= time) revert TooLate(time) */\n    tag_133:\n        /* \"BlindAuction.sol\":2431:2435  bids */\n      0x04\n        /* \"BlindAuction.sol\":2431:2447  bids[msg.sender] */\n      0x00\n        /* \"BlindAuction.sol\":2436:2446  msg.sender */\n      caller\n        /* \"BlindAuction.sol\":2431:2447  bids[msg.sender] */\n      0xffffffffffffffffffffffffffffffffffffffff\n      and\n      0xffffffffffffffffffffffffffffffffffffffff\n      and\n      dup2\n      mstore\n      0x20\n      add\n      swap1\n      dup2\n      mstore\n      0x20\n      add\n      0x00\n      keccak256\n        /* \"BlindAuction.sol\":2453:2539  Bid({\r... */\n      mload(0x40)\n      dup1\n      0x40\n      add\n      0x40\n      mstore\n      dup1\n        /* \"BlindAuction.sol\":2484:2494  blindedBid */\n      dup5\n        /* \"BlindAuction.sol\":2453:2539  Bid({\r... */\n      dup2\n      mstore\n      0x20\n      add\n        /* \"BlindAuction.sol\":2518:2527  msg.value */\n      callvalue\n        /* \"BlindAuction.sol\":2453:2539  Bid({\r... */\n      dup2\n      mstore\n      pop\n        /* \"BlindAuction.sol\":2431:2540  bids[msg.sender].push(Bid({\r... */\n      swap1\n      dup1\n      0x01\n      dup2\n      sload\n      add\n      dup1\n      dup3\n      sstore\n      dup1\n      swap2\n      pop\n      pop\n      0x01\n      swap1\n      sub\n      swap1\n      0x00\n      mstore\n      keccak256(0x00, 0x20)\n      swap1\n      0x02\n      mul\n      add\n      0x00\n      swap1\n      swap2\n      swap1\n      swap2\n      swap1\n      swap2\n      pop\n      0x00\n      dup3\n      add\n      mload\n      dup2\n      0x00\n      add\n      sstore\n      0x20\n      dup3\n      add\n      mload\n      dup2\n      0x01\n      add\n      sstore\n      pop\n      pop\n        /* \"BlindAuction.sol\":2315:2548  function bid(bytes32 blindedBid)\r... */\n      pop\n      pop\n      jump\t// out\n        /* \"BlindAuction.sol\":240:261  uint public revealEnd */\n    tag_59:\n      sload(0x02)\n      dup2\n      jump\t// out\n        /* \"BlindAuction.sol\":404:432  uint public secondHighestBid */\n    tag_63:\n      sload(0x07)\n      dup2\n      jump\t// out\n        /* \"BlindAuction.sol\":375:397  uint public highestBid */\n    tag_67:\n      sload(0x06)\n      dup2\n      jump\t// out\n        /* \"BlindAuction.sol\":5415:6059  function placeBid(address bidder, uint value) internal\r... */\n    tag_125:\n        /* \"BlindAuction.sol\":5492:5504  bool success */\n      0x00\n        /* \"BlindAuction.sol\":5535:5545  highestBid */\n      sload(0x06)\n        /* \"BlindAuction.sol\":5526:5531  value */\n      dup3\n        /* \"BlindAuction.sol\":5526:5545  value <= highestBid */\n      gt\n      iszero\n        /* \"BlindAuction.sol\":5526:5574  value <= highestBid && value <= secondHighestBid */\n      dup1\n      iszero\n      tag_138\n      jumpi\n      pop\n        /* \"BlindAuction.sol\":5558:5574  secondHighestBid */\n      sload(0x07)\n        /* \"BlindAuction.sol\":5549:5554  value */\n      dup3\n        /* \"BlindAuction.sol\":5549:5574  value <= secondHighestBid */\n      gt\n      iszero\n        /* \"BlindAuction.sol\":5526:5574  value <= highestBid && value <= secondHighestBid */\n    tag_138:\n        /* \"BlindAuction.sol\":5522:5761  if (value <= highestBid && value <= secondHighestBid) {\r... */\n      iszero\n      tag_139\n      jumpi\n        /* \"BlindAuction.sol\":5598:5603  false */\n      0x00\n        /* \"BlindAuction.sol\":5591:5603  return false */\n      swap1\n      pop\n      jump(tag_137)\n        /* \"BlindAuction.sol\":5522:5761  if (value <= highestBid && value <= secondHighestBid) {\r... */\n    tag_139:\n        /* \"BlindAuction.sol\":5643:5653  highestBid */\n      sload(0x06)\n        /* \"BlindAuction.sol\":5634:5639  value */\n      dup3\n        /* \"BlindAuction.sol\":5634:5653  value <= highestBid */\n      gt\n      iszero\n        /* \"BlindAuction.sol\":5634:5681  value <= highestBid && value > secondHighestBid */\n      dup1\n      iszero\n      tag_141\n      jumpi\n      pop\n        /* \"BlindAuction.sol\":5665:5681  secondHighestBid */\n      sload(0x07)\n        /* \"BlindAuction.sol\":5657:5662  value */\n      dup3\n        /* \"BlindAuction.sol\":5657:5681  value > secondHighestBid */\n      gt\n        /* \"BlindAuction.sol\":5634:5681  value <= highestBid && value > secondHighestBid */\n    tag_141:\n        /* \"BlindAuction.sol\":5630:5761  if (value <= highestBid && value > secondHighestBid) {\r... */\n      iszero\n      tag_142\n      jumpi\n        /* \"BlindAuction.sol\":5717:5722  value */\n      dup2\n        /* \"BlindAuction.sol\":5698:5714  secondHighestBid */\n      0x07\n        /* \"BlindAuction.sol\":5698:5722  secondHighestBid = value */\n      dup2\n      swap1\n      sstore\n      pop\n        /* \"BlindAuction.sol\":5744:5749  false */\n      0x00\n        /* \"BlindAuction.sol\":5737:5749  return false */\n      swap1\n      pop\n      jump(tag_137)\n        /* \"BlindAuction.sol\":5630:5761  if (value <= highestBid && value > secondHighestBid) {\r... */\n    tag_142:\n        /* \"BlindAuction.sol\":5800:5801  0 */\n      0x00\n        /* \"BlindAuction.sol\":5775:5802  highestBidder != address(0) */\n      0xffffffffffffffffffffffffffffffffffffffff\n      and\n        /* \"BlindAuction.sol\":5775:5788  highestBidder */\n      0x05\n      0x00\n      swap1\n      sload\n      swap1\n      0x0100\n      exp\n      swap1\n      div\n      0xffffffffffffffffffffffffffffffffffffffff\n      and\n        /* \"BlindAuction.sol\":5775:5802  highestBidder != address(0) */\n      0xffffffffffffffffffffffffffffffffffffffff\n      and\n      eq\n        /* \"BlindAuction.sol\":5771:5928  if (highestBidder != address(0)) {\r... */\n      tag_143\n      jumpi\n        /* \"BlindAuction.sol\":5906:5916  highestBid */\n      sload(0x06)\n        /* \"BlindAuction.sol\":5873:5887  pendingReturns */\n      0x08\n        /* \"BlindAuction.sol\":5873:5902  pendingReturns[highestBidder] */\n      0x00\n        /* \"BlindAuction.sol\":5888:5901  highestBidder */\n      0x05\n      0x00\n      swap1\n      sload\n      swap1\n      0x0100\n      exp\n      swap1\n      div\n      0xffffffffffffffffffffffffffffffffffffffff\n      and\n        /* \"BlindAuction.sol\":5873:5902  pendingReturns[highestBidder] */\n      0xffffffffffffffffffffffffffffffffffffffff\n      and\n      0xffffffffffffffffffffffffffffffffffffffff\n      and\n      dup2\n      mstore\n      0x20\n      add\n      swap1\n      dup2\n      mstore\n      0x20\n      add\n      0x00\n      keccak256\n      0x00\n        /* \"BlindAuction.sol\":5873:5916  pendingReturns[highestBidder] += highestBid */\n      dup3\n      dup3\n      sload\n      tag_144\n      swap2\n      swap1\n      tag_121\n      jump\t// in\n    tag_144:\n      swap3\n      pop\n      pop\n      dup2\n      swap1\n      sstore\n      pop\n        /* \"BlindAuction.sol\":5771:5928  if (highestBidder != address(0)) {\r... */\n    tag_143:\n        /* \"BlindAuction.sol\":5957:5967  highestBid */\n      sload(0x06)\n        /* \"BlindAuction.sol\":5938:5954  secondHighestBid */\n      0x07\n        /* \"BlindAuction.sol\":5938:5967  secondHighestBid = highestBid */\n      dup2\n      swap1\n      sstore\n      pop\n        /* \"BlindAuction.sol\":5991:5996  value */\n      dup2\n        /* \"BlindAuction.sol\":5978:5988  highestBid */\n      0x06\n        /* \"BlindAuction.sol\":5978:5996  highestBid = value */\n      dup2\n      swap1\n      sstore\n      pop\n        /* \"BlindAuction.sol\":6023:6029  bidder */\n      dup3\n        /* \"BlindAuction.sol\":6007:6020  highestBidder */\n      0x05\n      0x00\n        /* \"BlindAuction.sol\":6007:6029  highestBidder = bidder */\n      0x0100\n      exp\n      dup2\n      sload\n      dup2\n      0xffffffffffffffffffffffffffffffffffffffff\n      mul\n      not\n      and\n      swap1\n      dup4\n      0xffffffffffffffffffffffffffffffffffffffff\n      and\n      mul\n      or\n      swap1\n      sstore\n      pop\n        /* \"BlindAuction.sol\":6047:6051  true */\n      0x01\n        /* \"BlindAuction.sol\":6040:6051  return true */\n      swap1\n      pop\n        /* \"BlindAuction.sol\":5415:6059  function placeBid(address bidder, uint value) internal\r... */\n    tag_137:\n      swap3\n      swap2\n      pop\n      pop\n      jump\t// out\n        /* \"#utility.yul\":7:146   */\n    tag_146:\n        /* \"#utility.yul\":53:58   */\n      0x00\n        /* \"#utility.yul\":91:97   */\n      dup2\n        /* \"#utility.yul\":78:98   */\n      calldataload\n        /* \"#utility.yul\":69:98   */\n      swap1\n      pop\n        /* \"#utility.yul\":107:140   */\n      tag_148\n        /* \"#utility.yul\":134:139   */\n      dup2\n        /* \"#utility.yul\":107:140   */\n      tag_149\n      jump\t// in\n    tag_148:\n        /* \"#utility.yul\":7:146   */\n      swap3\n      swap2\n      pop\n      pop\n      jump\t// out\n        /* \"#utility.yul\":166:731   */\n    tag_150:\n        /* \"#utility.yul\":236:244   */\n      0x00\n        /* \"#utility.yul\":246:252   */\n      dup1\n        /* \"#utility.yul\":296:299   */\n      dup4\n        /* \"#utility.yul\":289:293   */\n      0x1f\n        /* \"#utility.yul\":281:287   */\n      dup5\n        /* \"#utility.yul\":277:294   */\n      add\n        /* \"#utility.yul\":273:300   */\n      slt\n        /* \"#utility.yul\":263:385   */\n      tag_152\n      jumpi\n        /* \"#utility.yul\":304:383   */\n      tag_153\n      tag_154\n      jump\t// in\n    tag_153:\n        /* \"#utility.yul\":263:385   */\n    tag_152:\n        /* \"#utility.yul\":417:423   */\n      dup3\n        /* \"#utility.yul\":404:424   */\n      calldataload\n        /* \"#utility.yul\":394:424   */\n      swap1\n      pop\n        /* \"#utility.yul\":447:465   */\n      0xffffffffffffffff\n        /* \"#utility.yul\":439:445   */\n      dup2\n        /* \"#utility.yul\":436:466   */\n      gt\n        /* \"#utility.yul\":433:550   */\n      iszero\n      tag_155\n      jumpi\n        /* \"#utility.yul\":469:548   */\n      tag_156\n      tag_157\n      jump\t// in\n    tag_156:\n        /* \"#utility.yul\":433:550   */\n    tag_155:\n        /* \"#utility.yul\":583:587   */\n      0x20\n        /* \"#utility.yul\":575:581   */\n      dup4\n        /* \"#utility.yul\":571:588   */\n      add\n        /* \"#utility.yul\":559:588   */\n      swap2\n      pop\n        /* \"#utility.yul\":637:640   */\n      dup4\n        /* \"#utility.yul\":629:633   */\n      0x20\n        /* \"#utility.yul\":621:627   */\n      dup3\n        /* \"#utility.yul\":617:634   */\n      mul\n        /* \"#utility.yul\":607:615   */\n      dup4\n        /* \"#utility.yul\":603:635   */\n      add\n        /* \"#utility.yul\":600:641   */\n      gt\n        /* \"#utility.yul\":597:725   */\n      iszero\n      tag_158\n      jumpi\n        /* \"#utility.yul\":644:723   */\n      tag_159\n      tag_160\n      jump\t// in\n    tag_159:\n        /* \"#utility.yul\":597:725   */\n    tag_158:\n        /* \"#utility.yul\":166:731   */\n      swap3\n      pop\n      swap3\n      swap1\n      pop\n      jump\t// out\n        /* \"#utility.yul\":754:1322   */\n    tag_161:\n        /* \"#utility.yul\":827:835   */\n      0x00\n        /* \"#utility.yul\":837:843   */\n      dup1\n        /* \"#utility.yul\":887:890   */\n      dup4\n        /* \"#utility.yul\":880:884   */\n      0x1f\n        /* \"#utility.yul\":872:878   */\n      dup5\n        /* \"#utility.yul\":868:885   */\n      add\n        /* \"#utility.yul\":864:891   */\n      slt\n        /* \"#utility.yul\":854:976   */\n      tag_163\n      jumpi\n        /* \"#utility.yul\":895:974   */\n      tag_164\n      tag_154\n      jump\t// in\n    tag_164:\n        /* \"#utility.yul\":854:976   */\n    tag_163:\n        /* \"#utility.yul\":1008:1014   */\n      dup3\n        /* \"#utility.yul\":995:1015   */\n      calldataload\n        /* \"#utility.yul\":985:1015   */\n      swap1\n      pop\n        /* \"#utility.yul\":1038:1056   */\n      0xffffffffffffffff\n        /* \"#utility.yul\":1030:1036   */\n      dup2\n        /* \"#utility.yul\":1027:1057   */\n      gt\n        /* \"#utility.yul\":1024:1141   */\n      iszero\n      tag_165\n      jumpi\n        /* \"#utility.yul\":1060:1139   */\n      tag_166\n      tag_157\n      jump\t// in\n    tag_166:\n        /* \"#utility.yul\":1024:1141   */\n    tag_165:\n        /* \"#utility.yul\":1174:1178   */\n      0x20\n        /* \"#utility.yul\":1166:1172   */\n      dup4\n        /* \"#utility.yul\":1162:1179   */\n      add\n        /* \"#utility.yul\":1150:1179   */\n      swap2\n      pop\n        /* \"#utility.yul\":1228:1231   */\n      dup4\n        /* \"#utility.yul\":1220:1224   */\n      0x20\n        /* \"#utility.yul\":1212:1218   */\n      dup3\n        /* \"#utility.yul\":1208:1225   */\n      mul\n        /* \"#utility.yul\":1198:1206   */\n      dup4\n        /* \"#utility.yul\":1194:1226   */\n      add\n        /* \"#utility.yul\":1191:1232   */\n      gt\n        /* \"#utility.yul\":1188:1316   */\n      iszero\n      tag_167\n      jumpi\n        /* \"#utility.yul\":1235:1314   */\n      tag_168\n      tag_160\n      jump\t// in\n    tag_168:\n        /* \"#utility.yul\":1188:1316   */\n    tag_167:\n        /* \"#utility.yul\":754:1322   */\n      swap3\n      pop\n      swap3\n      swap1\n      pop\n      jump\t// out\n        /* \"#utility.yul\":1345:1913   */\n    tag_169:\n        /* \"#utility.yul\":1418:1426   */\n      0x00\n        /* \"#utility.yul\":1428:1434   */\n      dup1\n        /* \"#utility.yul\":1478:1481   */\n      dup4\n        /* \"#utility.yul\":1471:1475   */\n      0x1f\n        /* \"#utility.yul\":1463:1469   */\n      dup5\n        /* \"#utility.yul\":1459:1476   */\n      add\n        /* \"#utility.yul\":1455:1482   */\n      slt\n        /* \"#utility.yul\":1445:1567   */\n      tag_171\n      jumpi\n        /* \"#utility.yul\":1486:1565   */\n      tag_172\n      tag_154\n      jump\t// in\n    tag_172:\n        /* \"#utility.yul\":1445:1567   */\n    tag_171:\n        /* \"#utility.yul\":1599:1605   */\n      dup3\n        /* \"#utility.yul\":1586:1606   */\n      calldataload\n        /* \"#utility.yul\":1576:1606   */\n      swap1\n      pop\n        /* \"#utility.yul\":1629:1647   */\n      0xffffffffffffffff\n        /* \"#utility.yul\":1621:1627   */\n      dup2\n        /* \"#utility.yul\":1618:1648   */\n      gt\n        /* \"#utility.yul\":1615:1732   */\n      iszero\n      tag_173\n      jumpi\n        /* \"#utility.yul\":1651:1730   */\n      tag_174\n      tag_157\n      jump\t// in\n    tag_174:\n        /* \"#utility.yul\":1615:1732   */\n    tag_173:\n        /* \"#utility.yul\":1765:1769   */\n      0x20\n        /* \"#utility.yul\":1757:1763   */\n      dup4\n        /* \"#utility.yul\":1753:1770   */\n      add\n        /* \"#utility.yul\":1741:1770   */\n      swap2\n      pop\n        /* \"#utility.yul\":1819:1822   */\n      dup4\n        /* \"#utility.yul\":1811:1815   */\n      0x20\n        /* \"#utility.yul\":1803:1809   */\n      dup3\n        /* \"#utility.yul\":1799:1816   */\n      mul\n        /* \"#utility.yul\":1789:1797   */\n      dup4\n        /* \"#utility.yul\":1785:1817   */\n      add\n        /* \"#utility.yul\":1782:1823   */\n      gt\n        /* \"#utility.yul\":1779:1907   */\n      iszero\n      tag_175\n      jumpi\n        /* \"#utility.yul\":1826:1905   */\n      tag_176\n      tag_160\n      jump\t// in\n    tag_176:\n        /* \"#utility.yul\":1779:1907   */\n    tag_175:\n        /* \"#utility.yul\":1345:1913   */\n      swap3\n      pop\n      swap3\n      swap1\n      pop\n      jump\t// out\n        /* \"#utility.yul\":1919:2052   */\n    tag_177:\n        /* \"#utility.yul\":1962:1967   */\n      0x00\n        /* \"#utility.yul\":2000:2006   */\n      dup2\n        /* \"#utility.yul\":1987:2007   */\n      calldataload\n        /* \"#utility.yul\":1978:2007   */\n      swap1\n      pop\n        /* \"#utility.yul\":2016:2046   */\n      tag_179\n        /* \"#utility.yul\":2040:2045   */\n      dup2\n        /* \"#utility.yul\":2016:2046   */\n      tag_180\n      jump\t// in\n    tag_179:\n        /* \"#utility.yul\":1919:2052   */\n      swap3\n      swap2\n      pop\n      pop\n      jump\t// out\n        /* \"#utility.yul\":2058:2197   */\n    tag_181:\n        /* \"#utility.yul\":2104:2109   */\n      0x00\n        /* \"#utility.yul\":2142:2148   */\n      dup2\n        /* \"#utility.yul\":2129:2149   */\n      calldataload\n        /* \"#utility.yul\":2120:2149   */\n      swap1\n      pop\n        /* \"#utility.yul\":2158:2191   */\n      tag_183\n        /* \"#utility.yul\":2185:2190   */\n      dup2\n        /* \"#utility.yul\":2158:2191   */\n      tag_184\n      jump\t// in\n    tag_183:\n        /* \"#utility.yul\":2058:2197   */\n      swap3\n      swap2\n      pop\n      pop\n      jump\t// out\n        /* \"#utility.yul\":2203:2342   */\n    tag_185:\n        /* \"#utility.yul\":2249:2254   */\n      0x00\n        /* \"#utility.yul\":2287:2293   */\n      dup2\n        /* \"#utility.yul\":2274:2294   */\n      calldataload\n        /* \"#utility.yul\":2265:2294   */\n      swap1\n      pop\n        /* \"#utility.yul\":2303:2336   */\n      tag_187\n        /* \"#utility.yul\":2330:2335   */\n      dup2\n        /* \"#utility.yul\":2303:2336   */\n      tag_188\n      jump\t// in\n    tag_187:\n        /* \"#utility.yul\":2203:2342   */\n      swap3\n      swap2\n      pop\n      pop\n      jump\t// out\n        /* \"#utility.yul\":2348:2822   */\n    tag_18:\n        /* \"#utility.yul\":2416:2422   */\n      0x00\n        /* \"#utility.yul\":2424:2430   */\n      dup1\n        /* \"#utility.yul\":2473:2475   */\n      0x40\n        /* \"#utility.yul\":2461:2470   */\n      dup4\n        /* \"#utility.yul\":2452:2459   */\n      dup6\n        /* \"#utility.yul\":2448:2471   */\n      sub\n        /* \"#utility.yul\":2444:2476   */\n      slt\n        /* \"#utility.yul\":2441:2560   */\n      iszero\n      tag_190\n      jumpi\n        /* \"#utility.yul\":2479:2558   */\n      tag_191\n      tag_192\n      jump\t// in\n    tag_191:\n        /* \"#utility.yul\":2441:2560   */\n    tag_190:\n        /* \"#utility.yul\":2599:2600   */\n      0x00\n        /* \"#utility.yul\":2624:2677   */\n      tag_193\n        /* \"#utility.yul\":2669:2676   */\n      dup6\n        /* \"#utility.yul\":2660:2666   */\n      dup3\n        /* \"#utility.yul\":2649:2658   */\n      dup7\n        /* \"#utility.yul\":2645:2667   */\n      add\n        /* \"#utility.yul\":2624:2677   */\n      tag_146\n      jump\t// in\n    tag_193:\n        /* \"#utility.yul\":2614:2677   */\n      swap3\n      pop\n        /* \"#utility.yul\":2570:2687   */\n      pop\n        /* \"#utility.yul\":2726:2728   */\n      0x20\n        /* \"#utility.yul\":2752:2805   */\n      tag_194\n        /* \"#utility.yul\":2797:2804   */\n      dup6\n        /* \"#utility.yul\":2788:2794   */\n      dup3\n        /* \"#utility.yul\":2777:2786   */\n      dup7\n        /* \"#utility.yul\":2773:2795   */\n      add\n        /* \"#utility.yul\":2752:2805   */\n      tag_185\n      jump\t// in\n    tag_194:\n        /* \"#utility.yul\":2742:2805   */\n      swap2\n      pop\n        /* \"#utility.yul\":2697:2815   */\n      pop\n        /* \"#utility.yul\":2348:2822   */\n      swap3\n      pop\n      swap3\n      swap1\n      pop\n      jump\t// out\n        /* \"#utility.yul\":2828:4131   */\n    tag_46:\n        /* \"#utility.yul\":2983:2989   */\n      0x00\n        /* \"#utility.yul\":2991:2997   */\n      dup1\n        /* \"#utility.yul\":2999:3005   */\n      0x00\n        /* \"#utility.yul\":3007:3013   */\n      dup1\n        /* \"#utility.yul\":3015:3021   */\n      0x00\n        /* \"#utility.yul\":3023:3029   */\n      dup1\n        /* \"#utility.yul\":3072:3074   */\n      0x60\n        /* \"#utility.yul\":3060:3069   */\n      dup8\n        /* \"#utility.yul\":3051:3058   */\n      dup10\n        /* \"#utility.yul\":3047:3070   */\n      sub\n        /* \"#utility.yul\":3043:3075   */\n      slt\n        /* \"#utility.yul\":3040:3159   */\n      iszero\n      tag_196\n      jumpi\n        /* \"#utility.yul\":3078:3157   */\n      tag_197\n      tag_192\n      jump\t// in\n    tag_197:\n        /* \"#utility.yul\":3040:3159   */\n    tag_196:\n        /* \"#utility.yul\":3226:3227   */\n      0x00\n        /* \"#utility.yul\":3215:3224   */\n      dup8\n        /* \"#utility.yul\":3211:3228   */\n      add\n        /* \"#utility.yul\":3198:3229   */\n      calldataload\n        /* \"#utility.yul\":3256:3274   */\n      0xffffffffffffffff\n        /* \"#utility.yul\":3248:3254   */\n      dup2\n        /* \"#utility.yul\":3245:3275   */\n      gt\n        /* \"#utility.yul\":3242:3359   */\n      iszero\n      tag_198\n      jumpi\n        /* \"#utility.yul\":3278:3357   */\n      tag_199\n      tag_200\n      jump\t// in\n    tag_199:\n        /* \"#utility.yul\":3242:3359   */\n    tag_198:\n        /* \"#utility.yul\":3391:3471   */\n      tag_201\n        /* \"#utility.yul\":3463:3470   */\n      dup10\n        /* \"#utility.yul\":3454:3460   */\n      dup3\n        /* \"#utility.yul\":3443:3452   */\n      dup11\n        /* \"#utility.yul\":3439:3461   */\n      add\n        /* \"#utility.yul\":3391:3471   */\n      tag_169\n      jump\t// in\n    tag_201:\n        /* \"#utility.yul\":3373:3471   */\n      swap7\n      pop\n      swap7\n      pop\n        /* \"#utility.yul\":3169:3481   */\n      pop\n        /* \"#utility.yul\":3548:3550   */\n      0x20\n        /* \"#utility.yul\":3537:3546   */\n      dup8\n        /* \"#utility.yul\":3533:3551   */\n      add\n        /* \"#utility.yul\":3520:3552   */\n      calldataload\n        /* \"#utility.yul\":3579:3597   */\n      0xffffffffffffffff\n        /* \"#utility.yul\":3571:3577   */\n      dup2\n        /* \"#utility.yul\":3568:3598   */\n      gt\n        /* \"#utility.yul\":3565:3682   */\n      iszero\n      tag_202\n      jumpi\n        /* \"#utility.yul\":3601:3680   */\n      tag_203\n      tag_200\n      jump\t// in\n    tag_203:\n        /* \"#utility.yul\":3565:3682   */\n    tag_202:\n        /* \"#utility.yul\":3714:3791   */\n      tag_204\n        /* \"#utility.yul\":3783:3790   */\n      dup10\n        /* \"#utility.yul\":3774:3780   */\n      dup3\n        /* \"#utility.yul\":3763:3772   */\n      dup11\n        /* \"#utility.yul\":3759:3781   */\n      add\n        /* \"#utility.yul\":3714:3791   */\n      tag_150\n      jump\t// in\n    tag_204:\n        /* \"#utility.yul\":3696:3791   */\n      swap5\n      pop\n      swap5\n      pop\n        /* \"#utility.yul\":3491:3801   */\n      pop\n        /* \"#utility.yul\":3868:3870   */\n      0x40\n        /* \"#utility.yul\":3857:3866   */\n      dup8\n        /* \"#utility.yul\":3853:3871   */\n      add\n        /* \"#utility.yul\":3840:3872   */\n      calldataload\n        /* \"#utility.yul\":3899:3917   */\n      0xffffffffffffffff\n        /* \"#utility.yul\":3891:3897   */\n      dup2\n        /* \"#utility.yul\":3888:3918   */\n      gt\n        /* \"#utility.yul\":3885:4002   */\n      iszero\n      tag_205\n      jumpi\n        /* \"#utility.yul\":3921:4000   */\n      tag_206\n      tag_200\n      jump\t// in\n    tag_206:\n        /* \"#utility.yul\":3885:4002   */\n    tag_205:\n        /* \"#utility.yul\":4034:4114   */\n      tag_207\n        /* \"#utility.yul\":4106:4113   */\n      dup10\n        /* \"#utility.yul\":4097:4103   */\n      dup3\n        /* \"#utility.yul\":4086:4095   */\n      dup11\n        /* \"#utility.yul\":4082:4104   */\n      add\n        /* \"#utility.yul\":4034:4114   */\n      tag_161\n      jump\t// in\n    tag_207:\n        /* \"#utility.yul\":4016:4114   */\n      swap3\n      pop\n      swap3\n      pop\n        /* \"#utility.yul\":3811:4124   */\n      pop\n        /* \"#utility.yul\":2828:4131   */\n      swap3\n      swap6\n      pop\n      swap3\n      swap6\n      pop\n      swap3\n      swap6\n      jump\t// out\n        /* \"#utility.yul\":4137:4460   */\n    tag_114:\n        /* \"#utility.yul\":4193:4199   */\n      0x00\n        /* \"#utility.yul\":4242:4244   */\n      0x20\n        /* \"#utility.yul\":4230:4239   */\n      dup3\n        /* \"#utility.yul\":4221:4228   */\n      dup5\n        /* \"#utility.yul\":4217:4240   */\n      sub\n        /* \"#utility.yul\":4213:4245   */\n      slt\n        /* \"#utility.yul\":4210:4329   */\n      iszero\n      tag_209\n      jumpi\n        /* \"#utility.yul\":4248:4327   */\n      tag_210\n      tag_192\n      jump\t// in\n    tag_210:\n        /* \"#utility.yul\":4210:4329   */\n    tag_209:\n        /* \"#utility.yul\":4368:4369   */\n      0x00\n        /* \"#utility.yul\":4393:4443   */\n      tag_211\n        /* \"#utility.yul\":4435:4442   */\n      dup5\n        /* \"#utility.yul\":4426:4432   */\n      dup3\n        /* \"#utility.yul\":4415:4424   */\n      dup6\n        /* \"#utility.yul\":4411:4433   */\n      add\n        /* \"#utility.yul\":4393:4443   */\n      tag_177\n      jump\t// in\n    tag_211:\n        /* \"#utility.yul\":4383:4443   */\n      swap2\n      pop\n        /* \"#utility.yul\":4339:4453   */\n      pop\n        /* \"#utility.yul\":4137:4460   */\n      swap3\n      swap2\n      pop\n      pop\n      jump\t// out\n        /* \"#utility.yul\":4466:4795   */\n    tag_55:\n        /* \"#utility.yul\":4525:4531   */\n      0x00\n        /* \"#utility.yul\":4574:4576   */\n      0x20\n        /* \"#utility.yul\":4562:4571   */\n      dup3\n        /* \"#utility.yul\":4553:4560   */\n      dup5\n        /* \"#utility.yul\":4549:4572   */\n      sub\n        /* \"#utility.yul\":4545:4577   */\n      slt\n        /* \"#utility.yul\":4542:4661   */\n      iszero\n      tag_213\n      jumpi\n        /* \"#utility.yul\":4580:4659   */\n      tag_214\n      tag_192\n      jump\t// in\n    tag_214:\n        /* \"#utility.yul\":4542:4661   */\n    tag_213:\n        /* \"#utility.yul\":4700:4701   */\n      0x00\n        /* \"#utility.yul\":4725:4778   */\n      tag_215\n        /* \"#utility.yul\":4770:4777   */\n      dup5\n        /* \"#utility.yul\":4761:4767   */\n      dup3\n        /* \"#utility.yul\":4750:4759   */\n      dup6\n        /* \"#utility.yul\":4746:4768   */\n      add\n        /* \"#utility.yul\":4725:4778   */\n      tag_181\n      jump\t// in\n    tag_215:\n        /* \"#utility.yul\":4715:4778   */\n      swap2\n      pop\n        /* \"#utility.yul\":4671:4788   */\n      pop\n        /* \"#utility.yul\":4466:4795   */\n      swap3\n      swap2\n      pop\n      pop\n      jump\t// out\n        /* \"#utility.yul\":4801:4943   */\n    tag_216:\n        /* \"#utility.yul\":4904:4936   */\n      tag_218\n        /* \"#utility.yul\":4930:4935   */\n      dup2\n        /* \"#utility.yul\":4904:4936   */\n      tag_219\n      jump\t// in\n    tag_218:\n        /* \"#utility.yul\":4899:4902   */\n      dup3\n        /* \"#utility.yul\":4892:4937   */\n      mstore\n        /* \"#utility.yul\":4801:4943   */\n      pop\n      pop\n      jump\t// out\n        /* \"#utility.yul\":4949:5067   */\n    tag_220:\n        /* \"#utility.yul\":5036:5060   */\n      tag_222\n        /* \"#utility.yul\":5054:5059   */\n      dup2\n        /* \"#utility.yul\":5036:5060   */\n      tag_223\n      jump\t// in\n    tag_222:\n        /* \"#utility.yul\":5031:5034   */\n      dup3\n        /* \"#utility.yul\":5024:5061   */\n      mstore\n        /* \"#utility.yul\":4949:5067   */\n      pop\n      pop\n      jump\t// out\n        /* \"#utility.yul\":5073:5182   */\n    tag_224:\n        /* \"#utility.yul\":5154:5175   */\n      tag_226\n        /* \"#utility.yul\":5169:5174   */\n      dup2\n        /* \"#utility.yul\":5154:5175   */\n      tag_227\n      jump\t// in\n    tag_226:\n        /* \"#utility.yul\":5149:5152   */\n      dup3\n        /* \"#utility.yul\":5142:5176   */\n      mstore\n        /* \"#utility.yul\":5073:5182   */\n      pop\n      pop\n      jump\t// out\n        /* \"#utility.yul\":5188:5333   */\n    tag_228:\n        /* \"#utility.yul\":5287:5326   */\n      tag_230\n        /* \"#utility.yul\":5304:5325   */\n      tag_231\n        /* \"#utility.yul\":5319:5324   */\n      dup3\n        /* \"#utility.yul\":5304:5325   */\n      tag_227\n      jump\t// in\n    tag_231:\n        /* \"#utility.yul\":5287:5326   */\n      tag_232\n      jump\t// in\n    tag_230:\n        /* \"#utility.yul\":5282:5285   */\n      dup3\n        /* \"#utility.yul\":5275:5327   */\n      mstore\n        /* \"#utility.yul\":5188:5333   */\n      pop\n      pop\n      jump\t// out\n        /* \"#utility.yul\":5339:5457   */\n    tag_233:\n        /* \"#utility.yul\":5426:5450   */\n      tag_235\n        /* \"#utility.yul\":5444:5449   */\n      dup2\n        /* \"#utility.yul\":5426:5450   */\n      tag_236\n      jump\t// in\n    tag_235:\n        /* \"#utility.yul\":5421:5424   */\n      dup3\n        /* \"#utility.yul\":5414:5451   */\n      mstore\n        /* \"#utility.yul\":5339:5457   */\n      pop\n      pop\n      jump\t// out\n        /* \"#utility.yul\":5463:5620   */\n    tag_237:\n        /* \"#utility.yul\":5568:5613   */\n      tag_239\n        /* \"#utility.yul\":5588:5612   */\n      tag_240\n        /* \"#utility.yul\":5606:5611   */\n      dup3\n        /* \"#utility.yul\":5588:5612   */\n      tag_236\n      jump\t// in\n    tag_240:\n        /* \"#utility.yul\":5568:5613   */\n      tag_241\n      jump\t// in\n    tag_239:\n        /* \"#utility.yul\":5563:5566   */\n      dup3\n        /* \"#utility.yul\":5556:5614   */\n      mstore\n        /* \"#utility.yul\":5463:5620   */\n      pop\n      pop\n      jump\t// out\n        /* \"#utility.yul\":5626:5744   */\n    tag_242:\n        /* \"#utility.yul\":5713:5737   */\n      tag_244\n        /* \"#utility.yul\":5731:5736   */\n      dup2\n        /* \"#utility.yul\":5713:5737   */\n      tag_245\n      jump\t// in\n    tag_244:\n        /* \"#utility.yul\":5708:5711   */\n      dup3\n        /* \"#utility.yul\":5701:5738   */\n      mstore\n        /* \"#utility.yul\":5626:5744   */\n      pop\n      pop\n      jump\t// out\n        /* \"#utility.yul\":5750:5907   */\n    tag_246:\n        /* \"#utility.yul\":5855:5900   */\n      tag_248\n        /* \"#utility.yul\":5875:5899   */\n      tag_249\n        /* \"#utility.yul\":5893:5898   */\n      dup3\n        /* \"#utility.yul\":5875:5899   */\n      tag_245\n      jump\t// in\n    tag_249:\n        /* \"#utility.yul\":5855:5900   */\n      tag_250\n      jump\t// in\n    tag_248:\n        /* \"#utility.yul\":5850:5853   */\n      dup3\n        /* \"#utility.yul\":5843:5901   */\n      mstore\n        /* \"#utility.yul\":5750:5907   */\n      pop\n      pop\n      jump\t// out\n        /* \"#utility.yul\":5913:6438   */\n    tag_118:\n        /* \"#utility.yul\":6075:6078   */\n      0x00\n        /* \"#utility.yul\":6090:6165   */\n      tag_252\n        /* \"#utility.yul\":6161:6164   */\n      dup3\n        /* \"#utility.yul\":6152:6158   */\n      dup7\n        /* \"#utility.yul\":6090:6165   */\n      tag_246\n      jump\t// in\n    tag_252:\n        /* \"#utility.yul\":6190:6192   */\n      0x20\n        /* \"#utility.yul\":6185:6188   */\n      dup3\n        /* \"#utility.yul\":6181:6193   */\n      add\n        /* \"#utility.yul\":6174:6193   */\n      swap2\n      pop\n        /* \"#utility.yul\":6203:6272   */\n      tag_253\n        /* \"#utility.yul\":6268:6271   */\n      dup3\n        /* \"#utility.yul\":6259:6265   */\n      dup6\n        /* \"#utility.yul\":6203:6272   */\n      tag_228\n      jump\t// in\n    tag_253:\n        /* \"#utility.yul\":6297:6298   */\n      0x01\n        /* \"#utility.yul\":6292:6295   */\n      dup3\n        /* \"#utility.yul\":6288:6299   */\n      add\n        /* \"#utility.yul\":6281:6299   */\n      swap2\n      pop\n        /* \"#utility.yul\":6309:6384   */\n      tag_254\n        /* \"#utility.yul\":6380:6383   */\n      dup3\n        /* \"#utility.yul\":6371:6377   */\n      dup5\n        /* \"#utility.yul\":6309:6384   */\n      tag_237\n      jump\t// in\n    tag_254:\n        /* \"#utility.yul\":6409:6411   */\n      0x20\n        /* \"#utility.yul\":6404:6407   */\n      dup3\n        /* \"#utility.yul\":6400:6412   */\n      add\n        /* \"#utility.yul\":6393:6412   */\n      swap2\n      pop\n        /* \"#utility.yul\":6429:6432   */\n      dup2\n        /* \"#utility.yul\":6422:6432   */\n      swap1\n      pop\n        /* \"#utility.yul\":5913:6438   */\n      swap5\n      swap4\n      pop\n      pop\n      pop\n      pop\n      jump\t// out\n        /* \"#utility.yul\":6444:6666   */\n    tag_52:\n        /* \"#utility.yul\":6537:6541   */\n      0x00\n        /* \"#utility.yul\":6575:6577   */\n      0x20\n        /* \"#utility.yul\":6564:6573   */\n      dup3\n        /* \"#utility.yul\":6560:6578   */\n      add\n        /* \"#utility.yul\":6552:6578   */\n      swap1\n      pop\n        /* \"#utility.yul\":6588:6659   */\n      tag_256\n        /* \"#utility.yul\":6656:6657   */\n      0x00\n        /* \"#utility.yul\":6645:6654   */\n      dup4\n        /* \"#utility.yul\":6641:6658   */\n      add\n        /* \"#utility.yul\":6632:6638   */\n      dup5\n        /* \"#utility.yul\":6588:6659   */\n      tag_220\n      jump\t// in\n    tag_256:\n        /* \"#utility.yul\":6444:6666   */\n      swap3\n      swap2\n      pop\n      pop\n      jump\t// out\n        /* \"#utility.yul\":6672:6926   */\n    tag_34:\n        /* \"#utility.yul\":6781:6785   */\n      0x00\n        /* \"#utility.yul\":6819:6821   */\n      0x20\n        /* \"#utility.yul\":6808:6817   */\n      dup3\n        /* \"#utility.yul\":6804:6822   */\n      add\n        /* \"#utility.yul\":6796:6822   */\n      swap1\n      pop\n        /* \"#utility.yul\":6832:6919   */\n      tag_258\n        /* \"#utility.yul\":6916:6917   */\n      0x00\n        /* \"#utility.yul\":6905:6914   */\n      dup4\n        /* \"#utility.yul\":6901:6918   */\n      add\n        /* \"#utility.yul\":6892:6898   */\n      dup5\n        /* \"#utility.yul\":6832:6919   */\n      tag_216\n      jump\t// in\n    tag_258:\n        /* \"#utility.yul\":6672:6926   */\n      swap3\n      swap2\n      pop\n      pop\n      jump\t// out\n        /* \"#utility.yul\":6932:7264   */\n    tag_87:\n        /* \"#utility.yul\":7053:7057   */\n      0x00\n        /* \"#utility.yul\":7091:7093   */\n      0x40\n        /* \"#utility.yul\":7080:7089   */\n      dup3\n        /* \"#utility.yul\":7076:7094   */\n      add\n        /* \"#utility.yul\":7068:7094   */\n      swap1\n      pop\n        /* \"#utility.yul\":7104:7175   */\n      tag_260\n        /* \"#utility.yul\":7172:7173   */\n      0x00\n        /* \"#utility.yul\":7161:7170   */\n      dup4\n        /* \"#utility.yul\":7157:7174   */\n      add\n        /* \"#utility.yul\":7148:7154   */\n      dup6\n        /* \"#utility.yul\":7104:7175   */\n      tag_220\n      jump\t// in\n    tag_260:\n        /* \"#utility.yul\":7185:7257   */\n      tag_261\n        /* \"#utility.yul\":7253:7255   */\n      0x20\n        /* \"#utility.yul\":7242:7251   */\n      dup4\n        /* \"#utility.yul\":7238:7256   */\n      add\n        /* \"#utility.yul\":7229:7235   */\n      dup5\n        /* \"#utility.yul\":7185:7257   */\n      tag_242\n      jump\t// in\n    tag_261:\n        /* \"#utility.yul\":6932:7264   */\n      swap4\n      swap3\n      pop\n      pop\n      pop\n      jump\t// out\n        /* \"#utility.yul\":7270:7480   */\n    tag_26:\n        /* \"#utility.yul\":7357:7361   */\n      0x00\n        /* \"#utility.yul\":7395:7397   */\n      0x20\n        /* \"#utility.yul\":7384:7393   */\n      dup3\n        /* \"#utility.yul\":7380:7398   */\n      add\n        /* \"#utility.yul\":7372:7398   */\n      swap1\n      pop\n        /* \"#utility.yul\":7408:7473   */\n      tag_263\n        /* \"#utility.yul\":7470:7471   */\n      0x00\n        /* \"#utility.yul\":7459:7468   */\n      dup4\n        /* \"#utility.yul\":7455:7472   */\n      add\n        /* \"#utility.yul\":7446:7452   */\n      dup5\n        /* \"#utility.yul\":7408:7473   */\n      tag_224\n      jump\t// in\n    tag_263:\n        /* \"#utility.yul\":7270:7480   */\n      swap3\n      swap2\n      pop\n      pop\n      jump\t// out\n        /* \"#utility.yul\":7486:7818   */\n    tag_21:\n        /* \"#utility.yul\":7607:7611   */\n      0x00\n        /* \"#utility.yul\":7645:7647   */\n      0x40\n        /* \"#utility.yul\":7634:7643   */\n      dup3\n        /* \"#utility.yul\":7630:7648   */\n      add\n        /* \"#utility.yul\":7622:7648   */\n      swap1\n      pop\n        /* \"#utility.yul\":7658:7729   */\n      tag_265\n        /* \"#utility.yul\":7726:7727   */\n      0x00\n        /* \"#utility.yul\":7715:7724   */\n      dup4\n        /* \"#utility.yul\":7711:7728   */\n      add\n        /* \"#utility.yul\":7702:7708   */\n      dup6\n        /* \"#utility.yul\":7658:7729   */\n      tag_233\n      jump\t// in\n    tag_265:\n        /* \"#utility.yul\":7739:7811   */\n      tag_266\n        /* \"#utility.yul\":7807:7809   */\n      0x20\n        /* \"#utility.yul\":7796:7805   */\n      dup4\n        /* \"#utility.yul\":7792:7810   */\n      add\n        /* \"#utility.yul\":7783:7789   */\n      dup5\n        /* \"#utility.yul\":7739:7811   */\n      tag_242\n      jump\t// in\n    tag_266:\n        /* \"#utility.yul\":7486:7818   */\n      swap4\n      swap3\n      pop\n      pop\n      pop\n      jump\t// out\n        /* \"#utility.yul\":7824:8046   */\n    tag_42:\n        /* \"#utility.yul\":7917:7921   */\n      0x00\n        /* \"#utility.yul\":7955:7957   */\n      0x20\n        /* \"#utility.yul\":7944:7953   */\n      dup3\n        /* \"#utility.yul\":7940:7958   */\n      add\n        /* \"#utility.yul\":7932:7958   */\n      swap1\n      pop\n        /* \"#utility.yul\":7968:8039   */\n      tag_268\n        /* \"#utility.yul\":8036:8037   */\n      0x00\n        /* \"#utility.yul\":8025:8034   */\n      dup4\n        /* \"#utility.yul\":8021:8038   */\n      add\n        /* \"#utility.yul\":8012:8018   */\n      dup5\n        /* \"#utility.yul\":7968:8039   */\n      tag_242\n      jump\t// in\n    tag_268:\n        /* \"#utility.yul\":7824:8046   */\n      swap3\n      swap2\n      pop\n      pop\n      jump\t// out\n        /* \"#utility.yul\":8133:8438   */\n    tag_121:\n        /* \"#utility.yul\":8173:8176   */\n      0x00\n        /* \"#utility.yul\":8192:8212   */\n      tag_272\n        /* \"#utility.yul\":8210:8211   */\n      dup3\n        /* \"#utility.yul\":8192:8212   */\n      tag_245\n      jump\t// in\n    tag_272:\n        /* \"#utility.yul\":8187:8212   */\n      swap2\n      pop\n        /* \"#utility.yul\":8226:8246   */\n      tag_273\n        /* \"#utility.yul\":8244:8245   */\n      dup4\n        /* \"#utility.yul\":8226:8246   */\n      tag_245\n      jump\t// in\n    tag_273:\n        /* \"#utility.yul\":8221:8246   */\n      swap3\n      pop\n        /* \"#utility.yul\":8380:8381   */\n      dup3\n        /* \"#utility.yul\":8312:8378   */\n      0xffffffffffffffffffffffffffffffffffffffffffffffffffffffffffffffff\n        /* \"#utility.yul\":8308:8382   */\n      sub\n        /* \"#utility.yul\":8305:8306   */\n      dup3\n        /* \"#utility.yul\":8302:8383   */\n      gt\n        /* \"#utility.yul\":8299:8406   */\n      iszero\n      tag_274\n      jumpi\n        /* \"#utility.yul\":8386:8404   */\n      tag_275\n      tag_276\n      jump\t// in\n    tag_275:\n        /* \"#utility.yul\":8299:8406   */\n    tag_274:\n        /* \"#utility.yul\":8430:8431   */\n      dup3\n        /* \"#utility.yul\":8427:8428   */\n      dup3\n        /* \"#utility.yul\":8423:8432   */\n      add\n        /* \"#utility.yul\":8416:8432   */\n      swap1\n      pop\n        /* \"#utility.yul\":8133:8438   */\n      swap3\n      swap2\n      pop\n      pop\n      jump\t// out\n        /* \"#utility.yul\":8444:8635   */\n    tag_81:\n        /* \"#utility.yul\":8484:8488   */\n      0x00\n        /* \"#utility.yul\":8504:8524   */\n      tag_278\n        /* \"#utility.yul\":8522:8523   */\n      dup3\n        /* \"#utility.yul\":8504:8524   */\n      tag_245\n      jump\t// in\n    tag_278:\n        /* \"#utility.yul\":8499:8524   */\n      swap2\n      pop\n        /* \"#utility.yul\":8538:8558   */\n      tag_279\n        /* \"#utility.yul\":8556:8557   */\n      dup4\n        /* \"#utility.yul\":8538:8558   */\n      tag_245\n      jump\t// in\n    tag_279:\n        /* \"#utility.yul\":8533:8558   */\n      swap3\n      pop\n        /* \"#utility.yul\":8577:8578   */\n      dup3\n        /* \"#utility.yul\":8574:8575   */\n      dup3\n        /* \"#utility.yul\":8571:8579   */\n      lt\n        /* \"#utility.yul\":8568:8602   */\n      iszero\n      tag_280\n      jumpi\n        /* \"#utility.yul\":8582:8600   */\n      tag_281\n      tag_276\n      jump\t// in\n    tag_281:\n        /* \"#utility.yul\":8568:8602   */\n    tag_280:\n        /* \"#utility.yul\":8627:8628   */\n      dup3\n        /* \"#utility.yul\":8624:8625   */\n      dup3\n        /* \"#utility.yul\":8620:8629   */\n      sub\n        /* \"#utility.yul\":8612:8629   */\n      swap1\n      pop\n        /* \"#utility.yul\":8444:8635   */\n      swap3\n      swap2\n      pop\n      pop\n      jump\t// out\n        /* \"#utility.yul\":8641:8737   */\n    tag_223:\n        /* \"#utility.yul\":8678:8685   */\n      0x00\n        /* \"#utility.yul\":8707:8731   */\n      tag_283\n        /* \"#utility.yul\":8725:8730   */\n      dup3\n        /* \"#utility.yul\":8707:8731   */\n      tag_284\n      jump\t// in\n    tag_283:\n        /* \"#utility.yul\":8696:8731   */\n      swap1\n      pop\n        /* \"#utility.yul\":8641:8737   */\n      swap2\n      swap1\n      pop\n      jump\t// out\n        /* \"#utility.yul\":8743:8847   */\n    tag_219:\n        /* \"#utility.yul\":8788:8795   */\n      0x00\n        /* \"#utility.yul\":8817:8841   */\n      tag_286\n        /* \"#utility.yul\":8835:8840   */\n      dup3\n        /* \"#utility.yul\":8817:8841   */\n      tag_284\n      jump\t// in\n    tag_286:\n        /* \"#utility.yul\":8806:8841   */\n      swap1\n      pop\n        /* \"#utility.yul\":8743:8847   */\n      swap2\n      swap1\n      pop\n      jump\t// out\n        /* \"#utility.yul\":8853:8943   */\n    tag_227:\n        /* \"#utility.yul\":8887:8894   */\n      0x00\n        /* \"#utility.yul\":8930:8935   */\n      dup2\n        /* \"#utility.yul\":8923:8936   */\n      iszero\n        /* \"#utility.yul\":8916:8937   */\n      iszero\n        /* \"#utility.yul\":8905:8937   */\n      swap1\n      pop\n        /* \"#utility.yul\":8853:8943   */\n      swap2\n      swap1\n      pop\n      jump\t// out\n        /* \"#utility.yul\":8949:9026   */\n    tag_236:\n        /* \"#utility.yul\":8986:8993   */\n      0x00\n        /* \"#utility.yul\":9015:9020   */\n      dup2\n        /* \"#utility.yul\":9004:9020   */\n      swap1\n      pop\n        /* \"#utility.yul\":8949:9026   */\n      swap2\n      swap1\n      pop\n      jump\t// out\n        /* \"#utility.yul\":9032:9158   */\n    tag_284:\n        /* \"#utility.yul\":9069:9076   */\n      0x00\n        /* \"#utility.yul\":9109:9151   */\n      0xffffffffffffffffffffffffffffffffffffffff\n        /* \"#utility.yul\":9102:9107   */\n      dup3\n        /* \"#utility.yul\":9098:9152   */\n      and\n        /* \"#utility.yul\":9087:9152   */\n      swap1\n      pop\n        /* \"#utility.yul\":9032:9158   */\n      swap2\n      swap1\n      pop\n      jump\t// out\n        /* \"#utility.yul\":9164:9241   */\n    tag_245:\n        /* \"#utility.yul\":9201:9208   */\n      0x00\n        /* \"#utility.yul\":9230:9235   */\n      dup2\n        /* \"#utility.yul\":9219:9235   */\n      swap1\n      pop\n        /* \"#utility.yul\":9164:9241   */\n      swap2\n      swap1\n      pop\n      jump\t// out\n        /* \"#utility.yul\":9247:9480   */\n    tag_129:\n        /* \"#utility.yul\":9286:9289   */\n      0x00\n        /* \"#utility.yul\":9309:9333   */\n      tag_292\n        /* \"#utility.yul\":9327:9332   */\n      dup3\n        /* \"#utility.yul\":9309:9333   */\n      tag_245\n      jump\t// in\n    tag_292:\n        /* \"#utility.yul\":9300:9333   */\n      swap2\n      pop\n        /* \"#utility.yul\":9355:9421   */\n      0xffffffffffffffffffffffffffffffffffffffffffffffffffffffffffffffff\n        /* \"#utility.yul\":9348:9353   */\n      dup3\n        /* \"#utility.yul\":9345:9422   */\n      eq\n        /* \"#utility.yul\":9342:9445   */\n      iszero\n      tag_293\n      jumpi\n        /* \"#utility.yul\":9425:9443   */\n      tag_294\n      tag_276\n      jump\t// in\n    tag_294:\n        /* \"#utility.yul\":9342:9445   */\n    tag_293:\n        /* \"#utility.yul\":9472:9473   */\n      0x01\n        /* \"#utility.yul\":9465:9470   */\n      dup3\n        /* \"#utility.yul\":9461:9474   */\n      add\n        /* \"#utility.yul\":9454:9474   */\n      swap1\n      pop\n        /* \"#utility.yul\":9247:9480   */\n      swap2\n      swap1\n      pop\n      jump\t// out\n        /* \"#utility.yul\":9486:9581   */\n    tag_232:\n        /* \"#utility.yul\":9522:9529   */\n      0x00\n        /* \"#utility.yul\":9551:9575   */\n      tag_296\n        /* \"#utility.yul\":9569:9574   */\n      dup3\n        /* \"#utility.yul\":9551:9575   */\n      tag_297\n      jump\t// in\n    tag_296:\n        /* \"#utility.yul\":9540:9575   */\n      swap1\n      pop\n        /* \"#utility.yul\":9486:9581   */\n      swap2\n      swap1\n      pop\n      jump\t// out\n        /* \"#utility.yul\":9587:9666   */\n    tag_241:\n        /* \"#utility.yul\":9626:9633   */\n      0x00\n        /* \"#utility.yul\":9655:9660   */\n      dup2\n        /* \"#utility.yul\":9644:9660   */\n      swap1\n      pop\n        /* \"#utility.yul\":9587:9666   */\n      swap2\n      swap1\n      pop\n      jump\t// out\n        /* \"#utility.yul\":9672:9751   */\n    tag_250:\n        /* \"#utility.yul\":9711:9718   */\n      0x00\n        /* \"#utility.yul\":9740:9745   */\n      dup2\n        /* \"#utility.yul\":9729:9745   */\n      swap1\n      pop\n        /* \"#utility.yul\":9672:9751   */\n      swap2\n      swap1\n      pop\n      jump\t// out\n        /* \"#utility.yul\":9757:9850   */\n    tag_297:\n        /* \"#utility.yul\":9794:9801   */\n      0x00\n        /* \"#utility.yul\":9823:9844   */\n      tag_301\n        /* \"#utility.yul\":9838:9843   */\n      dup3\n        /* \"#utility.yul\":9823:9844   */\n      tag_302\n      jump\t// in\n    tag_301:\n        /* \"#utility.yul\":9812:9844   */\n      swap1\n      pop\n        /* \"#utility.yul\":9757:9850   */\n      swap2\n      swap1\n      pop\n      jump\t// out\n        /* \"#utility.yul\":9856:10036   */\n    tag_276:\n        /* \"#utility.yul\":9904:9981   */\n      0x4e487b7100000000000000000000000000000000000000000000000000000000\n        /* \"#utility.yul\":9901:9902   */\n      0x00\n        /* \"#utility.yul\":9894:9982   */\n      mstore\n        /* \"#utility.yul\":10001:10005   */\n      0x11\n        /* \"#utility.yul\":9998:9999   */\n      0x04\n        /* \"#utility.yul\":9991:10006   */\n      mstore\n        /* \"#utility.yul\":10025:10029   */\n      0x24\n        /* \"#utility.yul\":10022:10023   */\n      0x00\n        /* \"#utility.yul\":10015:10030   */\n      revert\n        /* \"#utility.yul\":10042:10222   */\n    tag_107:\n        /* \"#utility.yul\":10090:10167   */\n      0x4e487b7100000000000000000000000000000000000000000000000000000000\n        /* \"#utility.yul\":10087:10088   */\n      0x00\n        /* \"#utility.yul\":10080:10168   */\n      mstore\n        /* \"#utility.yul\":10187:10191   */\n      0x32\n        /* \"#utility.yul\":10184:10185   */\n      0x04\n        /* \"#utility.yul\":10177:10192   */\n      mstore\n        /* \"#utility.yul\":10211:10215   */\n      0x24\n        /* \"#utility.yul\":10208:10209   */\n      0x00\n        /* \"#utility.yul\":10201:10216   */\n      revert\n        /* \"#utility.yul\":10228:10345   */\n    tag_157:\n        /* \"#utility.yul\":10337:10338   */\n      0x00\n        /* \"#utility.yul\":10334:10335   */\n      dup1\n        /* \"#utility.yul\":10327:10339   */\n      revert\n        /* \"#utility.yul\":10351:10468   */\n    tag_154:\n        /* \"#utility.yul\":10460:10461   */\n      0x00\n        /* \"#utility.yul\":10457:10458   */\n      dup1\n        /* \"#utility.yul\":10450:10462   */\n      revert\n        /* \"#utility.yul\":10474:10591   */\n    tag_160:\n        /* \"#utility.yul\":10583:10584   */\n      0x00\n        /* \"#utility.yul\":10580:10581   */\n      dup1\n        /* \"#utility.yul\":10573:10585   */\n      revert\n        /* \"#utility.yul\":10597:10714   */\n    tag_200:\n        /* \"#utility.yul\":10706:10707   */\n      0x00\n        /* \"#utility.yul\":10703:10704   */\n      dup1\n        /* \"#utility.yul\":10696:10708   */\n      revert\n        /* \"#utility.yul\":10720:10837   */\n    tag_192:\n        /* \"#utility.yul\":10829:10830   */\n      0x00\n        /* \"#utility.yul\":10826:10827   */\n      dup1\n        /* \"#utility.yul\":10819:10831   */\n      revert\n        /* \"#utility.yul\":10843:10939   */\n    tag_302:\n        /* \"#utility.yul\":10877:10885   */\n      0x00\n        /* \"#utility.yul\":10926:10931   */\n      dup2\n        /* \"#utility.yul\":10921:10924   */\n      0xf8\n        /* \"#utility.yul\":10917:10932   */\n      shl\n        /* \"#utility.yul\":10896:10932   */\n      swap1\n      pop\n        /* \"#utility.yul\":10843:10939   */\n      swap2\n      swap1\n      pop\n      jump\t// out\n        /* \"#utility.yul\":10945:11067   */\n    tag_149:\n        /* \"#utility.yul\":11018:11042   */\n      tag_312\n        /* \"#utility.yul\":11036:11041   */\n      dup2\n        /* \"#utility.yul\":11018:11042   */\n      tag_223\n      jump\t// in\n    tag_312:\n        /* \"#utility.yul\":11011:11016   */\n      dup2\n        /* \"#utility.yul\":11008:11043   */\n      eq\n        /* \"#utility.yul\":10998:11061   */\n      tag_313\n      jumpi\n        /* \"#utility.yul\":11057:11058   */\n      0x00\n        /* \"#utility.yul\":11054:11055   */\n      dup1\n        /* \"#utility.yul\":11047:11059   */\n      revert\n        /* \"#utility.yul\":10998:11061   */\n    tag_313:\n        /* \"#utility.yul\":10945:11067   */\n      pop\n      jump\t// out\n        /* \"#utility.yul\":11073:11189   */\n    tag_180:\n        /* \"#utility.yul\":11143:11164   */\n      tag_315\n        /* \"#utility.yul\":11158:11163   */\n      dup2\n        /* \"#utility.yul\":11143:11164   */\n      tag_227\n      jump\t// in\n    tag_315:\n        /* \"#utility.yul\":11136:11141   */\n      dup2\n        /* \"#utility.yul\":11133:11165   */\n      eq\n        /* \"#utility.yul\":11123:11183   */\n      tag_316\n      jumpi\n        /* \"#utility.yul\":11179:11180   */\n      0x00\n        /* \"#utility.yul\":11176:11177   */\n      dup1\n        /* \"#utility.yul\":11169:11181   */\n      revert\n        /* \"#utility.yul\":11123:11183   */\n    tag_316:\n        /* \"#utility.yul\":11073:11189   */\n      pop\n      jump\t// out\n        /* \"#utility.yul\":11195:11317   */\n    tag_184:\n        /* \"#utility.yul\":11268:11292   */\n      tag_318\n        /* \"#utility.yul\":11286:11291   */\n      dup2\n        /* \"#utility.yul\":11268:11292   */\n      tag_236\n      jump\t// in\n    tag_318:\n        /* \"#utility.yul\":11261:11266   */\n      dup2\n        /* \"#utility.yul\":11258:11293   */\n      eq\n        /* \"#utility.yul\":11248:11311   */\n      tag_319\n      jumpi\n        /* \"#utility.yul\":11307:11308   */\n      0x00\n        /* \"#utility.yul\":11304:11305   */\n      dup1\n        /* \"#utility.yul\":11297:11309   */\n      revert\n        /* \"#utility.yul\":11248:11311   */\n    tag_319:\n        /* \"#utility.yul\":11195:11317   */\n      pop\n      jump\t// out\n        /* \"#utility.yul\":11323:11445   */\n    tag_188:\n        /* \"#utility.yul\":11396:11420   */\n      tag_321\n        /* \"#utility.yul\":11414:11419   */\n      dup2\n        /* \"#utility.yul\":11396:11420   */\n      tag_245\n      jump\t// in\n    tag_321:\n        /* \"#utility.yul\":11389:11394   */\n      dup2\n        /* \"#utility.yul\":11386:11421   */\n      eq\n        /* \"#utility.yul\":11376:11439   */\n      tag_322\n      jumpi\n        /* \"#utility.yul\":11435:11436   */\n      0x00\n        /* \"#utility.yul\":11432:11433   */\n      dup1\n        /* \"#utility.yul\":11425:11437   */\n      revert\n        /* \"#utility.yul\":11376:11439   */\n    tag_322:\n        /* \"#utility.yul\":11323:11445   */\n      pop\n      jump\t// out\n\n    auxdata: 0xa26469706673582212206351f98accdf1b632fdc03ee435206f6a2e827eceefeb8cdd6852ae89d4ad10f64736f6c63430008070033\n}\n",
				"bytecode": {
					"linkReferences": {},
					"object": "60806040523480156200001157600080fd5b50604051620014eb380380620014eb8339818101604052810190620000379190620000e8565b806000806101000a81548173ffffffffffffffffffffffffffffffffffffffff021916908373ffffffffffffffffffffffffffffffffffffffff160217905550824262000085919062000144565b600181905550816001546200009b919062000144565b6002819055506000600681905550600060078190555050505062000247565b600081519050620000cb8162000213565b92915050565b600081519050620000e2816200022d565b92915050565b6000806000606084860312156200010457620001036200020e565b5b60006200011486828701620000d1565b93505060206200012786828701620000d1565b92505060406200013a86828701620000ba565b9150509250925092565b60006200015182620001d5565b91506200015e83620001d5565b9250827fffffffffffffffffffffffffffffffffffffffffffffffffffffffffffffffff03821115620001965762000195620001df565b5b828201905092915050565b6000620001ae82620001b5565b9050919050565b600073ffffffffffffffffffffffffffffffffffffffff82169050919050565b6000819050919050565b7f4e487b7100000000000000000000000000000000000000000000000000000000600052601160045260246000fd5b600080fd5b6200021e81620001a1565b81146200022a57600080fd5b50565b6200023881620001d5565b81146200024457600080fd5b50565b61129480620002576000396000f3fe6080604052600436106100a75760003560e01c8063900f080a11610064578063900f080a1461019957806391f90157146101c2578063957bb1e0146101ed578063a6e6647714610209578063acb902f614610234578063d57bde791461025f576100a7565b806301495c1c146100ac57806312fa6feb146100ea5780632a24f46c1461011557806338af3eed1461012c5780633ccfd60b14610157578063423b217f1461016e575b600080fd5b3480156100b857600080fd5b506100d360048036038101906100ce9190610d36565b61028a565b6040516100e1929190610fcb565b60405180910390f35b3480156100f657600080fd5b506100ff6102cb565b60405161010c9190610fb0565b60405180910390f35b34801561012157600080fd5b5061012a6102de565b005b34801561013857600080fd5b50610141610570565b60405161014e9190610f6c565b60405180910390f35b34801561016357600080fd5b5061016c610594565b005b34801561017a57600080fd5b50610183610671565b6040516101909190610ff4565b60405180910390f35b3480156101a557600080fd5b506101c060048036038101906101bb9190610d76565b610677565b005b3480156101ce57600080fd5b506101d7610951565b6040516101e49190610f51565b60405180910390f35b61020760048036038101906102029190610e57565b610977565b005b34801561021557600080fd5b5061021e610a55565b60405161022b9190610ff4565b60405180910390f35b34801561024057600080fd5b50610249610a5b565b6040516102569190610ff4565b60405180910390f35b34801561026b57600080fd5b50610274610a61565b6040516102819190610ff4565b60405180910390f35b600460205281600052604060002081815481106102a657600080fd5b9060005260206000209060020201600091509150508060000154908060010154905082565b600360009054906101000a900460ff1681565b60025480421161032557806040517f2a35a32400000000000000000000000000000000000000000000000000000000815260040161031c9190610ff4565b60405180910390fd5b600360009054906101000a900460ff161561036c576040517f61cfdcf800000000000000000000000000000000000000000000000000000000815260040160405180910390fd5b6000600754141561041357600560009054906101000a900473ffffffffffffffffffffffffffffffffffffffff1673ffffffffffffffffffffffffffffffffffffffff166108fc6006549081150290604051600060405180830381858888f193505050501580156103e1573d6000803e3d6000fd5b507fa0e92984607195c326795751263414ee1074526323552e694c90ef2b99ae3f2960405160405180910390a1610552565b600560009054906101000a900473ffffffffffffffffffffffffffffffffffffffff1673ffffffffffffffffffffffffffffffffffffffff166108fc60075460065461045f9190611065565b9081150290604051600060405180830381858888f1935050505015801561048a573d6000803e3d6000fd5b5060008054906101000a900473ffffffffffffffffffffffffffffffffffffffff1673ffffffffffffffffffffffffffffffffffffffff166108fc6007549081150290604051600060405180830381858888f193505050501580156104f3573d6000803e3d6000fd5b507fdaec4582d5d9595688c8c98545fdd1c696d41c6aeaeb636737e84ed2f5c00eda600560009054906101000a900473ffffffffffffffffffffffffffffffffffffffff16600754604051610549929190610f87565b60405180910390a15b6001600360006101000a81548160ff02191690831515021790555050565b60008054906101000a900473ffffffffffffffffffffffffffffffffffffffff1681565b6000600860003373ffffffffffffffffffffffffffffffffffffffff1673ffffffffffffffffffffffffffffffffffffffff168152602001908152602001600020549050600081111561066e576000600860003373ffffffffffffffffffffffffffffffffffffffff1673ffffffffffffffffffffffffffffffffffffffff168152602001908152602001600020819055503373ffffffffffffffffffffffffffffffffffffffff166108fc829081150290604051600060405180830381858888f1935050505015801561066c573d6000803e3d6000fd5b505b50565b60015481565b6001548042116106be57806040517f2a35a3240000000000000000000000000000000000000000000000000000000081526004016106b59190610ff4565b60405180910390fd5b60025480421061070557806040517f691e56820000000000000000000000000000000000000000000000000000000081526004016106fc9190610ff4565b60405180910390fd5b6000600460003373ffffffffffffffffffffffffffffffffffffffff1673ffffffffffffffffffffffffffffffffffffffff16815260200190815260200160002080549050905080898990501461075b57600080fd5b80878790501461076a57600080fd5b80858590501461077957600080fd5b600080600090505b828110156108fd576000600460003373ffffffffffffffffffffffffffffffffffffffff1673ffffffffffffffffffffffffffffffffffffffff16815260200190815260200160002082815481106107dc576107db6111ad565b5b9060005260206000209060020201905060008060008e8e86818110610804576108036111ad565b5b905060200201358d8d8781811061081e5761081d6111ad565b5b90506020020160208101906108339190610e2a565b8c8c88818110610846576108456111ad565b5b9050602002013592509250925082828260405160200161086893929190610f14565b6040516020818303038152906040528051906020012084600001541461089157505050506108ea565b8360010154866108a1919061100f565b9550811580156108b5575082846001015410155b156108d9576108c43384610a67565b156108d85782866108d59190611065565b95505b5b6000801b8460000181905550505050505b80806108f5906110fd565b915050610781565b503373ffffffffffffffffffffffffffffffffffffffff166108fc829081150290604051600060405180830381858888f19350505050158015610944573d6000803e3d6000fd5b5050505050505050505050565b600560009054906101000a900473ffffffffffffffffffffffffffffffffffffffff1681565b6001548042106109be57806040517f691e56820000000000000000000000000000000000000000000000000000000081526004016109b59190610ff4565b60405180910390fd5b600460003373ffffffffffffffffffffffffffffffffffffffff1673ffffffffffffffffffffffffffffffffffffffff1681526020019081526020016000206040518060400160405280848152602001348152509080600181540180825580915050600190039060005260206000209060020201600090919091909150600082015181600001556020820151816001015550505050565b60025481565b60075481565b60065481565b60006006548211158015610a7d57506007548211155b15610a8b5760009050610bda565b6006548211158015610a9e575060075482115b15610ab3578160078190555060009050610bda565b600073ffffffffffffffffffffffffffffffffffffffff16600560009054906101000a900473ffffffffffffffffffffffffffffffffffffffff1673ffffffffffffffffffffffffffffffffffffffff1614610b845760065460086000600560009054906101000a900473ffffffffffffffffffffffffffffffffffffffff1673ffffffffffffffffffffffffffffffffffffffff1673ffffffffffffffffffffffffffffffffffffffff1681526020019081526020016000206000828254610b7c919061100f565b925050819055505b6006546007819055508160068190555082600560006101000a81548173ffffffffffffffffffffffffffffffffffffffff021916908373ffffffffffffffffffffffffffffffffffffffff160217905550600190505b92915050565b600081359050610bef81611202565b92915050565b60008083601f840112610c0b57610c0a6111e1565b5b8235905067ffffffffffffffff811115610c2857610c276111dc565b5b602083019150836020820283011115610c4457610c436111e6565b5b9250929050565b60008083601f840112610c6157610c606111e1565b5b8235905067ffffffffffffffff811115610c7e57610c7d6111dc565b5b602083019150836020820283011115610c9a57610c996111e6565b5b9250929050565b60008083601f840112610cb757610cb66111e1565b5b8235905067ffffffffffffffff811115610cd457610cd36111dc565b5b602083019150836020820283011115610cf057610cef6111e6565b5b9250929050565b600081359050610d0681611219565b92915050565b600081359050610d1b81611230565b92915050565b600081359050610d3081611247565b92915050565b60008060408385031215610d4d57610d4c6111f0565b5b6000610d5b85828601610be0565b9250506020610d6c85828601610d21565b9150509250929050565b60008060008060008060608789031215610d9357610d926111f0565b5b600087013567ffffffffffffffff811115610db157610db06111eb565b5b610dbd89828a01610ca1565b9650965050602087013567ffffffffffffffff811115610de057610ddf6111eb565b5b610dec89828a01610bf5565b9450945050604087013567ffffffffffffffff811115610e0f57610e0e6111eb565b5b610e1b89828a01610c4b565b92509250509295509295509295565b600060208284031215610e4057610e3f6111f0565b5b6000610e4e84828501610cf7565b91505092915050565b600060208284031215610e6d57610e6c6111f0565b5b6000610e7b84828501610d0c565b91505092915050565b610e8d816110ab565b82525050565b610e9c81611099565b82525050565b610eab816110bd565b82525050565b610ec2610ebd826110bd565b611146565b82525050565b610ed1816110c9565b82525050565b610ee8610ee3826110c9565b611158565b82525050565b610ef7816110f3565b82525050565b610f0e610f09826110f3565b611162565b82525050565b6000610f208286610efd565b602082019150610f308285610eb1565b600182019150610f408284610ed7565b602082019150819050949350505050565b6000602082019050610f666000830184610e93565b92915050565b6000602082019050610f816000830184610e84565b92915050565b6000604082019050610f9c6000830185610e93565b610fa96020830184610eee565b9392505050565b6000602082019050610fc56000830184610ea2565b92915050565b6000604082019050610fe06000830185610ec8565b610fed6020830184610eee565b9392505050565b60006020820190506110096000830184610eee565b92915050565b600061101a826110f3565b9150611025836110f3565b9250827fffffffffffffffffffffffffffffffffffffffffffffffffffffffffffffffff0382111561105a5761105961117e565b5b828201905092915050565b6000611070826110f3565b915061107b836110f3565b92508282101561108e5761108d61117e565b5b828203905092915050565b60006110a4826110d3565b9050919050565b60006110b6826110d3565b9050919050565b60008115159050919050565b6000819050919050565b600073ffffffffffffffffffffffffffffffffffffffff82169050919050565b6000819050919050565b6000611108826110f3565b91507fffffffffffffffffffffffffffffffffffffffffffffffffffffffffffffffff82141561113b5761113a61117e565b5b600182019050919050565b60006111518261116c565b9050919050565b6000819050919050565b6000819050919050565b6000611177826111f5565b9050919050565b7f4e487b7100000000000000000000000000000000000000000000000000000000600052601160045260246000fd5b7f4e487b7100000000000000000000000000000000000000000000000000000000600052603260045260246000fd5b600080fd5b600080fd5b600080fd5b600080fd5b600080fd5b60008160f81b9050919050565b61120b81611099565b811461121657600080fd5b50565b611222816110bd565b811461122d57600080fd5b50565b611239816110c9565b811461124457600080fd5b50565b611250816110f3565b811461125b57600080fd5b5056fea26469706673582212206351f98accdf1b632fdc03ee435206f6a2e827eceefeb8cdd6852ae89d4ad10f64736f6c63430008070033",
					"opcodes": "PUSH1 0x80 PUSH1 0x40 MSTORE CALLVALUE DUP1 ISZERO PUSH3 0x11 JUMPI PUSH1 0x0 DUP1 REVERT JUMPDEST POP PUSH1 0x40 MLOAD PUSH3 0x14EB CODESIZE SUB DUP1 PUSH3 0x14EB DUP4 CODECOPY DUP2 DUP2 ADD PUSH1 0x40 MSTORE DUP2 ADD SWAP1 PUSH3 0x37 SWAP2 SWAP1 PUSH3 0xE8 JUMP JUMPDEST DUP1 PUSH1 0x0 DUP1 PUSH2 0x100 EXP DUP2 SLOAD DUP2 PUSH20 0xFFFFFFFFFFFFFFFFFFFFFFFFFFFFFFFFFFFFFFFF MUL NOT AND SWAP1 DUP4 PUSH20 0xFFFFFFFFFFFFFFFFFFFFFFFFFFFFFFFFFFFFFFFF AND MUL OR SWAP1 SSTORE POP DUP3 TIMESTAMP PUSH3 0x85 SWAP2 SWAP1 PUSH3 0x144 JUMP JUMPDEST PUSH1 0x1 DUP2 SWAP1 SSTORE POP DUP2 PUSH1 0x1 SLOAD PUSH3 0x9B SWAP2 SWAP1 PUSH3 0x144 JUMP JUMPDEST PUSH1 0x2 DUP2 SWAP1 SSTORE POP PUSH1 0x0 PUSH1 0x6 DUP2 SWAP1 SSTORE POP PUSH1 0x0 PUSH1 0x7 DUP2 SWAP1 SSTORE POP POP POP POP PUSH3 0x247 JUMP JUMPDEST PUSH1 0x0 DUP2 MLOAD SWAP1 POP PUSH3 0xCB DUP2 PUSH3 0x213 JUMP JUMPDEST SWAP3 SWAP2 POP POP JUMP JUMPDEST PUSH1 0x0 DUP2 MLOAD SWAP1 POP PUSH3 0xE2 DUP2 PUSH3 0x22D JUMP JUMPDEST SWAP3 SWAP2 POP POP JUMP JUMPDEST PUSH1 0x0 DUP1 PUSH1 0x0 PUSH1 0x60 DUP5 DUP7 SUB SLT ISZERO PUSH3 0x104 JUMPI PUSH3 0x103 PUSH3 0x20E JUMP JUMPDEST JUMPDEST PUSH1 0x0 PUSH3 0x114 DUP7 DUP3 DUP8 ADD PUSH3 0xD1 JUMP JUMPDEST SWAP4 POP POP PUSH1 0x20 PUSH3 0x127 DUP7 DUP3 DUP8 ADD PUSH3 0xD1 JUMP JUMPDEST SWAP3 POP POP PUSH1 0x40 PUSH3 0x13A DUP7 DUP3 DUP8 ADD PUSH3 0xBA JUMP JUMPDEST SWAP2 POP POP SWAP3 POP SWAP3 POP SWAP3 JUMP JUMPDEST PUSH1 0x0 PUSH3 0x151 DUP3 PUSH3 0x1D5 JUMP JUMPDEST SWAP2 POP PUSH3 0x15E DUP4 PUSH3 0x1D5 JUMP JUMPDEST SWAP3 POP DUP3 PUSH32 0xFFFFFFFFFFFFFFFFFFFFFFFFFFFFFFFFFFFFFFFFFFFFFFFFFFFFFFFFFFFFFFFF SUB DUP3 GT ISZERO PUSH3 0x196 JUMPI PUSH3 0x195 PUSH3 0x1DF JUMP JUMPDEST JUMPDEST DUP3 DUP3 ADD SWAP1 POP SWAP3 SWAP2 POP POP JUMP JUMPDEST PUSH1 0x0 PUSH3 0x1AE DUP3 PUSH3 0x1B5 JUMP JUMPDEST SWAP1 POP SWAP2 SWAP1 POP JUMP JUMPDEST PUSH1 0x0 PUSH20 0xFFFFFFFFFFFFFFFFFFFFFFFFFFFFFFFFFFFFFFFF DUP3 AND SWAP1 POP SWAP2 SWAP1 POP JUMP JUMPDEST PUSH1 0x0 DUP2 SWAP1 POP SWAP2 SWAP1 POP JUMP JUMPDEST PUSH32 0x4E487B7100000000000000000000000000000000000000000000000000000000 PUSH1 0x0 MSTORE PUSH1 0x11 PUSH1 0x4 MSTORE PUSH1 0x24 PUSH1 0x0 REVERT JUMPDEST PUSH1 0x0 DUP1 REVERT JUMPDEST PUSH3 0x21E DUP2 PUSH3 0x1A1 JUMP JUMPDEST DUP2 EQ PUSH3 0x22A JUMPI PUSH1 0x0 DUP1 REVERT JUMPDEST POP JUMP JUMPDEST PUSH3 0x238 DUP2 PUSH3 0x1D5 JUMP JUMPDEST DUP2 EQ PUSH3 0x244 JUMPI PUSH1 0x0 DUP1 REVERT JUMPDEST POP JUMP JUMPDEST PUSH2 0x1294 DUP1 PUSH3 0x257 PUSH1 0x0 CODECOPY PUSH1 0x0 RETURN INVALID PUSH1 0x80 PUSH1 0x40 MSTORE PUSH1 0x4 CALLDATASIZE LT PUSH2 0xA7 JUMPI PUSH1 0x0 CALLDATALOAD PUSH1 0xE0 SHR DUP1 PUSH4 0x900F080A GT PUSH2 0x64 JUMPI DUP1 PUSH4 0x900F080A EQ PUSH2 0x199 JUMPI DUP1 PUSH4 0x91F90157 EQ PUSH2 0x1C2 JUMPI DUP1 PUSH4 0x957BB1E0 EQ PUSH2 0x1ED JUMPI DUP1 PUSH4 0xA6E66477 EQ PUSH2 0x209 JUMPI DUP1 PUSH4 0xACB902F6 EQ PUSH2 0x234 JUMPI DUP1 PUSH4 0xD57BDE79 EQ PUSH2 0x25F JUMPI PUSH2 0xA7 JUMP JUMPDEST DUP1 PUSH4 0x1495C1C EQ PUSH2 0xAC JUMPI DUP1 PUSH4 0x12FA6FEB EQ PUSH2 0xEA JUMPI DUP1 PUSH4 0x2A24F46C EQ PUSH2 0x115 JUMPI DUP1 PUSH4 0x38AF3EED EQ PUSH2 0x12C JUMPI DUP1 PUSH4 0x3CCFD60B EQ PUSH2 0x157 JUMPI DUP1 PUSH4 0x423B217F EQ PUSH2 0x16E JUMPI JUMPDEST PUSH1 0x0 DUP1 REVERT JUMPDEST CALLVALUE DUP1 ISZERO PUSH2 0xB8 JUMPI PUSH1 0x0 DUP1 REVERT JUMPDEST POP PUSH2 0xD3 PUSH1 0x4 DUP1 CALLDATASIZE SUB DUP2 ADD SWAP1 PUSH2 0xCE SWAP2 SWAP1 PUSH2 0xD36 JUMP JUMPDEST PUSH2 0x28A JUMP JUMPDEST PUSH1 0x40 MLOAD PUSH2 0xE1 SWAP3 SWAP2 SWAP1 PUSH2 0xFCB JUMP JUMPDEST PUSH1 0x40 MLOAD DUP1 SWAP2 SUB SWAP1 RETURN JUMPDEST CALLVALUE DUP1 ISZERO PUSH2 0xF6 JUMPI PUSH1 0x0 DUP1 REVERT JUMPDEST POP PUSH2 0xFF PUSH2 0x2CB JUMP JUMPDEST PUSH1 0x40 MLOAD PUSH2 0x10C SWAP2 SWAP1 PUSH2 0xFB0 JUMP JUMPDEST PUSH1 0x40 MLOAD DUP1 SWAP2 SUB SWAP1 RETURN JUMPDEST CALLVALUE DUP1 ISZERO PUSH2 0x121 JUMPI PUSH1 0x0 DUP1 REVERT JUMPDEST POP PUSH2 0x12A PUSH2 0x2DE JUMP JUMPDEST STOP JUMPDEST CALLVALUE DUP1 ISZERO PUSH2 0x138 JUMPI PUSH1 0x0 DUP1 REVERT JUMPDEST POP PUSH2 0x141 PUSH2 0x570 JUMP JUMPDEST PUSH1 0x40 MLOAD PUSH2 0x14E SWAP2 SWAP1 PUSH2 0xF6C JUMP JUMPDEST PUSH1 0x40 MLOAD DUP1 SWAP2 SUB SWAP1 RETURN JUMPDEST CALLVALUE DUP1 ISZERO PUSH2 0x163 JUMPI PUSH1 0x0 DUP1 REVERT JUMPDEST POP PUSH2 0x16C PUSH2 0x594 JUMP JUMPDEST STOP JUMPDEST CALLVALUE DUP1 ISZERO PUSH2 0x17A JUMPI PUSH1 0x0 DUP1 REVERT JUMPDEST POP PUSH2 0x183 PUSH2 0x671 JUMP JUMPDEST PUSH1 0x40 MLOAD PUSH2 0x190 SWAP2 SWAP1 PUSH2 0xFF4 JUMP JUMPDEST PUSH1 0x40 MLOAD DUP1 SWAP2 SUB SWAP1 RETURN JUMPDEST CALLVALUE DUP1 ISZERO PUSH2 0x1A5 JUMPI PUSH1 0x0 DUP1 REVERT JUMPDEST POP PUSH2 0x1C0 PUSH1 0x4 DUP1 CALLDATASIZE SUB DUP2 ADD SWAP1 PUSH2 0x1BB SWAP2 SWAP1 PUSH2 0xD76 JUMP JUMPDEST PUSH2 0x677 JUMP JUMPDEST STOP JUMPDEST CALLVALUE DUP1 ISZERO PUSH2 0x1CE JUMPI PUSH1 0x0 DUP1 REVERT JUMPDEST POP PUSH2 0x1D7 PUSH2 0x951 JUMP JUMPDEST PUSH1 0x40 MLOAD PUSH2 0x1E4 SWAP2 SWAP1 PUSH2 0xF51 JUMP JUMPDEST PUSH1 0x40 MLOAD DUP1 SWAP2 SUB SWAP1 RETURN JUMPDEST PUSH2 0x207 PUSH1 0x4 DUP1 CALLDATASIZE SUB DUP2 ADD SWAP1 PUSH2 0x202 SWAP2 SWAP1 PUSH2 0xE57 JUMP JUMPDEST PUSH2 0x977 JUMP JUMPDEST STOP JUMPDEST CALLVALUE DUP1 ISZERO PUSH2 0x215 JUMPI PUSH1 0x0 DUP1 REVERT JUMPDEST POP PUSH2 0x21E PUSH2 0xA55 JUMP JUMPDEST PUSH1 0x40 MLOAD PUSH2 0x22B SWAP2 SWAP1 PUSH2 0xFF4 JUMP JUMPDEST PUSH1 0x40 MLOAD DUP1 SWAP2 SUB SWAP1 RETURN JUMPDEST CALLVALUE DUP1 ISZERO PUSH2 0x240 JUMPI PUSH1 0x0 DUP1 REVERT JUMPDEST POP PUSH2 0x249 PUSH2 0xA5B JUMP JUMPDEST PUSH1 0x40 MLOAD PUSH2 0x256 SWAP2 SWAP1 PUSH2 0xFF4 JUMP JUMPDEST PUSH1 0x40 MLOAD DUP1 SWAP2 SUB SWAP1 RETURN JUMPDEST CALLVALUE DUP1 ISZERO PUSH2 0x26B JUMPI PUSH1 0x0 DUP1 REVERT JUMPDEST POP PUSH2 0x274 PUSH2 0xA61 JUMP JUMPDEST PUSH1 0x40 MLOAD PUSH2 0x281 SWAP2 SWAP1 PUSH2 0xFF4 JUMP JUMPDEST PUSH1 0x40 MLOAD DUP1 SWAP2 SUB SWAP1 RETURN JUMPDEST PUSH1 0x4 PUSH1 0x20 MSTORE DUP2 PUSH1 0x0 MSTORE PUSH1 0x40 PUSH1 0x0 KECCAK256 DUP2 DUP2 SLOAD DUP2 LT PUSH2 0x2A6 JUMPI PUSH1 0x0 DUP1 REVERT JUMPDEST SWAP1 PUSH1 0x0 MSTORE PUSH1 0x20 PUSH1 0x0 KECCAK256 SWAP1 PUSH1 0x2 MUL ADD PUSH1 0x0 SWAP2 POP SWAP2 POP POP DUP1 PUSH1 0x0 ADD SLOAD SWAP1 DUP1 PUSH1 0x1 ADD SLOAD SWAP1 POP DUP3 JUMP JUMPDEST PUSH1 0x3 PUSH1 0x0 SWAP1 SLOAD SWAP1 PUSH2 0x100 EXP SWAP1 DIV PUSH1 0xFF AND DUP2 JUMP JUMPDEST PUSH1 0x2 SLOAD DUP1 TIMESTAMP GT PUSH2 0x325 JUMPI DUP1 PUSH1 0x40 MLOAD PUSH32 0x2A35A32400000000000000000000000000000000000000000000000000000000 DUP2 MSTORE PUSH1 0x4 ADD PUSH2 0x31C SWAP2 SWAP1 PUSH2 0xFF4 JUMP JUMPDEST PUSH1 0x40 MLOAD DUP1 SWAP2 SUB SWAP1 REVERT JUMPDEST PUSH1 0x3 PUSH1 0x0 SWAP1 SLOAD SWAP1 PUSH2 0x100 EXP SWAP1 DIV PUSH1 0xFF AND ISZERO PUSH2 0x36C JUMPI PUSH1 0x40 MLOAD PUSH32 0x61CFDCF800000000000000000000000000000000000000000000000000000000 DUP2 MSTORE PUSH1 0x4 ADD PUSH1 0x40 MLOAD DUP1 SWAP2 SUB SWAP1 REVERT JUMPDEST PUSH1 0x0 PUSH1 0x7 SLOAD EQ ISZERO PUSH2 0x413 JUMPI PUSH1 0x5 PUSH1 0x0 SWAP1 SLOAD SWAP1 PUSH2 0x100 EXP SWAP1 DIV PUSH20 0xFFFFFFFFFFFFFFFFFFFFFFFFFFFFFFFFFFFFFFFF AND PUSH20 0xFFFFFFFFFFFFFFFFFFFFFFFFFFFFFFFFFFFFFFFF AND PUSH2 0x8FC PUSH1 0x6 SLOAD SWAP1 DUP2 ISZERO MUL SWAP1 PUSH1 0x40 MLOAD PUSH1 0x0 PUSH1 0x40 MLOAD DUP1 DUP4 SUB DUP2 DUP6 DUP9 DUP9 CALL SWAP4 POP POP POP POP ISZERO DUP1 ISZERO PUSH2 0x3E1 JUMPI RETURNDATASIZE PUSH1 0x0 DUP1 RETURNDATACOPY RETURNDATASIZE PUSH1 0x0 REVERT JUMPDEST POP PUSH32 0xA0E92984607195C326795751263414EE1074526323552E694C90EF2B99AE3F29 PUSH1 0x40 MLOAD PUSH1 0x40 MLOAD DUP1 SWAP2 SUB SWAP1 LOG1 PUSH2 0x552 JUMP JUMPDEST PUSH1 0x5 PUSH1 0x0 SWAP1 SLOAD SWAP1 PUSH2 0x100 EXP SWAP1 DIV PUSH20 0xFFFFFFFFFFFFFFFFFFFFFFFFFFFFFFFFFFFFFFFF AND PUSH20 0xFFFFFFFFFFFFFFFFFFFFFFFFFFFFFFFFFFFFFFFF AND PUSH2 0x8FC PUSH1 0x7 SLOAD PUSH1 0x6 SLOAD PUSH2 0x45F SWAP2 SWAP1 PUSH2 0x1065 JUMP JUMPDEST SWAP1 DUP2 ISZERO MUL SWAP1 PUSH1 0x40 MLOAD PUSH1 0x0 PUSH1 0x40 MLOAD DUP1 DUP4 SUB DUP2 DUP6 DUP9 DUP9 CALL SWAP4 POP POP POP POP ISZERO DUP1 ISZERO PUSH2 0x48A JUMPI RETURNDATASIZE PUSH1 0x0 DUP1 RETURNDATACOPY RETURNDATASIZE PUSH1 0x0 REVERT JUMPDEST POP PUSH1 0x0 DUP1 SLOAD SWAP1 PUSH2 0x100 EXP SWAP1 DIV PUSH20 0xFFFFFFFFFFFFFFFFFFFFFFFFFFFFFFFFFFFFFFFF AND PUSH20 0xFFFFFFFFFFFFFFFFFFFFFFFFFFFFFFFFFFFFFFFF AND PUSH2 0x8FC PUSH1 0x7 SLOAD SWAP1 DUP2 ISZERO MUL SWAP1 PUSH1 0x40 MLOAD PUSH1 0x0 PUSH1 0x40 MLOAD DUP1 DUP4 SUB DUP2 DUP6 DUP9 DUP9 CALL SWAP4 POP POP POP POP ISZERO DUP1 ISZERO PUSH2 0x4F3 JUMPI RETURNDATASIZE PUSH1 0x0 DUP1 RETURNDATACOPY RETURNDATASIZE PUSH1 0x0 REVERT JUMPDEST POP PUSH32 0xDAEC4582D5D9595688C8C98545FDD1C696D41C6AEAEB636737E84ED2F5C00EDA PUSH1 0x5 PUSH1 0x0 SWAP1 SLOAD SWAP1 PUSH2 0x100 EXP SWAP1 DIV PUSH20 0xFFFFFFFFFFFFFFFFFFFFFFFFFFFFFFFFFFFFFFFF AND PUSH1 0x7 SLOAD PUSH1 0x40 MLOAD PUSH2 0x549 SWAP3 SWAP2 SWAP1 PUSH2 0xF87 JUMP JUMPDEST PUSH1 0x40 MLOAD DUP1 SWAP2 SUB SWAP1 LOG1 JUMPDEST PUSH1 0x1 PUSH1 0x3 PUSH1 0x0 PUSH2 0x100 EXP DUP2 SLOAD DUP2 PUSH1 0xFF MUL NOT AND SWAP1 DUP4 ISZERO ISZERO MUL OR SWAP1 SSTORE POP POP JUMP JUMPDEST PUSH1 0x0 DUP1 SLOAD SWAP1 PUSH2 0x100 EXP SWAP1 DIV PUSH20 0xFFFFFFFFFFFFFFFFFFFFFFFFFFFFFFFFFFFFFFFF AND DUP2 JUMP JUMPDEST PUSH1 0x0 PUSH1 0x8 PUSH1 0x0 CALLER PUSH20 0xFFFFFFFFFFFFFFFFFFFFFFFFFFFFFFFFFFFFFFFF AND PUSH20 0xFFFFFFFFFFFFFFFFFFFFFFFFFFFFFFFFFFFFFFFF AND DUP2 MSTORE PUSH1 0x20 ADD SWAP1 DUP2 MSTORE PUSH1 0x20 ADD PUSH1 0x0 KECCAK256 SLOAD SWAP1 POP PUSH1 0x0 DUP2 GT ISZERO PUSH2 0x66E JUMPI PUSH1 0x0 PUSH1 0x8 PUSH1 0x0 CALLER PUSH20 0xFFFFFFFFFFFFFFFFFFFFFFFFFFFFFFFFFFFFFFFF AND PUSH20 0xFFFFFFFFFFFFFFFFFFFFFFFFFFFFFFFFFFFFFFFF AND DUP2 MSTORE PUSH1 0x20 ADD SWAP1 DUP2 MSTORE PUSH1 0x20 ADD PUSH1 0x0 KECCAK256 DUP2 SWAP1 SSTORE POP CALLER PUSH20 0xFFFFFFFFFFFFFFFFFFFFFFFFFFFFFFFFFFFFFFFF AND PUSH2 0x8FC DUP3 SWAP1 DUP2 ISZERO MUL SWAP1 PUSH1 0x40 MLOAD PUSH1 0x0 PUSH1 0x40 MLOAD DUP1 DUP4 SUB DUP2 DUP6 DUP9 DUP9 CALL SWAP4 POP POP POP POP ISZERO DUP1 ISZERO PUSH2 0x66C JUMPI RETURNDATASIZE PUSH1 0x0 DUP1 RETURNDATACOPY RETURNDATASIZE PUSH1 0x0 REVERT JUMPDEST POP JUMPDEST POP JUMP JUMPDEST PUSH1 0x1 SLOAD DUP2 JUMP JUMPDEST PUSH1 0x1 SLOAD DUP1 TIMESTAMP GT PUSH2 0x6BE JUMPI DUP1 PUSH1 0x40 MLOAD PUSH32 0x2A35A32400000000000000000000000000000000000000000000000000000000 DUP2 MSTORE PUSH1 0x4 ADD PUSH2 0x6B5 SWAP2 SWAP1 PUSH2 0xFF4 JUMP JUMPDEST PUSH1 0x40 MLOAD DUP1 SWAP2 SUB SWAP1 REVERT JUMPDEST PUSH1 0x2 SLOAD DUP1 TIMESTAMP LT PUSH2 0x705 JUMPI DUP1 PUSH1 0x40 MLOAD PUSH32 0x691E568200000000000000000000000000000000000000000000000000000000 DUP2 MSTORE PUSH1 0x4 ADD PUSH2 0x6FC SWAP2 SWAP1 PUSH2 0xFF4 JUMP JUMPDEST PUSH1 0x40 MLOAD DUP1 SWAP2 SUB SWAP1 REVERT JUMPDEST PUSH1 0x0 PUSH1 0x4 PUSH1 0x0 CALLER PUSH20 0xFFFFFFFFFFFFFFFFFFFFFFFFFFFFFFFFFFFFFFFF AND PUSH20 0xFFFFFFFFFFFFFFFFFFFFFFFFFFFFFFFFFFFFFFFF AND DUP2 MSTORE PUSH1 0x20 ADD SWAP1 DUP2 MSTORE PUSH1 0x20 ADD PUSH1 0x0 KECCAK256 DUP1 SLOAD SWAP1 POP SWAP1 POP DUP1 DUP10 DUP10 SWAP1 POP EQ PUSH2 0x75B JUMPI PUSH1 0x0 DUP1 REVERT JUMPDEST DUP1 DUP8 DUP8 SWAP1 POP EQ PUSH2 0x76A JUMPI PUSH1 0x0 DUP1 REVERT JUMPDEST DUP1 DUP6 DUP6 SWAP1 POP EQ PUSH2 0x779 JUMPI PUSH1 0x0 DUP1 REVERT JUMPDEST PUSH1 0x0 DUP1 PUSH1 0x0 SWAP1 POP JUMPDEST DUP3 DUP2 LT ISZERO PUSH2 0x8FD JUMPI PUSH1 0x0 PUSH1 0x4 PUSH1 0x0 CALLER PUSH20 0xFFFFFFFFFFFFFFFFFFFFFFFFFFFFFFFFFFFFFFFF AND PUSH20 0xFFFFFFFFFFFFFFFFFFFFFFFFFFFFFFFFFFFFFFFF AND DUP2 MSTORE PUSH1 0x20 ADD SWAP1 DUP2 MSTORE PUSH1 0x20 ADD PUSH1 0x0 KECCAK256 DUP3 DUP2 SLOAD DUP2 LT PUSH2 0x7DC JUMPI PUSH2 0x7DB PUSH2 0x11AD JUMP JUMPDEST JUMPDEST SWAP1 PUSH1 0x0 MSTORE PUSH1 0x20 PUSH1 0x0 KECCAK256 SWAP1 PUSH1 0x2 MUL ADD SWAP1 POP PUSH1 0x0 DUP1 PUSH1 0x0 DUP15 DUP15 DUP7 DUP2 DUP2 LT PUSH2 0x804 JUMPI PUSH2 0x803 PUSH2 0x11AD JUMP JUMPDEST JUMPDEST SWAP1 POP PUSH1 0x20 MUL ADD CALLDATALOAD DUP14 DUP14 DUP8 DUP2 DUP2 LT PUSH2 0x81E JUMPI PUSH2 0x81D PUSH2 0x11AD JUMP JUMPDEST JUMPDEST SWAP1 POP PUSH1 0x20 MUL ADD PUSH1 0x20 DUP2 ADD SWAP1 PUSH2 0x833 SWAP2 SWAP1 PUSH2 0xE2A JUMP JUMPDEST DUP13 DUP13 DUP9 DUP2 DUP2 LT PUSH2 0x846 JUMPI PUSH2 0x845 PUSH2 0x11AD JUMP JUMPDEST JUMPDEST SWAP1 POP PUSH1 0x20 MUL ADD CALLDATALOAD SWAP3 POP SWAP3 POP SWAP3 POP DUP3 DUP3 DUP3 PUSH1 0x40 MLOAD PUSH1 0x20 ADD PUSH2 0x868 SWAP4 SWAP3 SWAP2 SWAP1 PUSH2 0xF14 JUMP JUMPDEST PUSH1 0x40 MLOAD PUSH1 0x20 DUP2 DUP4 SUB SUB DUP2 MSTORE SWAP1 PUSH1 0x40 MSTORE DUP1 MLOAD SWAP1 PUSH1 0x20 ADD KECCAK256 DUP5 PUSH1 0x0 ADD SLOAD EQ PUSH2 0x891 JUMPI POP POP POP POP PUSH2 0x8EA JUMP JUMPDEST DUP4 PUSH1 0x1 ADD SLOAD DUP7 PUSH2 0x8A1 SWAP2 SWAP1 PUSH2 0x100F JUMP JUMPDEST SWAP6 POP DUP2 ISZERO DUP1 ISZERO PUSH2 0x8B5 JUMPI POP DUP3 DUP5 PUSH1 0x1 ADD SLOAD LT ISZERO JUMPDEST ISZERO PUSH2 0x8D9 JUMPI PUSH2 0x8C4 CALLER DUP5 PUSH2 0xA67 JUMP JUMPDEST ISZERO PUSH2 0x8D8 JUMPI DUP3 DUP7 PUSH2 0x8D5 SWAP2 SWAP1 PUSH2 0x1065 JUMP JUMPDEST SWAP6 POP JUMPDEST JUMPDEST PUSH1 0x0 DUP1 SHL DUP5 PUSH1 0x0 ADD DUP2 SWAP1 SSTORE POP POP POP POP POP JUMPDEST DUP1 DUP1 PUSH2 0x8F5 SWAP1 PUSH2 0x10FD JUMP JUMPDEST SWAP2 POP POP PUSH2 0x781 JUMP JUMPDEST POP CALLER PUSH20 0xFFFFFFFFFFFFFFFFFFFFFFFFFFFFFFFFFFFFFFFF AND PUSH2 0x8FC DUP3 SWAP1 DUP2 ISZERO MUL SWAP1 PUSH1 0x40 MLOAD PUSH1 0x0 PUSH1 0x40 MLOAD DUP1 DUP4 SUB DUP2 DUP6 DUP9 DUP9 CALL SWAP4 POP POP POP POP ISZERO DUP1 ISZERO PUSH2 0x944 JUMPI RETURNDATASIZE PUSH1 0x0 DUP1 RETURNDATACOPY RETURNDATASIZE PUSH1 0x0 REVERT JUMPDEST POP POP POP POP POP POP POP POP POP POP POP JUMP JUMPDEST PUSH1 0x5 PUSH1 0x0 SWAP1 SLOAD SWAP1 PUSH2 0x100 EXP SWAP1 DIV PUSH20 0xFFFFFFFFFFFFFFFFFFFFFFFFFFFFFFFFFFFFFFFF AND DUP2 JUMP JUMPDEST PUSH1 0x1 SLOAD DUP1 TIMESTAMP LT PUSH2 0x9BE JUMPI DUP1 PUSH1 0x40 MLOAD PUSH32 0x691E568200000000000000000000000000000000000000000000000000000000 DUP2 MSTORE PUSH1 0x4 ADD PUSH2 0x9B5 SWAP2 SWAP1 PUSH2 0xFF4 JUMP JUMPDEST PUSH1 0x40 MLOAD DUP1 SWAP2 SUB SWAP1 REVERT JUMPDEST PUSH1 0x4 PUSH1 0x0 CALLER PUSH20 0xFFFFFFFFFFFFFFFFFFFFFFFFFFFFFFFFFFFFFFFF AND PUSH20 0xFFFFFFFFFFFFFFFFFFFFFFFFFFFFFFFFFFFFFFFF AND DUP2 MSTORE PUSH1 0x20 ADD SWAP1 DUP2 MSTORE PUSH1 0x20 ADD PUSH1 0x0 KECCAK256 PUSH1 0x40 MLOAD DUP1 PUSH1 0x40 ADD PUSH1 0x40 MSTORE DUP1 DUP5 DUP2 MSTORE PUSH1 0x20 ADD CALLVALUE DUP2 MSTORE POP SWAP1 DUP1 PUSH1 0x1 DUP2 SLOAD ADD DUP1 DUP3 SSTORE DUP1 SWAP2 POP POP PUSH1 0x1 SWAP1 SUB SWAP1 PUSH1 0x0 MSTORE PUSH1 0x20 PUSH1 0x0 KECCAK256 SWAP1 PUSH1 0x2 MUL ADD PUSH1 0x0 SWAP1 SWAP2 SWAP1 SWAP2 SWAP1 SWAP2 POP PUSH1 0x0 DUP3 ADD MLOAD DUP2 PUSH1 0x0 ADD SSTORE PUSH1 0x20 DUP3 ADD MLOAD DUP2 PUSH1 0x1 ADD SSTORE POP POP POP POP JUMP JUMPDEST PUSH1 0x2 SLOAD DUP2 JUMP JUMPDEST PUSH1 0x7 SLOAD DUP2 JUMP JUMPDEST PUSH1 0x6 SLOAD DUP2 JUMP JUMPDEST PUSH1 0x0 PUSH1 0x6 SLOAD DUP3 GT ISZERO DUP1 ISZERO PUSH2 0xA7D JUMPI POP PUSH1 0x7 SLOAD DUP3 GT ISZERO JUMPDEST ISZERO PUSH2 0xA8B JUMPI PUSH1 0x0 SWAP1 POP PUSH2 0xBDA JUMP JUMPDEST PUSH1 0x6 SLOAD DUP3 GT ISZERO DUP1 ISZERO PUSH2 0xA9E JUMPI POP PUSH1 0x7 SLOAD DUP3 GT JUMPDEST ISZERO PUSH2 0xAB3 JUMPI DUP2 PUSH1 0x7 DUP2 SWAP1 SSTORE POP PUSH1 0x0 SWAP1 POP PUSH2 0xBDA JUMP JUMPDEST PUSH1 0x0 PUSH20 0xFFFFFFFFFFFFFFFFFFFFFFFFFFFFFFFFFFFFFFFF AND PUSH1 0x5 PUSH1 0x0 SWAP1 SLOAD SWAP1 PUSH2 0x100 EXP SWAP1 DIV PUSH20 0xFFFFFFFFFFFFFFFFFFFFFFFFFFFFFFFFFFFFFFFF AND PUSH20 0xFFFFFFFFFFFFFFFFFFFFFFFFFFFFFFFFFFFFFFFF AND EQ PUSH2 0xB84 JUMPI PUSH1 0x6 SLOAD PUSH1 0x8 PUSH1 0x0 PUSH1 0x5 PUSH1 0x0 SWAP1 SLOAD SWAP1 PUSH2 0x100 EXP SWAP1 DIV PUSH20 0xFFFFFFFFFFFFFFFFFFFFFFFFFFFFFFFFFFFFFFFF AND PUSH20 0xFFFFFFFFFFFFFFFFFFFFFFFFFFFFFFFFFFFFFFFF AND PUSH20 0xFFFFFFFFFFFFFFFFFFFFFFFFFFFFFFFFFFFFFFFF AND DUP2 MSTORE PUSH1 0x20 ADD SWAP1 DUP2 MSTORE PUSH1 0x20 ADD PUSH1 0x0 KECCAK256 PUSH1 0x0 DUP3 DUP3 SLOAD PUSH2 0xB7C SWAP2 SWAP1 PUSH2 0x100F JUMP JUMPDEST SWAP3 POP POP DUP2 SWAP1 SSTORE POP JUMPDEST PUSH1 0x6 SLOAD PUSH1 0x7 DUP2 SWAP1 SSTORE POP DUP2 PUSH1 0x6 DUP2 SWAP1 SSTORE POP DUP3 PUSH1 0x5 PUSH1 0x0 PUSH2 0x100 EXP DUP2 SLOAD DUP2 PUSH20 0xFFFFFFFFFFFFFFFFFFFFFFFFFFFFFFFFFFFFFFFF MUL NOT AND SWAP1 DUP4 PUSH20 0xFFFFFFFFFFFFFFFFFFFFFFFFFFFFFFFFFFFFFFFF AND MUL OR SWAP1 SSTORE POP PUSH1 0x1 SWAP1 POP JUMPDEST SWAP3 SWAP2 POP POP JUMP JUMPDEST PUSH1 0x0 DUP2 CALLDATALOAD SWAP1 POP PUSH2 0xBEF DUP2 PUSH2 0x1202 JUMP JUMPDEST SWAP3 SWAP2 POP POP JUMP JUMPDEST PUSH1 0x0 DUP1 DUP4 PUSH1 0x1F DUP5 ADD SLT PUSH2 0xC0B JUMPI PUSH2 0xC0A PUSH2 0x11E1 JUMP JUMPDEST JUMPDEST DUP3 CALLDATALOAD SWAP1 POP PUSH8 0xFFFFFFFFFFFFFFFF DUP2 GT ISZERO PUSH2 0xC28 JUMPI PUSH2 0xC27 PUSH2 0x11DC JUMP JUMPDEST JUMPDEST PUSH1 0x20 DUP4 ADD SWAP2 POP DUP4 PUSH1 0x20 DUP3 MUL DUP4 ADD GT ISZERO PUSH2 0xC44 JUMPI PUSH2 0xC43 PUSH2 0x11E6 JUMP JUMPDEST JUMPDEST SWAP3 POP SWAP3 SWAP1 POP JUMP JUMPDEST PUSH1 0x0 DUP1 DUP4 PUSH1 0x1F DUP5 ADD SLT PUSH2 0xC61 JUMPI PUSH2 0xC60 PUSH2 0x11E1 JUMP JUMPDEST JUMPDEST DUP3 CALLDATALOAD SWAP1 POP PUSH8 0xFFFFFFFFFFFFFFFF DUP2 GT ISZERO PUSH2 0xC7E JUMPI PUSH2 0xC7D PUSH2 0x11DC JUMP JUMPDEST JUMPDEST PUSH1 0x20 DUP4 ADD SWAP2 POP DUP4 PUSH1 0x20 DUP3 MUL DUP4 ADD GT ISZERO PUSH2 0xC9A JUMPI PUSH2 0xC99 PUSH2 0x11E6 JUMP JUMPDEST JUMPDEST SWAP3 POP SWAP3 SWAP1 POP JUMP JUMPDEST PUSH1 0x0 DUP1 DUP4 PUSH1 0x1F DUP5 ADD SLT PUSH2 0xCB7 JUMPI PUSH2 0xCB6 PUSH2 0x11E1 JUMP JUMPDEST JUMPDEST DUP3 CALLDATALOAD SWAP1 POP PUSH8 0xFFFFFFFFFFFFFFFF DUP2 GT ISZERO PUSH2 0xCD4 JUMPI PUSH2 0xCD3 PUSH2 0x11DC JUMP JUMPDEST JUMPDEST PUSH1 0x20 DUP4 ADD SWAP2 POP DUP4 PUSH1 0x20 DUP3 MUL DUP4 ADD GT ISZERO PUSH2 0xCF0 JUMPI PUSH2 0xCEF PUSH2 0x11E6 JUMP JUMPDEST JUMPDEST SWAP3 POP SWAP3 SWAP1 POP JUMP JUMPDEST PUSH1 0x0 DUP2 CALLDATALOAD SWAP1 POP PUSH2 0xD06 DUP2 PUSH2 0x1219 JUMP JUMPDEST SWAP3 SWAP2 POP POP JUMP JUMPDEST PUSH1 0x0 DUP2 CALLDATALOAD SWAP1 POP PUSH2 0xD1B DUP2 PUSH2 0x1230 JUMP JUMPDEST SWAP3 SWAP2 POP POP JUMP JUMPDEST PUSH1 0x0 DUP2 CALLDATALOAD SWAP1 POP PUSH2 0xD30 DUP2 PUSH2 0x1247 JUMP JUMPDEST SWAP3 SWAP2 POP POP JUMP JUMPDEST PUSH1 0x0 DUP1 PUSH1 0x40 DUP4 DUP6 SUB SLT ISZERO PUSH2 0xD4D JUMPI PUSH2 0xD4C PUSH2 0x11F0 JUMP JUMPDEST JUMPDEST PUSH1 0x0 PUSH2 0xD5B DUP6 DUP3 DUP7 ADD PUSH2 0xBE0 JUMP JUMPDEST SWAP3 POP POP PUSH1 0x20 PUSH2 0xD6C DUP6 DUP3 DUP7 ADD PUSH2 0xD21 JUMP JUMPDEST SWAP2 POP POP SWAP3 POP SWAP3 SWAP1 POP JUMP JUMPDEST PUSH1 0x0 DUP1 PUSH1 0x0 DUP1 PUSH1 0x0 DUP1 PUSH1 0x60 DUP8 DUP10 SUB SLT ISZERO PUSH2 0xD93 JUMPI PUSH2 0xD92 PUSH2 0x11F0 JUMP JUMPDEST JUMPDEST PUSH1 0x0 DUP8 ADD CALLDATALOAD PUSH8 0xFFFFFFFFFFFFFFFF DUP2 GT ISZERO PUSH2 0xDB1 JUMPI PUSH2 0xDB0 PUSH2 0x11EB JUMP JUMPDEST JUMPDEST PUSH2 0xDBD DUP10 DUP3 DUP11 ADD PUSH2 0xCA1 JUMP JUMPDEST SWAP7 POP SWAP7 POP POP PUSH1 0x20 DUP8 ADD CALLDATALOAD PUSH8 0xFFFFFFFFFFFFFFFF DUP2 GT ISZERO PUSH2 0xDE0 JUMPI PUSH2 0xDDF PUSH2 0x11EB JUMP JUMPDEST JUMPDEST PUSH2 0xDEC DUP10 DUP3 DUP11 ADD PUSH2 0xBF5 JUMP JUMPDEST SWAP5 POP SWAP5 POP POP PUSH1 0x40 DUP8 ADD CALLDATALOAD PUSH8 0xFFFFFFFFFFFFFFFF DUP2 GT ISZERO PUSH2 0xE0F JUMPI PUSH2 0xE0E PUSH2 0x11EB JUMP JUMPDEST JUMPDEST PUSH2 0xE1B DUP10 DUP3 DUP11 ADD PUSH2 0xC4B JUMP JUMPDEST SWAP3 POP SWAP3 POP POP SWAP3 SWAP6 POP SWAP3 SWAP6 POP SWAP3 SWAP6 JUMP JUMPDEST PUSH1 0x0 PUSH1 0x20 DUP3 DUP5 SUB SLT ISZERO PUSH2 0xE40 JUMPI PUSH2 0xE3F PUSH2 0x11F0 JUMP JUMPDEST JUMPDEST PUSH1 0x0 PUSH2 0xE4E DUP5 DUP3 DUP6 ADD PUSH2 0xCF7 JUMP JUMPDEST SWAP2 POP POP SWAP3 SWAP2 POP POP JUMP JUMPDEST PUSH1 0x0 PUSH1 0x20 DUP3 DUP5 SUB SLT ISZERO PUSH2 0xE6D JUMPI PUSH2 0xE6C PUSH2 0x11F0 JUMP JUMPDEST JUMPDEST PUSH1 0x0 PUSH2 0xE7B DUP5 DUP3 DUP6 ADD PUSH2 0xD0C JUMP JUMPDEST SWAP2 POP POP SWAP3 SWAP2 POP POP JUMP JUMPDEST PUSH2 0xE8D DUP2 PUSH2 0x10AB JUMP JUMPDEST DUP3 MSTORE POP POP JUMP JUMPDEST PUSH2 0xE9C DUP2 PUSH2 0x1099 JUMP JUMPDEST DUP3 MSTORE POP POP JUMP JUMPDEST PUSH2 0xEAB DUP2 PUSH2 0x10BD JUMP JUMPDEST DUP3 MSTORE POP POP JUMP JUMPDEST PUSH2 0xEC2 PUSH2 0xEBD DUP3 PUSH2 0x10BD JUMP JUMPDEST PUSH2 0x1146 JUMP JUMPDEST DUP3 MSTORE POP POP JUMP JUMPDEST PUSH2 0xED1 DUP2 PUSH2 0x10C9 JUMP JUMPDEST DUP3 MSTORE POP POP JUMP JUMPDEST PUSH2 0xEE8 PUSH2 0xEE3 DUP3 PUSH2 0x10C9 JUMP JUMPDEST PUSH2 0x1158 JUMP JUMPDEST DUP3 MSTORE POP POP JUMP JUMPDEST PUSH2 0xEF7 DUP2 PUSH2 0x10F3 JUMP JUMPDEST DUP3 MSTORE POP POP JUMP JUMPDEST PUSH2 0xF0E PUSH2 0xF09 DUP3 PUSH2 0x10F3 JUMP JUMPDEST PUSH2 0x1162 JUMP JUMPDEST DUP3 MSTORE POP POP JUMP JUMPDEST PUSH1 0x0 PUSH2 0xF20 DUP3 DUP7 PUSH2 0xEFD JUMP JUMPDEST PUSH1 0x20 DUP3 ADD SWAP2 POP PUSH2 0xF30 DUP3 DUP6 PUSH2 0xEB1 JUMP JUMPDEST PUSH1 0x1 DUP3 ADD SWAP2 POP PUSH2 0xF40 DUP3 DUP5 PUSH2 0xED7 JUMP JUMPDEST PUSH1 0x20 DUP3 ADD SWAP2 POP DUP2 SWAP1 POP SWAP5 SWAP4 POP POP POP POP JUMP JUMPDEST PUSH1 0x0 PUSH1 0x20 DUP3 ADD SWAP1 POP PUSH2 0xF66 PUSH1 0x0 DUP4 ADD DUP5 PUSH2 0xE93 JUMP JUMPDEST SWAP3 SWAP2 POP POP JUMP JUMPDEST PUSH1 0x0 PUSH1 0x20 DUP3 ADD SWAP1 POP PUSH2 0xF81 PUSH1 0x0 DUP4 ADD DUP5 PUSH2 0xE84 JUMP JUMPDEST SWAP3 SWAP2 POP POP JUMP JUMPDEST PUSH1 0x0 PUSH1 0x40 DUP3 ADD SWAP1 POP PUSH2 0xF9C PUSH1 0x0 DUP4 ADD DUP6 PUSH2 0xE93 JUMP JUMPDEST PUSH2 0xFA9 PUSH1 0x20 DUP4 ADD DUP5 PUSH2 0xEEE JUMP JUMPDEST SWAP4 SWAP3 POP POP POP JUMP JUMPDEST PUSH1 0x0 PUSH1 0x20 DUP3 ADD SWAP1 POP PUSH2 0xFC5 PUSH1 0x0 DUP4 ADD DUP5 PUSH2 0xEA2 JUMP JUMPDEST SWAP3 SWAP2 POP POP JUMP JUMPDEST PUSH1 0x0 PUSH1 0x40 DUP3 ADD SWAP1 POP PUSH2 0xFE0 PUSH1 0x0 DUP4 ADD DUP6 PUSH2 0xEC8 JUMP JUMPDEST PUSH2 0xFED PUSH1 0x20 DUP4 ADD DUP5 PUSH2 0xEEE JUMP JUMPDEST SWAP4 SWAP3 POP POP POP JUMP JUMPDEST PUSH1 0x0 PUSH1 0x20 DUP3 ADD SWAP1 POP PUSH2 0x1009 PUSH1 0x0 DUP4 ADD DUP5 PUSH2 0xEEE JUMP JUMPDEST SWAP3 SWAP2 POP POP JUMP JUMPDEST PUSH1 0x0 PUSH2 0x101A DUP3 PUSH2 0x10F3 JUMP JUMPDEST SWAP2 POP PUSH2 0x1025 DUP4 PUSH2 0x10F3 JUMP JUMPDEST SWAP3 POP DUP3 PUSH32 0xFFFFFFFFFFFFFFFFFFFFFFFFFFFFFFFFFFFFFFFFFFFFFFFFFFFFFFFFFFFFFFFF SUB DUP3 GT ISZERO PUSH2 0x105A JUMPI PUSH2 0x1059 PUSH2 0x117E JUMP JUMPDEST JUMPDEST DUP3 DUP3 ADD SWAP1 POP SWAP3 SWAP2 POP POP JUMP JUMPDEST PUSH1 0x0 PUSH2 0x1070 DUP3 PUSH2 0x10F3 JUMP JUMPDEST SWAP2 POP PUSH2 0x107B DUP4 PUSH2 0x10F3 JUMP JUMPDEST SWAP3 POP DUP3 DUP3 LT ISZERO PUSH2 0x108E JUMPI PUSH2 0x108D PUSH2 0x117E JUMP JUMPDEST JUMPDEST DUP3 DUP3 SUB SWAP1 POP SWAP3 SWAP2 POP POP JUMP JUMPDEST PUSH1 0x0 PUSH2 0x10A4 DUP3 PUSH2 0x10D3 JUMP JUMPDEST SWAP1 POP SWAP2 SWAP1 POP JUMP JUMPDEST PUSH1 0x0 PUSH2 0x10B6 DUP3 PUSH2 0x10D3 JUMP JUMPDEST SWAP1 POP SWAP2 SWAP1 POP JUMP JUMPDEST PUSH1 0x0 DUP2 ISZERO ISZERO SWAP1 POP SWAP2 SWAP1 POP JUMP JUMPDEST PUSH1 0x0 DUP2 SWAP1 POP SWAP2 SWAP1 POP JUMP JUMPDEST PUSH1 0x0 PUSH20 0xFFFFFFFFFFFFFFFFFFFFFFFFFFFFFFFFFFFFFFFF DUP3 AND SWAP1 POP SWAP2 SWAP1 POP JUMP JUMPDEST PUSH1 0x0 DUP2 SWAP1 POP SWAP2 SWAP1 POP JUMP JUMPDEST PUSH1 0x0 PUSH2 0x1108 DUP3 PUSH2 0x10F3 JUMP JUMPDEST SWAP2 POP PUSH32 0xFFFFFFFFFFFFFFFFFFFFFFFFFFFFFFFFFFFFFFFFFFFFFFFFFFFFFFFFFFFFFFFF DUP3 EQ ISZERO PUSH2 0x113B JUMPI PUSH2 0x113A PUSH2 0x117E JUMP JUMPDEST JUMPDEST PUSH1 0x1 DUP3 ADD SWAP1 POP SWAP2 SWAP1 POP JUMP JUMPDEST PUSH1 0x0 PUSH2 0x1151 DUP3 PUSH2 0x116C JUMP JUMPDEST SWAP1 POP SWAP2 SWAP1 POP JUMP JUMPDEST PUSH1 0x0 DUP2 SWAP1 POP SWAP2 SWAP1 POP JUMP JUMPDEST PUSH1 0x0 DUP2 SWAP1 POP SWAP2 SWAP1 POP JUMP JUMPDEST PUSH1 0x0 PUSH2 0x1177 DUP3 PUSH2 0x11F5 JUMP JUMPDEST SWAP1 POP SWAP2 SWAP1 POP JUMP JUMPDEST PUSH32 0x4E487B7100000000000000000000000000000000000000000000000000000000 PUSH1 0x0 MSTORE PUSH1 0x11 PUSH1 0x4 MSTORE PUSH1 0x24 PUSH1 0x0 REVERT JUMPDEST PUSH32 0x4E487B7100000000000000000000000000000000000000000000000000000000 PUSH1 0x0 MSTORE PUSH1 0x32 PUSH1 0x4 MSTORE PUSH1 0x24 PUSH1 0x0 REVERT JUMPDEST PUSH1 0x0 DUP1 REVERT JUMPDEST PUSH1 0x0 DUP1 REVERT JUMPDEST PUSH1 0x0 DUP1 REVERT JUMPDEST PUSH1 0x0 DUP1 REVERT JUMPDEST PUSH1 0x0 DUP1 REVERT JUMPDEST PUSH1 0x0 DUP2 PUSH1 0xF8 SHL SWAP1 POP SWAP2 SWAP1 POP JUMP JUMPDEST PUSH2 0x120B DUP2 PUSH2 0x1099 JUMP JUMPDEST DUP2 EQ PUSH2 0x1216 JUMPI PUSH1 0x0 DUP1 REVERT JUMPDEST POP JUMP JUMPDEST PUSH2 0x1222 DUP2 PUSH2 0x10BD JUMP JUMPDEST DUP2 EQ PUSH2 0x122D JUMPI PUSH1 0x0 DUP1 REVERT JUMPDEST POP JUMP JUMPDEST PUSH2 0x1239 DUP2 PUSH2 0x10C9 JUMP JUMPDEST DUP2 EQ PUSH2 0x1244 JUMPI PUSH1 0x0 DUP1 REVERT JUMPDEST POP JUMP JUMPDEST PUSH2 0x1250 DUP2 PUSH2 0x10F3 JUMP JUMPDEST DUP2 EQ PUSH2 0x125B JUMPI PUSH1 0x0 DUP1 REVERT JUMPDEST POP JUMP INVALID LOG2 PUSH5 0x6970667358 0x22 SLT KECCAK256 PUSH4 0x51F98ACC 0xDF SHL PUSH4 0x2FDC03EE NUMBER MSTORE MOD 0xF6 LOG2 0xE8 0x27 0xEC 0xEE INVALID 0xB8 0xCD 0xD6 DUP6 0x2A 0xE8 SWAP14 0x4A 0xD1 0xF PUSH5 0x736F6C6343 STOP ADDMOD SMOD STOP CALLER "
				},
				"gasEstimates": {
					"creation": {
						"codeDepositCost": "951200",
						"executionCost": "infinite",
						"totalCost": "infinite"
					},
					"external": {
						"auctionEnd()": "infinite",
						"beneficiary()": "2578",
						"bid(bytes32)": "71277",
						"biddingEnd()": "2540",
						"bids(address,uint256)": "infinite",
						"ended()": "2494",
						"highestBid()": "2539",
						"highestBidder()": "2536",
						"reveal(uint256[],bool[],bytes32[])": "infinite",
						"revealEnd()": "2495",
						"secondHighestBid()": "2517",
						"withdraw()": "infinite"
					},
					"internal": {
						"placeBid(address,uint256)": "infinite"
					}
				},
				"methodIdentifiers": {
					"auctionEnd()": "2a24f46c",
					"beneficiary()": "38af3eed",
					"bid(bytes32)": "957bb1e0",
					"biddingEnd()": "423b217f",
					"bids(address,uint256)": "01495c1c",
					"ended()": "12fa6feb",
					"highestBid()": "d57bde79",
					"highestBidder()": "91f90157",
					"reveal(uint256[],bool[],bytes32[])": "900f080a",
					"revealEnd()": "a6e66477",
					"secondHighestBid()": "acb902f6",
					"withdraw()": "3ccfd60b"
				}
			},
			"storageLayout": {
				"storage": [
					{
						"astId": 8,
						"contract": "BlindAuction.sol:BlindAuction",
						"label": "beneficiary",
						"offset": 0,
						"slot": "0",
						"type": "t_address_payable"
					},
					{
						"astId": 10,
						"contract": "BlindAuction.sol:BlindAuction",
						"label": "biddingEnd",
						"offset": 0,
						"slot": "1",
						"type": "t_uint256"
					},
					{
						"astId": 12,
						"contract": "BlindAuction.sol:BlindAuction",
						"label": "revealEnd",
						"offset": 0,
						"slot": "2",
						"type": "t_uint256"
					},
					{
						"astId": 14,
						"contract": "BlindAuction.sol:BlindAuction",
						"label": "ended",
						"offset": 0,
						"slot": "3",
						"type": "t_bool"
					},
					{
						"astId": 20,
						"contract": "BlindAuction.sol:BlindAuction",
						"label": "bids",
						"offset": 0,
						"slot": "4",
						"type": "t_mapping(t_address,t_array(t_struct(Bid)6_storage)dyn_storage)"
					},
					{
						"astId": 22,
						"contract": "BlindAuction.sol:BlindAuction",
						"label": "highestBidder",
						"offset": 0,
						"slot": "5",
						"type": "t_address"
					},
					{
						"astId": 24,
						"contract": "BlindAuction.sol:BlindAuction",
						"label": "highestBid",
						"offset": 0,
						"slot": "6",
						"type": "t_uint256"
					},
					{
						"astId": 26,
						"contract": "BlindAuction.sol:BlindAuction",
						"label": "secondHighestBid",
						"offset": 0,
						"slot": "7",
						"type": "t_uint256"
					},
					{
						"astId": 30,
						"contract": "BlindAuction.sol:BlindAuction",
						"label": "pendingReturns",
						"offset": 0,
						"slot": "8",
						"type": "t_mapping(t_address,t_uint256)"
					}
				],
				"types": {
					"t_address": {
						"encoding": "inplace",
						"label": "address",
						"numberOfBytes": "20"
					},
					"t_address_payable": {
						"encoding": "inplace",
						"label": "address payable",
						"numberOfBytes": "20"
					},
					"t_array(t_struct(Bid)6_storage)dyn_storage": {
						"base": "t_struct(Bid)6_storage",
						"encoding": "dynamic_array",
						"label": "struct BlindAuction.Bid[]",
						"numberOfBytes": "32"
					},
					"t_bool": {
						"encoding": "inplace",
						"label": "bool",
						"numberOfBytes": "1"
					},
					"t_bytes32": {
						"encoding": "inplace",
						"label": "bytes32",
						"numberOfBytes": "32"
					},
					"t_mapping(t_address,t_array(t_struct(Bid)6_storage)dyn_storage)": {
						"encoding": "mapping",
						"key": "t_address",
						"label": "mapping(address => struct BlindAuction.Bid[])",
						"numberOfBytes": "32",
						"value": "t_array(t_struct(Bid)6_storage)dyn_storage"
					},
					"t_mapping(t_address,t_uint256)": {
						"encoding": "mapping",
						"key": "t_address",
						"label": "mapping(address => uint256)",
						"numberOfBytes": "32",
						"value": "t_uint256"
					},
					"t_struct(Bid)6_storage": {
						"encoding": "inplace",
						"label": "struct BlindAuction.Bid",
						"members": [
							{
								"astId": 3,
								"contract": "BlindAuction.sol:BlindAuction",
								"label": "blindedBid",
								"offset": 0,
								"slot": "0",
								"type": "t_bytes32"
							},
							{
								"astId": 5,
								"contract": "BlindAuction.sol:BlindAuction",
								"label": "deposit",
								"offset": 0,
								"slot": "1",
								"type": "t_uint256"
							}
						],
						"numberOfBytes": "64"
					},
					"t_uint256": {
						"encoding": "inplace",
						"label": "uint256",
						"numberOfBytes": "32"
					}
				}
			},
			"userdoc": {
				"errors": {
					"AuctionEndAlreadyCalled()": [
						{
							"notice": "The function auctionEnd has already been called."
						}
					],
					"TooEarly(uint256)": [
						{
							"notice": "The function has been called too early. Try again at `time`."
						}
					],
					"TooLate(uint256)": [
						{
							"notice": "The function has been called too late. It cannot be called after `time`."
						}
					]
				},
				"kind": "user",
				"methods": {
					"auctionEnd()": {
						"notice": "End the auction and send the highest bid to the beneficiary."
					},
					"bid(bytes32)": {
						"notice": "Place a blinded bid with `blindedBid` = keccak256(abi.encodePacked(value, fake, secret)). The sent ether is only refunded if the bid is correctly revealed in the revealing phase. The bid is valid if the ether sent together with the bid is at least \"value\" and \"fake\" is not true. Setting \"fake\" to true and sending not the exact amount are ways to hide the real bid but still make the required deposit. The same address can place multiple bids."
					},
					"reveal(uint256[],bool[],bytes32[])": {
						"notice": "Reveal your blinded bids. You will get a refund for all correctly blinded invalid bids and for all bids except for the totally highest."
					},
					"withdraw()": {
						"notice": "Withdraw a bid that was overbid."
					}
				},
				"version": 1
			}
		}
	}
}