{
	"RockPaperScissors.sol": {
		"RockPaperScissors": {
			"abi": [
				{
					"inputs": [
						{
							"internalType": "address payable",
							"name": "userA_in",
							"type": "address"
						},
						{
							"internalType": "address payable",
							"name": "userB_in",
							"type": "address"
						},
						{
							"internalType": "uint256",
							"name": "pickDuration",
							"type": "uint256"
						},
						{
							"internalType": "uint256",
							"name": "revealDuration",
							"type": "uint256"
						}
					],
					"stateMutability": "payable",
					"type": "constructor"
				},
				{
					"inputs": [
						{
							"internalType": "uint256",
							"name": "time",
							"type": "uint256"
						}
					],
					"name": "TooEarly",
					"type": "error"
				},
				{
					"inputs": [
						{
							"internalType": "uint256",
							"name": "time",
							"type": "uint256"
						}
					],
					"name": "TooLate",
					"type": "error"
				},
				{
					"inputs": [],
					"name": "gamedEnded",
					"type": "error"
				},
				{
					"inputs": [],
					"name": "noRightToAnnounceTheResult",
					"type": "error"
				},
				{
					"inputs": [],
					"name": "noRightToPick",
					"type": "error"
				},
				{
					"inputs": [],
					"name": "noRightToReveal",
					"type": "error"
				},
				{
					"inputs": [],
					"name": "sameUserAddresses",
					"type": "error"
				},
				{
					"inputs": [],
					"name": "userAlreadyCommited",
					"type": "error"
				},
				{
					"inputs": [],
					"name": "userAlreadyRevealed",
					"type": "error"
				},
				{
					"inputs": [],
					"name": "wrongData",
					"type": "error"
				},
				{
					"anonymous": false,
					"inputs": [
						{
							"indexed": false,
							"internalType": "address",
							"name": "winner",
							"type": "address"
						}
					],
					"name": "announceWinner",
					"type": "event"
				},
				{
					"anonymous": false,
					"inputs": [],
					"name": "tie",
					"type": "event"
				},
				{
					"inputs": [],
					"name": "announceResult",
					"outputs": [],
					"stateMutability": "nonpayable",
					"type": "function"
				},
				{
					"inputs": [],
					"name": "ended",
					"outputs": [
						{
							"internalType": "bool",
							"name": "",
							"type": "bool"
						}
					],
					"stateMutability": "view",
					"type": "function"
				},
				{
					"inputs": [],
					"name": "hasPickedA",
					"outputs": [
						{
							"internalType": "bool",
							"name": "",
							"type": "bool"
						}
					],
					"stateMutability": "view",
					"type": "function"
				},
				{
					"inputs": [],
					"name": "hasPickedB",
					"outputs": [
						{
							"internalType": "bool",
							"name": "",
							"type": "bool"
						}
					],
					"stateMutability": "view",
					"type": "function"
				},
				{
					"inputs": [],
					"name": "hasRevealedA",
					"outputs": [
						{
							"internalType": "bool",
							"name": "",
							"type": "bool"
						}
					],
					"stateMutability": "view",
					"type": "function"
				},
				{
					"inputs": [],
					"name": "hasRevealedB",
					"outputs": [
						{
							"internalType": "bool",
							"name": "",
							"type": "bool"
						}
					],
					"stateMutability": "view",
					"type": "function"
				},
				{
					"inputs": [],
					"name": "manager",
					"outputs": [
						{
							"internalType": "address",
							"name": "",
							"type": "address"
						}
					],
					"stateMutability": "view",
					"type": "function"
				},
				{
					"inputs": [
						{
							"internalType": "bytes32",
							"name": "userPick",
							"type": "bytes32"
						}
					],
					"name": "pick",
					"outputs": [],
					"stateMutability": "nonpayable",
					"type": "function"
				},
				{
					"inputs": [],
					"name": "pickA",
					"outputs": [
						{
							"internalType": "bytes32",
							"name": "",
							"type": "bytes32"
						}
					],
					"stateMutability": "view",
					"type": "function"
				},
				{
					"inputs": [],
					"name": "pickB",
					"outputs": [
						{
							"internalType": "bytes32",
							"name": "",
							"type": "bytes32"
						}
					],
					"stateMutability": "view",
					"type": "function"
				},
				{
					"inputs": [],
					"name": "pickEnd",
					"outputs": [
						{
							"internalType": "uint256",
							"name": "",
							"type": "uint256"
						}
					],
					"stateMutability": "view",
					"type": "function"
				},
				{
					"inputs": [],
					"name": "prize",
					"outputs": [
						{
							"internalType": "uint256",
							"name": "",
							"type": "uint256"
						}
					],
					"stateMutability": "view",
					"type": "function"
				},
				{
					"inputs": [
						{
							"internalType": "string",
							"name": "pick",
							"type": "string"
						},
						{
							"internalType": "string",
							"name": "nonce",
							"type": "string"
						}
					],
					"name": "reveal",
					"outputs": [],
					"stateMutability": "nonpayable",
					"type": "function"
				},
				{
					"inputs": [],
					"name": "revealEnd",
					"outputs": [
						{
							"internalType": "uint256",
							"name": "",
							"type": "uint256"
						}
					],
					"stateMutability": "view",
					"type": "function"
				},
				{
					"inputs": [],
					"name": "userA",
					"outputs": [
						{
							"internalType": "address payable",
							"name": "",
							"type": "address"
						}
					],
					"stateMutability": "view",
					"type": "function"
				},
				{
					"inputs": [],
					"name": "userB",
					"outputs": [
						{
							"internalType": "address payable",
							"name": "",
							"type": "address"
						}
					],
					"stateMutability": "view",
					"type": "function"
				}
			],
			"devdoc": {
				"kind": "dev",
				"methods": {},
				"version": 1
			},
			"evm": {
				"assembly": "    /* \"RockPaperScissors.sol\":116:8891  contract RockPaperScissors {\r... */\n  mstore(0x40, 0x80)\n    /* \"RockPaperScissors.sol\":3263:3850  constructor(\r... */\n  mload(0x40)\n  sub(codesize, bytecodeSize)\n  dup1\n  bytecodeSize\n  dup4\n  codecopy\n  dup2\n  dup2\n  add\n  0x40\n  mstore\n  dup2\n  add\n  swap1\n  tag_1\n  swap2\n  swap1\n  tag_2\n  jump\t// in\ntag_1:\n    /* \"RockPaperScissors.sol\":3445:3453  userB_in */\n  dup3\n    /* \"RockPaperScissors.sol\":3433:3453  userA_in == userB_in */\n  0xffffffffffffffffffffffffffffffffffffffff\n  and\n    /* \"RockPaperScissors.sol\":3433:3441  userA_in */\n  dup5\n    /* \"RockPaperScissors.sol\":3433:3453  userA_in == userB_in */\n  0xffffffffffffffffffffffffffffffffffffffff\n  and\n  eq\n    /* \"RockPaperScissors.sol\":3429:3481  if (userA_in == userB_in) revert sameUserAddresses() */\n  iszero\n  tag_5\n  jumpi\n    /* \"RockPaperScissors.sol\":3462:3481  sameUserAddresses() */\n  mload(0x40)\n  0x422217da00000000000000000000000000000000000000000000000000000000\n  dup2\n  mstore\n  0x04\n  add\n  mload(0x40)\n  dup1\n  swap2\n  sub\n  swap1\n  revert\n    /* \"RockPaperScissors.sol\":3429:3481  if (userA_in == userB_in) revert sameUserAddresses() */\ntag_5:\n    /* \"RockPaperScissors.sol\":3500:3508  userA_in */\n  dup4\n    /* \"RockPaperScissors.sol\":3492:3497  userA */\n  0x00\n  dup1\n    /* \"RockPaperScissors.sol\":3492:3508  userA = userA_in */\n  0x0100\n  exp\n  dup2\n  sload\n  dup2\n  0xffffffffffffffffffffffffffffffffffffffff\n  mul\n  not\n  and\n  swap1\n  dup4\n  0xffffffffffffffffffffffffffffffffffffffff\n  and\n  mul\n  or\n  swap1\n  sstore\n  pop\n    /* \"RockPaperScissors.sol\":3527:3535  userB_in */\n  dup3\n    /* \"RockPaperScissors.sol\":3519:3524  userB */\n  0x01\n  0x00\n    /* \"RockPaperScissors.sol\":3519:3535  userB = userB_in */\n  0x0100\n  exp\n  dup2\n  sload\n  dup2\n  0xffffffffffffffffffffffffffffffffffffffff\n  mul\n  not\n  and\n  swap1\n  dup4\n  0xffffffffffffffffffffffffffffffffffffffff\n  and\n  mul\n  or\n  swap1\n  sstore\n  pop\n    /* \"RockPaperScissors.sol\":3556:3566  msg.sender */\n  caller\n    /* \"RockPaperScissors.sol\":3546:3553  manager */\n  0x02\n  0x00\n    /* \"RockPaperScissors.sol\":3546:3566  manager = msg.sender */\n  0x0100\n  exp\n  dup2\n  sload\n  dup2\n  0xffffffffffffffffffffffffffffffffffffffff\n  mul\n  not\n  and\n  swap1\n  dup4\n  0xffffffffffffffffffffffffffffffffffffffff\n  and\n  mul\n  or\n  swap1\n  sstore\n  pop\n    /* \"RockPaperScissors.sol\":3585:3594  msg.value */\n  callvalue\n    /* \"RockPaperScissors.sol\":3577:3582  prize */\n  0x05\n    /* \"RockPaperScissors.sol\":3577:3594  prize = msg.value */\n  dup2\n  swap1\n  sstore\n  pop\n    /* \"RockPaperScissors.sol\":3646:3648  60 */\n  0x3c\n    /* \"RockPaperScissors.sol\":3633:3645  pickDuration */\n  dup3\n    /* \"RockPaperScissors.sol\":3633:3648  pickDuration*60 */\n  tag_6\n  swap2\n  swap1\n  tag_7\n  jump\t// in\ntag_6:\n    /* \"RockPaperScissors.sol\":3615:3630  block.timestamp */\n  timestamp\n    /* \"RockPaperScissors.sol\":3615:3648  block.timestamp + pickDuration*60 */\n  tag_8\n  swap2\n  swap1\n  tag_9\n  jump\t// in\ntag_8:\n    /* \"RockPaperScissors.sol\":3605:3612  pickEnd */\n  0x03\n    /* \"RockPaperScissors.sol\":3605:3648  pickEnd = block.timestamp + pickDuration*60 */\n  dup2\n  swap1\n  sstore\n  pop\n    /* \"RockPaperScissors.sol\":3696:3698  60 */\n  0x3c\n    /* \"RockPaperScissors.sol\":3681:3695  revealDuration */\n  dup2\n    /* \"RockPaperScissors.sol\":3681:3698  revealDuration*60 */\n  tag_10\n  swap2\n  swap1\n  tag_7\n  jump\t// in\ntag_10:\n    /* \"RockPaperScissors.sol\":3671:3678  pickEnd */\n  sload(0x03)\n    /* \"RockPaperScissors.sol\":3671:3698  pickEnd + revealDuration*60 */\n  tag_11\n  swap2\n  swap1\n  tag_9\n  jump\t// in\ntag_11:\n    /* \"RockPaperScissors.sol\":3659:3668  revealEnd */\n  0x04\n    /* \"RockPaperScissors.sol\":3659:3698  revealEnd = pickEnd + revealDuration*60 */\n  dup2\n  swap1\n  sstore\n  pop\n    /* \"RockPaperScissors.sol\":3722:3727  false */\n  0x00\n    /* \"RockPaperScissors.sol\":3709:3719  hasPickedA */\n  0x06\n  0x00\n    /* \"RockPaperScissors.sol\":3709:3727  hasPickedA = false */\n  0x0100\n  exp\n  dup2\n  sload\n  dup2\n  0xff\n  mul\n  not\n  and\n  swap1\n  dup4\n  iszero\n  iszero\n  mul\n  or\n  swap1\n  sstore\n  pop\n    /* \"RockPaperScissors.sol\":3751:3756  false */\n  0x00\n    /* \"RockPaperScissors.sol\":3738:3748  hasPickedB */\n  0x06\n  0x01\n    /* \"RockPaperScissors.sol\":3738:3756  hasPickedB = false */\n  0x0100\n  exp\n  dup2\n  sload\n  dup2\n  0xff\n  mul\n  not\n  and\n  swap1\n  dup4\n  iszero\n  iszero\n  mul\n  or\n  swap1\n  sstore\n  pop\n    /* \"RockPaperScissors.sol\":3782:3787  false */\n  0x00\n    /* \"RockPaperScissors.sol\":3767:3779  hasRevealedA */\n  0x09\n  0x00\n    /* \"RockPaperScissors.sol\":3767:3787  hasRevealedA = false */\n  0x0100\n  exp\n  dup2\n  sload\n  dup2\n  0xff\n  mul\n  not\n  and\n  swap1\n  dup4\n  iszero\n  iszero\n  mul\n  or\n  swap1\n  sstore\n  pop\n    /* \"RockPaperScissors.sol\":3813:3818  false */\n  0x00\n    /* \"RockPaperScissors.sol\":3798:3810  hasRevealedB */\n  0x09\n  0x01\n    /* \"RockPaperScissors.sol\":3798:3818  hasRevealedB = false */\n  0x0100\n  exp\n  dup2\n  sload\n  dup2\n  0xff\n  mul\n  not\n  and\n  swap1\n  dup4\n  iszero\n  iszero\n  mul\n  or\n  swap1\n  sstore\n  pop\n    /* \"RockPaperScissors.sol\":3837:3842  false */\n  0x00\n    /* \"RockPaperScissors.sol\":3829:3834  ended */\n  0x0c\n  0x00\n    /* \"RockPaperScissors.sol\":3829:3842  ended = false */\n  0x0100\n  exp\n  dup2\n  sload\n  dup2\n  0xff\n  mul\n  not\n  and\n  swap1\n  dup4\n  iszero\n  iszero\n  mul\n  or\n  swap1\n  sstore\n  pop\n    /* \"RockPaperScissors.sol\":3263:3850  constructor(\r... */\n  pop\n  pop\n  pop\n  pop\n    /* \"RockPaperScissors.sol\":116:8891  contract RockPaperScissors {\r... */\n  jump(tag_12)\n    /* \"#utility.yul\":7:166   */\ntag_14:\n    /* \"#utility.yul\":72:77   */\n  0x00\n    /* \"#utility.yul\":103:109   */\n  dup2\n    /* \"#utility.yul\":97:110   */\n  mload\n    /* \"#utility.yul\":88:110   */\n  swap1\n  pop\n    /* \"#utility.yul\":119:160   */\n  tag_16\n    /* \"#utility.yul\":154:159   */\n  dup2\n    /* \"#utility.yul\":119:160   */\n  tag_17\n  jump\t// in\ntag_16:\n    /* \"#utility.yul\":7:166   */\n  swap3\n  swap2\n  pop\n  pop\n  jump\t// out\n    /* \"#utility.yul\":172:315   */\ntag_18:\n    /* \"#utility.yul\":229:234   */\n  0x00\n    /* \"#utility.yul\":260:266   */\n  dup2\n    /* \"#utility.yul\":254:267   */\n  mload\n    /* \"#utility.yul\":245:267   */\n  swap1\n  pop\n    /* \"#utility.yul\":276:309   */\n  tag_20\n    /* \"#utility.yul\":303:308   */\n  dup2\n    /* \"#utility.yul\":276:309   */\n  tag_21\n  jump\t// in\ntag_20:\n    /* \"#utility.yul\":172:315   */\n  swap3\n  swap2\n  pop\n  pop\n  jump\t// out\n    /* \"#utility.yul\":321:1173   */\ntag_2:\n    /* \"#utility.yul\":434:440   */\n  0x00\n    /* \"#utility.yul\":442:448   */\n  dup1\n    /* \"#utility.yul\":450:456   */\n  0x00\n    /* \"#utility.yul\":458:464   */\n  dup1\n    /* \"#utility.yul\":507:510   */\n  0x80\n    /* \"#utility.yul\":495:504   */\n  dup6\n    /* \"#utility.yul\":486:493   */\n  dup8\n    /* \"#utility.yul\":482:505   */\n  sub\n    /* \"#utility.yul\":478:511   */\n  slt\n    /* \"#utility.yul\":475:595   */\n  iszero\n  tag_23\n  jumpi\n    /* \"#utility.yul\":514:593   */\n  tag_24\n  tag_25\n  jump\t// in\ntag_24:\n    /* \"#utility.yul\":475:595   */\ntag_23:\n    /* \"#utility.yul\":634:635   */\n  0x00\n    /* \"#utility.yul\":659:731   */\n  tag_26\n    /* \"#utility.yul\":723:730   */\n  dup8\n    /* \"#utility.yul\":714:720   */\n  dup3\n    /* \"#utility.yul\":703:712   */\n  dup9\n    /* \"#utility.yul\":699:721   */\n  add\n    /* \"#utility.yul\":659:731   */\n  tag_14\n  jump\t// in\ntag_26:\n    /* \"#utility.yul\":649:731   */\n  swap5\n  pop\n    /* \"#utility.yul\":605:741   */\n  pop\n    /* \"#utility.yul\":780:782   */\n  0x20\n    /* \"#utility.yul\":806:878   */\n  tag_27\n    /* \"#utility.yul\":870:877   */\n  dup8\n    /* \"#utility.yul\":861:867   */\n  dup3\n    /* \"#utility.yul\":850:859   */\n  dup9\n    /* \"#utility.yul\":846:868   */\n  add\n    /* \"#utility.yul\":806:878   */\n  tag_14\n  jump\t// in\ntag_27:\n    /* \"#utility.yul\":796:878   */\n  swap4\n  pop\n    /* \"#utility.yul\":751:888   */\n  pop\n    /* \"#utility.yul\":927:929   */\n  0x40\n    /* \"#utility.yul\":953:1017   */\n  tag_28\n    /* \"#utility.yul\":1009:1016   */\n  dup8\n    /* \"#utility.yul\":1000:1006   */\n  dup3\n    /* \"#utility.yul\":989:998   */\n  dup9\n    /* \"#utility.yul\":985:1007   */\n  add\n    /* \"#utility.yul\":953:1017   */\n  tag_18\n  jump\t// in\ntag_28:\n    /* \"#utility.yul\":943:1017   */\n  swap3\n  pop\n    /* \"#utility.yul\":898:1027   */\n  pop\n    /* \"#utility.yul\":1066:1068   */\n  0x60\n    /* \"#utility.yul\":1092:1156   */\n  tag_29\n    /* \"#utility.yul\":1148:1155   */\n  dup8\n    /* \"#utility.yul\":1139:1145   */\n  dup3\n    /* \"#utility.yul\":1128:1137   */\n  dup9\n    /* \"#utility.yul\":1124:1146   */\n  add\n    /* \"#utility.yul\":1092:1156   */\n  tag_18\n  jump\t// in\ntag_29:\n    /* \"#utility.yul\":1082:1156   */\n  swap2\n  pop\n    /* \"#utility.yul\":1037:1166   */\n  pop\n    /* \"#utility.yul\":321:1173   */\n  swap3\n  swap6\n  swap2\n  swap5\n  pop\n  swap3\n  pop\n  jump\t// out\n    /* \"#utility.yul\":1260:1565   */\ntag_9:\n    /* \"#utility.yul\":1300:1303   */\n  0x00\n    /* \"#utility.yul\":1319:1339   */\n  tag_33\n    /* \"#utility.yul\":1337:1338   */\n  dup3\n    /* \"#utility.yul\":1319:1339   */\n  tag_34\n  jump\t// in\ntag_33:\n    /* \"#utility.yul\":1314:1339   */\n  swap2\n  pop\n    /* \"#utility.yul\":1353:1373   */\n  tag_35\n    /* \"#utility.yul\":1371:1372   */\n  dup4\n    /* \"#utility.yul\":1353:1373   */\n  tag_34\n  jump\t// in\ntag_35:\n    /* \"#utility.yul\":1348:1373   */\n  swap3\n  pop\n    /* \"#utility.yul\":1507:1508   */\n  dup3\n    /* \"#utility.yul\":1439:1505   */\n  0xffffffffffffffffffffffffffffffffffffffffffffffffffffffffffffffff\n    /* \"#utility.yul\":1435:1509   */\n  sub\n    /* \"#utility.yul\":1432:1433   */\n  dup3\n    /* \"#utility.yul\":1429:1510   */\n  gt\n    /* \"#utility.yul\":1426:1533   */\n  iszero\n  tag_36\n  jumpi\n    /* \"#utility.yul\":1513:1531   */\n  tag_37\n  tag_38\n  jump\t// in\ntag_37:\n    /* \"#utility.yul\":1426:1533   */\ntag_36:\n    /* \"#utility.yul\":1557:1558   */\n  dup3\n    /* \"#utility.yul\":1554:1555   */\n  dup3\n    /* \"#utility.yul\":1550:1559   */\n  add\n    /* \"#utility.yul\":1543:1559   */\n  swap1\n  pop\n    /* \"#utility.yul\":1260:1565   */\n  swap3\n  swap2\n  pop\n  pop\n  jump\t// out\n    /* \"#utility.yul\":1571:1919   */\ntag_7:\n    /* \"#utility.yul\":1611:1618   */\n  0x00\n    /* \"#utility.yul\":1634:1654   */\n  tag_40\n    /* \"#utility.yul\":1652:1653   */\n  dup3\n    /* \"#utility.yul\":1634:1654   */\n  tag_34\n  jump\t// in\ntag_40:\n    /* \"#utility.yul\":1629:1654   */\n  swap2\n  pop\n    /* \"#utility.yul\":1668:1688   */\n  tag_41\n    /* \"#utility.yul\":1686:1687   */\n  dup4\n    /* \"#utility.yul\":1668:1688   */\n  tag_34\n  jump\t// in\ntag_41:\n    /* \"#utility.yul\":1663:1688   */\n  swap3\n  pop\n    /* \"#utility.yul\":1856:1857   */\n  dup2\n    /* \"#utility.yul\":1788:1854   */\n  0xffffffffffffffffffffffffffffffffffffffffffffffffffffffffffffffff\n    /* \"#utility.yul\":1784:1858   */\n  div\n    /* \"#utility.yul\":1781:1782   */\n  dup4\n    /* \"#utility.yul\":1778:1859   */\n  gt\n    /* \"#utility.yul\":1773:1774   */\n  dup3\n    /* \"#utility.yul\":1766:1775   */\n  iszero\n    /* \"#utility.yul\":1759:1776   */\n  iszero\n    /* \"#utility.yul\":1755:1860   */\n  and\n    /* \"#utility.yul\":1752:1883   */\n  iszero\n  tag_42\n  jumpi\n    /* \"#utility.yul\":1863:1881   */\n  tag_43\n  tag_38\n  jump\t// in\ntag_43:\n    /* \"#utility.yul\":1752:1883   */\ntag_42:\n    /* \"#utility.yul\":1911:1912   */\n  dup3\n    /* \"#utility.yul\":1908:1909   */\n  dup3\n    /* \"#utility.yul\":1904:1913   */\n  mul\n    /* \"#utility.yul\":1893:1913   */\n  swap1\n  pop\n    /* \"#utility.yul\":1571:1919   */\n  swap3\n  swap2\n  pop\n  pop\n  jump\t// out\n    /* \"#utility.yul\":1925:2029   */\ntag_44:\n    /* \"#utility.yul\":1970:1977   */\n  0x00\n    /* \"#utility.yul\":1999:2023   */\n  tag_46\n    /* \"#utility.yul\":2017:2022   */\n  dup3\n    /* \"#utility.yul\":1999:2023   */\n  tag_47\n  jump\t// in\ntag_46:\n    /* \"#utility.yul\":1988:2023   */\n  swap1\n  pop\n    /* \"#utility.yul\":1925:2029   */\n  swap2\n  swap1\n  pop\n  jump\t// out\n    /* \"#utility.yul\":2035:2161   */\ntag_47:\n    /* \"#utility.yul\":2072:2079   */\n  0x00\n    /* \"#utility.yul\":2112:2154   */\n  0xffffffffffffffffffffffffffffffffffffffff\n    /* \"#utility.yul\":2105:2110   */\n  dup3\n    /* \"#utility.yul\":2101:2155   */\n  and\n    /* \"#utility.yul\":2090:2155   */\n  swap1\n  pop\n    /* \"#utility.yul\":2035:2161   */\n  swap2\n  swap1\n  pop\n  jump\t// out\n    /* \"#utility.yul\":2167:2244   */\ntag_34:\n    /* \"#utility.yul\":2204:2211   */\n  0x00\n    /* \"#utility.yul\":2233:2238   */\n  dup2\n    /* \"#utility.yul\":2222:2238   */\n  swap1\n  pop\n    /* \"#utility.yul\":2167:2244   */\n  swap2\n  swap1\n  pop\n  jump\t// out\n    /* \"#utility.yul\":2250:2430   */\ntag_38:\n    /* \"#utility.yul\":2298:2375   */\n  0x4e487b7100000000000000000000000000000000000000000000000000000000\n    /* \"#utility.yul\":2295:2296   */\n  0x00\n    /* \"#utility.yul\":2288:2376   */\n  mstore\n    /* \"#utility.yul\":2395:2399   */\n  0x11\n    /* \"#utility.yul\":2392:2393   */\n  0x04\n    /* \"#utility.yul\":2385:2400   */\n  mstore\n    /* \"#utility.yul\":2419:2423   */\n  0x24\n    /* \"#utility.yul\":2416:2417   */\n  0x00\n    /* \"#utility.yul\":2409:2424   */\n  revert\n    /* \"#utility.yul\":2559:2676   */\ntag_25:\n    /* \"#utility.yul\":2668:2669   */\n  0x00\n    /* \"#utility.yul\":2665:2666   */\n  dup1\n    /* \"#utility.yul\":2658:2670   */\n  revert\n    /* \"#utility.yul\":2682:2820   */\ntag_17:\n    /* \"#utility.yul\":2763:2795   */\n  tag_55\n    /* \"#utility.yul\":2789:2794   */\n  dup2\n    /* \"#utility.yul\":2763:2795   */\n  tag_44\n  jump\t// in\ntag_55:\n    /* \"#utility.yul\":2756:2761   */\n  dup2\n    /* \"#utility.yul\":2753:2796   */\n  eq\n    /* \"#utility.yul\":2743:2814   */\n  tag_56\n  jumpi\n    /* \"#utility.yul\":2810:2811   */\n  0x00\n    /* \"#utility.yul\":2807:2808   */\n  dup1\n    /* \"#utility.yul\":2800:2812   */\n  revert\n    /* \"#utility.yul\":2743:2814   */\ntag_56:\n    /* \"#utility.yul\":2682:2820   */\n  pop\n  jump\t// out\n    /* \"#utility.yul\":2826:2948   */\ntag_21:\n    /* \"#utility.yul\":2899:2923   */\n  tag_58\n    /* \"#utility.yul\":2917:2922   */\n  dup2\n    /* \"#utility.yul\":2899:2923   */\n  tag_34\n  jump\t// in\ntag_58:\n    /* \"#utility.yul\":2892:2897   */\n  dup2\n    /* \"#utility.yul\":2889:2924   */\n  eq\n    /* \"#utility.yul\":2879:2942   */\n  tag_59\n  jumpi\n    /* \"#utility.yul\":2938:2939   */\n  0x00\n    /* \"#utility.yul\":2935:2936   */\n  dup1\n    /* \"#utility.yul\":2928:2940   */\n  revert\n    /* \"#utility.yul\":2879:2942   */\ntag_59:\n    /* \"#utility.yul\":2826:2948   */\n  pop\n  jump\t// out\n    /* \"RockPaperScissors.sol\":116:8891  contract RockPaperScissors {\r... */\ntag_12:\n  dataSize(sub_0)\n  dup1\n  dataOffset(sub_0)\n  0x00\n  codecopy\n  0x00\n  return\nstop\n\nsub_0: assembly {\n        /* \"RockPaperScissors.sol\":116:8891  contract RockPaperScissors {\r... */\n      mstore(0x40, 0x80)\n      callvalue\n      dup1\n      iszero\n      tag_1\n      jumpi\n      0x00\n      dup1\n      revert\n    tag_1:\n      pop\n      jumpi(tag_2, lt(calldatasize, 0x04))\n      shr(0xe0, calldataload(0x00))\n      dup1\n      0xa28bfb3e\n      gt\n      tag_19\n      jumpi\n      dup1\n      0xdeb22e9a\n      gt\n      tag_20\n      jumpi\n      dup1\n      0xdeb22e9a\n      eq\n      tag_15\n      jumpi\n      dup1\n      0xe3ac5d26\n      eq\n      tag_16\n      jumpi\n      dup1\n      0xed873865\n      eq\n      tag_17\n      jumpi\n      dup1\n      0xf4e11bbe\n      eq\n      tag_18\n      jumpi\n      jump(tag_2)\n    tag_20:\n      dup1\n      0xa28bfb3e\n      eq\n      tag_11\n      jumpi\n      dup1\n      0xa64e3de8\n      eq\n      tag_12\n      jumpi\n      dup1\n      0xa6e66477\n      eq\n      tag_13\n      jumpi\n      dup1\n      0xcb1a295f\n      eq\n      tag_14\n      jumpi\n      jump(tag_2)\n    tag_19:\n      dup1\n      0x495717e2\n      gt\n      tag_21\n      jumpi\n      dup1\n      0x495717e2\n      eq\n      tag_7\n      jumpi\n      dup1\n      0x4d178640\n      eq\n      tag_8\n      jumpi\n      dup1\n      0x5ba1b2c7\n      eq\n      tag_9\n      jumpi\n      dup1\n      0x737ebe58\n      eq\n      tag_10\n      jumpi\n      jump(tag_2)\n    tag_21:\n      dup1\n      0x03c0f500\n      eq\n      tag_3\n      jumpi\n      dup1\n      0x12fa6feb\n      eq\n      tag_4\n      jumpi\n      dup1\n      0x3d4ffb93\n      eq\n      tag_5\n      jumpi\n      dup1\n      0x481c6a75\n      eq\n      tag_6\n      jumpi\n    tag_2:\n      0x00\n      dup1\n      revert\n        /* \"RockPaperScissors.sol\":771:795  bool public hasRevealedB */\n    tag_3:\n      tag_22\n      tag_23\n      jump\t// in\n    tag_22:\n      mload(0x40)\n      tag_24\n      swap2\n      swap1\n      tag_25\n      jump\t// in\n    tag_24:\n      mload(0x40)\n      dup1\n      swap2\n      sub\n      swap1\n      return\n        /* \"RockPaperScissors.sol\":935:952  bool public ended */\n    tag_4:\n      tag_26\n      tag_27\n      jump\t// in\n    tag_26:\n      mload(0x40)\n      tag_28\n      swap2\n      swap1\n      tag_25\n      jump\t// in\n    tag_28:\n      mload(0x40)\n      dup1\n      swap2\n      sub\n      swap1\n      return\n        /* \"RockPaperScissors.sol\":836:856  bytes32 public pickA */\n    tag_5:\n      tag_29\n      tag_30\n      jump\t// in\n    tag_29:\n      mload(0x40)\n      tag_31\n      swap2\n      swap1\n      tag_32\n      jump\t// in\n    tag_31:\n      mload(0x40)\n      dup1\n      swap2\n      sub\n      swap1\n      return\n        /* \"RockPaperScissors.sol\":267:289  address public manager */\n    tag_6:\n      tag_33\n      tag_34\n      jump\t// in\n    tag_33:\n      mload(0x40)\n      tag_35\n      swap2\n      swap1\n      tag_36\n      jump\t// in\n    tag_35:\n      mload(0x40)\n      dup1\n      swap2\n      sub\n      swap1\n      return\n        /* \"RockPaperScissors.sol\":863:883  bytes32 public pickB */\n    tag_7:\n      tag_37\n      tag_38\n      jump\t// in\n    tag_37:\n      mload(0x40)\n      tag_39\n      swap2\n      swap1\n      tag_32\n      jump\t// in\n    tag_39:\n      mload(0x40)\n      dup1\n      swap2\n      sub\n      swap1\n      return\n        /* \"RockPaperScissors.sol\":740:764  bool public hasRevealedA */\n    tag_8:\n      tag_40\n      tag_41\n      jump\t// in\n    tag_40:\n      mload(0x40)\n      tag_42\n      swap2\n      swap1\n      tag_25\n      jump\t// in\n    tag_42:\n      mload(0x40)\n      dup1\n      swap2\n      sub\n      swap1\n      return\n        /* \"RockPaperScissors.sol\":4336:4948  function reveal(string calldata pick, string calldata nonce) external\r... */\n    tag_9:\n      tag_43\n      0x04\n      dup1\n      calldatasize\n      sub\n      dup2\n      add\n      swap1\n      tag_44\n      swap2\n      swap1\n      tag_45\n      jump\t// in\n    tag_44:\n      tag_46\n      jump\t// in\n    tag_43:\n      stop\n        /* \"RockPaperScissors.sol\":546:568  bool public hasPickedB */\n    tag_10:\n      tag_47\n      tag_48\n      jump\t// in\n    tag_47:\n      mload(0x40)\n      tag_49\n      swap2\n      swap1\n      tag_25\n      jump\t// in\n    tag_49:\n      mload(0x40)\n      dup1\n      swap2\n      sub\n      swap1\n      return\n        /* \"RockPaperScissors.sol\":3925:4260  function pick(bytes32 userPick) external \r... */\n    tag_11:\n      tag_50\n      0x04\n      dup1\n      calldatasize\n      sub\n      dup2\n      add\n      swap1\n      tag_51\n      swap2\n      swap1\n      tag_52\n      jump\t// in\n    tag_51:\n      tag_53\n      jump\t// in\n    tag_50:\n      stop\n        /* \"RockPaperScissors.sol\":348:367  uint public pickEnd */\n    tag_12:\n      tag_54\n      tag_55\n      jump\t// in\n    tag_54:\n      mload(0x40)\n      tag_56\n      swap2\n      swap1\n      tag_57\n      jump\t// in\n    tag_56:\n      mload(0x40)\n      dup1\n      swap2\n      sub\n      swap1\n      return\n        /* \"RockPaperScissors.sol\":374:395  uint public revealEnd */\n    tag_13:\n      tag_58\n      tag_59\n      jump\t// in\n    tag_58:\n      mload(0x40)\n      tag_60\n      swap2\n      swap1\n      tag_57\n      jump\t// in\n    tag_60:\n      mload(0x40)\n      dup1\n      swap2\n      sub\n      swap1\n      return\n        /* \"RockPaperScissors.sol\":232:260  address payable public userB */\n    tag_14:\n      tag_61\n      tag_62\n      jump\t// in\n    tag_61:\n      mload(0x40)\n      tag_63\n      swap2\n      swap1\n      tag_64\n      jump\t// in\n    tag_63:\n      mload(0x40)\n      dup1\n      swap2\n      sub\n      swap1\n      return\n        /* \"RockPaperScissors.sol\":197:225  address payable public userA */\n    tag_15:\n      tag_65\n      tag_66\n      jump\t// in\n    tag_65:\n      mload(0x40)\n      tag_67\n      swap2\n      swap1\n      tag_64\n      jump\t// in\n    tag_67:\n      mload(0x40)\n      dup1\n      swap2\n      sub\n      swap1\n      return\n        /* \"RockPaperScissors.sol\":421:438  uint public prize */\n    tag_16:\n      tag_68\n      tag_69\n      jump\t// in\n    tag_68:\n      mload(0x40)\n      tag_70\n      swap2\n      swap1\n      tag_57\n      jump\t// in\n    tag_70:\n      mload(0x40)\n      dup1\n      swap2\n      sub\n      swap1\n      return\n        /* \"RockPaperScissors.sol\":517:539  bool public hasPickedA */\n    tag_17:\n      tag_71\n      tag_72\n      jump\t// in\n    tag_71:\n      mload(0x40)\n      tag_73\n      swap2\n      swap1\n      tag_25\n      jump\t// in\n    tag_73:\n      mload(0x40)\n      dup1\n      swap2\n      sub\n      swap1\n      return\n        /* \"RockPaperScissors.sol\":5074:8434  function announceResult() external \r... */\n    tag_18:\n      tag_74\n      tag_75\n      jump\t// in\n    tag_74:\n      stop\n        /* \"RockPaperScissors.sol\":771:795  bool public hasRevealedB */\n    tag_23:\n      0x09\n      0x01\n      swap1\n      sload\n      swap1\n      0x0100\n      exp\n      swap1\n      div\n      0xff\n      and\n      dup2\n      jump\t// out\n        /* \"RockPaperScissors.sol\":935:952  bool public ended */\n    tag_27:\n      0x0c\n      0x00\n      swap1\n      sload\n      swap1\n      0x0100\n      exp\n      swap1\n      div\n      0xff\n      and\n      dup2\n      jump\t// out\n        /* \"RockPaperScissors.sol\":836:856  bytes32 public pickA */\n    tag_30:\n      sload(0x0a)\n      dup2\n      jump\t// out\n        /* \"RockPaperScissors.sol\":267:289  address public manager */\n    tag_34:\n      0x02\n      0x00\n      swap1\n      sload\n      swap1\n      0x0100\n      exp\n      swap1\n      div\n      0xffffffffffffffffffffffffffffffffffffffff\n      and\n      dup2\n      jump\t// out\n        /* \"RockPaperScissors.sol\":863:883  bytes32 public pickB */\n    tag_38:\n      sload(0x0b)\n      dup2\n      jump\t// out\n        /* \"RockPaperScissors.sol\":740:764  bool public hasRevealedA */\n    tag_41:\n      0x09\n      0x00\n      swap1\n      sload\n      swap1\n      0x0100\n      exp\n      swap1\n      div\n      0xff\n      and\n      dup2\n      jump\t// out\n        /* \"RockPaperScissors.sol\":4336:4948  function reveal(string calldata pick, string calldata nonce) external\r... */\n    tag_46:\n        /* \"RockPaperScissors.sol\":4437:4447  msg.sender */\n      caller\n        /* \"RockPaperScissors.sol\":2680:2685  userA */\n      0x00\n      dup1\n      sload\n      swap1\n      0x0100\n      exp\n      swap1\n      div\n      0xffffffffffffffffffffffffffffffffffffffff\n      and\n        /* \"RockPaperScissors.sol\":2672:2685  user != userA */\n      0xffffffffffffffffffffffffffffffffffffffff\n      and\n        /* \"RockPaperScissors.sol\":2672:2676  user */\n      dup2\n        /* \"RockPaperScissors.sol\":2672:2685  user != userA */\n      0xffffffffffffffffffffffffffffffffffffffff\n      and\n      eq\n      iszero\n        /* \"RockPaperScissors.sol\":2672:2702  user != userA && user != userB */\n      dup1\n      iszero\n      tag_77\n      jumpi\n      pop\n        /* \"RockPaperScissors.sol\":2697:2702  userB */\n      0x01\n      0x00\n      swap1\n      sload\n      swap1\n      0x0100\n      exp\n      swap1\n      div\n      0xffffffffffffffffffffffffffffffffffffffff\n      and\n        /* \"RockPaperScissors.sol\":2689:2702  user != userB */\n      0xffffffffffffffffffffffffffffffffffffffff\n      and\n        /* \"RockPaperScissors.sol\":2689:2693  user */\n      dup2\n        /* \"RockPaperScissors.sol\":2689:2702  user != userB */\n      0xffffffffffffffffffffffffffffffffffffffff\n      and\n      eq\n      iszero\n        /* \"RockPaperScissors.sol\":2672:2702  user != userA && user != userB */\n    tag_77:\n        /* \"RockPaperScissors.sol\":2668:2728  if (user != userA && user != userB) revert noRightToReveal() */\n      iszero\n      tag_78\n      jumpi\n        /* \"RockPaperScissors.sol\":2711:2728  noRightToReveal() */\n      mload(0x40)\n      0xea42158000000000000000000000000000000000000000000000000000000000\n      dup2\n      mstore\n      0x04\n      add\n      mload(0x40)\n      dup1\n      swap2\n      sub\n      swap1\n      revert\n        /* \"RockPaperScissors.sol\":2668:2728  if (user != userA && user != userB) revert noRightToReveal() */\n    tag_78:\n        /* \"RockPaperScissors.sol\":2751:2756  userA */\n      0x00\n      dup1\n      sload\n      swap1\n      0x0100\n      exp\n      swap1\n      div\n      0xffffffffffffffffffffffffffffffffffffffff\n      and\n        /* \"RockPaperScissors.sol\":2743:2756  user == userA */\n      0xffffffffffffffffffffffffffffffffffffffff\n      and\n        /* \"RockPaperScissors.sol\":2743:2747  user */\n      dup2\n        /* \"RockPaperScissors.sol\":2743:2756  user == userA */\n      0xffffffffffffffffffffffffffffffffffffffff\n      and\n      eq\n        /* \"RockPaperScissors.sol\":2743:2780  user == userA && hasRevealedA == true */\n      dup1\n      iszero\n      tag_79\n      jumpi\n      pop\n        /* \"RockPaperScissors.sol\":2776:2780  true */\n      0x01\n        /* \"RockPaperScissors.sol\":2760:2780  hasRevealedA == true */\n      iszero\n      iszero\n        /* \"RockPaperScissors.sol\":2760:2772  hasRevealedA */\n      0x09\n      0x00\n      swap1\n      sload\n      swap1\n      0x0100\n      exp\n      swap1\n      div\n      0xff\n      and\n        /* \"RockPaperScissors.sol\":2760:2780  hasRevealedA == true */\n      iszero\n      iszero\n      eq\n        /* \"RockPaperScissors.sol\":2743:2780  user == userA && hasRevealedA == true */\n    tag_79:\n        /* \"RockPaperScissors.sol\":2739:2810  if (user == userA && hasRevealedA == true) revert userAlreadyRevealed() */\n      iszero\n      tag_80\n      jumpi\n        /* \"RockPaperScissors.sol\":2789:2810  userAlreadyRevealed() */\n      mload(0x40)\n      0xa981eebc00000000000000000000000000000000000000000000000000000000\n      dup2\n      mstore\n      0x04\n      add\n      mload(0x40)\n      dup1\n      swap2\n      sub\n      swap1\n      revert\n        /* \"RockPaperScissors.sol\":2739:2810  if (user == userA && hasRevealedA == true) revert userAlreadyRevealed() */\n    tag_80:\n        /* \"RockPaperScissors.sol\":2833:2838  userB */\n      0x01\n      0x00\n      swap1\n      sload\n      swap1\n      0x0100\n      exp\n      swap1\n      div\n      0xffffffffffffffffffffffffffffffffffffffff\n      and\n        /* \"RockPaperScissors.sol\":2825:2838  user == userB */\n      0xffffffffffffffffffffffffffffffffffffffff\n      and\n        /* \"RockPaperScissors.sol\":2825:2829  user */\n      dup2\n        /* \"RockPaperScissors.sol\":2825:2838  user == userB */\n      0xffffffffffffffffffffffffffffffffffffffff\n      and\n      eq\n        /* \"RockPaperScissors.sol\":2825:2862  user == userB && hasRevealedB == true */\n      dup1\n      iszero\n      tag_81\n      jumpi\n      pop\n        /* \"RockPaperScissors.sol\":2858:2862  true */\n      0x01\n        /* \"RockPaperScissors.sol\":2842:2862  hasRevealedB == true */\n      iszero\n      iszero\n        /* \"RockPaperScissors.sol\":2842:2854  hasRevealedB */\n      0x09\n      0x01\n      swap1\n      sload\n      swap1\n      0x0100\n      exp\n      swap1\n      div\n      0xff\n      and\n        /* \"RockPaperScissors.sol\":2842:2862  hasRevealedB == true */\n      iszero\n      iszero\n      eq\n        /* \"RockPaperScissors.sol\":2825:2862  user == userB && hasRevealedB == true */\n    tag_81:\n        /* \"RockPaperScissors.sol\":2821:2892  if (user == userB && hasRevealedB == true) revert userAlreadyRevealed() */\n      iszero\n      tag_82\n      jumpi\n        /* \"RockPaperScissors.sol\":2871:2892  userAlreadyRevealed() */\n      mload(0x40)\n      0xa981eebc00000000000000000000000000000000000000000000000000000000\n      dup2\n      mstore\n      0x04\n      add\n      mload(0x40)\n      dup1\n      swap2\n      sub\n      swap1\n      revert\n        /* \"RockPaperScissors.sol\":2821:2892  if (user == userB && hasRevealedB == true) revert userAlreadyRevealed() */\n    tag_82:\n        /* \"RockPaperScissors.sol\":4468:4475  pickEnd */\n      sload(0x03)\n        /* \"RockPaperScissors.sol\":3171:3175  time */\n      dup1\n        /* \"RockPaperScissors.sol\":3152:3167  block.timestamp */\n      timestamp\n        /* \"RockPaperScissors.sol\":3152:3175  block.timestamp <= time */\n      gt\n        /* \"RockPaperScissors.sol\":3148:3198  if (block.timestamp <= time) revert TooEarly(time) */\n      tag_84\n      jumpi\n        /* \"RockPaperScissors.sol\":3193:3197  time */\n      dup1\n        /* \"RockPaperScissors.sol\":3184:3198  TooEarly(time) */\n      mload(0x40)\n      0x2a35a32400000000000000000000000000000000000000000000000000000000\n      dup2\n      mstore\n      0x04\n      add\n      tag_85\n      swap2\n      swap1\n      tag_57\n      jump\t// in\n    tag_85:\n      mload(0x40)\n      dup1\n      swap2\n      sub\n      swap1\n      revert\n        /* \"RockPaperScissors.sol\":3148:3198  if (block.timestamp <= time) revert TooEarly(time) */\n    tag_84:\n        /* \"RockPaperScissors.sol\":4497:4506  revealEnd */\n      sload(0x04)\n        /* \"RockPaperScissors.sol\":3055:3059  time */\n      dup1\n        /* \"RockPaperScissors.sol\":3036:3051  block.timestamp */\n      timestamp\n        /* \"RockPaperScissors.sol\":3036:3059  block.timestamp >= time */\n      lt\n        /* \"RockPaperScissors.sol\":3032:3081  if (block.timestamp >= time) revert TooLate(time) */\n      tag_87\n      jumpi\n        /* \"RockPaperScissors.sol\":3076:3080  time */\n      dup1\n        /* \"RockPaperScissors.sol\":3068:3081  TooLate(time) */\n      mload(0x40)\n      0x691e568200000000000000000000000000000000000000000000000000000000\n      dup2\n      mstore\n      0x04\n      add\n      tag_88\n      swap2\n      swap1\n      tag_57\n      jump\t// in\n    tag_88:\n      mload(0x40)\n      dup1\n      swap2\n      sub\n      swap1\n      revert\n        /* \"RockPaperScissors.sol\":3032:3081  if (block.timestamp >= time) revert TooLate(time) */\n    tag_87:\n        /* \"RockPaperScissors.sol\":4539:4544  userA */\n      0x00\n      dup1\n      sload\n      swap1\n      0x0100\n      exp\n      swap1\n      div\n      0xffffffffffffffffffffffffffffffffffffffff\n      and\n        /* \"RockPaperScissors.sol\":4525:4544  msg.sender == userA */\n      0xffffffffffffffffffffffffffffffffffffffff\n      and\n        /* \"RockPaperScissors.sol\":4525:4535  msg.sender */\n      caller\n        /* \"RockPaperScissors.sol\":4525:4544  msg.sender == userA */\n      0xffffffffffffffffffffffffffffffffffffffff\n      and\n      eq\n        /* \"RockPaperScissors.sol\":4525:4566  msg.sender == userA && hasPickedA == true */\n      dup1\n      iszero\n      tag_90\n      jumpi\n      pop\n        /* \"RockPaperScissors.sol\":4562:4566  true */\n      0x01\n        /* \"RockPaperScissors.sol\":4548:4566  hasPickedA == true */\n      iszero\n      iszero\n        /* \"RockPaperScissors.sol\":4548:4558  hasPickedA */\n      0x06\n      0x00\n      swap1\n      sload\n      swap1\n      0x0100\n      exp\n      swap1\n      div\n      0xff\n      and\n        /* \"RockPaperScissors.sol\":4548:4566  hasPickedA == true */\n      iszero\n      iszero\n      eq\n        /* \"RockPaperScissors.sol\":4525:4566  msg.sender == userA && hasPickedA == true */\n    tag_90:\n        /* \"RockPaperScissors.sol\":4525:4625  msg.sender == userA && hasPickedA == true && commitmentA == keccak256(abi.encodePacked(pick, nonce)) */\n      dup1\n      iszero\n      tag_91\n      jumpi\n      pop\n        /* \"RockPaperScissors.sol\":4612:4616  pick */\n      dup7\n      dup7\n        /* \"RockPaperScissors.sol\":4618:4623  nonce */\n      dup7\n      dup7\n        /* \"RockPaperScissors.sol\":4595:4624  abi.encodePacked(pick, nonce) */\n      add(0x20, mload(0x40))\n      tag_92\n      swap5\n      swap4\n      swap3\n      swap2\n      swap1\n      tag_93\n      jump\t// in\n    tag_92:\n      mload(0x40)\n      0x20\n      dup2\n      dup4\n      sub\n      sub\n      dup2\n      mstore\n      swap1\n      0x40\n      mstore\n        /* \"RockPaperScissors.sol\":4585:4625  keccak256(abi.encodePacked(pick, nonce)) */\n      dup1\n      mload\n      swap1\n      0x20\n      add\n      keccak256\n        /* \"RockPaperScissors.sol\":4570:4581  commitmentA */\n      sload(0x07)\n        /* \"RockPaperScissors.sol\":4570:4625  commitmentA == keccak256(abi.encodePacked(pick, nonce)) */\n      eq\n        /* \"RockPaperScissors.sol\":4525:4625  msg.sender == userA && hasPickedA == true && commitmentA == keccak256(abi.encodePacked(pick, nonce)) */\n    tag_91:\n        /* \"RockPaperScissors.sol\":4521:4940  if (msg.sender == userA && hasPickedA == true && commitmentA == keccak256(abi.encodePacked(pick, nonce))) {\r... */\n      iszero\n      tag_94\n      jumpi\n        /* \"RockPaperScissors.sol\":4657:4661  true */\n      0x01\n        /* \"RockPaperScissors.sol\":4642:4654  hasRevealedA */\n      0x09\n      0x00\n        /* \"RockPaperScissors.sol\":4642:4661  hasRevealedA = true */\n      0x0100\n      exp\n      dup2\n      sload\n      dup2\n      0xff\n      mul\n      not\n      and\n      swap1\n      dup4\n      iszero\n      iszero\n      mul\n      or\n      swap1\n      sstore\n      pop\n        /* \"RockPaperScissors.sol\":4700:4704  pick */\n      dup7\n      dup7\n        /* \"RockPaperScissors.sol\":4684:4706  keccak256(bytes(pick)) */\n      mload(0x40)\n      tag_95\n      swap3\n      swap2\n      swap1\n      tag_96\n      jump\t// in\n    tag_95:\n      mload(0x40)\n      dup1\n      swap2\n      sub\n      swap1\n      keccak256\n        /* \"RockPaperScissors.sol\":4676:4681  pickA */\n      0x0a\n        /* \"RockPaperScissors.sol\":4676:4706  pickA = keccak256(bytes(pick)) */\n      dup2\n      swap1\n      sstore\n      pop\n        /* \"RockPaperScissors.sol\":4521:4940  if (msg.sender == userA && hasPickedA == true && commitmentA == keccak256(abi.encodePacked(pick, nonce))) {\r... */\n      jump(tag_97)\n    tag_94:\n        /* \"RockPaperScissors.sol\":4751:4755  true */\n      0x01\n        /* \"RockPaperScissors.sol\":4737:4755  hasPickedB == true */\n      iszero\n      iszero\n        /* \"RockPaperScissors.sol\":4737:4747  hasPickedB */\n      0x06\n      0x01\n      swap1\n      sload\n      swap1\n      0x0100\n      exp\n      swap1\n      div\n      0xff\n      and\n        /* \"RockPaperScissors.sol\":4737:4755  hasPickedB == true */\n      iszero\n      iszero\n      eq\n        /* \"RockPaperScissors.sol\":4737:4814  hasPickedB == true && commitmentB == keccak256(abi.encodePacked(pick, nonce)) */\n      dup1\n      iszero\n      tag_98\n      jumpi\n      pop\n        /* \"RockPaperScissors.sol\":4801:4805  pick */\n      dup7\n      dup7\n        /* \"RockPaperScissors.sol\":4807:4812  nonce */\n      dup7\n      dup7\n        /* \"RockPaperScissors.sol\":4784:4813  abi.encodePacked(pick, nonce) */\n      add(0x20, mload(0x40))\n      tag_99\n      swap5\n      swap4\n      swap3\n      swap2\n      swap1\n      tag_93\n      jump\t// in\n    tag_99:\n      mload(0x40)\n      0x20\n      dup2\n      dup4\n      sub\n      sub\n      dup2\n      mstore\n      swap1\n      0x40\n      mstore\n        /* \"RockPaperScissors.sol\":4774:4814  keccak256(abi.encodePacked(pick, nonce)) */\n      dup1\n      mload\n      swap1\n      0x20\n      add\n      keccak256\n        /* \"RockPaperScissors.sol\":4759:4770  commitmentB */\n      sload(0x08)\n        /* \"RockPaperScissors.sol\":4759:4814  commitmentB == keccak256(abi.encodePacked(pick, nonce)) */\n      eq\n        /* \"RockPaperScissors.sol\":4737:4814  hasPickedB == true && commitmentB == keccak256(abi.encodePacked(pick, nonce)) */\n    tag_98:\n        /* \"RockPaperScissors.sol\":4733:4940  if (hasPickedB == true && commitmentB == keccak256(abi.encodePacked(pick, nonce))) {\r... */\n      iszero\n      tag_100\n      jumpi\n        /* \"RockPaperScissors.sol\":4846:4850  true */\n      0x01\n        /* \"RockPaperScissors.sol\":4831:4843  hasRevealedB */\n      0x09\n      0x01\n        /* \"RockPaperScissors.sol\":4831:4850  hasRevealedB = true */\n      0x0100\n      exp\n      dup2\n      sload\n      dup2\n      0xff\n      mul\n      not\n      and\n      swap1\n      dup4\n      iszero\n      iszero\n      mul\n      or\n      swap1\n      sstore\n      pop\n        /* \"RockPaperScissors.sol\":4889:4893  pick */\n      dup7\n      dup7\n        /* \"RockPaperScissors.sol\":4873:4895  keccak256(bytes(pick)) */\n      mload(0x40)\n      tag_101\n      swap3\n      swap2\n      swap1\n      tag_96\n      jump\t// in\n    tag_101:\n      mload(0x40)\n      dup1\n      swap2\n      sub\n      swap1\n      keccak256\n        /* \"RockPaperScissors.sol\":4865:4870  pickB */\n      0x0b\n        /* \"RockPaperScissors.sol\":4865:4895  pickB = keccak256(bytes(pick)) */\n      dup2\n      swap1\n      sstore\n      pop\n        /* \"RockPaperScissors.sol\":4733:4940  if (hasPickedB == true && commitmentB == keccak256(abi.encodePacked(pick, nonce))) {\r... */\n      jump(tag_102)\n    tag_100:\n        /* \"RockPaperScissors.sol\":4929:4940  wrongData() */\n      mload(0x40)\n      0x6701de1400000000000000000000000000000000000000000000000000000000\n      dup2\n      mstore\n      0x04\n      add\n      mload(0x40)\n      dup1\n      swap2\n      sub\n      swap1\n      revert\n        /* \"RockPaperScissors.sol\":4733:4940  if (hasPickedB == true && commitmentB == keccak256(abi.encodePacked(pick, nonce))) {\r... */\n    tag_102:\n        /* \"RockPaperScissors.sol\":4521:4940  if (msg.sender == userA && hasPickedA == true && commitmentA == keccak256(abi.encodePacked(pick, nonce))) {\r... */\n    tag_97:\n        /* \"RockPaperScissors.sol\":3209:3210  _ */\n      pop\n        /* \"RockPaperScissors.sol\":2903:2904  _ */\n      pop\n        /* \"RockPaperScissors.sol\":4336:4948  function reveal(string calldata pick, string calldata nonce) external\r... */\n      pop\n      pop\n      pop\n      pop\n      pop\n      jump\t// out\n        /* \"RockPaperScissors.sol\":546:568  bool public hasPickedB */\n    tag_48:\n      0x06\n      0x01\n      swap1\n      sload\n      swap1\n      0x0100\n      exp\n      swap1\n      div\n      0xff\n      and\n      dup2\n      jump\t// out\n        /* \"RockPaperScissors.sol\":3925:4260  function pick(bytes32 userPick) external \r... */\n    tag_53:\n        /* \"RockPaperScissors.sol\":3996:4006  msg.sender */\n      caller\n        /* \"RockPaperScissors.sol\":2190:2195  userA */\n      0x00\n      dup1\n      sload\n      swap1\n      0x0100\n      exp\n      swap1\n      div\n      0xffffffffffffffffffffffffffffffffffffffff\n      and\n        /* \"RockPaperScissors.sol\":2182:2195  user != userA */\n      0xffffffffffffffffffffffffffffffffffffffff\n      and\n        /* \"RockPaperScissors.sol\":2182:2186  user */\n      dup2\n        /* \"RockPaperScissors.sol\":2182:2195  user != userA */\n      0xffffffffffffffffffffffffffffffffffffffff\n      and\n      eq\n      iszero\n        /* \"RockPaperScissors.sol\":2182:2212  user != userA && user != userB */\n      dup1\n      iszero\n      tag_104\n      jumpi\n      pop\n        /* \"RockPaperScissors.sol\":2207:2212  userB */\n      0x01\n      0x00\n      swap1\n      sload\n      swap1\n      0x0100\n      exp\n      swap1\n      div\n      0xffffffffffffffffffffffffffffffffffffffff\n      and\n        /* \"RockPaperScissors.sol\":2199:2212  user != userB */\n      0xffffffffffffffffffffffffffffffffffffffff\n      and\n        /* \"RockPaperScissors.sol\":2199:2203  user */\n      dup2\n        /* \"RockPaperScissors.sol\":2199:2212  user != userB */\n      0xffffffffffffffffffffffffffffffffffffffff\n      and\n      eq\n      iszero\n        /* \"RockPaperScissors.sol\":2182:2212  user != userA && user != userB */\n    tag_104:\n        /* \"RockPaperScissors.sol\":2178:2236  if (user != userA && user != userB) revert noRightToPick() */\n      iszero\n      tag_105\n      jumpi\n        /* \"RockPaperScissors.sol\":2221:2236  noRightToPick() */\n      mload(0x40)\n      0x5774d9a500000000000000000000000000000000000000000000000000000000\n      dup2\n      mstore\n      0x04\n      add\n      mload(0x40)\n      dup1\n      swap2\n      sub\n      swap1\n      revert\n        /* \"RockPaperScissors.sol\":2178:2236  if (user != userA && user != userB) revert noRightToPick() */\n    tag_105:\n        /* \"RockPaperScissors.sol\":2259:2264  userA */\n      0x00\n      dup1\n      sload\n      swap1\n      0x0100\n      exp\n      swap1\n      div\n      0xffffffffffffffffffffffffffffffffffffffff\n      and\n        /* \"RockPaperScissors.sol\":2251:2264  user == userA */\n      0xffffffffffffffffffffffffffffffffffffffff\n      and\n        /* \"RockPaperScissors.sol\":2251:2255  user */\n      dup2\n        /* \"RockPaperScissors.sol\":2251:2264  user == userA */\n      0xffffffffffffffffffffffffffffffffffffffff\n      and\n      eq\n        /* \"RockPaperScissors.sol\":2251:2286  user == userA && hasPickedA == true */\n      dup1\n      iszero\n      tag_106\n      jumpi\n      pop\n        /* \"RockPaperScissors.sol\":2282:2286  true */\n      0x01\n        /* \"RockPaperScissors.sol\":2268:2286  hasPickedA == true */\n      iszero\n      iszero\n        /* \"RockPaperScissors.sol\":2268:2278  hasPickedA */\n      0x06\n      0x00\n      swap1\n      sload\n      swap1\n      0x0100\n      exp\n      swap1\n      div\n      0xff\n      and\n        /* \"RockPaperScissors.sol\":2268:2286  hasPickedA == true */\n      iszero\n      iszero\n      eq\n        /* \"RockPaperScissors.sol\":2251:2286  user == userA && hasPickedA == true */\n    tag_106:\n        /* \"RockPaperScissors.sol\":2247:2316  if (user == userA && hasPickedA == true) revert userAlreadyCommited() */\n      iszero\n      tag_107\n      jumpi\n        /* \"RockPaperScissors.sol\":2295:2316  userAlreadyCommited() */\n      mload(0x40)\n      0xa245b07d00000000000000000000000000000000000000000000000000000000\n      dup2\n      mstore\n      0x04\n      add\n      mload(0x40)\n      dup1\n      swap2\n      sub\n      swap1\n      revert\n        /* \"RockPaperScissors.sol\":2247:2316  if (user == userA && hasPickedA == true) revert userAlreadyCommited() */\n    tag_107:\n        /* \"RockPaperScissors.sol\":2339:2344  userB */\n      0x01\n      0x00\n      swap1\n      sload\n      swap1\n      0x0100\n      exp\n      swap1\n      div\n      0xffffffffffffffffffffffffffffffffffffffff\n      and\n        /* \"RockPaperScissors.sol\":2331:2344  user == userB */\n      0xffffffffffffffffffffffffffffffffffffffff\n      and\n        /* \"RockPaperScissors.sol\":2331:2335  user */\n      dup2\n        /* \"RockPaperScissors.sol\":2331:2344  user == userB */\n      0xffffffffffffffffffffffffffffffffffffffff\n      and\n      eq\n        /* \"RockPaperScissors.sol\":2331:2366  user == userB && hasPickedB == true */\n      dup1\n      iszero\n      tag_108\n      jumpi\n      pop\n        /* \"RockPaperScissors.sol\":2362:2366  true */\n      0x01\n        /* \"RockPaperScissors.sol\":2348:2366  hasPickedB == true */\n      iszero\n      iszero\n        /* \"RockPaperScissors.sol\":2348:2358  hasPickedB */\n      0x06\n      0x01\n      swap1\n      sload\n      swap1\n      0x0100\n      exp\n      swap1\n      div\n      0xff\n      and\n        /* \"RockPaperScissors.sol\":2348:2366  hasPickedB == true */\n      iszero\n      iszero\n      eq\n        /* \"RockPaperScissors.sol\":2331:2366  user == userB && hasPickedB == true */\n    tag_108:\n        /* \"RockPaperScissors.sol\":2327:2396  if (user == userB && hasPickedB == true) revert userAlreadyCommited() */\n      iszero\n      tag_109\n      jumpi\n        /* \"RockPaperScissors.sol\":2375:2396  userAlreadyCommited() */\n      mload(0x40)\n      0xa245b07d00000000000000000000000000000000000000000000000000000000\n      dup2\n      mstore\n      0x04\n      add\n      mload(0x40)\n      dup1\n      swap2\n      sub\n      swap1\n      revert\n        /* \"RockPaperScissors.sol\":2327:2396  if (user == userB && hasPickedB == true) revert userAlreadyCommited() */\n    tag_109:\n        /* \"RockPaperScissors.sol\":4029:4036  pickEnd */\n      sload(0x03)\n        /* \"RockPaperScissors.sol\":3055:3059  time */\n      dup1\n        /* \"RockPaperScissors.sol\":3036:3051  block.timestamp */\n      timestamp\n        /* \"RockPaperScissors.sol\":3036:3059  block.timestamp >= time */\n      lt\n        /* \"RockPaperScissors.sol\":3032:3081  if (block.timestamp >= time) revert TooLate(time) */\n      tag_111\n      jumpi\n        /* \"RockPaperScissors.sol\":3076:3080  time */\n      dup1\n        /* \"RockPaperScissors.sol\":3068:3081  TooLate(time) */\n      mload(0x40)\n      0x691e568200000000000000000000000000000000000000000000000000000000\n      dup2\n      mstore\n      0x04\n      add\n      tag_112\n      swap2\n      swap1\n      tag_57\n      jump\t// in\n    tag_112:\n      mload(0x40)\n      dup1\n      swap2\n      sub\n      swap1\n      revert\n        /* \"RockPaperScissors.sol\":3032:3081  if (block.timestamp >= time) revert TooLate(time) */\n    tag_111:\n        /* \"RockPaperScissors.sol\":4069:4074  userA */\n      0x00\n      dup1\n      sload\n      swap1\n      0x0100\n      exp\n      swap1\n      div\n      0xffffffffffffffffffffffffffffffffffffffff\n      and\n        /* \"RockPaperScissors.sol\":4055:4074  msg.sender == userA */\n      0xffffffffffffffffffffffffffffffffffffffff\n      and\n        /* \"RockPaperScissors.sol\":4055:4065  msg.sender */\n      caller\n        /* \"RockPaperScissors.sol\":4055:4074  msg.sender == userA */\n      0xffffffffffffffffffffffffffffffffffffffff\n      and\n      eq\n        /* \"RockPaperScissors.sol\":4051:4253  if (msg.sender == userA) {\r... */\n      iszero\n      tag_114\n      jumpi\n        /* \"RockPaperScissors.sol\":4104:4108  true */\n      0x01\n        /* \"RockPaperScissors.sol\":4091:4101  hasPickedA */\n      0x06\n      0x00\n        /* \"RockPaperScissors.sol\":4091:4108  hasPickedA = true */\n      0x0100\n      exp\n      dup2\n      sload\n      dup2\n      0xff\n      mul\n      not\n      and\n      swap1\n      dup4\n      iszero\n      iszero\n      mul\n      or\n      swap1\n      sstore\n      pop\n        /* \"RockPaperScissors.sol\":4137:4145  userPick */\n      dup3\n        /* \"RockPaperScissors.sol\":4123:4134  commitmentA */\n      0x07\n        /* \"RockPaperScissors.sol\":4123:4145  commitmentA = userPick */\n      dup2\n      swap1\n      sstore\n      pop\n        /* \"RockPaperScissors.sol\":4051:4253  if (msg.sender == userA) {\r... */\n      jump(tag_115)\n    tag_114:\n        /* \"RockPaperScissors.sol\":4200:4204  true */\n      0x01\n        /* \"RockPaperScissors.sol\":4187:4197  hasPickedB */\n      0x06\n      0x01\n        /* \"RockPaperScissors.sol\":4187:4204  hasPickedB = true */\n      0x0100\n      exp\n      dup2\n      sload\n      dup2\n      0xff\n      mul\n      not\n      and\n      swap1\n      dup4\n      iszero\n      iszero\n      mul\n      or\n      swap1\n      sstore\n      pop\n        /* \"RockPaperScissors.sol\":4233:4241  userPick */\n      dup3\n        /* \"RockPaperScissors.sol\":4219:4230  commitmentB */\n      0x08\n        /* \"RockPaperScissors.sol\":4219:4241  commitmentB = userPick */\n      dup2\n      swap1\n      sstore\n      pop\n        /* \"RockPaperScissors.sol\":4051:4253  if (msg.sender == userA) {\r... */\n    tag_115:\n        /* \"RockPaperScissors.sol\":2407:2408  _ */\n      pop\n        /* \"RockPaperScissors.sol\":3925:4260  function pick(bytes32 userPick) external \r... */\n      pop\n      pop\n      jump\t// out\n        /* \"RockPaperScissors.sol\":348:367  uint public pickEnd */\n    tag_55:\n      sload(0x03)\n      dup2\n      jump\t// out\n        /* \"RockPaperScissors.sol\":374:395  uint public revealEnd */\n    tag_59:\n      sload(0x04)\n      dup2\n      jump\t// out\n        /* \"RockPaperScissors.sol\":232:260  address payable public userB */\n    tag_62:\n      0x01\n      0x00\n      swap1\n      sload\n      swap1\n      0x0100\n      exp\n      swap1\n      div\n      0xffffffffffffffffffffffffffffffffffffffff\n      and\n      dup2\n      jump\t// out\n        /* \"RockPaperScissors.sol\":197:225  address payable public userA */\n    tag_66:\n      0x00\n      dup1\n      sload\n      swap1\n      0x0100\n      exp\n      swap1\n      div\n      0xffffffffffffffffffffffffffffffffffffffff\n      and\n      dup2\n      jump\t// out\n        /* \"RockPaperScissors.sol\":421:438  uint public prize */\n    tag_69:\n      sload(0x05)\n      dup2\n      jump\t// out\n        /* \"RockPaperScissors.sol\":517:539  bool public hasPickedA */\n    tag_72:\n      0x06\n      0x00\n      swap1\n      sload\n      swap1\n      0x0100\n      exp\n      swap1\n      div\n      0xff\n      and\n      dup2\n      jump\t// out\n        /* \"RockPaperScissors.sol\":5074:8434  function announceResult() external \r... */\n    tag_75:\n        /* \"RockPaperScissors.sol\":5129:5138  revealEnd */\n      sload(0x04)\n        /* \"RockPaperScissors.sol\":3171:3175  time */\n      dup1\n        /* \"RockPaperScissors.sol\":3152:3167  block.timestamp */\n      timestamp\n        /* \"RockPaperScissors.sol\":3152:3175  block.timestamp <= time */\n      gt\n        /* \"RockPaperScissors.sol\":3148:3198  if (block.timestamp <= time) revert TooEarly(time) */\n      tag_117\n      jumpi\n        /* \"RockPaperScissors.sol\":3193:3197  time */\n      dup1\n        /* \"RockPaperScissors.sol\":3184:3198  TooEarly(time) */\n      mload(0x40)\n      0x2a35a32400000000000000000000000000000000000000000000000000000000\n      dup2\n      mstore\n      0x04\n      add\n      tag_118\n      swap2\n      swap1\n      tag_57\n      jump\t// in\n    tag_118:\n      mload(0x40)\n      dup1\n      swap2\n      sub\n      swap1\n      revert\n        /* \"RockPaperScissors.sol\":3148:3198  if (block.timestamp <= time) revert TooEarly(time) */\n    tag_117:\n        /* \"RockPaperScissors.sol\":5165:5169  true */\n      0x01\n        /* \"RockPaperScissors.sol\":5156:5169  ended == true */\n      iszero\n      iszero\n        /* \"RockPaperScissors.sol\":5156:5161  ended */\n      0x0c\n      0x00\n      swap1\n      sload\n      swap1\n      0x0100\n      exp\n      swap1\n      div\n      0xff\n      and\n        /* \"RockPaperScissors.sol\":5156:5169  ended == true */\n      iszero\n      iszero\n      eq\n        /* \"RockPaperScissors.sol\":5152:5190  if (ended == true) revert gamedEnded() */\n      iszero\n      tag_120\n      jumpi\n        /* \"RockPaperScissors.sol\":5178:5190  gamedEnded() */\n      mload(0x40)\n      0xcda3c43d00000000000000000000000000000000000000000000000000000000\n      dup2\n      mstore\n      0x04\n      add\n      mload(0x40)\n      dup1\n      swap2\n      sub\n      swap1\n      revert\n        /* \"RockPaperScissors.sol\":5152:5190  if (ended == true) revert gamedEnded() */\n    tag_120:\n        /* \"RockPaperScissors.sol\":5219:5226  manager */\n      0x02\n      0x00\n      swap1\n      sload\n      swap1\n      0x0100\n      exp\n      swap1\n      div\n      0xffffffffffffffffffffffffffffffffffffffff\n      and\n        /* \"RockPaperScissors.sol\":5205:5226  msg.sender != manager */\n      0xffffffffffffffffffffffffffffffffffffffff\n      and\n        /* \"RockPaperScissors.sol\":5205:5215  msg.sender */\n      caller\n        /* \"RockPaperScissors.sol\":5205:5226  msg.sender != manager */\n      0xffffffffffffffffffffffffffffffffffffffff\n      and\n      eq\n      iszero\n        /* \"RockPaperScissors.sol\":5205:5249  msg.sender != manager && msg.sender != userA */\n      dup1\n      iszero\n      tag_121\n      jumpi\n      pop\n        /* \"RockPaperScissors.sol\":5244:5249  userA */\n      0x00\n      dup1\n      sload\n      swap1\n      0x0100\n      exp\n      swap1\n      div\n      0xffffffffffffffffffffffffffffffffffffffff\n      and\n        /* \"RockPaperScissors.sol\":5230:5249  msg.sender != userA */\n      0xffffffffffffffffffffffffffffffffffffffff\n      and\n        /* \"RockPaperScissors.sol\":5230:5240  msg.sender */\n      caller\n        /* \"RockPaperScissors.sol\":5230:5249  msg.sender != userA */\n      0xffffffffffffffffffffffffffffffffffffffff\n      and\n      eq\n      iszero\n        /* \"RockPaperScissors.sol\":5205:5249  msg.sender != manager && msg.sender != userA */\n    tag_121:\n        /* \"RockPaperScissors.sol\":5205:5272  msg.sender != manager && msg.sender != userA && msg.sender != userB */\n      dup1\n      iszero\n      tag_122\n      jumpi\n      pop\n        /* \"RockPaperScissors.sol\":5267:5272  userB */\n      0x01\n      0x00\n      swap1\n      sload\n      swap1\n      0x0100\n      exp\n      swap1\n      div\n      0xffffffffffffffffffffffffffffffffffffffff\n      and\n        /* \"RockPaperScissors.sol\":5253:5272  msg.sender != userB */\n      0xffffffffffffffffffffffffffffffffffffffff\n      and\n        /* \"RockPaperScissors.sol\":5253:5263  msg.sender */\n      caller\n        /* \"RockPaperScissors.sol\":5253:5272  msg.sender != userB */\n      0xffffffffffffffffffffffffffffffffffffffff\n      and\n      eq\n      iszero\n        /* \"RockPaperScissors.sol\":5205:5272  msg.sender != manager && msg.sender != userA && msg.sender != userB */\n    tag_122:\n        /* \"RockPaperScissors.sol\":5201:5322  if (msg.sender != manager && msg.sender != userA && msg.sender != userB)\r... */\n      iszero\n      tag_123\n      jumpi\n        /* \"RockPaperScissors.sol\":5294:5322  noRightToAnnounceTheResult() */\n      mload(0x40)\n      0x08fbade400000000000000000000000000000000000000000000000000000000\n      dup2\n      mstore\n      0x04\n      add\n      mload(0x40)\n      dup1\n      swap2\n      sub\n      swap1\n      revert\n        /* \"RockPaperScissors.sol\":5201:5322  if (msg.sender != manager && msg.sender != userA && msg.sender != userB)\r... */\n    tag_123:\n        /* \"RockPaperScissors.sol\":5341:5345  true */\n      0x01\n        /* \"RockPaperScissors.sol\":5333:5338  ended */\n      0x0c\n      0x00\n        /* \"RockPaperScissors.sol\":5333:5345  ended = true */\n      0x0100\n      exp\n      dup2\n      sload\n      dup2\n      0xff\n      mul\n      not\n      and\n      swap1\n      dup4\n      iszero\n      iszero\n      mul\n      or\n      swap1\n      sstore\n      pop\n        /* \"RockPaperScissors.sol\":5376:5380  true */\n      0x01\n        /* \"RockPaperScissors.sol\":5360:5380  hasRevealedA == true */\n      iszero\n      iszero\n        /* \"RockPaperScissors.sol\":5360:5372  hasRevealedA */\n      0x09\n      0x00\n      swap1\n      sload\n      swap1\n      0x0100\n      exp\n      swap1\n      div\n      0xff\n      and\n        /* \"RockPaperScissors.sol\":5360:5380  hasRevealedA == true */\n      iszero\n      iszero\n      eq\n        /* \"RockPaperScissors.sol\":5360:5404  hasRevealedA == true && hasRevealedB == true */\n      dup1\n      iszero\n      tag_124\n      jumpi\n      pop\n        /* \"RockPaperScissors.sol\":5400:5404  true */\n      0x01\n        /* \"RockPaperScissors.sol\":5384:5404  hasRevealedB == true */\n      iszero\n      iszero\n        /* \"RockPaperScissors.sol\":5384:5396  hasRevealedB */\n      0x09\n      0x01\n      swap1\n      sload\n      swap1\n      0x0100\n      exp\n      swap1\n      div\n      0xff\n      and\n        /* \"RockPaperScissors.sol\":5384:5404  hasRevealedB == true */\n      iszero\n      iszero\n      eq\n        /* \"RockPaperScissors.sol\":5360:5404  hasRevealedA == true && hasRevealedB == true */\n    tag_124:\n        /* \"RockPaperScissors.sol\":5356:8407  if (hasRevealedA == true && hasRevealedB == true) { // Both revealed\r... */\n      iszero\n      tag_125\n      jumpi\n        /* \"RockPaperScissors.sol\":5438:5449  uint stateA */\n      0x00\n        /* \"RockPaperScissors.sol\":5452:5472  parseUserPick(pickA) */\n      tag_126\n        /* \"RockPaperScissors.sol\":5466:5471  pickA */\n      sload(0x0a)\n        /* \"RockPaperScissors.sol\":5452:5465  parseUserPick */\n      tag_127\n        /* \"RockPaperScissors.sol\":5452:5472  parseUserPick(pickA) */\n      jump\t// in\n    tag_126:\n        /* \"RockPaperScissors.sol\":5438:5472  uint stateA = parseUserPick(pickA) */\n      swap1\n      pop\n        /* \"RockPaperScissors.sol\":5487:5498  uint stateB */\n      0x00\n        /* \"RockPaperScissors.sol\":5501:5521  parseUserPick(pickB) */\n      tag_128\n        /* \"RockPaperScissors.sol\":5515:5520  pickB */\n      sload(0x0b)\n        /* \"RockPaperScissors.sol\":5501:5514  parseUserPick */\n      tag_127\n        /* \"RockPaperScissors.sol\":5501:5521  parseUserPick(pickB) */\n      jump\t// in\n    tag_128:\n        /* \"RockPaperScissors.sol\":5487:5521  uint stateB = parseUserPick(pickB) */\n      swap1\n      pop\n        /* \"RockPaperScissors.sol\":5549:5550  0 */\n      0x00\n        /* \"RockPaperScissors.sol\":5540:5546  stateA */\n      dup3\n        /* \"RockPaperScissors.sol\":5540:5550  stateA > 0 */\n      gt\n        /* \"RockPaperScissors.sol\":5540:5564  stateA > 0 && stateB > 0 */\n      dup1\n      iszero\n      tag_129\n      jumpi\n      pop\n        /* \"RockPaperScissors.sol\":5563:5564  0 */\n      0x00\n        /* \"RockPaperScissors.sol\":5554:5560  stateB */\n      dup2\n        /* \"RockPaperScissors.sol\":5554:5564  stateB > 0 */\n      gt\n        /* \"RockPaperScissors.sol\":5540:5564  stateA > 0 && stateB > 0 */\n    tag_129:\n        /* \"RockPaperScissors.sol\":5536:7932  if (stateA > 0 && stateB > 0) { // Both inputs are correct\r... */\n      iszero\n      tag_130\n      jumpi\n        /* \"RockPaperScissors.sol\":5739:5740  1 */\n      0x01\n        /* \"RockPaperScissors.sol\":5729:5735  stateA */\n      dup3\n        /* \"RockPaperScissors.sol\":5729:5740  stateA == 1 */\n      eq\n        /* \"RockPaperScissors.sol\":5725:7440  if (stateA == 1) {\r... */\n      iszero\n      tag_131\n      jumpi\n        /* \"RockPaperScissors.sol\":5779:5780  1 */\n      0x01\n        /* \"RockPaperScissors.sol\":5769:5775  stateB */\n      dup2\n        /* \"RockPaperScissors.sol\":5769:5780  stateB == 1 */\n      eq\n        /* \"RockPaperScissors.sol\":5765:6268  if (stateB == 1) {\r... */\n      iszero\n      tag_132\n      jumpi\n        /* \"RockPaperScissors.sol\":5814:5819  tie() */\n      0xd6f5c93907b47fb5605cafc7535e8f56e8ce072b6259b851602c62e57a4dc60d\n      mload(0x40)\n      mload(0x40)\n      dup1\n      swap2\n      sub\n      swap1\n      log1\n        /* \"RockPaperScissors.sol\":5846:5851  userA */\n      0x00\n      dup1\n      sload\n      swap1\n      0x0100\n      exp\n      swap1\n      div\n      0xffffffffffffffffffffffffffffffffffffffff\n      and\n        /* \"RockPaperScissors.sol\":5846:5860  userA.transfer */\n      0xffffffffffffffffffffffffffffffffffffffff\n      and\n        /* \"RockPaperScissors.sol\":5846:5871  userA.transfer((prize/2)) */\n      0x08fc\n        /* \"RockPaperScissors.sol\":5868:5869  2 */\n      0x02\n        /* \"RockPaperScissors.sol\":5862:5867  prize */\n      sload(0x05)\n        /* \"RockPaperScissors.sol\":5862:5869  prize/2 */\n      tag_133\n      swap2\n      swap1\n      tag_134\n      jump\t// in\n    tag_133:\n        /* \"RockPaperScissors.sol\":5846:5871  userA.transfer((prize/2)) */\n      swap1\n      dup2\n      iszero\n      mul\n      swap1\n      mload(0x40)\n      0x00\n      mload(0x40)\n      dup1\n      dup4\n      sub\n      dup2\n      dup6\n      dup9\n      dup9\n      call\n      swap4\n      pop\n      pop\n      pop\n      pop\n      iszero\n      dup1\n      iszero\n      tag_136\n      jumpi\n      returndatasize\n      0x00\n      dup1\n      returndatacopy\n      revert(0x00, returndatasize)\n    tag_136:\n      pop\n        /* \"RockPaperScissors.sol\":5898:5903  userB */\n      0x01\n      0x00\n      swap1\n      sload\n      swap1\n      0x0100\n      exp\n      swap1\n      div\n      0xffffffffffffffffffffffffffffffffffffffff\n      and\n        /* \"RockPaperScissors.sol\":5898:5912  userB.transfer */\n      0xffffffffffffffffffffffffffffffffffffffff\n      and\n        /* \"RockPaperScissors.sol\":5898:5923  userB.transfer((prize/2)) */\n      0x08fc\n        /* \"RockPaperScissors.sol\":5920:5921  2 */\n      0x02\n        /* \"RockPaperScissors.sol\":5914:5919  prize */\n      sload(0x05)\n        /* \"RockPaperScissors.sol\":5914:5921  prize/2 */\n      tag_137\n      swap2\n      swap1\n      tag_134\n      jump\t// in\n    tag_137:\n        /* \"RockPaperScissors.sol\":5898:5923  userB.transfer((prize/2)) */\n      swap1\n      dup2\n      iszero\n      mul\n      swap1\n      mload(0x40)\n      0x00\n      mload(0x40)\n      dup1\n      dup4\n      sub\n      dup2\n      dup6\n      dup9\n      dup9\n      call\n      swap4\n      pop\n      pop\n      pop\n      pop\n      iszero\n      dup1\n      iszero\n      tag_139\n      jumpi\n      returndatasize\n      0x00\n      dup1\n      returndatacopy\n      revert(0x00, returndatasize)\n    tag_139:\n      pop\n        /* \"RockPaperScissors.sol\":5765:6268  if (stateB == 1) {\r... */\n      jump(tag_140)\n    tag_132:\n        /* \"RockPaperScissors.sol\":5988:5989  2 */\n      0x02\n        /* \"RockPaperScissors.sol\":5978:5984  stateB */\n      dup2\n        /* \"RockPaperScissors.sol\":5978:5989  stateB == 2 */\n      eq\n        /* \"RockPaperScissors.sol\":5974:6268  if (stateB == 2) {\r... */\n      iszero\n      tag_141\n      jumpi\n        /* \"RockPaperScissors.sol\":6023:6044  announceWinner(userB) */\n      0xb8da1b0c48f64354010c03d6da0395ab8afa6e195dc68d8a02e23ee0ae53cf6f\n        /* \"RockPaperScissors.sol\":6038:6043  userB */\n      0x01\n      0x00\n      swap1\n      sload\n      swap1\n      0x0100\n      exp\n      swap1\n      div\n      0xffffffffffffffffffffffffffffffffffffffff\n      and\n        /* \"RockPaperScissors.sol\":6023:6044  announceWinner(userB) */\n      mload(0x40)\n      tag_142\n      swap2\n      swap1\n      tag_143\n      jump\t// in\n    tag_142:\n      mload(0x40)\n      dup1\n      swap2\n      sub\n      swap1\n      log1\n        /* \"RockPaperScissors.sol\":6071:6076  userB */\n      0x01\n      0x00\n      swap1\n      sload\n      swap1\n      0x0100\n      exp\n      swap1\n      div\n      0xffffffffffffffffffffffffffffffffffffffff\n      and\n        /* \"RockPaperScissors.sol\":6071:6085  userB.transfer */\n      0xffffffffffffffffffffffffffffffffffffffff\n      and\n        /* \"RockPaperScissors.sol\":6071:6092  userB.transfer(prize) */\n      0x08fc\n        /* \"RockPaperScissors.sol\":6086:6091  prize */\n      sload(0x05)\n        /* \"RockPaperScissors.sol\":6071:6092  userB.transfer(prize) */\n      swap1\n      dup2\n      iszero\n      mul\n      swap1\n      mload(0x40)\n      0x00\n      mload(0x40)\n      dup1\n      dup4\n      sub\n      dup2\n      dup6\n      dup9\n      dup9\n      call\n      swap4\n      pop\n      pop\n      pop\n      pop\n      iszero\n      dup1\n      iszero\n      tag_145\n      jumpi\n      returndatasize\n      0x00\n      dup1\n      returndatacopy\n      revert(0x00, returndatasize)\n    tag_145:\n      pop\n        /* \"RockPaperScissors.sol\":5974:6268  if (stateB == 2) {\r... */\n      jump(tag_146)\n    tag_141:\n        /* \"RockPaperScissors.sol\":6175:6196  announceWinner(userA) */\n      0xb8da1b0c48f64354010c03d6da0395ab8afa6e195dc68d8a02e23ee0ae53cf6f\n        /* \"RockPaperScissors.sol\":6190:6195  userA */\n      0x00\n      dup1\n      sload\n      swap1\n      0x0100\n      exp\n      swap1\n      div\n      0xffffffffffffffffffffffffffffffffffffffff\n      and\n        /* \"RockPaperScissors.sol\":6175:6196  announceWinner(userA) */\n      mload(0x40)\n      tag_147\n      swap2\n      swap1\n      tag_143\n      jump\t// in\n    tag_147:\n      mload(0x40)\n      dup1\n      swap2\n      sub\n      swap1\n      log1\n        /* \"RockPaperScissors.sol\":6223:6228  userA */\n      0x00\n      dup1\n      sload\n      swap1\n      0x0100\n      exp\n      swap1\n      div\n      0xffffffffffffffffffffffffffffffffffffffff\n      and\n        /* \"RockPaperScissors.sol\":6223:6237  userA.transfer */\n      0xffffffffffffffffffffffffffffffffffffffff\n      and\n        /* \"RockPaperScissors.sol\":6223:6244  userA.transfer(prize) */\n      0x08fc\n        /* \"RockPaperScissors.sol\":6238:6243  prize */\n      sload(0x05)\n        /* \"RockPaperScissors.sol\":6223:6244  userA.transfer(prize) */\n      swap1\n      dup2\n      iszero\n      mul\n      swap1\n      mload(0x40)\n      0x00\n      mload(0x40)\n      dup1\n      dup4\n      sub\n      dup2\n      dup6\n      dup9\n      dup9\n      call\n      swap4\n      pop\n      pop\n      pop\n      pop\n      iszero\n      dup1\n      iszero\n      tag_149\n      jumpi\n      returndatasize\n      0x00\n      dup1\n      returndatacopy\n      revert(0x00, returndatasize)\n    tag_149:\n      pop\n        /* \"RockPaperScissors.sol\":5974:6268  if (stateB == 2) {\r... */\n    tag_146:\n        /* \"RockPaperScissors.sol\":5765:6268  if (stateB == 1) {\r... */\n    tag_140:\n        /* \"RockPaperScissors.sol\":5725:7440  if (stateA == 1) {\r... */\n      jump(tag_150)\n    tag_131:\n        /* \"RockPaperScissors.sol\":6324:6325  2 */\n      0x02\n        /* \"RockPaperScissors.sol\":6314:6320  stateA */\n      dup3\n        /* \"RockPaperScissors.sol\":6314:6325  stateA == 2 */\n      eq\n        /* \"RockPaperScissors.sol\":6310:7440  if (stateA == 2) {\r... */\n      iszero\n      tag_151\n      jumpi\n        /* \"RockPaperScissors.sol\":6364:6365  1 */\n      0x01\n        /* \"RockPaperScissors.sol\":6354:6360  stateB */\n      dup2\n        /* \"RockPaperScissors.sol\":6354:6365  stateB == 1 */\n      eq\n        /* \"RockPaperScissors.sol\":6350:6853  if (stateB == 1) {\r... */\n      iszero\n      tag_152\n      jumpi\n        /* \"RockPaperScissors.sol\":6399:6420  announceWinner(userA) */\n      0xb8da1b0c48f64354010c03d6da0395ab8afa6e195dc68d8a02e23ee0ae53cf6f\n        /* \"RockPaperScissors.sol\":6414:6419  userA */\n      0x00\n      dup1\n      sload\n      swap1\n      0x0100\n      exp\n      swap1\n      div\n      0xffffffffffffffffffffffffffffffffffffffff\n      and\n        /* \"RockPaperScissors.sol\":6399:6420  announceWinner(userA) */\n      mload(0x40)\n      tag_153\n      swap2\n      swap1\n      tag_143\n      jump\t// in\n    tag_153:\n      mload(0x40)\n      dup1\n      swap2\n      sub\n      swap1\n      log1\n        /* \"RockPaperScissors.sol\":6447:6452  userA */\n      0x00\n      dup1\n      sload\n      swap1\n      0x0100\n      exp\n      swap1\n      div\n      0xffffffffffffffffffffffffffffffffffffffff\n      and\n        /* \"RockPaperScissors.sol\":6447:6461  userA.transfer */\n      0xffffffffffffffffffffffffffffffffffffffff\n      and\n        /* \"RockPaperScissors.sol\":6447:6468  userA.transfer(prize) */\n      0x08fc\n        /* \"RockPaperScissors.sol\":6462:6467  prize */\n      sload(0x05)\n        /* \"RockPaperScissors.sol\":6447:6468  userA.transfer(prize) */\n      swap1\n      dup2\n      iszero\n      mul\n      swap1\n      mload(0x40)\n      0x00\n      mload(0x40)\n      dup1\n      dup4\n      sub\n      dup2\n      dup6\n      dup9\n      dup9\n      call\n      swap4\n      pop\n      pop\n      pop\n      pop\n      iszero\n      dup1\n      iszero\n      tag_155\n      jumpi\n      returndatasize\n      0x00\n      dup1\n      returndatacopy\n      revert(0x00, returndatasize)\n    tag_155:\n      pop\n        /* \"RockPaperScissors.sol\":6350:6853  if (stateB == 1) {\r... */\n      jump(tag_156)\n    tag_152:\n        /* \"RockPaperScissors.sol\":6533:6534  2 */\n      0x02\n        /* \"RockPaperScissors.sol\":6523:6529  stateB */\n      dup2\n        /* \"RockPaperScissors.sol\":6523:6534  stateB == 2 */\n      eq\n        /* \"RockPaperScissors.sol\":6519:6853  if (stateB == 2) {\r... */\n      iszero\n      tag_157\n      jumpi\n        /* \"RockPaperScissors.sol\":6568:6573  tie() */\n      0xd6f5c93907b47fb5605cafc7535e8f56e8ce072b6259b851602c62e57a4dc60d\n      mload(0x40)\n      mload(0x40)\n      dup1\n      swap2\n      sub\n      swap1\n      log1\n        /* \"RockPaperScissors.sol\":6600:6605  userA */\n      0x00\n      dup1\n      sload\n      swap1\n      0x0100\n      exp\n      swap1\n      div\n      0xffffffffffffffffffffffffffffffffffffffff\n      and\n        /* \"RockPaperScissors.sol\":6600:6614  userA.transfer */\n      0xffffffffffffffffffffffffffffffffffffffff\n      and\n        /* \"RockPaperScissors.sol\":6600:6625  userA.transfer((prize/2)) */\n      0x08fc\n        /* \"RockPaperScissors.sol\":6622:6623  2 */\n      0x02\n        /* \"RockPaperScissors.sol\":6616:6621  prize */\n      sload(0x05)\n        /* \"RockPaperScissors.sol\":6616:6623  prize/2 */\n      tag_158\n      swap2\n      swap1\n      tag_134\n      jump\t// in\n    tag_158:\n        /* \"RockPaperScissors.sol\":6600:6625  userA.transfer((prize/2)) */\n      swap1\n      dup2\n      iszero\n      mul\n      swap1\n      mload(0x40)\n      0x00\n      mload(0x40)\n      dup1\n      dup4\n      sub\n      dup2\n      dup6\n      dup9\n      dup9\n      call\n      swap4\n      pop\n      pop\n      pop\n      pop\n      iszero\n      dup1\n      iszero\n      tag_160\n      jumpi\n      returndatasize\n      0x00\n      dup1\n      returndatacopy\n      revert(0x00, returndatasize)\n    tag_160:\n      pop\n        /* \"RockPaperScissors.sol\":6652:6657  userB */\n      0x01\n      0x00\n      swap1\n      sload\n      swap1\n      0x0100\n      exp\n      swap1\n      div\n      0xffffffffffffffffffffffffffffffffffffffff\n      and\n        /* \"RockPaperScissors.sol\":6652:6666  userB.transfer */\n      0xffffffffffffffffffffffffffffffffffffffff\n      and\n        /* \"RockPaperScissors.sol\":6652:6677  userB.transfer((prize/2)) */\n      0x08fc\n        /* \"RockPaperScissors.sol\":6674:6675  2 */\n      0x02\n        /* \"RockPaperScissors.sol\":6668:6673  prize */\n      sload(0x05)\n        /* \"RockPaperScissors.sol\":6668:6675  prize/2 */\n      tag_161\n      swap2\n      swap1\n      tag_134\n      jump\t// in\n    tag_161:\n        /* \"RockPaperScissors.sol\":6652:6677  userB.transfer((prize/2)) */\n      swap1\n      dup2\n      iszero\n      mul\n      swap1\n      mload(0x40)\n      0x00\n      mload(0x40)\n      dup1\n      dup4\n      sub\n      dup2\n      dup6\n      dup9\n      dup9\n      call\n      swap4\n      pop\n      pop\n      pop\n      pop\n      iszero\n      dup1\n      iszero\n      tag_163\n      jumpi\n      returndatasize\n      0x00\n      dup1\n      returndatacopy\n      revert(0x00, returndatasize)\n    tag_163:\n      pop\n        /* \"RockPaperScissors.sol\":6519:6853  if (stateB == 2) {\r... */\n      jump(tag_164)\n    tag_157:\n        /* \"RockPaperScissors.sol\":6760:6781  announceWinner(userB) */\n      0xb8da1b0c48f64354010c03d6da0395ab8afa6e195dc68d8a02e23ee0ae53cf6f\n        /* \"RockPaperScissors.sol\":6775:6780  userB */\n      0x01\n      0x00\n      swap1\n      sload\n      swap1\n      0x0100\n      exp\n      swap1\n      div\n      0xffffffffffffffffffffffffffffffffffffffff\n      and\n        /* \"RockPaperScissors.sol\":6760:6781  announceWinner(userB) */\n      mload(0x40)\n      tag_165\n      swap2\n      swap1\n      tag_143\n      jump\t// in\n    tag_165:\n      mload(0x40)\n      dup1\n      swap2\n      sub\n      swap1\n      log1\n        /* \"RockPaperScissors.sol\":6808:6813  userB */\n      0x01\n      0x00\n      swap1\n      sload\n      swap1\n      0x0100\n      exp\n      swap1\n      div\n      0xffffffffffffffffffffffffffffffffffffffff\n      and\n        /* \"RockPaperScissors.sol\":6808:6822  userB.transfer */\n      0xffffffffffffffffffffffffffffffffffffffff\n      and\n        /* \"RockPaperScissors.sol\":6808:6829  userB.transfer(prize) */\n      0x08fc\n        /* \"RockPaperScissors.sol\":6823:6828  prize */\n      sload(0x05)\n        /* \"RockPaperScissors.sol\":6808:6829  userB.transfer(prize) */\n      swap1\n      dup2\n      iszero\n      mul\n      swap1\n      mload(0x40)\n      0x00\n      mload(0x40)\n      dup1\n      dup4\n      sub\n      dup2\n      dup6\n      dup9\n      dup9\n      call\n      swap4\n      pop\n      pop\n      pop\n      pop\n      iszero\n      dup1\n      iszero\n      tag_167\n      jumpi\n      returndatasize\n      0x00\n      dup1\n      returndatacopy\n      revert(0x00, returndatasize)\n    tag_167:\n      pop\n        /* \"RockPaperScissors.sol\":6519:6853  if (stateB == 2) {\r... */\n    tag_164:\n        /* \"RockPaperScissors.sol\":6350:6853  if (stateB == 1) {\r... */\n    tag_156:\n        /* \"RockPaperScissors.sol\":6310:7440  if (stateA == 2) {\r... */\n      jump(tag_168)\n    tag_151:\n        /* \"RockPaperScissors.sol\":6932:6933  1 */\n      0x01\n        /* \"RockPaperScissors.sol\":6922:6928  stateB */\n      dup2\n        /* \"RockPaperScissors.sol\":6922:6933  stateB == 1 */\n      eq\n        /* \"RockPaperScissors.sol\":6918:7421  if (stateB == 1) {\r... */\n      iszero\n      tag_169\n      jumpi\n        /* \"RockPaperScissors.sol\":6967:6988  announceWinner(userB) */\n      0xb8da1b0c48f64354010c03d6da0395ab8afa6e195dc68d8a02e23ee0ae53cf6f\n        /* \"RockPaperScissors.sol\":6982:6987  userB */\n      0x01\n      0x00\n      swap1\n      sload\n      swap1\n      0x0100\n      exp\n      swap1\n      div\n      0xffffffffffffffffffffffffffffffffffffffff\n      and\n        /* \"RockPaperScissors.sol\":6967:6988  announceWinner(userB) */\n      mload(0x40)\n      tag_170\n      swap2\n      swap1\n      tag_143\n      jump\t// in\n    tag_170:\n      mload(0x40)\n      dup1\n      swap2\n      sub\n      swap1\n      log1\n        /* \"RockPaperScissors.sol\":7015:7020  userB */\n      0x01\n      0x00\n      swap1\n      sload\n      swap1\n      0x0100\n      exp\n      swap1\n      div\n      0xffffffffffffffffffffffffffffffffffffffff\n      and\n        /* \"RockPaperScissors.sol\":7015:7029  userB.transfer */\n      0xffffffffffffffffffffffffffffffffffffffff\n      and\n        /* \"RockPaperScissors.sol\":7015:7036  userB.transfer(prize) */\n      0x08fc\n        /* \"RockPaperScissors.sol\":7030:7035  prize */\n      sload(0x05)\n        /* \"RockPaperScissors.sol\":7015:7036  userB.transfer(prize) */\n      swap1\n      dup2\n      iszero\n      mul\n      swap1\n      mload(0x40)\n      0x00\n      mload(0x40)\n      dup1\n      dup4\n      sub\n      dup2\n      dup6\n      dup9\n      dup9\n      call\n      swap4\n      pop\n      pop\n      pop\n      pop\n      iszero\n      dup1\n      iszero\n      tag_172\n      jumpi\n      returndatasize\n      0x00\n      dup1\n      returndatacopy\n      revert(0x00, returndatasize)\n    tag_172:\n      pop\n        /* \"RockPaperScissors.sol\":6918:7421  if (stateB == 1) {\r... */\n      jump(tag_173)\n    tag_169:\n        /* \"RockPaperScissors.sol\":7101:7102  2 */\n      0x02\n        /* \"RockPaperScissors.sol\":7091:7097  stateB */\n      dup2\n        /* \"RockPaperScissors.sol\":7091:7102  stateB == 2 */\n      eq\n        /* \"RockPaperScissors.sol\":7087:7421  if (stateB == 2) {\r... */\n      iszero\n      tag_174\n      jumpi\n        /* \"RockPaperScissors.sol\":7136:7157  announceWinner(userA) */\n      0xb8da1b0c48f64354010c03d6da0395ab8afa6e195dc68d8a02e23ee0ae53cf6f\n        /* \"RockPaperScissors.sol\":7151:7156  userA */\n      0x00\n      dup1\n      sload\n      swap1\n      0x0100\n      exp\n      swap1\n      div\n      0xffffffffffffffffffffffffffffffffffffffff\n      and\n        /* \"RockPaperScissors.sol\":7136:7157  announceWinner(userA) */\n      mload(0x40)\n      tag_175\n      swap2\n      swap1\n      tag_143\n      jump\t// in\n    tag_175:\n      mload(0x40)\n      dup1\n      swap2\n      sub\n      swap1\n      log1\n        /* \"RockPaperScissors.sol\":7184:7189  userA */\n      0x00\n      dup1\n      sload\n      swap1\n      0x0100\n      exp\n      swap1\n      div\n      0xffffffffffffffffffffffffffffffffffffffff\n      and\n        /* \"RockPaperScissors.sol\":7184:7198  userA.transfer */\n      0xffffffffffffffffffffffffffffffffffffffff\n      and\n        /* \"RockPaperScissors.sol\":7184:7205  userA.transfer(prize) */\n      0x08fc\n        /* \"RockPaperScissors.sol\":7199:7204  prize */\n      sload(0x05)\n        /* \"RockPaperScissors.sol\":7184:7205  userA.transfer(prize) */\n      swap1\n      dup2\n      iszero\n      mul\n      swap1\n      mload(0x40)\n      0x00\n      mload(0x40)\n      dup1\n      dup4\n      sub\n      dup2\n      dup6\n      dup9\n      dup9\n      call\n      swap4\n      pop\n      pop\n      pop\n      pop\n      iszero\n      dup1\n      iszero\n      tag_177\n      jumpi\n      returndatasize\n      0x00\n      dup1\n      returndatacopy\n      revert(0x00, returndatasize)\n    tag_177:\n      pop\n        /* \"RockPaperScissors.sol\":7087:7421  if (stateB == 2) {\r... */\n      jump(tag_178)\n    tag_174:\n        /* \"RockPaperScissors.sol\":7288:7293  tie() */\n      0xd6f5c93907b47fb5605cafc7535e8f56e8ce072b6259b851602c62e57a4dc60d\n      mload(0x40)\n      mload(0x40)\n      dup1\n      swap2\n      sub\n      swap1\n      log1\n        /* \"RockPaperScissors.sol\":7320:7325  userA */\n      0x00\n      dup1\n      sload\n      swap1\n      0x0100\n      exp\n      swap1\n      div\n      0xffffffffffffffffffffffffffffffffffffffff\n      and\n        /* \"RockPaperScissors.sol\":7320:7334  userA.transfer */\n      0xffffffffffffffffffffffffffffffffffffffff\n      and\n        /* \"RockPaperScissors.sol\":7320:7345  userA.transfer((prize/2)) */\n      0x08fc\n        /* \"RockPaperScissors.sol\":7342:7343  2 */\n      0x02\n        /* \"RockPaperScissors.sol\":7336:7341  prize */\n      sload(0x05)\n        /* \"RockPaperScissors.sol\":7336:7343  prize/2 */\n      tag_179\n      swap2\n      swap1\n      tag_134\n      jump\t// in\n    tag_179:\n        /* \"RockPaperScissors.sol\":7320:7345  userA.transfer((prize/2)) */\n      swap1\n      dup2\n      iszero\n      mul\n      swap1\n      mload(0x40)\n      0x00\n      mload(0x40)\n      dup1\n      dup4\n      sub\n      dup2\n      dup6\n      dup9\n      dup9\n      call\n      swap4\n      pop\n      pop\n      pop\n      pop\n      iszero\n      dup1\n      iszero\n      tag_181\n      jumpi\n      returndatasize\n      0x00\n      dup1\n      returndatacopy\n      revert(0x00, returndatasize)\n    tag_181:\n      pop\n        /* \"RockPaperScissors.sol\":7372:7377  userB */\n      0x01\n      0x00\n      swap1\n      sload\n      swap1\n      0x0100\n      exp\n      swap1\n      div\n      0xffffffffffffffffffffffffffffffffffffffff\n      and\n        /* \"RockPaperScissors.sol\":7372:7386  userB.transfer */\n      0xffffffffffffffffffffffffffffffffffffffff\n      and\n        /* \"RockPaperScissors.sol\":7372:7397  userB.transfer((prize/2)) */\n      0x08fc\n        /* \"RockPaperScissors.sol\":7394:7395  2 */\n      0x02\n        /* \"RockPaperScissors.sol\":7388:7393  prize */\n      sload(0x05)\n        /* \"RockPaperScissors.sol\":7388:7395  prize/2 */\n      tag_182\n      swap2\n      swap1\n      tag_134\n      jump\t// in\n    tag_182:\n        /* \"RockPaperScissors.sol\":7372:7397  userB.transfer((prize/2)) */\n      swap1\n      dup2\n      iszero\n      mul\n      swap1\n      mload(0x40)\n      0x00\n      mload(0x40)\n      dup1\n      dup4\n      sub\n      dup2\n      dup6\n      dup9\n      dup9\n      call\n      swap4\n      pop\n      pop\n      pop\n      pop\n      iszero\n      dup1\n      iszero\n      tag_184\n      jumpi\n      returndatasize\n      0x00\n      dup1\n      returndatacopy\n      revert(0x00, returndatasize)\n    tag_184:\n      pop\n        /* \"RockPaperScissors.sol\":7087:7421  if (stateB == 2) {\r... */\n    tag_178:\n        /* \"RockPaperScissors.sol\":6918:7421  if (stateB == 1) {\r... */\n    tag_173:\n        /* \"RockPaperScissors.sol\":6310:7440  if (stateA == 2) {\r... */\n    tag_168:\n        /* \"RockPaperScissors.sol\":5725:7440  if (stateA == 1) {\r... */\n    tag_150:\n        /* \"RockPaperScissors.sol\":5536:7932  if (stateA > 0 && stateB > 0) { // Both inputs are correct\r... */\n      jump(tag_185)\n    tag_130:\n        /* \"RockPaperScissors.sol\":7487:7488  0 */\n      0x00\n        /* \"RockPaperScissors.sol\":7478:7484  stateA */\n      dup3\n        /* \"RockPaperScissors.sol\":7478:7488  stateA > 0 */\n      gt\n        /* \"RockPaperScissors.sol\":7478:7503  stateA > 0 && stateB == 0 */\n      dup1\n      iszero\n      tag_186\n      jumpi\n      pop\n        /* \"RockPaperScissors.sol\":7502:7503  0 */\n      0x00\n        /* \"RockPaperScissors.sol\":7492:7498  stateB */\n      dup2\n        /* \"RockPaperScissors.sol\":7492:7503  stateB == 0 */\n      eq\n        /* \"RockPaperScissors.sol\":7478:7503  stateA > 0 && stateB == 0 */\n    tag_186:\n        /* \"RockPaperScissors.sol\":7474:7932  if (stateA > 0 && stateB == 0) {\r... */\n      iszero\n      tag_187\n      jumpi\n        /* \"RockPaperScissors.sol\":7529:7550  announceWinner(userA) */\n      0xb8da1b0c48f64354010c03d6da0395ab8afa6e195dc68d8a02e23ee0ae53cf6f\n        /* \"RockPaperScissors.sol\":7544:7549  userA */\n      0x00\n      dup1\n      sload\n      swap1\n      0x0100\n      exp\n      swap1\n      div\n      0xffffffffffffffffffffffffffffffffffffffff\n      and\n        /* \"RockPaperScissors.sol\":7529:7550  announceWinner(userA) */\n      mload(0x40)\n      tag_188\n      swap2\n      swap1\n      tag_143\n      jump\t// in\n    tag_188:\n      mload(0x40)\n      dup1\n      swap2\n      sub\n      swap1\n      log1\n        /* \"RockPaperScissors.sol\":7569:7574  userA */\n      0x00\n      dup1\n      sload\n      swap1\n      0x0100\n      exp\n      swap1\n      div\n      0xffffffffffffffffffffffffffffffffffffffff\n      and\n        /* \"RockPaperScissors.sol\":7569:7583  userA.transfer */\n      0xffffffffffffffffffffffffffffffffffffffff\n      and\n        /* \"RockPaperScissors.sol\":7569:7590  userA.transfer(prize) */\n      0x08fc\n        /* \"RockPaperScissors.sol\":7584:7589  prize */\n      sload(0x05)\n        /* \"RockPaperScissors.sol\":7569:7590  userA.transfer(prize) */\n      swap1\n      dup2\n      iszero\n      mul\n      swap1\n      mload(0x40)\n      0x00\n      mload(0x40)\n      dup1\n      dup4\n      sub\n      dup2\n      dup6\n      dup9\n      dup9\n      call\n      swap4\n      pop\n      pop\n      pop\n      pop\n      iszero\n      dup1\n      iszero\n      tag_190\n      jumpi\n      returndatasize\n      0x00\n      dup1\n      returndatacopy\n      revert(0x00, returndatasize)\n    tag_190:\n      pop\n        /* \"RockPaperScissors.sol\":7474:7932  if (stateA > 0 && stateB == 0) {\r... */\n      jump(tag_191)\n    tag_187:\n        /* \"RockPaperScissors.sol\":7639:7640  0 */\n      0x00\n        /* \"RockPaperScissors.sol\":7629:7635  stateA */\n      dup3\n        /* \"RockPaperScissors.sol\":7629:7640  stateA == 0 */\n      eq\n        /* \"RockPaperScissors.sol\":7629:7654  stateA == 0 && stateB > 0 */\n      dup1\n      iszero\n      tag_192\n      jumpi\n      pop\n        /* \"RockPaperScissors.sol\":7653:7654  0 */\n      0x00\n        /* \"RockPaperScissors.sol\":7644:7650  stateB */\n      dup2\n        /* \"RockPaperScissors.sol\":7644:7654  stateB > 0 */\n      gt\n        /* \"RockPaperScissors.sol\":7629:7654  stateA == 0 && stateB > 0 */\n    tag_192:\n        /* \"RockPaperScissors.sol\":7625:7932  if (stateA == 0 && stateB > 0) {\r... */\n      iszero\n      tag_193\n      jumpi\n        /* \"RockPaperScissors.sol\":7680:7701  announceWinner(userB) */\n      0xb8da1b0c48f64354010c03d6da0395ab8afa6e195dc68d8a02e23ee0ae53cf6f\n        /* \"RockPaperScissors.sol\":7695:7700  userB */\n      0x01\n      0x00\n      swap1\n      sload\n      swap1\n      0x0100\n      exp\n      swap1\n      div\n      0xffffffffffffffffffffffffffffffffffffffff\n      and\n        /* \"RockPaperScissors.sol\":7680:7701  announceWinner(userB) */\n      mload(0x40)\n      tag_194\n      swap2\n      swap1\n      tag_143\n      jump\t// in\n    tag_194:\n      mload(0x40)\n      dup1\n      swap2\n      sub\n      swap1\n      log1\n        /* \"RockPaperScissors.sol\":7720:7725  userB */\n      0x01\n      0x00\n      swap1\n      sload\n      swap1\n      0x0100\n      exp\n      swap1\n      div\n      0xffffffffffffffffffffffffffffffffffffffff\n      and\n        /* \"RockPaperScissors.sol\":7720:7734  userB.transfer */\n      0xffffffffffffffffffffffffffffffffffffffff\n      and\n        /* \"RockPaperScissors.sol\":7720:7741  userB.transfer(prize) */\n      0x08fc\n        /* \"RockPaperScissors.sol\":7735:7740  prize */\n      sload(0x05)\n        /* \"RockPaperScissors.sol\":7720:7741  userB.transfer(prize) */\n      swap1\n      dup2\n      iszero\n      mul\n      swap1\n      mload(0x40)\n      0x00\n      mload(0x40)\n      dup1\n      dup4\n      sub\n      dup2\n      dup6\n      dup9\n      dup9\n      call\n      swap4\n      pop\n      pop\n      pop\n      pop\n      iszero\n      dup1\n      iszero\n      tag_196\n      jumpi\n      returndatasize\n      0x00\n      dup1\n      returndatacopy\n      revert(0x00, returndatasize)\n    tag_196:\n      pop\n        /* \"RockPaperScissors.sol\":7625:7932  if (stateA == 0 && stateB > 0) {\r... */\n      jump(tag_197)\n    tag_193:\n        /* \"RockPaperScissors.sol\":7823:7828  tie() */\n      0xd6f5c93907b47fb5605cafc7535e8f56e8ce072b6259b851602c62e57a4dc60d\n      mload(0x40)\n      mload(0x40)\n      dup1\n      swap2\n      sub\n      swap1\n      log1\n        /* \"RockPaperScissors.sol\":7847:7852  userA */\n      0x00\n      dup1\n      sload\n      swap1\n      0x0100\n      exp\n      swap1\n      div\n      0xffffffffffffffffffffffffffffffffffffffff\n      and\n        /* \"RockPaperScissors.sol\":7847:7861  userA.transfer */\n      0xffffffffffffffffffffffffffffffffffffffff\n      and\n        /* \"RockPaperScissors.sol\":7847:7872  userA.transfer((prize/2)) */\n      0x08fc\n        /* \"RockPaperScissors.sol\":7869:7870  2 */\n      0x02\n        /* \"RockPaperScissors.sol\":7863:7868  prize */\n      sload(0x05)\n        /* \"RockPaperScissors.sol\":7863:7870  prize/2 */\n      tag_198\n      swap2\n      swap1\n      tag_134\n      jump\t// in\n    tag_198:\n        /* \"RockPaperScissors.sol\":7847:7872  userA.transfer((prize/2)) */\n      swap1\n      dup2\n      iszero\n      mul\n      swap1\n      mload(0x40)\n      0x00\n      mload(0x40)\n      dup1\n      dup4\n      sub\n      dup2\n      dup6\n      dup9\n      dup9\n      call\n      swap4\n      pop\n      pop\n      pop\n      pop\n      iszero\n      dup1\n      iszero\n      tag_200\n      jumpi\n      returndatasize\n      0x00\n      dup1\n      returndatacopy\n      revert(0x00, returndatasize)\n    tag_200:\n      pop\n        /* \"RockPaperScissors.sol\":7891:7896  userB */\n      0x01\n      0x00\n      swap1\n      sload\n      swap1\n      0x0100\n      exp\n      swap1\n      div\n      0xffffffffffffffffffffffffffffffffffffffff\n      and\n        /* \"RockPaperScissors.sol\":7891:7905  userB.transfer */\n      0xffffffffffffffffffffffffffffffffffffffff\n      and\n        /* \"RockPaperScissors.sol\":7891:7916  userB.transfer((prize/2)) */\n      0x08fc\n        /* \"RockPaperScissors.sol\":7913:7914  2 */\n      0x02\n        /* \"RockPaperScissors.sol\":7907:7912  prize */\n      sload(0x05)\n        /* \"RockPaperScissors.sol\":7907:7914  prize/2 */\n      tag_201\n      swap2\n      swap1\n      tag_134\n      jump\t// in\n    tag_201:\n        /* \"RockPaperScissors.sol\":7891:7916  userB.transfer((prize/2)) */\n      swap1\n      dup2\n      iszero\n      mul\n      swap1\n      mload(0x40)\n      0x00\n      mload(0x40)\n      dup1\n      dup4\n      sub\n      dup2\n      dup6\n      dup9\n      dup9\n      call\n      swap4\n      pop\n      pop\n      pop\n      pop\n      iszero\n      dup1\n      iszero\n      tag_203\n      jumpi\n      returndatasize\n      0x00\n      dup1\n      returndatacopy\n      revert(0x00, returndatasize)\n    tag_203:\n      pop\n        /* \"RockPaperScissors.sol\":7625:7932  if (stateA == 0 && stateB > 0) {\r... */\n    tag_197:\n        /* \"RockPaperScissors.sol\":7474:7932  if (stateA > 0 && stateB == 0) {\r... */\n    tag_191:\n        /* \"RockPaperScissors.sol\":5536:7932  if (stateA > 0 && stateB > 0) { // Both inputs are correct\r... */\n    tag_185:\n        /* \"RockPaperScissors.sol\":5406:7943  { // Both revealed\r... */\n      pop\n      pop\n        /* \"RockPaperScissors.sol\":5356:8407  if (hasRevealedA == true && hasRevealedB == true) { // Both revealed\r... */\n      jump(tag_204)\n    tag_125:\n        /* \"RockPaperScissors.sol\":7978:7982  true */\n      0x01\n        /* \"RockPaperScissors.sol\":7962:7982  hasRevealedA == true */\n      iszero\n      iszero\n        /* \"RockPaperScissors.sol\":7962:7974  hasRevealedA */\n      0x09\n      0x00\n      swap1\n      sload\n      swap1\n      0x0100\n      exp\n      swap1\n      div\n      0xff\n      and\n        /* \"RockPaperScissors.sol\":7962:7982  hasRevealedA == true */\n      iszero\n      iszero\n      eq\n        /* \"RockPaperScissors.sol\":7962:8007  hasRevealedA == true && hasRevealedB == false */\n      dup1\n      iszero\n      tag_205\n      jumpi\n      pop\n        /* \"RockPaperScissors.sol\":8002:8007  false */\n      0x00\n        /* \"RockPaperScissors.sol\":7986:8007  hasRevealedB == false */\n      iszero\n      iszero\n        /* \"RockPaperScissors.sol\":7986:7998  hasRevealedB */\n      0x09\n      0x01\n      swap1\n      sload\n      swap1\n      0x0100\n      exp\n      swap1\n      div\n      0xff\n      and\n        /* \"RockPaperScissors.sol\":7986:8007  hasRevealedB == false */\n      iszero\n      iszero\n      eq\n        /* \"RockPaperScissors.sol\":7962:8007  hasRevealedA == true && hasRevealedB == false */\n    tag_205:\n        /* \"RockPaperScissors.sol\":7958:8407  if (hasRevealedA == true && hasRevealedB == false) {\r... */\n      iszero\n      tag_206\n      jumpi\n        /* \"RockPaperScissors.sol\":8029:8050  announceWinner(userA) */\n      0xb8da1b0c48f64354010c03d6da0395ab8afa6e195dc68d8a02e23ee0ae53cf6f\n        /* \"RockPaperScissors.sol\":8044:8049  userA */\n      0x00\n      dup1\n      sload\n      swap1\n      0x0100\n      exp\n      swap1\n      div\n      0xffffffffffffffffffffffffffffffffffffffff\n      and\n        /* \"RockPaperScissors.sol\":8029:8050  announceWinner(userA) */\n      mload(0x40)\n      tag_207\n      swap2\n      swap1\n      tag_143\n      jump\t// in\n    tag_207:\n      mload(0x40)\n      dup1\n      swap2\n      sub\n      swap1\n      log1\n        /* \"RockPaperScissors.sol\":8065:8070  userA */\n      0x00\n      dup1\n      sload\n      swap1\n      0x0100\n      exp\n      swap1\n      div\n      0xffffffffffffffffffffffffffffffffffffffff\n      and\n        /* \"RockPaperScissors.sol\":8065:8079  userA.transfer */\n      0xffffffffffffffffffffffffffffffffffffffff\n      and\n        /* \"RockPaperScissors.sol\":8065:8086  userA.transfer(prize) */\n      0x08fc\n        /* \"RockPaperScissors.sol\":8080:8085  prize */\n      sload(0x05)\n        /* \"RockPaperScissors.sol\":8065:8086  userA.transfer(prize) */\n      swap1\n      dup2\n      iszero\n      mul\n      swap1\n      mload(0x40)\n      0x00\n      mload(0x40)\n      dup1\n      dup4\n      sub\n      dup2\n      dup6\n      dup9\n      dup9\n      call\n      swap4\n      pop\n      pop\n      pop\n      pop\n      iszero\n      dup1\n      iszero\n      tag_209\n      jumpi\n      returndatasize\n      0x00\n      dup1\n      returndatacopy\n      revert(0x00, returndatasize)\n    tag_209:\n      pop\n        /* \"RockPaperScissors.sol\":7958:8407  if (hasRevealedA == true && hasRevealedB == false) {\r... */\n      jump(tag_210)\n    tag_206:\n        /* \"RockPaperScissors.sol\":8133:8138  false */\n      0x00\n        /* \"RockPaperScissors.sol\":8117:8138  hasRevealedA == false */\n      iszero\n      iszero\n        /* \"RockPaperScissors.sol\":8117:8129  hasRevealedA */\n      0x09\n      0x00\n      swap1\n      sload\n      swap1\n      0x0100\n      exp\n      swap1\n      div\n      0xff\n      and\n        /* \"RockPaperScissors.sol\":8117:8138  hasRevealedA == false */\n      iszero\n      iszero\n      eq\n        /* \"RockPaperScissors.sol\":8117:8162  hasRevealedA == false && hasRevealedB == true */\n      dup1\n      iszero\n      tag_211\n      jumpi\n      pop\n        /* \"RockPaperScissors.sol\":8158:8162  true */\n      0x01\n        /* \"RockPaperScissors.sol\":8142:8162  hasRevealedB == true */\n      iszero\n      iszero\n        /* \"RockPaperScissors.sol\":8142:8154  hasRevealedB */\n      0x09\n      0x01\n      swap1\n      sload\n      swap1\n      0x0100\n      exp\n      swap1\n      div\n      0xff\n      and\n        /* \"RockPaperScissors.sol\":8142:8162  hasRevealedB == true */\n      iszero\n      iszero\n      eq\n        /* \"RockPaperScissors.sol\":8117:8162  hasRevealedA == false && hasRevealedB == true */\n    tag_211:\n        /* \"RockPaperScissors.sol\":8113:8407  if (hasRevealedA == false && hasRevealedB == true) {\r... */\n      iszero\n      tag_212\n      jumpi\n        /* \"RockPaperScissors.sol\":8184:8205  announceWinner(userB) */\n      0xb8da1b0c48f64354010c03d6da0395ab8afa6e195dc68d8a02e23ee0ae53cf6f\n        /* \"RockPaperScissors.sol\":8199:8204  userB */\n      0x01\n      0x00\n      swap1\n      sload\n      swap1\n      0x0100\n      exp\n      swap1\n      div\n      0xffffffffffffffffffffffffffffffffffffffff\n      and\n        /* \"RockPaperScissors.sol\":8184:8205  announceWinner(userB) */\n      mload(0x40)\n      tag_213\n      swap2\n      swap1\n      tag_143\n      jump\t// in\n    tag_213:\n      mload(0x40)\n      dup1\n      swap2\n      sub\n      swap1\n      log1\n        /* \"RockPaperScissors.sol\":8220:8225  userB */\n      0x01\n      0x00\n      swap1\n      sload\n      swap1\n      0x0100\n      exp\n      swap1\n      div\n      0xffffffffffffffffffffffffffffffffffffffff\n      and\n        /* \"RockPaperScissors.sol\":8220:8234  userB.transfer */\n      0xffffffffffffffffffffffffffffffffffffffff\n      and\n        /* \"RockPaperScissors.sol\":8220:8241  userB.transfer(prize) */\n      0x08fc\n        /* \"RockPaperScissors.sol\":8235:8240  prize */\n      sload(0x05)\n        /* \"RockPaperScissors.sol\":8220:8241  userB.transfer(prize) */\n      swap1\n      dup2\n      iszero\n      mul\n      swap1\n      mload(0x40)\n      0x00\n      mload(0x40)\n      dup1\n      dup4\n      sub\n      dup2\n      dup6\n      dup9\n      dup9\n      call\n      swap4\n      pop\n      pop\n      pop\n      pop\n      iszero\n      dup1\n      iszero\n      tag_215\n      jumpi\n      returndatasize\n      0x00\n      dup1\n      returndatacopy\n      revert(0x00, returndatasize)\n    tag_215:\n      pop\n        /* \"RockPaperScissors.sol\":8113:8407  if (hasRevealedA == false && hasRevealedB == true) {\r... */\n      jump(tag_216)\n    tag_212:\n        /* \"RockPaperScissors.sol\":8310:8315  tie() */\n      0xd6f5c93907b47fb5605cafc7535e8f56e8ce072b6259b851602c62e57a4dc60d\n      mload(0x40)\n      mload(0x40)\n      dup1\n      swap2\n      sub\n      swap1\n      log1\n        /* \"RockPaperScissors.sol\":8330:8335  userA */\n      0x00\n      dup1\n      sload\n      swap1\n      0x0100\n      exp\n      swap1\n      div\n      0xffffffffffffffffffffffffffffffffffffffff\n      and\n        /* \"RockPaperScissors.sol\":8330:8344  userA.transfer */\n      0xffffffffffffffffffffffffffffffffffffffff\n      and\n        /* \"RockPaperScissors.sol\":8330:8355  userA.transfer((prize/2)) */\n      0x08fc\n        /* \"RockPaperScissors.sol\":8352:8353  2 */\n      0x02\n        /* \"RockPaperScissors.sol\":8346:8351  prize */\n      sload(0x05)\n        /* \"RockPaperScissors.sol\":8346:8353  prize/2 */\n      tag_217\n      swap2\n      swap1\n      tag_134\n      jump\t// in\n    tag_217:\n        /* \"RockPaperScissors.sol\":8330:8355  userA.transfer((prize/2)) */\n      swap1\n      dup2\n      iszero\n      mul\n      swap1\n      mload(0x40)\n      0x00\n      mload(0x40)\n      dup1\n      dup4\n      sub\n      dup2\n      dup6\n      dup9\n      dup9\n      call\n      swap4\n      pop\n      pop\n      pop\n      pop\n      iszero\n      dup1\n      iszero\n      tag_219\n      jumpi\n      returndatasize\n      0x00\n      dup1\n      returndatacopy\n      revert(0x00, returndatasize)\n    tag_219:\n      pop\n        /* \"RockPaperScissors.sol\":8370:8375  userB */\n      0x01\n      0x00\n      swap1\n      sload\n      swap1\n      0x0100\n      exp\n      swap1\n      div\n      0xffffffffffffffffffffffffffffffffffffffff\n      and\n        /* \"RockPaperScissors.sol\":8370:8384  userB.transfer */\n      0xffffffffffffffffffffffffffffffffffffffff\n      and\n        /* \"RockPaperScissors.sol\":8370:8395  userB.transfer((prize/2)) */\n      0x08fc\n        /* \"RockPaperScissors.sol\":8392:8393  2 */\n      0x02\n        /* \"RockPaperScissors.sol\":8386:8391  prize */\n      sload(0x05)\n        /* \"RockPaperScissors.sol\":8386:8393  prize/2 */\n      tag_220\n      swap2\n      swap1\n      tag_134\n      jump\t// in\n    tag_220:\n        /* \"RockPaperScissors.sol\":8370:8395  userB.transfer((prize/2)) */\n      swap1\n      dup2\n      iszero\n      mul\n      swap1\n      mload(0x40)\n      0x00\n      mload(0x40)\n      dup1\n      dup4\n      sub\n      dup2\n      dup6\n      dup9\n      dup9\n      call\n      swap4\n      pop\n      pop\n      pop\n      pop\n      iszero\n      dup1\n      iszero\n      tag_222\n      jumpi\n      returndatasize\n      0x00\n      dup1\n      returndatacopy\n      revert(0x00, returndatasize)\n    tag_222:\n      pop\n        /* \"RockPaperScissors.sol\":8113:8407  if (hasRevealedA == false && hasRevealedB == true) {\r... */\n    tag_216:\n        /* \"RockPaperScissors.sol\":7958:8407  if (hasRevealedA == true && hasRevealedB == false) {\r... */\n    tag_210:\n        /* \"RockPaperScissors.sol\":5356:8407  if (hasRevealedA == true && hasRevealedB == true) { // Both revealed\r... */\n    tag_204:\n        /* \"RockPaperScissors.sol\":8425:8426  0 */\n      0x00\n        /* \"RockPaperScissors.sol\":8417:8422  prize */\n      0x05\n        /* \"RockPaperScissors.sol\":8417:8426  prize = 0 */\n      dup2\n      swap1\n      sstore\n      pop\n        /* \"RockPaperScissors.sol\":5074:8434  function announceResult() external \r... */\n      pop\n      jump\t// out\n        /* \"RockPaperScissors.sol\":8624:8888  function parseUserPick(bytes32 pick) internal pure returns (uint state) {\r... */\n    tag_127:\n        /* \"RockPaperScissors.sol\":8684:8694  uint state */\n      0x00\n        /* \"RockPaperScissors.sol\":8719:8736  keccak256(\"rock\") */\n      0x10977e4d68108d418408bc9310b60fc6d0a750c63ccef42cfb0ead23ab73d102\n        /* \"RockPaperScissors.sol\":8711:8715  pick */\n      dup3\n        /* \"RockPaperScissors.sol\":8711:8736  pick == keccak256(\"rock\") */\n      eq\n        /* \"RockPaperScissors.sol\":8707:8861  if (pick == keccak256(\"rock\")) return 1;\r... */\n      iszero\n      tag_224\n      jumpi\n        /* \"RockPaperScissors.sol\":8745:8746  1 */\n      0x01\n        /* \"RockPaperScissors.sol\":8738:8746  return 1 */\n      swap1\n      pop\n      jump(tag_223)\n        /* \"RockPaperScissors.sol\":8707:8861  if (pick == keccak256(\"rock\")) return 1;\r... */\n    tag_224:\n        /* \"RockPaperScissors.sol\":8774:8792  keccak256(\"paper\") */\n      0xea923ca2cdda6b54f4fb2bf6a063e5a59a6369ca4c4ae2c4ce02a147b3036a21\n        /* \"RockPaperScissors.sol\":8766:8770  pick */\n      dup3\n        /* \"RockPaperScissors.sol\":8766:8792  pick == keccak256(\"paper\") */\n      eq\n        /* \"RockPaperScissors.sol\":8762:8861  if (pick == keccak256(\"paper\")) return 2;\r... */\n      iszero\n      tag_226\n      jumpi\n        /* \"RockPaperScissors.sol\":8801:8802  2 */\n      0x02\n        /* \"RockPaperScissors.sol\":8794:8802  return 2 */\n      swap1\n      pop\n      jump(tag_223)\n        /* \"RockPaperScissors.sol\":8762:8861  if (pick == keccak256(\"paper\")) return 2;\r... */\n    tag_226:\n        /* \"RockPaperScissors.sol\":8830:8851  keccak256(\"scissors\") */\n      0x389a2d4e358d901bfdf22245f32b4b0a401cc16a4b92155a2ee5da98273dad9a\n        /* \"RockPaperScissors.sol\":8822:8826  pick */\n      dup3\n        /* \"RockPaperScissors.sol\":8822:8851  pick == keccak256(\"scissors\") */\n      eq\n        /* \"RockPaperScissors.sol\":8818:8861  if (pick == keccak256(\"scissors\")) return 3 */\n      iszero\n      tag_228\n      jumpi\n        /* \"RockPaperScissors.sol\":8860:8861  3 */\n      0x03\n        /* \"RockPaperScissors.sol\":8853:8861  return 3 */\n      swap1\n      pop\n      jump(tag_223)\n        /* \"RockPaperScissors.sol\":8818:8861  if (pick == keccak256(\"scissors\")) return 3 */\n    tag_228:\n        /* \"RockPaperScissors.sol\":8879:8880  0 */\n      0x00\n        /* \"RockPaperScissors.sol\":8872:8880  return 0 */\n      swap1\n      pop\n        /* \"RockPaperScissors.sol\":8624:8888  function parseUserPick(bytes32 pick) internal pure returns (uint state) {\r... */\n    tag_223:\n      swap2\n      swap1\n      pop\n      jump\t// out\n        /* \"#utility.yul\":7:146   */\n    tag_230:\n        /* \"#utility.yul\":53:58   */\n      0x00\n        /* \"#utility.yul\":91:97   */\n      dup2\n        /* \"#utility.yul\":78:98   */\n      calldataload\n        /* \"#utility.yul\":69:98   */\n      swap1\n      pop\n        /* \"#utility.yul\":107:140   */\n      tag_232\n        /* \"#utility.yul\":134:139   */\n      dup2\n        /* \"#utility.yul\":107:140   */\n      tag_233\n      jump\t// in\n    tag_232:\n        /* \"#utility.yul\":7:146   */\n      swap3\n      swap2\n      pop\n      pop\n      jump\t// out\n        /* \"#utility.yul\":166:719   */\n    tag_234:\n        /* \"#utility.yul\":224:232   */\n      0x00\n        /* \"#utility.yul\":234:240   */\n      dup1\n        /* \"#utility.yul\":284:287   */\n      dup4\n        /* \"#utility.yul\":277:281   */\n      0x1f\n        /* \"#utility.yul\":269:275   */\n      dup5\n        /* \"#utility.yul\":265:282   */\n      add\n        /* \"#utility.yul\":261:288   */\n      slt\n        /* \"#utility.yul\":251:373   */\n      tag_236\n      jumpi\n        /* \"#utility.yul\":292:371   */\n      tag_237\n      tag_238\n      jump\t// in\n    tag_237:\n        /* \"#utility.yul\":251:373   */\n    tag_236:\n        /* \"#utility.yul\":405:411   */\n      dup3\n        /* \"#utility.yul\":392:412   */\n      calldataload\n        /* \"#utility.yul\":382:412   */\n      swap1\n      pop\n        /* \"#utility.yul\":435:453   */\n      0xffffffffffffffff\n        /* \"#utility.yul\":427:433   */\n      dup2\n        /* \"#utility.yul\":424:454   */\n      gt\n        /* \"#utility.yul\":421:538   */\n      iszero\n      tag_239\n      jumpi\n        /* \"#utility.yul\":457:536   */\n      tag_240\n      tag_241\n      jump\t// in\n    tag_240:\n        /* \"#utility.yul\":421:538   */\n    tag_239:\n        /* \"#utility.yul\":571:575   */\n      0x20\n        /* \"#utility.yul\":563:569   */\n      dup4\n        /* \"#utility.yul\":559:576   */\n      add\n        /* \"#utility.yul\":547:576   */\n      swap2\n      pop\n        /* \"#utility.yul\":625:628   */\n      dup4\n        /* \"#utility.yul\":617:621   */\n      0x01\n        /* \"#utility.yul\":609:615   */\n      dup3\n        /* \"#utility.yul\":605:622   */\n      mul\n        /* \"#utility.yul\":595:603   */\n      dup4\n        /* \"#utility.yul\":591:623   */\n      add\n        /* \"#utility.yul\":588:629   */\n      gt\n        /* \"#utility.yul\":585:713   */\n      iszero\n      tag_242\n      jumpi\n        /* \"#utility.yul\":632:711   */\n      tag_243\n      tag_244\n      jump\t// in\n    tag_243:\n        /* \"#utility.yul\":585:713   */\n    tag_242:\n        /* \"#utility.yul\":166:719   */\n      swap3\n      pop\n      swap3\n      swap1\n      pop\n      jump\t// out\n        /* \"#utility.yul\":725:1054   */\n    tag_52:\n        /* \"#utility.yul\":784:790   */\n      0x00\n        /* \"#utility.yul\":833:835   */\n      0x20\n        /* \"#utility.yul\":821:830   */\n      dup3\n        /* \"#utility.yul\":812:819   */\n      dup5\n        /* \"#utility.yul\":808:831   */\n      sub\n        /* \"#utility.yul\":804:836   */\n      slt\n        /* \"#utility.yul\":801:920   */\n      iszero\n      tag_246\n      jumpi\n        /* \"#utility.yul\":839:918   */\n      tag_247\n      tag_248\n      jump\t// in\n    tag_247:\n        /* \"#utility.yul\":801:920   */\n    tag_246:\n        /* \"#utility.yul\":959:960   */\n      0x00\n        /* \"#utility.yul\":984:1037   */\n      tag_249\n        /* \"#utility.yul\":1029:1036   */\n      dup5\n        /* \"#utility.yul\":1020:1026   */\n      dup3\n        /* \"#utility.yul\":1009:1018   */\n      dup6\n        /* \"#utility.yul\":1005:1027   */\n      add\n        /* \"#utility.yul\":984:1037   */\n      tag_230\n      jump\t// in\n    tag_249:\n        /* \"#utility.yul\":974:1037   */\n      swap2\n      pop\n        /* \"#utility.yul\":930:1047   */\n      pop\n        /* \"#utility.yul\":725:1054   */\n      swap3\n      swap2\n      pop\n      pop\n      jump\t// out\n        /* \"#utility.yul\":1060:1934   */\n    tag_45:\n        /* \"#utility.yul\":1152:1158   */\n      0x00\n        /* \"#utility.yul\":1160:1166   */\n      dup1\n        /* \"#utility.yul\":1168:1174   */\n      0x00\n        /* \"#utility.yul\":1176:1182   */\n      dup1\n        /* \"#utility.yul\":1225:1227   */\n      0x40\n        /* \"#utility.yul\":1213:1222   */\n      dup6\n        /* \"#utility.yul\":1204:1211   */\n      dup8\n        /* \"#utility.yul\":1200:1223   */\n      sub\n        /* \"#utility.yul\":1196:1228   */\n      slt\n        /* \"#utility.yul\":1193:1312   */\n      iszero\n      tag_251\n      jumpi\n        /* \"#utility.yul\":1231:1310   */\n      tag_252\n      tag_248\n      jump\t// in\n    tag_252:\n        /* \"#utility.yul\":1193:1312   */\n    tag_251:\n        /* \"#utility.yul\":1379:1380   */\n      0x00\n        /* \"#utility.yul\":1368:1377   */\n      dup6\n        /* \"#utility.yul\":1364:1381   */\n      add\n        /* \"#utility.yul\":1351:1382   */\n      calldataload\n        /* \"#utility.yul\":1409:1427   */\n      0xffffffffffffffff\n        /* \"#utility.yul\":1401:1407   */\n      dup2\n        /* \"#utility.yul\":1398:1428   */\n      gt\n        /* \"#utility.yul\":1395:1512   */\n      iszero\n      tag_253\n      jumpi\n        /* \"#utility.yul\":1431:1510   */\n      tag_254\n      tag_255\n      jump\t// in\n    tag_254:\n        /* \"#utility.yul\":1395:1512   */\n    tag_253:\n        /* \"#utility.yul\":1544:1609   */\n      tag_256\n        /* \"#utility.yul\":1601:1608   */\n      dup8\n        /* \"#utility.yul\":1592:1598   */\n      dup3\n        /* \"#utility.yul\":1581:1590   */\n      dup9\n        /* \"#utility.yul\":1577:1599   */\n      add\n        /* \"#utility.yul\":1544:1609   */\n      tag_234\n      jump\t// in\n    tag_256:\n        /* \"#utility.yul\":1526:1609   */\n      swap5\n      pop\n      swap5\n      pop\n        /* \"#utility.yul\":1322:1619   */\n      pop\n        /* \"#utility.yul\":1686:1688   */\n      0x20\n        /* \"#utility.yul\":1675:1684   */\n      dup6\n        /* \"#utility.yul\":1671:1689   */\n      add\n        /* \"#utility.yul\":1658:1690   */\n      calldataload\n        /* \"#utility.yul\":1717:1735   */\n      0xffffffffffffffff\n        /* \"#utility.yul\":1709:1715   */\n      dup2\n        /* \"#utility.yul\":1706:1736   */\n      gt\n        /* \"#utility.yul\":1703:1820   */\n      iszero\n      tag_257\n      jumpi\n        /* \"#utility.yul\":1739:1818   */\n      tag_258\n      tag_255\n      jump\t// in\n    tag_258:\n        /* \"#utility.yul\":1703:1820   */\n    tag_257:\n        /* \"#utility.yul\":1852:1917   */\n      tag_259\n        /* \"#utility.yul\":1909:1916   */\n      dup8\n        /* \"#utility.yul\":1900:1906   */\n      dup3\n        /* \"#utility.yul\":1889:1898   */\n      dup9\n        /* \"#utility.yul\":1885:1907   */\n      add\n        /* \"#utility.yul\":1852:1917   */\n      tag_234\n      jump\t// in\n    tag_259:\n        /* \"#utility.yul\":1834:1917   */\n      swap3\n      pop\n      swap3\n      pop\n        /* \"#utility.yul\":1629:1927   */\n      pop\n        /* \"#utility.yul\":1060:1934   */\n      swap3\n      swap6\n      swap2\n      swap5\n      pop\n      swap3\n      pop\n      jump\t// out\n        /* \"#utility.yul\":1940:2087   */\n    tag_260:\n        /* \"#utility.yul\":2035:2080   */\n      tag_262\n        /* \"#utility.yul\":2074:2079   */\n      dup2\n        /* \"#utility.yul\":2035:2080   */\n      tag_263\n      jump\t// in\n    tag_262:\n        /* \"#utility.yul\":2030:2033   */\n      dup3\n        /* \"#utility.yul\":2023:2081   */\n      mstore\n        /* \"#utility.yul\":1940:2087   */\n      pop\n      pop\n      jump\t// out\n        /* \"#utility.yul\":2093:2235   */\n    tag_264:\n        /* \"#utility.yul\":2196:2228   */\n      tag_266\n        /* \"#utility.yul\":2222:2227   */\n      dup2\n        /* \"#utility.yul\":2196:2228   */\n      tag_267\n      jump\t// in\n    tag_266:\n        /* \"#utility.yul\":2191:2194   */\n      dup3\n        /* \"#utility.yul\":2184:2229   */\n      mstore\n        /* \"#utility.yul\":2093:2235   */\n      pop\n      pop\n      jump\t// out\n        /* \"#utility.yul\":2241:2359   */\n    tag_268:\n        /* \"#utility.yul\":2328:2352   */\n      tag_270\n        /* \"#utility.yul\":2346:2351   */\n      dup2\n        /* \"#utility.yul\":2328:2352   */\n      tag_271\n      jump\t// in\n    tag_270:\n        /* \"#utility.yul\":2323:2326   */\n      dup3\n        /* \"#utility.yul\":2316:2353   */\n      mstore\n        /* \"#utility.yul\":2241:2359   */\n      pop\n      pop\n      jump\t// out\n        /* \"#utility.yul\":2365:2474   */\n    tag_272:\n        /* \"#utility.yul\":2446:2467   */\n      tag_274\n        /* \"#utility.yul\":2461:2466   */\n      dup2\n        /* \"#utility.yul\":2446:2467   */\n      tag_275\n      jump\t// in\n    tag_274:\n        /* \"#utility.yul\":2441:2444   */\n      dup3\n        /* \"#utility.yul\":2434:2468   */\n      mstore\n        /* \"#utility.yul\":2365:2474   */\n      pop\n      pop\n      jump\t// out\n        /* \"#utility.yul\":2480:2598   */\n    tag_276:\n        /* \"#utility.yul\":2567:2591   */\n      tag_278\n        /* \"#utility.yul\":2585:2590   */\n      dup2\n        /* \"#utility.yul\":2567:2591   */\n      tag_279\n      jump\t// in\n    tag_278:\n        /* \"#utility.yul\":2562:2565   */\n      dup3\n        /* \"#utility.yul\":2555:2592   */\n      mstore\n        /* \"#utility.yul\":2480:2598   */\n      pop\n      pop\n      jump\t// out\n        /* \"#utility.yul\":2626:2940   */\n    tag_280:\n        /* \"#utility.yul\":2740:2743   */\n      0x00\n        /* \"#utility.yul\":2761:2849   */\n      tag_282\n        /* \"#utility.yul\":2842:2848   */\n      dup4\n        /* \"#utility.yul\":2837:2840   */\n      dup6\n        /* \"#utility.yul\":2761:2849   */\n      tag_283\n      jump\t// in\n    tag_282:\n        /* \"#utility.yul\":2754:2849   */\n      swap4\n      pop\n        /* \"#utility.yul\":2859:2902   */\n      tag_284\n        /* \"#utility.yul\":2895:2901   */\n      dup4\n        /* \"#utility.yul\":2890:2893   */\n      dup6\n        /* \"#utility.yul\":2883:2888   */\n      dup5\n        /* \"#utility.yul\":2859:2902   */\n      tag_285\n      jump\t// in\n    tag_284:\n        /* \"#utility.yul\":2927:2933   */\n      dup3\n        /* \"#utility.yul\":2922:2925   */\n      dup5\n        /* \"#utility.yul\":2918:2934   */\n      add\n        /* \"#utility.yul\":2911:2934   */\n      swap1\n      pop\n        /* \"#utility.yul\":2626:2940   */\n      swap4\n      swap3\n      pop\n      pop\n      pop\n      jump\t// out\n        /* \"#utility.yul\":2970:3287   */\n    tag_286:\n        /* \"#utility.yul\":3086:3089   */\n      0x00\n        /* \"#utility.yul\":3107:3196   */\n      tag_288\n        /* \"#utility.yul\":3189:3195   */\n      dup4\n        /* \"#utility.yul\":3184:3187   */\n      dup6\n        /* \"#utility.yul\":3107:3196   */\n      tag_289\n      jump\t// in\n    tag_288:\n        /* \"#utility.yul\":3100:3196   */\n      swap4\n      pop\n        /* \"#utility.yul\":3206:3249   */\n      tag_290\n        /* \"#utility.yul\":3242:3248   */\n      dup4\n        /* \"#utility.yul\":3237:3240   */\n      dup6\n        /* \"#utility.yul\":3230:3235   */\n      dup5\n        /* \"#utility.yul\":3206:3249   */\n      tag_285\n      jump\t// in\n    tag_290:\n        /* \"#utility.yul\":3274:3280   */\n      dup3\n        /* \"#utility.yul\":3269:3272   */\n      dup5\n        /* \"#utility.yul\":3265:3281   */\n      add\n        /* \"#utility.yul\":3258:3281   */\n      swap1\n      pop\n        /* \"#utility.yul\":2970:3287   */\n      swap4\n      swap3\n      pop\n      pop\n      pop\n      jump\t// out\n        /* \"#utility.yul\":3293:3411   */\n    tag_291:\n        /* \"#utility.yul\":3380:3404   */\n      tag_293\n        /* \"#utility.yul\":3398:3403   */\n      dup2\n        /* \"#utility.yul\":3380:3404   */\n      tag_294\n      jump\t// in\n    tag_293:\n        /* \"#utility.yul\":3375:3378   */\n      dup3\n        /* \"#utility.yul\":3368:3405   */\n      mstore\n        /* \"#utility.yul\":3293:3411   */\n      pop\n      pop\n      jump\t// out\n        /* \"#utility.yul\":3417:3708   */\n    tag_96:\n        /* \"#utility.yul\":3557:3560   */\n      0x00\n        /* \"#utility.yul\":3579:3682   */\n      tag_296\n        /* \"#utility.yul\":3678:3681   */\n      dup3\n        /* \"#utility.yul\":3669:3675   */\n      dup5\n        /* \"#utility.yul\":3661:3667   */\n      dup7\n        /* \"#utility.yul\":3579:3682   */\n      tag_280\n      jump\t// in\n    tag_296:\n        /* \"#utility.yul\":3572:3682   */\n      swap2\n      pop\n        /* \"#utility.yul\":3699:3702   */\n      dup2\n        /* \"#utility.yul\":3692:3702   */\n      swap1\n      pop\n        /* \"#utility.yul\":3417:3708   */\n      swap4\n      swap3\n      pop\n      pop\n      pop\n      jump\t// out\n        /* \"#utility.yul\":3714:4189   */\n    tag_93:\n        /* \"#utility.yul\":3914:3917   */\n      0x00\n        /* \"#utility.yul\":3936:4041   */\n      tag_298\n        /* \"#utility.yul\":4037:4040   */\n      dup3\n        /* \"#utility.yul\":4028:4034   */\n      dup7\n        /* \"#utility.yul\":4020:4026   */\n      dup9\n        /* \"#utility.yul\":3936:4041   */\n      tag_286\n      jump\t// in\n    tag_298:\n        /* \"#utility.yul\":3929:4041   */\n      swap2\n      pop\n        /* \"#utility.yul\":4058:4163   */\n      tag_299\n        /* \"#utility.yul\":4159:4162   */\n      dup3\n        /* \"#utility.yul\":4150:4156   */\n      dup5\n        /* \"#utility.yul\":4142:4148   */\n      dup7\n        /* \"#utility.yul\":4058:4163   */\n      tag_286\n      jump\t// in\n    tag_299:\n        /* \"#utility.yul\":4051:4163   */\n      swap2\n      pop\n        /* \"#utility.yul\":4180:4183   */\n      dup2\n        /* \"#utility.yul\":4173:4183   */\n      swap1\n      pop\n        /* \"#utility.yul\":3714:4189   */\n      swap6\n      swap5\n      pop\n      pop\n      pop\n      pop\n      pop\n      jump\t// out\n        /* \"#utility.yul\":4195:4417   */\n    tag_36:\n        /* \"#utility.yul\":4288:4292   */\n      0x00\n        /* \"#utility.yul\":4326:4328   */\n      0x20\n        /* \"#utility.yul\":4315:4324   */\n      dup3\n        /* \"#utility.yul\":4311:4329   */\n      add\n        /* \"#utility.yul\":4303:4329   */\n      swap1\n      pop\n        /* \"#utility.yul\":4339:4410   */\n      tag_301\n        /* \"#utility.yul\":4407:4408   */\n      0x00\n        /* \"#utility.yul\":4396:4405   */\n      dup4\n        /* \"#utility.yul\":4392:4409   */\n      add\n        /* \"#utility.yul\":4383:4389   */\n      dup5\n        /* \"#utility.yul\":4339:4410   */\n      tag_268\n      jump\t// in\n    tag_301:\n        /* \"#utility.yul\":4195:4417   */\n      swap3\n      swap2\n      pop\n      pop\n      jump\t// out\n        /* \"#utility.yul\":4423:4661   */\n    tag_143:\n        /* \"#utility.yul\":4524:4528   */\n      0x00\n        /* \"#utility.yul\":4562:4564   */\n      0x20\n        /* \"#utility.yul\":4551:4560   */\n      dup3\n        /* \"#utility.yul\":4547:4565   */\n      add\n        /* \"#utility.yul\":4539:4565   */\n      swap1\n      pop\n        /* \"#utility.yul\":4575:4654   */\n      tag_303\n        /* \"#utility.yul\":4651:4652   */\n      0x00\n        /* \"#utility.yul\":4640:4649   */\n      dup4\n        /* \"#utility.yul\":4636:4653   */\n      add\n        /* \"#utility.yul\":4627:4633   */\n      dup5\n        /* \"#utility.yul\":4575:4654   */\n      tag_260\n      jump\t// in\n    tag_303:\n        /* \"#utility.yul\":4423:4661   */\n      swap3\n      swap2\n      pop\n      pop\n      jump\t// out\n        /* \"#utility.yul\":4667:4921   */\n    tag_64:\n        /* \"#utility.yul\":4776:4780   */\n      0x00\n        /* \"#utility.yul\":4814:4816   */\n      0x20\n        /* \"#utility.yul\":4803:4812   */\n      dup3\n        /* \"#utility.yul\":4799:4817   */\n      add\n        /* \"#utility.yul\":4791:4817   */\n      swap1\n      pop\n        /* \"#utility.yul\":4827:4914   */\n      tag_305\n        /* \"#utility.yul\":4911:4912   */\n      0x00\n        /* \"#utility.yul\":4900:4909   */\n      dup4\n        /* \"#utility.yul\":4896:4913   */\n      add\n        /* \"#utility.yul\":4887:4893   */\n      dup5\n        /* \"#utility.yul\":4827:4914   */\n      tag_264\n      jump\t// in\n    tag_305:\n        /* \"#utility.yul\":4667:4921   */\n      swap3\n      swap2\n      pop\n      pop\n      jump\t// out\n        /* \"#utility.yul\":4927:5137   */\n    tag_25:\n        /* \"#utility.yul\":5014:5018   */\n      0x00\n        /* \"#utility.yul\":5052:5054   */\n      0x20\n        /* \"#utility.yul\":5041:5050   */\n      dup3\n        /* \"#utility.yul\":5037:5055   */\n      add\n        /* \"#utility.yul\":5029:5055   */\n      swap1\n      pop\n        /* \"#utility.yul\":5065:5130   */\n      tag_307\n        /* \"#utility.yul\":5127:5128   */\n      0x00\n        /* \"#utility.yul\":5116:5125   */\n      dup4\n        /* \"#utility.yul\":5112:5129   */\n      add\n        /* \"#utility.yul\":5103:5109   */\n      dup5\n        /* \"#utility.yul\":5065:5130   */\n      tag_272\n      jump\t// in\n    tag_307:\n        /* \"#utility.yul\":4927:5137   */\n      swap3\n      swap2\n      pop\n      pop\n      jump\t// out\n        /* \"#utility.yul\":5143:5365   */\n    tag_32:\n        /* \"#utility.yul\":5236:5240   */\n      0x00\n        /* \"#utility.yul\":5274:5276   */\n      0x20\n        /* \"#utility.yul\":5263:5272   */\n      dup3\n        /* \"#utility.yul\":5259:5277   */\n      add\n        /* \"#utility.yul\":5251:5277   */\n      swap1\n      pop\n        /* \"#utility.yul\":5287:5358   */\n      tag_309\n        /* \"#utility.yul\":5355:5356   */\n      0x00\n        /* \"#utility.yul\":5344:5353   */\n      dup4\n        /* \"#utility.yul\":5340:5357   */\n      add\n        /* \"#utility.yul\":5331:5337   */\n      dup5\n        /* \"#utility.yul\":5287:5358   */\n      tag_276\n      jump\t// in\n    tag_309:\n        /* \"#utility.yul\":5143:5365   */\n      swap3\n      swap2\n      pop\n      pop\n      jump\t// out\n        /* \"#utility.yul\":5371:5593   */\n    tag_57:\n        /* \"#utility.yul\":5464:5468   */\n      0x00\n        /* \"#utility.yul\":5502:5504   */\n      0x20\n        /* \"#utility.yul\":5491:5500   */\n      dup3\n        /* \"#utility.yul\":5487:5505   */\n      add\n        /* \"#utility.yul\":5479:5505   */\n      swap1\n      pop\n        /* \"#utility.yul\":5515:5586   */\n      tag_311\n        /* \"#utility.yul\":5583:5584   */\n      0x00\n        /* \"#utility.yul\":5572:5581   */\n      dup4\n        /* \"#utility.yul\":5568:5585   */\n      add\n        /* \"#utility.yul\":5559:5565   */\n      dup5\n        /* \"#utility.yul\":5515:5586   */\n      tag_291\n      jump\t// in\n    tag_311:\n        /* \"#utility.yul\":5371:5593   */\n      swap3\n      swap2\n      pop\n      pop\n      jump\t// out\n        /* \"#utility.yul\":5680:5827   */\n    tag_283:\n        /* \"#utility.yul\":5781:5792   */\n      0x00\n        /* \"#utility.yul\":5818:5821   */\n      dup2\n        /* \"#utility.yul\":5803:5821   */\n      swap1\n      pop\n        /* \"#utility.yul\":5680:5827   */\n      swap3\n      swap2\n      pop\n      pop\n      jump\t// out\n        /* \"#utility.yul\":5833:5981   */\n    tag_289:\n        /* \"#utility.yul\":5935:5946   */\n      0x00\n        /* \"#utility.yul\":5972:5975   */\n      dup2\n        /* \"#utility.yul\":5957:5975   */\n      swap1\n      pop\n        /* \"#utility.yul\":5833:5981   */\n      swap3\n      swap2\n      pop\n      pop\n      jump\t// out\n        /* \"#utility.yul\":5987:6172   */\n    tag_134:\n        /* \"#utility.yul\":6027:6028   */\n      0x00\n        /* \"#utility.yul\":6044:6064   */\n      tag_317\n        /* \"#utility.yul\":6062:6063   */\n      dup3\n        /* \"#utility.yul\":6044:6064   */\n      tag_294\n      jump\t// in\n    tag_317:\n        /* \"#utility.yul\":6039:6064   */\n      swap2\n      pop\n        /* \"#utility.yul\":6078:6098   */\n      tag_318\n        /* \"#utility.yul\":6096:6097   */\n      dup4\n        /* \"#utility.yul\":6078:6098   */\n      tag_294\n      jump\t// in\n    tag_318:\n        /* \"#utility.yul\":6073:6098   */\n      swap3\n      pop\n        /* \"#utility.yul\":6117:6118   */\n      dup3\n        /* \"#utility.yul\":6107:6142   */\n      tag_319\n      jumpi\n        /* \"#utility.yul\":6122:6140   */\n      tag_320\n      tag_321\n      jump\t// in\n    tag_320:\n        /* \"#utility.yul\":6107:6142   */\n    tag_319:\n        /* \"#utility.yul\":6164:6165   */\n      dup3\n        /* \"#utility.yul\":6161:6162   */\n      dup3\n        /* \"#utility.yul\":6157:6166   */\n      div\n        /* \"#utility.yul\":6152:6166   */\n      swap1\n      pop\n        /* \"#utility.yul\":5987:6172   */\n      swap3\n      swap2\n      pop\n      pop\n      jump\t// out\n        /* \"#utility.yul\":6178:6274   */\n    tag_271:\n        /* \"#utility.yul\":6215:6222   */\n      0x00\n        /* \"#utility.yul\":6244:6268   */\n      tag_323\n        /* \"#utility.yul\":6262:6267   */\n      dup3\n        /* \"#utility.yul\":6244:6268   */\n      tag_324\n      jump\t// in\n    tag_323:\n        /* \"#utility.yul\":6233:6268   */\n      swap1\n      pop\n        /* \"#utility.yul\":6178:6274   */\n      swap2\n      swap1\n      pop\n      jump\t// out\n        /* \"#utility.yul\":6280:6384   */\n    tag_267:\n        /* \"#utility.yul\":6325:6332   */\n      0x00\n        /* \"#utility.yul\":6354:6378   */\n      tag_326\n        /* \"#utility.yul\":6372:6377   */\n      dup3\n        /* \"#utility.yul\":6354:6378   */\n      tag_324\n      jump\t// in\n    tag_326:\n        /* \"#utility.yul\":6343:6378   */\n      swap1\n      pop\n        /* \"#utility.yul\":6280:6384   */\n      swap2\n      swap1\n      pop\n      jump\t// out\n        /* \"#utility.yul\":6390:6480   */\n    tag_275:\n        /* \"#utility.yul\":6424:6431   */\n      0x00\n        /* \"#utility.yul\":6467:6472   */\n      dup2\n        /* \"#utility.yul\":6460:6473   */\n      iszero\n        /* \"#utility.yul\":6453:6474   */\n      iszero\n        /* \"#utility.yul\":6442:6474   */\n      swap1\n      pop\n        /* \"#utility.yul\":6390:6480   */\n      swap2\n      swap1\n      pop\n      jump\t// out\n        /* \"#utility.yul\":6486:6563   */\n    tag_279:\n        /* \"#utility.yul\":6523:6530   */\n      0x00\n        /* \"#utility.yul\":6552:6557   */\n      dup2\n        /* \"#utility.yul\":6541:6557   */\n      swap1\n      pop\n        /* \"#utility.yul\":6486:6563   */\n      swap2\n      swap1\n      pop\n      jump\t// out\n        /* \"#utility.yul\":6569:6695   */\n    tag_324:\n        /* \"#utility.yul\":6606:6613   */\n      0x00\n        /* \"#utility.yul\":6646:6688   */\n      0xffffffffffffffffffffffffffffffffffffffff\n        /* \"#utility.yul\":6639:6644   */\n      dup3\n        /* \"#utility.yul\":6635:6689   */\n      and\n        /* \"#utility.yul\":6624:6689   */\n      swap1\n      pop\n        /* \"#utility.yul\":6569:6695   */\n      swap2\n      swap1\n      pop\n      jump\t// out\n        /* \"#utility.yul\":6701:6778   */\n    tag_294:\n        /* \"#utility.yul\":6738:6745   */\n      0x00\n        /* \"#utility.yul\":6767:6772   */\n      dup2\n        /* \"#utility.yul\":6756:6772   */\n      swap1\n      pop\n        /* \"#utility.yul\":6701:6778   */\n      swap2\n      swap1\n      pop\n      jump\t// out\n        /* \"#utility.yul\":6784:6918   */\n    tag_263:\n        /* \"#utility.yul\":6842:6851   */\n      0x00\n        /* \"#utility.yul\":6875:6912   */\n      tag_332\n        /* \"#utility.yul\":6906:6911   */\n      dup3\n        /* \"#utility.yul\":6875:6912   */\n      tag_333\n      jump\t// in\n    tag_332:\n        /* \"#utility.yul\":6862:6912   */\n      swap1\n      pop\n        /* \"#utility.yul\":6784:6918   */\n      swap2\n      swap1\n      pop\n      jump\t// out\n        /* \"#utility.yul\":6924:7050   */\n    tag_333:\n        /* \"#utility.yul\":6974:6983   */\n      0x00\n        /* \"#utility.yul\":7007:7044   */\n      tag_335\n        /* \"#utility.yul\":7038:7043   */\n      dup3\n        /* \"#utility.yul\":7007:7044   */\n      tag_336\n      jump\t// in\n    tag_335:\n        /* \"#utility.yul\":6994:7044   */\n      swap1\n      pop\n        /* \"#utility.yul\":6924:7050   */\n      swap2\n      swap1\n      pop\n      jump\t// out\n        /* \"#utility.yul\":7056:7169   */\n    tag_336:\n        /* \"#utility.yul\":7106:7115   */\n      0x00\n        /* \"#utility.yul\":7139:7163   */\n      tag_338\n        /* \"#utility.yul\":7157:7162   */\n      dup3\n        /* \"#utility.yul\":7139:7163   */\n      tag_324\n      jump\t// in\n    tag_338:\n        /* \"#utility.yul\":7126:7163   */\n      swap1\n      pop\n        /* \"#utility.yul\":7056:7169   */\n      swap2\n      swap1\n      pop\n      jump\t// out\n        /* \"#utility.yul\":7175:7329   */\n    tag_285:\n        /* \"#utility.yul\":7259:7265   */\n      dup3\n        /* \"#utility.yul\":7254:7257   */\n      dup2\n        /* \"#utility.yul\":7249:7252   */\n      dup4\n        /* \"#utility.yul\":7236:7266   */\n      calldatacopy\n        /* \"#utility.yul\":7321:7322   */\n      0x00\n        /* \"#utility.yul\":7312:7318   */\n      dup4\n        /* \"#utility.yul\":7307:7310   */\n      dup4\n        /* \"#utility.yul\":7303:7319   */\n      add\n        /* \"#utility.yul\":7296:7323   */\n      mstore\n        /* \"#utility.yul\":7175:7329   */\n      pop\n      pop\n      pop\n      jump\t// out\n        /* \"#utility.yul\":7521:7701   */\n    tag_321:\n        /* \"#utility.yul\":7569:7646   */\n      0x4e487b7100000000000000000000000000000000000000000000000000000000\n        /* \"#utility.yul\":7566:7567   */\n      0x00\n        /* \"#utility.yul\":7559:7647   */\n      mstore\n        /* \"#utility.yul\":7666:7670   */\n      0x12\n        /* \"#utility.yul\":7663:7664   */\n      0x04\n        /* \"#utility.yul\":7656:7671   */\n      mstore\n        /* \"#utility.yul\":7690:7694   */\n      0x24\n        /* \"#utility.yul\":7687:7688   */\n      0x00\n        /* \"#utility.yul\":7680:7695   */\n      revert\n        /* \"#utility.yul\":7707:7824   */\n    tag_241:\n        /* \"#utility.yul\":7816:7817   */\n      0x00\n        /* \"#utility.yul\":7813:7814   */\n      dup1\n        /* \"#utility.yul\":7806:7818   */\n      revert\n        /* \"#utility.yul\":7830:7947   */\n    tag_238:\n        /* \"#utility.yul\":7939:7940   */\n      0x00\n        /* \"#utility.yul\":7936:7937   */\n      dup1\n        /* \"#utility.yul\":7929:7941   */\n      revert\n        /* \"#utility.yul\":7953:8070   */\n    tag_244:\n        /* \"#utility.yul\":8062:8063   */\n      0x00\n        /* \"#utility.yul\":8059:8060   */\n      dup1\n        /* \"#utility.yul\":8052:8064   */\n      revert\n        /* \"#utility.yul\":8076:8193   */\n    tag_255:\n        /* \"#utility.yul\":8185:8186   */\n      0x00\n        /* \"#utility.yul\":8182:8183   */\n      dup1\n        /* \"#utility.yul\":8175:8187   */\n      revert\n        /* \"#utility.yul\":8199:8316   */\n    tag_248:\n        /* \"#utility.yul\":8308:8309   */\n      0x00\n        /* \"#utility.yul\":8305:8306   */\n      dup1\n        /* \"#utility.yul\":8298:8310   */\n      revert\n        /* \"#utility.yul\":8322:8444   */\n    tag_233:\n        /* \"#utility.yul\":8395:8419   */\n      tag_349\n        /* \"#utility.yul\":8413:8418   */\n      dup2\n        /* \"#utility.yul\":8395:8419   */\n      tag_279\n      jump\t// in\n    tag_349:\n        /* \"#utility.yul\":8388:8393   */\n      dup2\n        /* \"#utility.yul\":8385:8420   */\n      eq\n        /* \"#utility.yul\":8375:8438   */\n      tag_350\n      jumpi\n        /* \"#utility.yul\":8434:8435   */\n      0x00\n        /* \"#utility.yul\":8431:8432   */\n      dup1\n        /* \"#utility.yul\":8424:8436   */\n      revert\n        /* \"#utility.yul\":8375:8438   */\n    tag_350:\n        /* \"#utility.yul\":8322:8444   */\n      pop\n      jump\t// out\n\n    auxdata: 0xa264697066735822122042ec7e2c0f23bc813f45f7b93a1e39d88097743ffa5412ca095edb6498462aa764736f6c63430008070033\n}\n",
				"bytecode": {
					"linkReferences": {},
					"object": "6080604052604051620024fd380380620024fd83398181016040528101906200002991906200025e565b8273ffffffffffffffffffffffffffffffffffffffff168473ffffffffffffffffffffffffffffffffffffffff16141562000090576040517f422217da00000000000000000000000000000000000000000000000000000000815260040160405180910390fd5b836000806101000a81548173ffffffffffffffffffffffffffffffffffffffff021916908373ffffffffffffffffffffffffffffffffffffffff16021790555082600160006101000a81548173ffffffffffffffffffffffffffffffffffffffff021916908373ffffffffffffffffffffffffffffffffffffffff16021790555033600260006101000a81548173ffffffffffffffffffffffffffffffffffffffff021916908373ffffffffffffffffffffffffffffffffffffffff16021790555034600581905550603c826200016891906200032d565b42620001759190620002d0565b600381905550603c816200018a91906200032d565b600354620001999190620002d0565b6004819055506000600660006101000a81548160ff0219169083151502179055506000600660016101000a81548160ff0219169083151502179055506000600960006101000a81548160ff0219169083151502179055506000600960016101000a81548160ff0219169083151502179055506000600c60006101000a81548160ff0219169083151502179055505050505062000434565b600081519050620002418162000400565b92915050565b60008151905062000258816200041a565b92915050565b600080600080608085870312156200027b576200027a620003fb565b5b60006200028b8782880162000230565b94505060206200029e8782880162000230565b9350506040620002b18782880162000247565b9250506060620002c48782880162000247565b91505092959194509250565b6000620002dd82620003c2565b9150620002ea83620003c2565b9250827fffffffffffffffffffffffffffffffffffffffffffffffffffffffffffffffff03821115620003225762000321620003cc565b5b828201905092915050565b60006200033a82620003c2565b91506200034783620003c2565b9250817fffffffffffffffffffffffffffffffffffffffffffffffffffffffffffffffff0483118215151615620003835762000382620003cc565b5b828202905092915050565b60006200039b82620003a2565b9050919050565b600073ffffffffffffffffffffffffffffffffffffffff82169050919050565b6000819050919050565b7f4e487b7100000000000000000000000000000000000000000000000000000000600052601160045260246000fd5b600080fd5b6200040b816200038e565b81146200041757600080fd5b50565b6200042581620003c2565b81146200043157600080fd5b50565b6120b980620004446000396000f3fe608060405234801561001057600080fd5b50600436106101005760003560e01c8063a28bfb3e11610097578063deb22e9a11610066578063deb22e9a14610269578063e3ac5d2614610287578063ed873865146102a5578063f4e11bbe146102c357610100565b8063a28bfb3e146101f3578063a64e3de81461020f578063a6e664771461022d578063cb1a295f1461024b57610100565b8063495717e2116100d3578063495717e21461017d5780634d1786401461019b5780635ba1b2c7146101b9578063737ebe58146101d557610100565b806303c0f5001461010557806312fa6feb146101235780633d4ffb9314610141578063481c6a751461015f575b600080fd5b61010d6102cd565b60405161011a9190611ee3565b60405180910390f35b61012b6102e0565b6040516101389190611ee3565b60405180910390f35b6101496102f3565b6040516101569190611efe565b60405180910390f35b6101676102f9565b6040516101749190611e92565b60405180910390f35b61018561031f565b6040516101929190611efe565b60405180910390f35b6101a3610325565b6040516101b09190611ee3565b60405180910390f35b6101d360048036038101906101ce9190611d2c565b610338565b005b6101dd6107ad565b6040516101ea9190611ee3565b60405180910390f35b61020d60048036038101906102089190611cff565b6107c0565b005b610217610ad8565b6040516102249190611f19565b60405180910390f35b610235610ade565b6040516102429190611f19565b60405180910390f35b610253610ae4565b6040516102609190611ec8565b60405180910390f35b610271610b0a565b60405161027e9190611ec8565b60405180910390f35b61028f610b2e565b60405161029c9190611f19565b60405180910390f35b6102ad610b34565b6040516102ba9190611ee3565b60405180910390f35b6102cb610b47565b005b600960019054906101000a900460ff1681565b600c60009054906101000a900460ff1681565b600a5481565b600260009054906101000a900473ffffffffffffffffffffffffffffffffffffffff1681565b600b5481565b600960009054906101000a900460ff1681565b3360008054906101000a900473ffffffffffffffffffffffffffffffffffffffff1673ffffffffffffffffffffffffffffffffffffffff168173ffffffffffffffffffffffffffffffffffffffff16141580156103e35750600160009054906101000a900473ffffffffffffffffffffffffffffffffffffffff1673ffffffffffffffffffffffffffffffffffffffff168173ffffffffffffffffffffffffffffffffffffffff1614155b1561041a576040517fea42158000000000000000000000000000000000000000000000000000000000815260040160405180910390fd5b60008054906101000a900473ffffffffffffffffffffffffffffffffffffffff1673ffffffffffffffffffffffffffffffffffffffff168173ffffffffffffffffffffffffffffffffffffffff16148015610488575060011515600960009054906101000a900460ff161515145b156104bf576040517fa981eebc00000000000000000000000000000000000000000000000000000000815260040160405180910390fd5b600160009054906101000a900473ffffffffffffffffffffffffffffffffffffffff1673ffffffffffffffffffffffffffffffffffffffff168173ffffffffffffffffffffffffffffffffffffffff1614801561052f575060011515600960019054906101000a900460ff161515145b15610566576040517fa981eebc00000000000000000000000000000000000000000000000000000000815260040160405180910390fd5b6003548042116105ad57806040517f2a35a3240000000000000000000000000000000000000000000000000000000081526004016105a49190611f19565b60405180910390fd5b6004548042106105f457806040517f691e56820000000000000000000000000000000000000000000000000000000081526004016105eb9190611f19565b60405180910390fd5b60008054906101000a900473ffffffffffffffffffffffffffffffffffffffff1673ffffffffffffffffffffffffffffffffffffffff163373ffffffffffffffffffffffffffffffffffffffff16148015610662575060011515600660009054906101000a900460ff161515145b801561069b5750868686866040516020016106809493929190611e6a565b60405160208183030381529060405280519060200120600754145b156106de576001600960006101000a81548160ff02191690831515021790555086866040516106cb929190611e51565b6040518091039020600a819055506107a4565b60011515600660019054906101000a900460ff16151514801561072e5750868686866040516020016107139493929190611e6a565b60405160208183030381529060405280519060200120600854145b15610771576001600960016101000a81548160ff021916908315150217905550868660405161075e929190611e51565b6040518091039020600b819055506107a3565b6040517f6701de1400000000000000000000000000000000000000000000000000000000815260040160405180910390fd5b5b50505050505050565b600660019054906101000a900460ff1681565b3360008054906101000a900473ffffffffffffffffffffffffffffffffffffffff1673ffffffffffffffffffffffffffffffffffffffff168173ffffffffffffffffffffffffffffffffffffffff161415801561086b5750600160009054906101000a900473ffffffffffffffffffffffffffffffffffffffff1673ffffffffffffffffffffffffffffffffffffffff168173ffffffffffffffffffffffffffffffffffffffff1614155b156108a2576040517f5774d9a500000000000000000000000000000000000000000000000000000000815260040160405180910390fd5b60008054906101000a900473ffffffffffffffffffffffffffffffffffffffff1673ffffffffffffffffffffffffffffffffffffffff168173ffffffffffffffffffffffffffffffffffffffff16148015610910575060011515600660009054906101000a900460ff161515145b15610947576040517fa245b07d00000000000000000000000000000000000000000000000000000000815260040160405180910390fd5b600160009054906101000a900473ffffffffffffffffffffffffffffffffffffffff1673ffffffffffffffffffffffffffffffffffffffff168173ffffffffffffffffffffffffffffffffffffffff161480156109b7575060011515600660019054906101000a900460ff161515145b156109ee576040517fa245b07d00000000000000000000000000000000000000000000000000000000815260040160405180910390fd5b600354804210610a3557806040517f691e5682000000000000000000000000000000000000000000000000000000008152600401610a2c9190611f19565b60405180910390fd5b60008054906101000a900473ffffffffffffffffffffffffffffffffffffffff1673ffffffffffffffffffffffffffffffffffffffff163373ffffffffffffffffffffffffffffffffffffffff161415610ab0576001600660006101000a81548160ff02191690831515021790555082600781905550610ad3565b6001600660016101000a81548160ff021916908315150217905550826008819055505b505050565b60035481565b60045481565b600160009054906101000a900473ffffffffffffffffffffffffffffffffffffffff1681565b60008054906101000a900473ffffffffffffffffffffffffffffffffffffffff1681565b60055481565b600660009054906101000a900460ff1681565b600454804211610b8e57806040517f2a35a324000000000000000000000000000000000000000000000000000000008152600401610b859190611f19565b60405180910390fd5b60011515600c60009054906101000a900460ff1615151415610bdc576040517fcda3c43d00000000000000000000000000000000000000000000000000000000815260040160405180910390fd5b600260009054906101000a900473ffffffffffffffffffffffffffffffffffffffff1673ffffffffffffffffffffffffffffffffffffffff163373ffffffffffffffffffffffffffffffffffffffff1614158015610c86575060008054906101000a900473ffffffffffffffffffffffffffffffffffffffff1673ffffffffffffffffffffffffffffffffffffffff163373ffffffffffffffffffffffffffffffffffffffff1614155b8015610ce05750600160009054906101000a900473ffffffffffffffffffffffffffffffffffffffff1673ffffffffffffffffffffffffffffffffffffffff163373ffffffffffffffffffffffffffffffffffffffff1614155b15610d17576040517f08fbade400000000000000000000000000000000000000000000000000000000815260040160405180910390fd5b6001600c60006101000a81548160ff02191690831515021790555060011515600960009054906101000a900460ff161515148015610d68575060011515600960019054906101000a900460ff161515145b156118cb576000610d7a600a54611bf5565b90506000610d89600b54611bf5565b9050600082118015610d9b5750600081115b156115f1576001821415611068576001811415610ecf577fd6f5c93907b47fb5605cafc7535e8f56e8ce072b6259b851602c62e57a4dc60d60405160405180910390a160008054906101000a900473ffffffffffffffffffffffffffffffffffffffff1673ffffffffffffffffffffffffffffffffffffffff166108fc6002600554610e279190611f4a565b9081150290604051600060405180830381858888f19350505050158015610e52573d6000803e3d6000fd5b50600160009054906101000a900473ffffffffffffffffffffffffffffffffffffffff1673ffffffffffffffffffffffffffffffffffffffff166108fc6002600554610e9e9190611f4a565b9081150290604051600060405180830381858888f19350505050158015610ec9573d6000803e3d6000fd5b50611063565b6002811415610fa1577fb8da1b0c48f64354010c03d6da0395ab8afa6e195dc68d8a02e23ee0ae53cf6f600160009054906101000a900473ffffffffffffffffffffffffffffffffffffffff16604051610f299190611ead565b60405180910390a1600160009054906101000a900473ffffffffffffffffffffffffffffffffffffffff1673ffffffffffffffffffffffffffffffffffffffff166108fc6005549081150290604051600060405180830381858888f19350505050158015610f9b573d6000803e3d6000fd5b50611062565b7fb8da1b0c48f64354010c03d6da0395ab8afa6e195dc68d8a02e23ee0ae53cf6f60008054906101000a900473ffffffffffffffffffffffffffffffffffffffff16604051610ff09190611ead565b60405180910390a160008054906101000a900473ffffffffffffffffffffffffffffffffffffffff1673ffffffffffffffffffffffffffffffffffffffff166108fc6005549081150290604051600060405180830381858888f19350505050158015611060573d6000803e3d6000fd5b505b5b6115ec565b600282141561133057600181141561113f577fb8da1b0c48f64354010c03d6da0395ab8afa6e195dc68d8a02e23ee0ae53cf6f60008054906101000a900473ffffffffffffffffffffffffffffffffffffffff166040516110c99190611ead565b60405180910390a160008054906101000a900473ffffffffffffffffffffffffffffffffffffffff1673ffffffffffffffffffffffffffffffffffffffff166108fc6005549081150290604051600060405180830381858888f19350505050158015611139573d6000803e3d6000fd5b5061132b565b6002811415611265577fd6f5c93907b47fb5605cafc7535e8f56e8ce072b6259b851602c62e57a4dc60d60405160405180910390a160008054906101000a900473ffffffffffffffffffffffffffffffffffffffff1673ffffffffffffffffffffffffffffffffffffffff166108fc60026005546111bd9190611f4a565b9081150290604051600060405180830381858888f193505050501580156111e8573d6000803e3d6000fd5b50600160009054906101000a900473ffffffffffffffffffffffffffffffffffffffff1673ffffffffffffffffffffffffffffffffffffffff166108fc60026005546112349190611f4a565b9081150290604051600060405180830381858888f1935050505015801561125f573d6000803e3d6000fd5b5061132a565b7fb8da1b0c48f64354010c03d6da0395ab8afa6e195dc68d8a02e23ee0ae53cf6f600160009054906101000a900473ffffffffffffffffffffffffffffffffffffffff166040516112b69190611ead565b60405180910390a1600160009054906101000a900473ffffffffffffffffffffffffffffffffffffffff1673ffffffffffffffffffffffffffffffffffffffff166108fc6005549081150290604051600060405180830381858888f19350505050158015611328573d6000803e3d6000fd5b505b5b6115eb565b6001811415611402577fb8da1b0c48f64354010c03d6da0395ab8afa6e195dc68d8a02e23ee0ae53cf6f600160009054906101000a900473ffffffffffffffffffffffffffffffffffffffff1660405161138a9190611ead565b60405180910390a1600160009054906101000a900473ffffffffffffffffffffffffffffffffffffffff1673ffffffffffffffffffffffffffffffffffffffff166108fc6005549081150290604051600060405180830381858888f193505050501580156113fc573d6000803e3d6000fd5b506115ea565b60028114156114d0577fb8da1b0c48f64354010c03d6da0395ab8afa6e195dc68d8a02e23ee0ae53cf6f60008054906101000a900473ffffffffffffffffffffffffffffffffffffffff1660405161145a9190611ead565b60405180910390a160008054906101000a900473ffffffffffffffffffffffffffffffffffffffff1673ffffffffffffffffffffffffffffffffffffffff166108fc6005549081150290604051600060405180830381858888f193505050501580156114ca573d6000803e3d6000fd5b506115e9565b7fd6f5c93907b47fb5605cafc7535e8f56e8ce072b6259b851602c62e57a4dc60d60405160405180910390a160008054906101000a900473ffffffffffffffffffffffffffffffffffffffff1673ffffffffffffffffffffffffffffffffffffffff166108fc60026005546115459190611f4a565b9081150290604051600060405180830381858888f19350505050158015611570573d6000803e3d6000fd5b50600160009054906101000a900473ffffffffffffffffffffffffffffffffffffffff1673ffffffffffffffffffffffffffffffffffffffff166108fc60026005546115bc9190611f4a565b9081150290604051600060405180830381858888f193505050501580156115e7573d6000803e3d6000fd5b505b5b5b5b6118c4565b6000821180156116015750600081145b156116cb577fb8da1b0c48f64354010c03d6da0395ab8afa6e195dc68d8a02e23ee0ae53cf6f60008054906101000a900473ffffffffffffffffffffffffffffffffffffffff166040516116559190611ead565b60405180910390a160008054906101000a900473ffffffffffffffffffffffffffffffffffffffff1673ffffffffffffffffffffffffffffffffffffffff166108fc6005549081150290604051600060405180830381858888f193505050501580156116c5573d6000803e3d6000fd5b506118c3565b6000821480156116db5750600081115b156117a9577fb8da1b0c48f64354010c03d6da0395ab8afa6e195dc68d8a02e23ee0ae53cf6f600160009054906101000a900473ffffffffffffffffffffffffffffffffffffffff166040516117319190611ead565b60405180910390a1600160009054906101000a900473ffffffffffffffffffffffffffffffffffffffff1673ffffffffffffffffffffffffffffffffffffffff166108fc6005549081150290604051600060405180830381858888f193505050501580156117a3573d6000803e3d6000fd5b506118c2565b7fd6f5c93907b47fb5605cafc7535e8f56e8ce072b6259b851602c62e57a4dc60d60405160405180910390a160008054906101000a900473ffffffffffffffffffffffffffffffffffffffff1673ffffffffffffffffffffffffffffffffffffffff166108fc600260055461181e9190611f4a565b9081150290604051600060405180830381858888f19350505050158015611849573d6000803e3d6000fd5b50600160009054906101000a900473ffffffffffffffffffffffffffffffffffffffff1673ffffffffffffffffffffffffffffffffffffffff166108fc60026005546118959190611f4a565b9081150290604051600060405180830381858888f193505050501580156118c0573d6000803e3d6000fd5b505b5b5b5050611bea565b60011515600960009054906101000a900460ff161515148015611901575060001515600960019054906101000a900460ff161515145b156119cb577fb8da1b0c48f64354010c03d6da0395ab8afa6e195dc68d8a02e23ee0ae53cf6f60008054906101000a900473ffffffffffffffffffffffffffffffffffffffff166040516119559190611ead565b60405180910390a160008054906101000a900473ffffffffffffffffffffffffffffffffffffffff1673ffffffffffffffffffffffffffffffffffffffff166108fc6005549081150290604051600060405180830381858888f193505050501580156119c5573d6000803e3d6000fd5b50611be9565b60001515600960009054906101000a900460ff161515148015611a01575060011515600960019054906101000a900460ff161515145b15611acf577fb8da1b0c48f64354010c03d6da0395ab8afa6e195dc68d8a02e23ee0ae53cf6f600160009054906101000a900473ffffffffffffffffffffffffffffffffffffffff16604051611a579190611ead565b60405180910390a1600160009054906101000a900473ffffffffffffffffffffffffffffffffffffffff1673ffffffffffffffffffffffffffffffffffffffff166108fc6005549081150290604051600060405180830381858888f19350505050158015611ac9573d6000803e3d6000fd5b50611be8565b7fd6f5c93907b47fb5605cafc7535e8f56e8ce072b6259b851602c62e57a4dc60d60405160405180910390a160008054906101000a900473ffffffffffffffffffffffffffffffffffffffff1673ffffffffffffffffffffffffffffffffffffffff166108fc6002600554611b449190611f4a565b9081150290604051600060405180830381858888f19350505050158015611b6f573d6000803e3d6000fd5b50600160009054906101000a900473ffffffffffffffffffffffffffffffffffffffff1673ffffffffffffffffffffffffffffffffffffffff166108fc6002600554611bbb9190611f4a565b9081150290604051600060405180830381858888f19350505050158015611be6573d6000803e3d6000fd5b505b5b5b600060058190555050565b60007f10977e4d68108d418408bc9310b60fc6d0a750c63ccef42cfb0ead23ab73d102821415611c285760019050611c8f565b7fea923ca2cdda6b54f4fb2bf6a063e5a59a6369ca4c4ae2c4ce02a147b3036a21821415611c595760029050611c8f565b7f389a2d4e358d901bfdf22245f32b4b0a401cc16a4b92155a2ee5da98273dad9a821415611c8a5760039050611c8f565b600090505b919050565b600081359050611ca38161206c565b92915050565b60008083601f840112611cbf57611cbe612058565b5b8235905067ffffffffffffffff811115611cdc57611cdb612053565b5b602083019150836001820283011115611cf857611cf761205d565b5b9250929050565b600060208284031215611d1557611d14612067565b5b6000611d2384828501611c94565b91505092915050565b60008060008060408587031215611d4657611d45612067565b5b600085013567ffffffffffffffff811115611d6457611d63612062565b5b611d7087828801611ca9565b9450945050602085013567ffffffffffffffff811115611d9357611d92612062565b5b611d9f87828801611ca9565b925092505092959194509250565b611db681611fdf565b82525050565b611dc581611f8d565b82525050565b611dd481611f7b565b82525050565b611de381611f9f565b82525050565b611df281611fab565b82525050565b6000611e048385611f34565b9350611e11838584612015565b82840190509392505050565b6000611e298385611f3f565b9350611e36838584612015565b82840190509392505050565b611e4b81611fd5565b82525050565b6000611e5e828486611df8565b91508190509392505050565b6000611e77828688611e1d565b9150611e84828486611e1d565b915081905095945050505050565b6000602082019050611ea76000830184611dcb565b92915050565b6000602082019050611ec26000830184611dad565b92915050565b6000602082019050611edd6000830184611dbc565b92915050565b6000602082019050611ef86000830184611dda565b92915050565b6000602082019050611f136000830184611de9565b92915050565b6000602082019050611f2e6000830184611e42565b92915050565b600081905092915050565b600081905092915050565b6000611f5582611fd5565b9150611f6083611fd5565b925082611f7057611f6f612024565b5b828204905092915050565b6000611f8682611fb5565b9050919050565b6000611f9882611fb5565b9050919050565b60008115159050919050565b6000819050919050565b600073ffffffffffffffffffffffffffffffffffffffff82169050919050565b6000819050919050565b6000611fea82611ff1565b9050919050565b6000611ffc82612003565b9050919050565b600061200e82611fb5565b9050919050565b82818337600083830152505050565b7f4e487b7100000000000000000000000000000000000000000000000000000000600052601260045260246000fd5b600080fd5b600080fd5b600080fd5b600080fd5b600080fd5b61207581611fab565b811461208057600080fd5b5056fea264697066735822122042ec7e2c0f23bc813f45f7b93a1e39d88097743ffa5412ca095edb6498462aa764736f6c63430008070033",
					"opcodes": "PUSH1 0x80 PUSH1 0x40 MSTORE PUSH1 0x40 MLOAD PUSH3 0x24FD CODESIZE SUB DUP1 PUSH3 0x24FD DUP4 CODECOPY DUP2 DUP2 ADD PUSH1 0x40 MSTORE DUP2 ADD SWAP1 PUSH3 0x29 SWAP2 SWAP1 PUSH3 0x25E JUMP JUMPDEST DUP3 PUSH20 0xFFFFFFFFFFFFFFFFFFFFFFFFFFFFFFFFFFFFFFFF AND DUP5 PUSH20 0xFFFFFFFFFFFFFFFFFFFFFFFFFFFFFFFFFFFFFFFF AND EQ ISZERO PUSH3 0x90 JUMPI PUSH1 0x40 MLOAD PUSH32 0x422217DA00000000000000000000000000000000000000000000000000000000 DUP2 MSTORE PUSH1 0x4 ADD PUSH1 0x40 MLOAD DUP1 SWAP2 SUB SWAP1 REVERT JUMPDEST DUP4 PUSH1 0x0 DUP1 PUSH2 0x100 EXP DUP2 SLOAD DUP2 PUSH20 0xFFFFFFFFFFFFFFFFFFFFFFFFFFFFFFFFFFFFFFFF MUL NOT AND SWAP1 DUP4 PUSH20 0xFFFFFFFFFFFFFFFFFFFFFFFFFFFFFFFFFFFFFFFF AND MUL OR SWAP1 SSTORE POP DUP3 PUSH1 0x1 PUSH1 0x0 PUSH2 0x100 EXP DUP2 SLOAD DUP2 PUSH20 0xFFFFFFFFFFFFFFFFFFFFFFFFFFFFFFFFFFFFFFFF MUL NOT AND SWAP1 DUP4 PUSH20 0xFFFFFFFFFFFFFFFFFFFFFFFFFFFFFFFFFFFFFFFF AND MUL OR SWAP1 SSTORE POP CALLER PUSH1 0x2 PUSH1 0x0 PUSH2 0x100 EXP DUP2 SLOAD DUP2 PUSH20 0xFFFFFFFFFFFFFFFFFFFFFFFFFFFFFFFFFFFFFFFF MUL NOT AND SWAP1 DUP4 PUSH20 0xFFFFFFFFFFFFFFFFFFFFFFFFFFFFFFFFFFFFFFFF AND MUL OR SWAP1 SSTORE POP CALLVALUE PUSH1 0x5 DUP2 SWAP1 SSTORE POP PUSH1 0x3C DUP3 PUSH3 0x168 SWAP2 SWAP1 PUSH3 0x32D JUMP JUMPDEST TIMESTAMP PUSH3 0x175 SWAP2 SWAP1 PUSH3 0x2D0 JUMP JUMPDEST PUSH1 0x3 DUP2 SWAP1 SSTORE POP PUSH1 0x3C DUP2 PUSH3 0x18A SWAP2 SWAP1 PUSH3 0x32D JUMP JUMPDEST PUSH1 0x3 SLOAD PUSH3 0x199 SWAP2 SWAP1 PUSH3 0x2D0 JUMP JUMPDEST PUSH1 0x4 DUP2 SWAP1 SSTORE POP PUSH1 0x0 PUSH1 0x6 PUSH1 0x0 PUSH2 0x100 EXP DUP2 SLOAD DUP2 PUSH1 0xFF MUL NOT AND SWAP1 DUP4 ISZERO ISZERO MUL OR SWAP1 SSTORE POP PUSH1 0x0 PUSH1 0x6 PUSH1 0x1 PUSH2 0x100 EXP DUP2 SLOAD DUP2 PUSH1 0xFF MUL NOT AND SWAP1 DUP4 ISZERO ISZERO MUL OR SWAP1 SSTORE POP PUSH1 0x0 PUSH1 0x9 PUSH1 0x0 PUSH2 0x100 EXP DUP2 SLOAD DUP2 PUSH1 0xFF MUL NOT AND SWAP1 DUP4 ISZERO ISZERO MUL OR SWAP1 SSTORE POP PUSH1 0x0 PUSH1 0x9 PUSH1 0x1 PUSH2 0x100 EXP DUP2 SLOAD DUP2 PUSH1 0xFF MUL NOT AND SWAP1 DUP4 ISZERO ISZERO MUL OR SWAP1 SSTORE POP PUSH1 0x0 PUSH1 0xC PUSH1 0x0 PUSH2 0x100 EXP DUP2 SLOAD DUP2 PUSH1 0xFF MUL NOT AND SWAP1 DUP4 ISZERO ISZERO MUL OR SWAP1 SSTORE POP POP POP POP POP PUSH3 0x434 JUMP JUMPDEST PUSH1 0x0 DUP2 MLOAD SWAP1 POP PUSH3 0x241 DUP2 PUSH3 0x400 JUMP JUMPDEST SWAP3 SWAP2 POP POP JUMP JUMPDEST PUSH1 0x0 DUP2 MLOAD SWAP1 POP PUSH3 0x258 DUP2 PUSH3 0x41A JUMP JUMPDEST SWAP3 SWAP2 POP POP JUMP JUMPDEST PUSH1 0x0 DUP1 PUSH1 0x0 DUP1 PUSH1 0x80 DUP6 DUP8 SUB SLT ISZERO PUSH3 0x27B JUMPI PUSH3 0x27A PUSH3 0x3FB JUMP JUMPDEST JUMPDEST PUSH1 0x0 PUSH3 0x28B DUP8 DUP3 DUP9 ADD PUSH3 0x230 JUMP JUMPDEST SWAP5 POP POP PUSH1 0x20 PUSH3 0x29E DUP8 DUP3 DUP9 ADD PUSH3 0x230 JUMP JUMPDEST SWAP4 POP POP PUSH1 0x40 PUSH3 0x2B1 DUP8 DUP3 DUP9 ADD PUSH3 0x247 JUMP JUMPDEST SWAP3 POP POP PUSH1 0x60 PUSH3 0x2C4 DUP8 DUP3 DUP9 ADD PUSH3 0x247 JUMP JUMPDEST SWAP2 POP POP SWAP3 SWAP6 SWAP2 SWAP5 POP SWAP3 POP JUMP JUMPDEST PUSH1 0x0 PUSH3 0x2DD DUP3 PUSH3 0x3C2 JUMP JUMPDEST SWAP2 POP PUSH3 0x2EA DUP4 PUSH3 0x3C2 JUMP JUMPDEST SWAP3 POP DUP3 PUSH32 0xFFFFFFFFFFFFFFFFFFFFFFFFFFFFFFFFFFFFFFFFFFFFFFFFFFFFFFFFFFFFFFFF SUB DUP3 GT ISZERO PUSH3 0x322 JUMPI PUSH3 0x321 PUSH3 0x3CC JUMP JUMPDEST JUMPDEST DUP3 DUP3 ADD SWAP1 POP SWAP3 SWAP2 POP POP JUMP JUMPDEST PUSH1 0x0 PUSH3 0x33A DUP3 PUSH3 0x3C2 JUMP JUMPDEST SWAP2 POP PUSH3 0x347 DUP4 PUSH3 0x3C2 JUMP JUMPDEST SWAP3 POP DUP2 PUSH32 0xFFFFFFFFFFFFFFFFFFFFFFFFFFFFFFFFFFFFFFFFFFFFFFFFFFFFFFFFFFFFFFFF DIV DUP4 GT DUP3 ISZERO ISZERO AND ISZERO PUSH3 0x383 JUMPI PUSH3 0x382 PUSH3 0x3CC JUMP JUMPDEST JUMPDEST DUP3 DUP3 MUL SWAP1 POP SWAP3 SWAP2 POP POP JUMP JUMPDEST PUSH1 0x0 PUSH3 0x39B DUP3 PUSH3 0x3A2 JUMP JUMPDEST SWAP1 POP SWAP2 SWAP1 POP JUMP JUMPDEST PUSH1 0x0 PUSH20 0xFFFFFFFFFFFFFFFFFFFFFFFFFFFFFFFFFFFFFFFF DUP3 AND SWAP1 POP SWAP2 SWAP1 POP JUMP JUMPDEST PUSH1 0x0 DUP2 SWAP1 POP SWAP2 SWAP1 POP JUMP JUMPDEST PUSH32 0x4E487B7100000000000000000000000000000000000000000000000000000000 PUSH1 0x0 MSTORE PUSH1 0x11 PUSH1 0x4 MSTORE PUSH1 0x24 PUSH1 0x0 REVERT JUMPDEST PUSH1 0x0 DUP1 REVERT JUMPDEST PUSH3 0x40B DUP2 PUSH3 0x38E JUMP JUMPDEST DUP2 EQ PUSH3 0x417 JUMPI PUSH1 0x0 DUP1 REVERT JUMPDEST POP JUMP JUMPDEST PUSH3 0x425 DUP2 PUSH3 0x3C2 JUMP JUMPDEST DUP2 EQ PUSH3 0x431 JUMPI PUSH1 0x0 DUP1 REVERT JUMPDEST POP JUMP JUMPDEST PUSH2 0x20B9 DUP1 PUSH3 0x444 PUSH1 0x0 CODECOPY PUSH1 0x0 RETURN INVALID PUSH1 0x80 PUSH1 0x40 MSTORE CALLVALUE DUP1 ISZERO PUSH2 0x10 JUMPI PUSH1 0x0 DUP1 REVERT JUMPDEST POP PUSH1 0x4 CALLDATASIZE LT PUSH2 0x100 JUMPI PUSH1 0x0 CALLDATALOAD PUSH1 0xE0 SHR DUP1 PUSH4 0xA28BFB3E GT PUSH2 0x97 JUMPI DUP1 PUSH4 0xDEB22E9A GT PUSH2 0x66 JUMPI DUP1 PUSH4 0xDEB22E9A EQ PUSH2 0x269 JUMPI DUP1 PUSH4 0xE3AC5D26 EQ PUSH2 0x287 JUMPI DUP1 PUSH4 0xED873865 EQ PUSH2 0x2A5 JUMPI DUP1 PUSH4 0xF4E11BBE EQ PUSH2 0x2C3 JUMPI PUSH2 0x100 JUMP JUMPDEST DUP1 PUSH4 0xA28BFB3E EQ PUSH2 0x1F3 JUMPI DUP1 PUSH4 0xA64E3DE8 EQ PUSH2 0x20F JUMPI DUP1 PUSH4 0xA6E66477 EQ PUSH2 0x22D JUMPI DUP1 PUSH4 0xCB1A295F EQ PUSH2 0x24B JUMPI PUSH2 0x100 JUMP JUMPDEST DUP1 PUSH4 0x495717E2 GT PUSH2 0xD3 JUMPI DUP1 PUSH4 0x495717E2 EQ PUSH2 0x17D JUMPI DUP1 PUSH4 0x4D178640 EQ PUSH2 0x19B JUMPI DUP1 PUSH4 0x5BA1B2C7 EQ PUSH2 0x1B9 JUMPI DUP1 PUSH4 0x737EBE58 EQ PUSH2 0x1D5 JUMPI PUSH2 0x100 JUMP JUMPDEST DUP1 PUSH4 0x3C0F500 EQ PUSH2 0x105 JUMPI DUP1 PUSH4 0x12FA6FEB EQ PUSH2 0x123 JUMPI DUP1 PUSH4 0x3D4FFB93 EQ PUSH2 0x141 JUMPI DUP1 PUSH4 0x481C6A75 EQ PUSH2 0x15F JUMPI JUMPDEST PUSH1 0x0 DUP1 REVERT JUMPDEST PUSH2 0x10D PUSH2 0x2CD JUMP JUMPDEST PUSH1 0x40 MLOAD PUSH2 0x11A SWAP2 SWAP1 PUSH2 0x1EE3 JUMP JUMPDEST PUSH1 0x40 MLOAD DUP1 SWAP2 SUB SWAP1 RETURN JUMPDEST PUSH2 0x12B PUSH2 0x2E0 JUMP JUMPDEST PUSH1 0x40 MLOAD PUSH2 0x138 SWAP2 SWAP1 PUSH2 0x1EE3 JUMP JUMPDEST PUSH1 0x40 MLOAD DUP1 SWAP2 SUB SWAP1 RETURN JUMPDEST PUSH2 0x149 PUSH2 0x2F3 JUMP JUMPDEST PUSH1 0x40 MLOAD PUSH2 0x156 SWAP2 SWAP1 PUSH2 0x1EFE JUMP JUMPDEST PUSH1 0x40 MLOAD DUP1 SWAP2 SUB SWAP1 RETURN JUMPDEST PUSH2 0x167 PUSH2 0x2F9 JUMP JUMPDEST PUSH1 0x40 MLOAD PUSH2 0x174 SWAP2 SWAP1 PUSH2 0x1E92 JUMP JUMPDEST PUSH1 0x40 MLOAD DUP1 SWAP2 SUB SWAP1 RETURN JUMPDEST PUSH2 0x185 PUSH2 0x31F JUMP JUMPDEST PUSH1 0x40 MLOAD PUSH2 0x192 SWAP2 SWAP1 PUSH2 0x1EFE JUMP JUMPDEST PUSH1 0x40 MLOAD DUP1 SWAP2 SUB SWAP1 RETURN JUMPDEST PUSH2 0x1A3 PUSH2 0x325 JUMP JUMPDEST PUSH1 0x40 MLOAD PUSH2 0x1B0 SWAP2 SWAP1 PUSH2 0x1EE3 JUMP JUMPDEST PUSH1 0x40 MLOAD DUP1 SWAP2 SUB SWAP1 RETURN JUMPDEST PUSH2 0x1D3 PUSH1 0x4 DUP1 CALLDATASIZE SUB DUP2 ADD SWAP1 PUSH2 0x1CE SWAP2 SWAP1 PUSH2 0x1D2C JUMP JUMPDEST PUSH2 0x338 JUMP JUMPDEST STOP JUMPDEST PUSH2 0x1DD PUSH2 0x7AD JUMP JUMPDEST PUSH1 0x40 MLOAD PUSH2 0x1EA SWAP2 SWAP1 PUSH2 0x1EE3 JUMP JUMPDEST PUSH1 0x40 MLOAD DUP1 SWAP2 SUB SWAP1 RETURN JUMPDEST PUSH2 0x20D PUSH1 0x4 DUP1 CALLDATASIZE SUB DUP2 ADD SWAP1 PUSH2 0x208 SWAP2 SWAP1 PUSH2 0x1CFF JUMP JUMPDEST PUSH2 0x7C0 JUMP JUMPDEST STOP JUMPDEST PUSH2 0x217 PUSH2 0xAD8 JUMP JUMPDEST PUSH1 0x40 MLOAD PUSH2 0x224 SWAP2 SWAP1 PUSH2 0x1F19 JUMP JUMPDEST PUSH1 0x40 MLOAD DUP1 SWAP2 SUB SWAP1 RETURN JUMPDEST PUSH2 0x235 PUSH2 0xADE JUMP JUMPDEST PUSH1 0x40 MLOAD PUSH2 0x242 SWAP2 SWAP1 PUSH2 0x1F19 JUMP JUMPDEST PUSH1 0x40 MLOAD DUP1 SWAP2 SUB SWAP1 RETURN JUMPDEST PUSH2 0x253 PUSH2 0xAE4 JUMP JUMPDEST PUSH1 0x40 MLOAD PUSH2 0x260 SWAP2 SWAP1 PUSH2 0x1EC8 JUMP JUMPDEST PUSH1 0x40 MLOAD DUP1 SWAP2 SUB SWAP1 RETURN JUMPDEST PUSH2 0x271 PUSH2 0xB0A JUMP JUMPDEST PUSH1 0x40 MLOAD PUSH2 0x27E SWAP2 SWAP1 PUSH2 0x1EC8 JUMP JUMPDEST PUSH1 0x40 MLOAD DUP1 SWAP2 SUB SWAP1 RETURN JUMPDEST PUSH2 0x28F PUSH2 0xB2E JUMP JUMPDEST PUSH1 0x40 MLOAD PUSH2 0x29C SWAP2 SWAP1 PUSH2 0x1F19 JUMP JUMPDEST PUSH1 0x40 MLOAD DUP1 SWAP2 SUB SWAP1 RETURN JUMPDEST PUSH2 0x2AD PUSH2 0xB34 JUMP JUMPDEST PUSH1 0x40 MLOAD PUSH2 0x2BA SWAP2 SWAP1 PUSH2 0x1EE3 JUMP JUMPDEST PUSH1 0x40 MLOAD DUP1 SWAP2 SUB SWAP1 RETURN JUMPDEST PUSH2 0x2CB PUSH2 0xB47 JUMP JUMPDEST STOP JUMPDEST PUSH1 0x9 PUSH1 0x1 SWAP1 SLOAD SWAP1 PUSH2 0x100 EXP SWAP1 DIV PUSH1 0xFF AND DUP2 JUMP JUMPDEST PUSH1 0xC PUSH1 0x0 SWAP1 SLOAD SWAP1 PUSH2 0x100 EXP SWAP1 DIV PUSH1 0xFF AND DUP2 JUMP JUMPDEST PUSH1 0xA SLOAD DUP2 JUMP JUMPDEST PUSH1 0x2 PUSH1 0x0 SWAP1 SLOAD SWAP1 PUSH2 0x100 EXP SWAP1 DIV PUSH20 0xFFFFFFFFFFFFFFFFFFFFFFFFFFFFFFFFFFFFFFFF AND DUP2 JUMP JUMPDEST PUSH1 0xB SLOAD DUP2 JUMP JUMPDEST PUSH1 0x9 PUSH1 0x0 SWAP1 SLOAD SWAP1 PUSH2 0x100 EXP SWAP1 DIV PUSH1 0xFF AND DUP2 JUMP JUMPDEST CALLER PUSH1 0x0 DUP1 SLOAD SWAP1 PUSH2 0x100 EXP SWAP1 DIV PUSH20 0xFFFFFFFFFFFFFFFFFFFFFFFFFFFFFFFFFFFFFFFF AND PUSH20 0xFFFFFFFFFFFFFFFFFFFFFFFFFFFFFFFFFFFFFFFF AND DUP2 PUSH20 0xFFFFFFFFFFFFFFFFFFFFFFFFFFFFFFFFFFFFFFFF AND EQ ISZERO DUP1 ISZERO PUSH2 0x3E3 JUMPI POP PUSH1 0x1 PUSH1 0x0 SWAP1 SLOAD SWAP1 PUSH2 0x100 EXP SWAP1 DIV PUSH20 0xFFFFFFFFFFFFFFFFFFFFFFFFFFFFFFFFFFFFFFFF AND PUSH20 0xFFFFFFFFFFFFFFFFFFFFFFFFFFFFFFFFFFFFFFFF AND DUP2 PUSH20 0xFFFFFFFFFFFFFFFFFFFFFFFFFFFFFFFFFFFFFFFF AND EQ ISZERO JUMPDEST ISZERO PUSH2 0x41A JUMPI PUSH1 0x40 MLOAD PUSH32 0xEA42158000000000000000000000000000000000000000000000000000000000 DUP2 MSTORE PUSH1 0x4 ADD PUSH1 0x40 MLOAD DUP1 SWAP2 SUB SWAP1 REVERT JUMPDEST PUSH1 0x0 DUP1 SLOAD SWAP1 PUSH2 0x100 EXP SWAP1 DIV PUSH20 0xFFFFFFFFFFFFFFFFFFFFFFFFFFFFFFFFFFFFFFFF AND PUSH20 0xFFFFFFFFFFFFFFFFFFFFFFFFFFFFFFFFFFFFFFFF AND DUP2 PUSH20 0xFFFFFFFFFFFFFFFFFFFFFFFFFFFFFFFFFFFFFFFF AND EQ DUP1 ISZERO PUSH2 0x488 JUMPI POP PUSH1 0x1 ISZERO ISZERO PUSH1 0x9 PUSH1 0x0 SWAP1 SLOAD SWAP1 PUSH2 0x100 EXP SWAP1 DIV PUSH1 0xFF AND ISZERO ISZERO EQ JUMPDEST ISZERO PUSH2 0x4BF JUMPI PUSH1 0x40 MLOAD PUSH32 0xA981EEBC00000000000000000000000000000000000000000000000000000000 DUP2 MSTORE PUSH1 0x4 ADD PUSH1 0x40 MLOAD DUP1 SWAP2 SUB SWAP1 REVERT JUMPDEST PUSH1 0x1 PUSH1 0x0 SWAP1 SLOAD SWAP1 PUSH2 0x100 EXP SWAP1 DIV PUSH20 0xFFFFFFFFFFFFFFFFFFFFFFFFFFFFFFFFFFFFFFFF AND PUSH20 0xFFFFFFFFFFFFFFFFFFFFFFFFFFFFFFFFFFFFFFFF AND DUP2 PUSH20 0xFFFFFFFFFFFFFFFFFFFFFFFFFFFFFFFFFFFFFFFF AND EQ DUP1 ISZERO PUSH2 0x52F JUMPI POP PUSH1 0x1 ISZERO ISZERO PUSH1 0x9 PUSH1 0x1 SWAP1 SLOAD SWAP1 PUSH2 0x100 EXP SWAP1 DIV PUSH1 0xFF AND ISZERO ISZERO EQ JUMPDEST ISZERO PUSH2 0x566 JUMPI PUSH1 0x40 MLOAD PUSH32 0xA981EEBC00000000000000000000000000000000000000000000000000000000 DUP2 MSTORE PUSH1 0x4 ADD PUSH1 0x40 MLOAD DUP1 SWAP2 SUB SWAP1 REVERT JUMPDEST PUSH1 0x3 SLOAD DUP1 TIMESTAMP GT PUSH2 0x5AD JUMPI DUP1 PUSH1 0x40 MLOAD PUSH32 0x2A35A32400000000000000000000000000000000000000000000000000000000 DUP2 MSTORE PUSH1 0x4 ADD PUSH2 0x5A4 SWAP2 SWAP1 PUSH2 0x1F19 JUMP JUMPDEST PUSH1 0x40 MLOAD DUP1 SWAP2 SUB SWAP1 REVERT JUMPDEST PUSH1 0x4 SLOAD DUP1 TIMESTAMP LT PUSH2 0x5F4 JUMPI DUP1 PUSH1 0x40 MLOAD PUSH32 0x691E568200000000000000000000000000000000000000000000000000000000 DUP2 MSTORE PUSH1 0x4 ADD PUSH2 0x5EB SWAP2 SWAP1 PUSH2 0x1F19 JUMP JUMPDEST PUSH1 0x40 MLOAD DUP1 SWAP2 SUB SWAP1 REVERT JUMPDEST PUSH1 0x0 DUP1 SLOAD SWAP1 PUSH2 0x100 EXP SWAP1 DIV PUSH20 0xFFFFFFFFFFFFFFFFFFFFFFFFFFFFFFFFFFFFFFFF AND PUSH20 0xFFFFFFFFFFFFFFFFFFFFFFFFFFFFFFFFFFFFFFFF AND CALLER PUSH20 0xFFFFFFFFFFFFFFFFFFFFFFFFFFFFFFFFFFFFFFFF AND EQ DUP1 ISZERO PUSH2 0x662 JUMPI POP PUSH1 0x1 ISZERO ISZERO PUSH1 0x6 PUSH1 0x0 SWAP1 SLOAD SWAP1 PUSH2 0x100 EXP SWAP1 DIV PUSH1 0xFF AND ISZERO ISZERO EQ JUMPDEST DUP1 ISZERO PUSH2 0x69B JUMPI POP DUP7 DUP7 DUP7 DUP7 PUSH1 0x40 MLOAD PUSH1 0x20 ADD PUSH2 0x680 SWAP5 SWAP4 SWAP3 SWAP2 SWAP1 PUSH2 0x1E6A JUMP JUMPDEST PUSH1 0x40 MLOAD PUSH1 0x20 DUP2 DUP4 SUB SUB DUP2 MSTORE SWAP1 PUSH1 0x40 MSTORE DUP1 MLOAD SWAP1 PUSH1 0x20 ADD KECCAK256 PUSH1 0x7 SLOAD EQ JUMPDEST ISZERO PUSH2 0x6DE JUMPI PUSH1 0x1 PUSH1 0x9 PUSH1 0x0 PUSH2 0x100 EXP DUP2 SLOAD DUP2 PUSH1 0xFF MUL NOT AND SWAP1 DUP4 ISZERO ISZERO MUL OR SWAP1 SSTORE POP DUP7 DUP7 PUSH1 0x40 MLOAD PUSH2 0x6CB SWAP3 SWAP2 SWAP1 PUSH2 0x1E51 JUMP JUMPDEST PUSH1 0x40 MLOAD DUP1 SWAP2 SUB SWAP1 KECCAK256 PUSH1 0xA DUP2 SWAP1 SSTORE POP PUSH2 0x7A4 JUMP JUMPDEST PUSH1 0x1 ISZERO ISZERO PUSH1 0x6 PUSH1 0x1 SWAP1 SLOAD SWAP1 PUSH2 0x100 EXP SWAP1 DIV PUSH1 0xFF AND ISZERO ISZERO EQ DUP1 ISZERO PUSH2 0x72E JUMPI POP DUP7 DUP7 DUP7 DUP7 PUSH1 0x40 MLOAD PUSH1 0x20 ADD PUSH2 0x713 SWAP5 SWAP4 SWAP3 SWAP2 SWAP1 PUSH2 0x1E6A JUMP JUMPDEST PUSH1 0x40 MLOAD PUSH1 0x20 DUP2 DUP4 SUB SUB DUP2 MSTORE SWAP1 PUSH1 0x40 MSTORE DUP1 MLOAD SWAP1 PUSH1 0x20 ADD KECCAK256 PUSH1 0x8 SLOAD EQ JUMPDEST ISZERO PUSH2 0x771 JUMPI PUSH1 0x1 PUSH1 0x9 PUSH1 0x1 PUSH2 0x100 EXP DUP2 SLOAD DUP2 PUSH1 0xFF MUL NOT AND SWAP1 DUP4 ISZERO ISZERO MUL OR SWAP1 SSTORE POP DUP7 DUP7 PUSH1 0x40 MLOAD PUSH2 0x75E SWAP3 SWAP2 SWAP1 PUSH2 0x1E51 JUMP JUMPDEST PUSH1 0x40 MLOAD DUP1 SWAP2 SUB SWAP1 KECCAK256 PUSH1 0xB DUP2 SWAP1 SSTORE POP PUSH2 0x7A3 JUMP JUMPDEST PUSH1 0x40 MLOAD PUSH32 0x6701DE1400000000000000000000000000000000000000000000000000000000 DUP2 MSTORE PUSH1 0x4 ADD PUSH1 0x40 MLOAD DUP1 SWAP2 SUB SWAP1 REVERT JUMPDEST JUMPDEST POP POP POP POP POP POP POP JUMP JUMPDEST PUSH1 0x6 PUSH1 0x1 SWAP1 SLOAD SWAP1 PUSH2 0x100 EXP SWAP1 DIV PUSH1 0xFF AND DUP2 JUMP JUMPDEST CALLER PUSH1 0x0 DUP1 SLOAD SWAP1 PUSH2 0x100 EXP SWAP1 DIV PUSH20 0xFFFFFFFFFFFFFFFFFFFFFFFFFFFFFFFFFFFFFFFF AND PUSH20 0xFFFFFFFFFFFFFFFFFFFFFFFFFFFFFFFFFFFFFFFF AND DUP2 PUSH20 0xFFFFFFFFFFFFFFFFFFFFFFFFFFFFFFFFFFFFFFFF AND EQ ISZERO DUP1 ISZERO PUSH2 0x86B JUMPI POP PUSH1 0x1 PUSH1 0x0 SWAP1 SLOAD SWAP1 PUSH2 0x100 EXP SWAP1 DIV PUSH20 0xFFFFFFFFFFFFFFFFFFFFFFFFFFFFFFFFFFFFFFFF AND PUSH20 0xFFFFFFFFFFFFFFFFFFFFFFFFFFFFFFFFFFFFFFFF AND DUP2 PUSH20 0xFFFFFFFFFFFFFFFFFFFFFFFFFFFFFFFFFFFFFFFF AND EQ ISZERO JUMPDEST ISZERO PUSH2 0x8A2 JUMPI PUSH1 0x40 MLOAD PUSH32 0x5774D9A500000000000000000000000000000000000000000000000000000000 DUP2 MSTORE PUSH1 0x4 ADD PUSH1 0x40 MLOAD DUP1 SWAP2 SUB SWAP1 REVERT JUMPDEST PUSH1 0x0 DUP1 SLOAD SWAP1 PUSH2 0x100 EXP SWAP1 DIV PUSH20 0xFFFFFFFFFFFFFFFFFFFFFFFFFFFFFFFFFFFFFFFF AND PUSH20 0xFFFFFFFFFFFFFFFFFFFFFFFFFFFFFFFFFFFFFFFF AND DUP2 PUSH20 0xFFFFFFFFFFFFFFFFFFFFFFFFFFFFFFFFFFFFFFFF AND EQ DUP1 ISZERO PUSH2 0x910 JUMPI POP PUSH1 0x1 ISZERO ISZERO PUSH1 0x6 PUSH1 0x0 SWAP1 SLOAD SWAP1 PUSH2 0x100 EXP SWAP1 DIV PUSH1 0xFF AND ISZERO ISZERO EQ JUMPDEST ISZERO PUSH2 0x947 JUMPI PUSH1 0x40 MLOAD PUSH32 0xA245B07D00000000000000000000000000000000000000000000000000000000 DUP2 MSTORE PUSH1 0x4 ADD PUSH1 0x40 MLOAD DUP1 SWAP2 SUB SWAP1 REVERT JUMPDEST PUSH1 0x1 PUSH1 0x0 SWAP1 SLOAD SWAP1 PUSH2 0x100 EXP SWAP1 DIV PUSH20 0xFFFFFFFFFFFFFFFFFFFFFFFFFFFFFFFFFFFFFFFF AND PUSH20 0xFFFFFFFFFFFFFFFFFFFFFFFFFFFFFFFFFFFFFFFF AND DUP2 PUSH20 0xFFFFFFFFFFFFFFFFFFFFFFFFFFFFFFFFFFFFFFFF AND EQ DUP1 ISZERO PUSH2 0x9B7 JUMPI POP PUSH1 0x1 ISZERO ISZERO PUSH1 0x6 PUSH1 0x1 SWAP1 SLOAD SWAP1 PUSH2 0x100 EXP SWAP1 DIV PUSH1 0xFF AND ISZERO ISZERO EQ JUMPDEST ISZERO PUSH2 0x9EE JUMPI PUSH1 0x40 MLOAD PUSH32 0xA245B07D00000000000000000000000000000000000000000000000000000000 DUP2 MSTORE PUSH1 0x4 ADD PUSH1 0x40 MLOAD DUP1 SWAP2 SUB SWAP1 REVERT JUMPDEST PUSH1 0x3 SLOAD DUP1 TIMESTAMP LT PUSH2 0xA35 JUMPI DUP1 PUSH1 0x40 MLOAD PUSH32 0x691E568200000000000000000000000000000000000000000000000000000000 DUP2 MSTORE PUSH1 0x4 ADD PUSH2 0xA2C SWAP2 SWAP1 PUSH2 0x1F19 JUMP JUMPDEST PUSH1 0x40 MLOAD DUP1 SWAP2 SUB SWAP1 REVERT JUMPDEST PUSH1 0x0 DUP1 SLOAD SWAP1 PUSH2 0x100 EXP SWAP1 DIV PUSH20 0xFFFFFFFFFFFFFFFFFFFFFFFFFFFFFFFFFFFFFFFF AND PUSH20 0xFFFFFFFFFFFFFFFFFFFFFFFFFFFFFFFFFFFFFFFF AND CALLER PUSH20 0xFFFFFFFFFFFFFFFFFFFFFFFFFFFFFFFFFFFFFFFF AND EQ ISZERO PUSH2 0xAB0 JUMPI PUSH1 0x1 PUSH1 0x6 PUSH1 0x0 PUSH2 0x100 EXP DUP2 SLOAD DUP2 PUSH1 0xFF MUL NOT AND SWAP1 DUP4 ISZERO ISZERO MUL OR SWAP1 SSTORE POP DUP3 PUSH1 0x7 DUP2 SWAP1 SSTORE POP PUSH2 0xAD3 JUMP JUMPDEST PUSH1 0x1 PUSH1 0x6 PUSH1 0x1 PUSH2 0x100 EXP DUP2 SLOAD DUP2 PUSH1 0xFF MUL NOT AND SWAP1 DUP4 ISZERO ISZERO MUL OR SWAP1 SSTORE POP DUP3 PUSH1 0x8 DUP2 SWAP1 SSTORE POP JUMPDEST POP POP POP JUMP JUMPDEST PUSH1 0x3 SLOAD DUP2 JUMP JUMPDEST PUSH1 0x4 SLOAD DUP2 JUMP JUMPDEST PUSH1 0x1 PUSH1 0x0 SWAP1 SLOAD SWAP1 PUSH2 0x100 EXP SWAP1 DIV PUSH20 0xFFFFFFFFFFFFFFFFFFFFFFFFFFFFFFFFFFFFFFFF AND DUP2 JUMP JUMPDEST PUSH1 0x0 DUP1 SLOAD SWAP1 PUSH2 0x100 EXP SWAP1 DIV PUSH20 0xFFFFFFFFFFFFFFFFFFFFFFFFFFFFFFFFFFFFFFFF AND DUP2 JUMP JUMPDEST PUSH1 0x5 SLOAD DUP2 JUMP JUMPDEST PUSH1 0x6 PUSH1 0x0 SWAP1 SLOAD SWAP1 PUSH2 0x100 EXP SWAP1 DIV PUSH1 0xFF AND DUP2 JUMP JUMPDEST PUSH1 0x4 SLOAD DUP1 TIMESTAMP GT PUSH2 0xB8E JUMPI DUP1 PUSH1 0x40 MLOAD PUSH32 0x2A35A32400000000000000000000000000000000000000000000000000000000 DUP2 MSTORE PUSH1 0x4 ADD PUSH2 0xB85 SWAP2 SWAP1 PUSH2 0x1F19 JUMP JUMPDEST PUSH1 0x40 MLOAD DUP1 SWAP2 SUB SWAP1 REVERT JUMPDEST PUSH1 0x1 ISZERO ISZERO PUSH1 0xC PUSH1 0x0 SWAP1 SLOAD SWAP1 PUSH2 0x100 EXP SWAP1 DIV PUSH1 0xFF AND ISZERO ISZERO EQ ISZERO PUSH2 0xBDC JUMPI PUSH1 0x40 MLOAD PUSH32 0xCDA3C43D00000000000000000000000000000000000000000000000000000000 DUP2 MSTORE PUSH1 0x4 ADD PUSH1 0x40 MLOAD DUP1 SWAP2 SUB SWAP1 REVERT JUMPDEST PUSH1 0x2 PUSH1 0x0 SWAP1 SLOAD SWAP1 PUSH2 0x100 EXP SWAP1 DIV PUSH20 0xFFFFFFFFFFFFFFFFFFFFFFFFFFFFFFFFFFFFFFFF AND PUSH20 0xFFFFFFFFFFFFFFFFFFFFFFFFFFFFFFFFFFFFFFFF AND CALLER PUSH20 0xFFFFFFFFFFFFFFFFFFFFFFFFFFFFFFFFFFFFFFFF AND EQ ISZERO DUP1 ISZERO PUSH2 0xC86 JUMPI POP PUSH1 0x0 DUP1 SLOAD SWAP1 PUSH2 0x100 EXP SWAP1 DIV PUSH20 0xFFFFFFFFFFFFFFFFFFFFFFFFFFFFFFFFFFFFFFFF AND PUSH20 0xFFFFFFFFFFFFFFFFFFFFFFFFFFFFFFFFFFFFFFFF AND CALLER PUSH20 0xFFFFFFFFFFFFFFFFFFFFFFFFFFFFFFFFFFFFFFFF AND EQ ISZERO JUMPDEST DUP1 ISZERO PUSH2 0xCE0 JUMPI POP PUSH1 0x1 PUSH1 0x0 SWAP1 SLOAD SWAP1 PUSH2 0x100 EXP SWAP1 DIV PUSH20 0xFFFFFFFFFFFFFFFFFFFFFFFFFFFFFFFFFFFFFFFF AND PUSH20 0xFFFFFFFFFFFFFFFFFFFFFFFFFFFFFFFFFFFFFFFF AND CALLER PUSH20 0xFFFFFFFFFFFFFFFFFFFFFFFFFFFFFFFFFFFFFFFF AND EQ ISZERO JUMPDEST ISZERO PUSH2 0xD17 JUMPI PUSH1 0x40 MLOAD PUSH32 0x8FBADE400000000000000000000000000000000000000000000000000000000 DUP2 MSTORE PUSH1 0x4 ADD PUSH1 0x40 MLOAD DUP1 SWAP2 SUB SWAP1 REVERT JUMPDEST PUSH1 0x1 PUSH1 0xC PUSH1 0x0 PUSH2 0x100 EXP DUP2 SLOAD DUP2 PUSH1 0xFF MUL NOT AND SWAP1 DUP4 ISZERO ISZERO MUL OR SWAP1 SSTORE POP PUSH1 0x1 ISZERO ISZERO PUSH1 0x9 PUSH1 0x0 SWAP1 SLOAD SWAP1 PUSH2 0x100 EXP SWAP1 DIV PUSH1 0xFF AND ISZERO ISZERO EQ DUP1 ISZERO PUSH2 0xD68 JUMPI POP PUSH1 0x1 ISZERO ISZERO PUSH1 0x9 PUSH1 0x1 SWAP1 SLOAD SWAP1 PUSH2 0x100 EXP SWAP1 DIV PUSH1 0xFF AND ISZERO ISZERO EQ JUMPDEST ISZERO PUSH2 0x18CB JUMPI PUSH1 0x0 PUSH2 0xD7A PUSH1 0xA SLOAD PUSH2 0x1BF5 JUMP JUMPDEST SWAP1 POP PUSH1 0x0 PUSH2 0xD89 PUSH1 0xB SLOAD PUSH2 0x1BF5 JUMP JUMPDEST SWAP1 POP PUSH1 0x0 DUP3 GT DUP1 ISZERO PUSH2 0xD9B JUMPI POP PUSH1 0x0 DUP2 GT JUMPDEST ISZERO PUSH2 0x15F1 JUMPI PUSH1 0x1 DUP3 EQ ISZERO PUSH2 0x1068 JUMPI PUSH1 0x1 DUP2 EQ ISZERO PUSH2 0xECF JUMPI PUSH32 0xD6F5C93907B47FB5605CAFC7535E8F56E8CE072B6259B851602C62E57A4DC60D PUSH1 0x40 MLOAD PUSH1 0x40 MLOAD DUP1 SWAP2 SUB SWAP1 LOG1 PUSH1 0x0 DUP1 SLOAD SWAP1 PUSH2 0x100 EXP SWAP1 DIV PUSH20 0xFFFFFFFFFFFFFFFFFFFFFFFFFFFFFFFFFFFFFFFF AND PUSH20 0xFFFFFFFFFFFFFFFFFFFFFFFFFFFFFFFFFFFFFFFF AND PUSH2 0x8FC PUSH1 0x2 PUSH1 0x5 SLOAD PUSH2 0xE27 SWAP2 SWAP1 PUSH2 0x1F4A JUMP JUMPDEST SWAP1 DUP2 ISZERO MUL SWAP1 PUSH1 0x40 MLOAD PUSH1 0x0 PUSH1 0x40 MLOAD DUP1 DUP4 SUB DUP2 DUP6 DUP9 DUP9 CALL SWAP4 POP POP POP POP ISZERO DUP1 ISZERO PUSH2 0xE52 JUMPI RETURNDATASIZE PUSH1 0x0 DUP1 RETURNDATACOPY RETURNDATASIZE PUSH1 0x0 REVERT JUMPDEST POP PUSH1 0x1 PUSH1 0x0 SWAP1 SLOAD SWAP1 PUSH2 0x100 EXP SWAP1 DIV PUSH20 0xFFFFFFFFFFFFFFFFFFFFFFFFFFFFFFFFFFFFFFFF AND PUSH20 0xFFFFFFFFFFFFFFFFFFFFFFFFFFFFFFFFFFFFFFFF AND PUSH2 0x8FC PUSH1 0x2 PUSH1 0x5 SLOAD PUSH2 0xE9E SWAP2 SWAP1 PUSH2 0x1F4A JUMP JUMPDEST SWAP1 DUP2 ISZERO MUL SWAP1 PUSH1 0x40 MLOAD PUSH1 0x0 PUSH1 0x40 MLOAD DUP1 DUP4 SUB DUP2 DUP6 DUP9 DUP9 CALL SWAP4 POP POP POP POP ISZERO DUP1 ISZERO PUSH2 0xEC9 JUMPI RETURNDATASIZE PUSH1 0x0 DUP1 RETURNDATACOPY RETURNDATASIZE PUSH1 0x0 REVERT JUMPDEST POP PUSH2 0x1063 JUMP JUMPDEST PUSH1 0x2 DUP2 EQ ISZERO PUSH2 0xFA1 JUMPI PUSH32 0xB8DA1B0C48F64354010C03D6DA0395AB8AFA6E195DC68D8A02E23EE0AE53CF6F PUSH1 0x1 PUSH1 0x0 SWAP1 SLOAD SWAP1 PUSH2 0x100 EXP SWAP1 DIV PUSH20 0xFFFFFFFFFFFFFFFFFFFFFFFFFFFFFFFFFFFFFFFF AND PUSH1 0x40 MLOAD PUSH2 0xF29 SWAP2 SWAP1 PUSH2 0x1EAD JUMP JUMPDEST PUSH1 0x40 MLOAD DUP1 SWAP2 SUB SWAP1 LOG1 PUSH1 0x1 PUSH1 0x0 SWAP1 SLOAD SWAP1 PUSH2 0x100 EXP SWAP1 DIV PUSH20 0xFFFFFFFFFFFFFFFFFFFFFFFFFFFFFFFFFFFFFFFF AND PUSH20 0xFFFFFFFFFFFFFFFFFFFFFFFFFFFFFFFFFFFFFFFF AND PUSH2 0x8FC PUSH1 0x5 SLOAD SWAP1 DUP2 ISZERO MUL SWAP1 PUSH1 0x40 MLOAD PUSH1 0x0 PUSH1 0x40 MLOAD DUP1 DUP4 SUB DUP2 DUP6 DUP9 DUP9 CALL SWAP4 POP POP POP POP ISZERO DUP1 ISZERO PUSH2 0xF9B JUMPI RETURNDATASIZE PUSH1 0x0 DUP1 RETURNDATACOPY RETURNDATASIZE PUSH1 0x0 REVERT JUMPDEST POP PUSH2 0x1062 JUMP JUMPDEST PUSH32 0xB8DA1B0C48F64354010C03D6DA0395AB8AFA6E195DC68D8A02E23EE0AE53CF6F PUSH1 0x0 DUP1 SLOAD SWAP1 PUSH2 0x100 EXP SWAP1 DIV PUSH20 0xFFFFFFFFFFFFFFFFFFFFFFFFFFFFFFFFFFFFFFFF AND PUSH1 0x40 MLOAD PUSH2 0xFF0 SWAP2 SWAP1 PUSH2 0x1EAD JUMP JUMPDEST PUSH1 0x40 MLOAD DUP1 SWAP2 SUB SWAP1 LOG1 PUSH1 0x0 DUP1 SLOAD SWAP1 PUSH2 0x100 EXP SWAP1 DIV PUSH20 0xFFFFFFFFFFFFFFFFFFFFFFFFFFFFFFFFFFFFFFFF AND PUSH20 0xFFFFFFFFFFFFFFFFFFFFFFFFFFFFFFFFFFFFFFFF AND PUSH2 0x8FC PUSH1 0x5 SLOAD SWAP1 DUP2 ISZERO MUL SWAP1 PUSH1 0x40 MLOAD PUSH1 0x0 PUSH1 0x40 MLOAD DUP1 DUP4 SUB DUP2 DUP6 DUP9 DUP9 CALL SWAP4 POP POP POP POP ISZERO DUP1 ISZERO PUSH2 0x1060 JUMPI RETURNDATASIZE PUSH1 0x0 DUP1 RETURNDATACOPY RETURNDATASIZE PUSH1 0x0 REVERT JUMPDEST POP JUMPDEST JUMPDEST PUSH2 0x15EC JUMP JUMPDEST PUSH1 0x2 DUP3 EQ ISZERO PUSH2 0x1330 JUMPI PUSH1 0x1 DUP2 EQ ISZERO PUSH2 0x113F JUMPI PUSH32 0xB8DA1B0C48F64354010C03D6DA0395AB8AFA6E195DC68D8A02E23EE0AE53CF6F PUSH1 0x0 DUP1 SLOAD SWAP1 PUSH2 0x100 EXP SWAP1 DIV PUSH20 0xFFFFFFFFFFFFFFFFFFFFFFFFFFFFFFFFFFFFFFFF AND PUSH1 0x40 MLOAD PUSH2 0x10C9 SWAP2 SWAP1 PUSH2 0x1EAD JUMP JUMPDEST PUSH1 0x40 MLOAD DUP1 SWAP2 SUB SWAP1 LOG1 PUSH1 0x0 DUP1 SLOAD SWAP1 PUSH2 0x100 EXP SWAP1 DIV PUSH20 0xFFFFFFFFFFFFFFFFFFFFFFFFFFFFFFFFFFFFFFFF AND PUSH20 0xFFFFFFFFFFFFFFFFFFFFFFFFFFFFFFFFFFFFFFFF AND PUSH2 0x8FC PUSH1 0x5 SLOAD SWAP1 DUP2 ISZERO MUL SWAP1 PUSH1 0x40 MLOAD PUSH1 0x0 PUSH1 0x40 MLOAD DUP1 DUP4 SUB DUP2 DUP6 DUP9 DUP9 CALL SWAP4 POP POP POP POP ISZERO DUP1 ISZERO PUSH2 0x1139 JUMPI RETURNDATASIZE PUSH1 0x0 DUP1 RETURNDATACOPY RETURNDATASIZE PUSH1 0x0 REVERT JUMPDEST POP PUSH2 0x132B JUMP JUMPDEST PUSH1 0x2 DUP2 EQ ISZERO PUSH2 0x1265 JUMPI PUSH32 0xD6F5C93907B47FB5605CAFC7535E8F56E8CE072B6259B851602C62E57A4DC60D PUSH1 0x40 MLOAD PUSH1 0x40 MLOAD DUP1 SWAP2 SUB SWAP1 LOG1 PUSH1 0x0 DUP1 SLOAD SWAP1 PUSH2 0x100 EXP SWAP1 DIV PUSH20 0xFFFFFFFFFFFFFFFFFFFFFFFFFFFFFFFFFFFFFFFF AND PUSH20 0xFFFFFFFFFFFFFFFFFFFFFFFFFFFFFFFFFFFFFFFF AND PUSH2 0x8FC PUSH1 0x2 PUSH1 0x5 SLOAD PUSH2 0x11BD SWAP2 SWAP1 PUSH2 0x1F4A JUMP JUMPDEST SWAP1 DUP2 ISZERO MUL SWAP1 PUSH1 0x40 MLOAD PUSH1 0x0 PUSH1 0x40 MLOAD DUP1 DUP4 SUB DUP2 DUP6 DUP9 DUP9 CALL SWAP4 POP POP POP POP ISZERO DUP1 ISZERO PUSH2 0x11E8 JUMPI RETURNDATASIZE PUSH1 0x0 DUP1 RETURNDATACOPY RETURNDATASIZE PUSH1 0x0 REVERT JUMPDEST POP PUSH1 0x1 PUSH1 0x0 SWAP1 SLOAD SWAP1 PUSH2 0x100 EXP SWAP1 DIV PUSH20 0xFFFFFFFFFFFFFFFFFFFFFFFFFFFFFFFFFFFFFFFF AND PUSH20 0xFFFFFFFFFFFFFFFFFFFFFFFFFFFFFFFFFFFFFFFF AND PUSH2 0x8FC PUSH1 0x2 PUSH1 0x5 SLOAD PUSH2 0x1234 SWAP2 SWAP1 PUSH2 0x1F4A JUMP JUMPDEST SWAP1 DUP2 ISZERO MUL SWAP1 PUSH1 0x40 MLOAD PUSH1 0x0 PUSH1 0x40 MLOAD DUP1 DUP4 SUB DUP2 DUP6 DUP9 DUP9 CALL SWAP4 POP POP POP POP ISZERO DUP1 ISZERO PUSH2 0x125F JUMPI RETURNDATASIZE PUSH1 0x0 DUP1 RETURNDATACOPY RETURNDATASIZE PUSH1 0x0 REVERT JUMPDEST POP PUSH2 0x132A JUMP JUMPDEST PUSH32 0xB8DA1B0C48F64354010C03D6DA0395AB8AFA6E195DC68D8A02E23EE0AE53CF6F PUSH1 0x1 PUSH1 0x0 SWAP1 SLOAD SWAP1 PUSH2 0x100 EXP SWAP1 DIV PUSH20 0xFFFFFFFFFFFFFFFFFFFFFFFFFFFFFFFFFFFFFFFF AND PUSH1 0x40 MLOAD PUSH2 0x12B6 SWAP2 SWAP1 PUSH2 0x1EAD JUMP JUMPDEST PUSH1 0x40 MLOAD DUP1 SWAP2 SUB SWAP1 LOG1 PUSH1 0x1 PUSH1 0x0 SWAP1 SLOAD SWAP1 PUSH2 0x100 EXP SWAP1 DIV PUSH20 0xFFFFFFFFFFFFFFFFFFFFFFFFFFFFFFFFFFFFFFFF AND PUSH20 0xFFFFFFFFFFFFFFFFFFFFFFFFFFFFFFFFFFFFFFFF AND PUSH2 0x8FC PUSH1 0x5 SLOAD SWAP1 DUP2 ISZERO MUL SWAP1 PUSH1 0x40 MLOAD PUSH1 0x0 PUSH1 0x40 MLOAD DUP1 DUP4 SUB DUP2 DUP6 DUP9 DUP9 CALL SWAP4 POP POP POP POP ISZERO DUP1 ISZERO PUSH2 0x1328 JUMPI RETURNDATASIZE PUSH1 0x0 DUP1 RETURNDATACOPY RETURNDATASIZE PUSH1 0x0 REVERT JUMPDEST POP JUMPDEST JUMPDEST PUSH2 0x15EB JUMP JUMPDEST PUSH1 0x1 DUP2 EQ ISZERO PUSH2 0x1402 JUMPI PUSH32 0xB8DA1B0C48F64354010C03D6DA0395AB8AFA6E195DC68D8A02E23EE0AE53CF6F PUSH1 0x1 PUSH1 0x0 SWAP1 SLOAD SWAP1 PUSH2 0x100 EXP SWAP1 DIV PUSH20 0xFFFFFFFFFFFFFFFFFFFFFFFFFFFFFFFFFFFFFFFF AND PUSH1 0x40 MLOAD PUSH2 0x138A SWAP2 SWAP1 PUSH2 0x1EAD JUMP JUMPDEST PUSH1 0x40 MLOAD DUP1 SWAP2 SUB SWAP1 LOG1 PUSH1 0x1 PUSH1 0x0 SWAP1 SLOAD SWAP1 PUSH2 0x100 EXP SWAP1 DIV PUSH20 0xFFFFFFFFFFFFFFFFFFFFFFFFFFFFFFFFFFFFFFFF AND PUSH20 0xFFFFFFFFFFFFFFFFFFFFFFFFFFFFFFFFFFFFFFFF AND PUSH2 0x8FC PUSH1 0x5 SLOAD SWAP1 DUP2 ISZERO MUL SWAP1 PUSH1 0x40 MLOAD PUSH1 0x0 PUSH1 0x40 MLOAD DUP1 DUP4 SUB DUP2 DUP6 DUP9 DUP9 CALL SWAP4 POP POP POP POP ISZERO DUP1 ISZERO PUSH2 0x13FC JUMPI RETURNDATASIZE PUSH1 0x0 DUP1 RETURNDATACOPY RETURNDATASIZE PUSH1 0x0 REVERT JUMPDEST POP PUSH2 0x15EA JUMP JUMPDEST PUSH1 0x2 DUP2 EQ ISZERO PUSH2 0x14D0 JUMPI PUSH32 0xB8DA1B0C48F64354010C03D6DA0395AB8AFA6E195DC68D8A02E23EE0AE53CF6F PUSH1 0x0 DUP1 SLOAD SWAP1 PUSH2 0x100 EXP SWAP1 DIV PUSH20 0xFFFFFFFFFFFFFFFFFFFFFFFFFFFFFFFFFFFFFFFF AND PUSH1 0x40 MLOAD PUSH2 0x145A SWAP2 SWAP1 PUSH2 0x1EAD JUMP JUMPDEST PUSH1 0x40 MLOAD DUP1 SWAP2 SUB SWAP1 LOG1 PUSH1 0x0 DUP1 SLOAD SWAP1 PUSH2 0x100 EXP SWAP1 DIV PUSH20 0xFFFFFFFFFFFFFFFFFFFFFFFFFFFFFFFFFFFFFFFF AND PUSH20 0xFFFFFFFFFFFFFFFFFFFFFFFFFFFFFFFFFFFFFFFF AND PUSH2 0x8FC PUSH1 0x5 SLOAD SWAP1 DUP2 ISZERO MUL SWAP1 PUSH1 0x40 MLOAD PUSH1 0x0 PUSH1 0x40 MLOAD DUP1 DUP4 SUB DUP2 DUP6 DUP9 DUP9 CALL SWAP4 POP POP POP POP ISZERO DUP1 ISZERO PUSH2 0x14CA JUMPI RETURNDATASIZE PUSH1 0x0 DUP1 RETURNDATACOPY RETURNDATASIZE PUSH1 0x0 REVERT JUMPDEST POP PUSH2 0x15E9 JUMP JUMPDEST PUSH32 0xD6F5C93907B47FB5605CAFC7535E8F56E8CE072B6259B851602C62E57A4DC60D PUSH1 0x40 MLOAD PUSH1 0x40 MLOAD DUP1 SWAP2 SUB SWAP1 LOG1 PUSH1 0x0 DUP1 SLOAD SWAP1 PUSH2 0x100 EXP SWAP1 DIV PUSH20 0xFFFFFFFFFFFFFFFFFFFFFFFFFFFFFFFFFFFFFFFF AND PUSH20 0xFFFFFFFFFFFFFFFFFFFFFFFFFFFFFFFFFFFFFFFF AND PUSH2 0x8FC PUSH1 0x2 PUSH1 0x5 SLOAD PUSH2 0x1545 SWAP2 SWAP1 PUSH2 0x1F4A JUMP JUMPDEST SWAP1 DUP2 ISZERO MUL SWAP1 PUSH1 0x40 MLOAD PUSH1 0x0 PUSH1 0x40 MLOAD DUP1 DUP4 SUB DUP2 DUP6 DUP9 DUP9 CALL SWAP4 POP POP POP POP ISZERO DUP1 ISZERO PUSH2 0x1570 JUMPI RETURNDATASIZE PUSH1 0x0 DUP1 RETURNDATACOPY RETURNDATASIZE PUSH1 0x0 REVERT JUMPDEST POP PUSH1 0x1 PUSH1 0x0 SWAP1 SLOAD SWAP1 PUSH2 0x100 EXP SWAP1 DIV PUSH20 0xFFFFFFFFFFFFFFFFFFFFFFFFFFFFFFFFFFFFFFFF AND PUSH20 0xFFFFFFFFFFFFFFFFFFFFFFFFFFFFFFFFFFFFFFFF AND PUSH2 0x8FC PUSH1 0x2 PUSH1 0x5 SLOAD PUSH2 0x15BC SWAP2 SWAP1 PUSH2 0x1F4A JUMP JUMPDEST SWAP1 DUP2 ISZERO MUL SWAP1 PUSH1 0x40 MLOAD PUSH1 0x0 PUSH1 0x40 MLOAD DUP1 DUP4 SUB DUP2 DUP6 DUP9 DUP9 CALL SWAP4 POP POP POP POP ISZERO DUP1 ISZERO PUSH2 0x15E7 JUMPI RETURNDATASIZE PUSH1 0x0 DUP1 RETURNDATACOPY RETURNDATASIZE PUSH1 0x0 REVERT JUMPDEST POP JUMPDEST JUMPDEST JUMPDEST JUMPDEST PUSH2 0x18C4 JUMP JUMPDEST PUSH1 0x0 DUP3 GT DUP1 ISZERO PUSH2 0x1601 JUMPI POP PUSH1 0x0 DUP2 EQ JUMPDEST ISZERO PUSH2 0x16CB JUMPI PUSH32 0xB8DA1B0C48F64354010C03D6DA0395AB8AFA6E195DC68D8A02E23EE0AE53CF6F PUSH1 0x0 DUP1 SLOAD SWAP1 PUSH2 0x100 EXP SWAP1 DIV PUSH20 0xFFFFFFFFFFFFFFFFFFFFFFFFFFFFFFFFFFFFFFFF AND PUSH1 0x40 MLOAD PUSH2 0x1655 SWAP2 SWAP1 PUSH2 0x1EAD JUMP JUMPDEST PUSH1 0x40 MLOAD DUP1 SWAP2 SUB SWAP1 LOG1 PUSH1 0x0 DUP1 SLOAD SWAP1 PUSH2 0x100 EXP SWAP1 DIV PUSH20 0xFFFFFFFFFFFFFFFFFFFFFFFFFFFFFFFFFFFFFFFF AND PUSH20 0xFFFFFFFFFFFFFFFFFFFFFFFFFFFFFFFFFFFFFFFF AND PUSH2 0x8FC PUSH1 0x5 SLOAD SWAP1 DUP2 ISZERO MUL SWAP1 PUSH1 0x40 MLOAD PUSH1 0x0 PUSH1 0x40 MLOAD DUP1 DUP4 SUB DUP2 DUP6 DUP9 DUP9 CALL SWAP4 POP POP POP POP ISZERO DUP1 ISZERO PUSH2 0x16C5 JUMPI RETURNDATASIZE PUSH1 0x0 DUP1 RETURNDATACOPY RETURNDATASIZE PUSH1 0x0 REVERT JUMPDEST POP PUSH2 0x18C3 JUMP JUMPDEST PUSH1 0x0 DUP3 EQ DUP1 ISZERO PUSH2 0x16DB JUMPI POP PUSH1 0x0 DUP2 GT JUMPDEST ISZERO PUSH2 0x17A9 JUMPI PUSH32 0xB8DA1B0C48F64354010C03D6DA0395AB8AFA6E195DC68D8A02E23EE0AE53CF6F PUSH1 0x1 PUSH1 0x0 SWAP1 SLOAD SWAP1 PUSH2 0x100 EXP SWAP1 DIV PUSH20 0xFFFFFFFFFFFFFFFFFFFFFFFFFFFFFFFFFFFFFFFF AND PUSH1 0x40 MLOAD PUSH2 0x1731 SWAP2 SWAP1 PUSH2 0x1EAD JUMP JUMPDEST PUSH1 0x40 MLOAD DUP1 SWAP2 SUB SWAP1 LOG1 PUSH1 0x1 PUSH1 0x0 SWAP1 SLOAD SWAP1 PUSH2 0x100 EXP SWAP1 DIV PUSH20 0xFFFFFFFFFFFFFFFFFFFFFFFFFFFFFFFFFFFFFFFF AND PUSH20 0xFFFFFFFFFFFFFFFFFFFFFFFFFFFFFFFFFFFFFFFF AND PUSH2 0x8FC PUSH1 0x5 SLOAD SWAP1 DUP2 ISZERO MUL SWAP1 PUSH1 0x40 MLOAD PUSH1 0x0 PUSH1 0x40 MLOAD DUP1 DUP4 SUB DUP2 DUP6 DUP9 DUP9 CALL SWAP4 POP POP POP POP ISZERO DUP1 ISZERO PUSH2 0x17A3 JUMPI RETURNDATASIZE PUSH1 0x0 DUP1 RETURNDATACOPY RETURNDATASIZE PUSH1 0x0 REVERT JUMPDEST POP PUSH2 0x18C2 JUMP JUMPDEST PUSH32 0xD6F5C93907B47FB5605CAFC7535E8F56E8CE072B6259B851602C62E57A4DC60D PUSH1 0x40 MLOAD PUSH1 0x40 MLOAD DUP1 SWAP2 SUB SWAP1 LOG1 PUSH1 0x0 DUP1 SLOAD SWAP1 PUSH2 0x100 EXP SWAP1 DIV PUSH20 0xFFFFFFFFFFFFFFFFFFFFFFFFFFFFFFFFFFFFFFFF AND PUSH20 0xFFFFFFFFFFFFFFFFFFFFFFFFFFFFFFFFFFFFFFFF AND PUSH2 0x8FC PUSH1 0x2 PUSH1 0x5 SLOAD PUSH2 0x181E SWAP2 SWAP1 PUSH2 0x1F4A JUMP JUMPDEST SWAP1 DUP2 ISZERO MUL SWAP1 PUSH1 0x40 MLOAD PUSH1 0x0 PUSH1 0x40 MLOAD DUP1 DUP4 SUB DUP2 DUP6 DUP9 DUP9 CALL SWAP4 POP POP POP POP ISZERO DUP1 ISZERO PUSH2 0x1849 JUMPI RETURNDATASIZE PUSH1 0x0 DUP1 RETURNDATACOPY RETURNDATASIZE PUSH1 0x0 REVERT JUMPDEST POP PUSH1 0x1 PUSH1 0x0 SWAP1 SLOAD SWAP1 PUSH2 0x100 EXP SWAP1 DIV PUSH20 0xFFFFFFFFFFFFFFFFFFFFFFFFFFFFFFFFFFFFFFFF AND PUSH20 0xFFFFFFFFFFFFFFFFFFFFFFFFFFFFFFFFFFFFFFFF AND PUSH2 0x8FC PUSH1 0x2 PUSH1 0x5 SLOAD PUSH2 0x1895 SWAP2 SWAP1 PUSH2 0x1F4A JUMP JUMPDEST SWAP1 DUP2 ISZERO MUL SWAP1 PUSH1 0x40 MLOAD PUSH1 0x0 PUSH1 0x40 MLOAD DUP1 DUP4 SUB DUP2 DUP6 DUP9 DUP9 CALL SWAP4 POP POP POP POP ISZERO DUP1 ISZERO PUSH2 0x18C0 JUMPI RETURNDATASIZE PUSH1 0x0 DUP1 RETURNDATACOPY RETURNDATASIZE PUSH1 0x0 REVERT JUMPDEST POP JUMPDEST JUMPDEST JUMPDEST POP POP PUSH2 0x1BEA JUMP JUMPDEST PUSH1 0x1 ISZERO ISZERO PUSH1 0x9 PUSH1 0x0 SWAP1 SLOAD SWAP1 PUSH2 0x100 EXP SWAP1 DIV PUSH1 0xFF AND ISZERO ISZERO EQ DUP1 ISZERO PUSH2 0x1901 JUMPI POP PUSH1 0x0 ISZERO ISZERO PUSH1 0x9 PUSH1 0x1 SWAP1 SLOAD SWAP1 PUSH2 0x100 EXP SWAP1 DIV PUSH1 0xFF AND ISZERO ISZERO EQ JUMPDEST ISZERO PUSH2 0x19CB JUMPI PUSH32 0xB8DA1B0C48F64354010C03D6DA0395AB8AFA6E195DC68D8A02E23EE0AE53CF6F PUSH1 0x0 DUP1 SLOAD SWAP1 PUSH2 0x100 EXP SWAP1 DIV PUSH20 0xFFFFFFFFFFFFFFFFFFFFFFFFFFFFFFFFFFFFFFFF AND PUSH1 0x40 MLOAD PUSH2 0x1955 SWAP2 SWAP1 PUSH2 0x1EAD JUMP JUMPDEST PUSH1 0x40 MLOAD DUP1 SWAP2 SUB SWAP1 LOG1 PUSH1 0x0 DUP1 SLOAD SWAP1 PUSH2 0x100 EXP SWAP1 DIV PUSH20 0xFFFFFFFFFFFFFFFFFFFFFFFFFFFFFFFFFFFFFFFF AND PUSH20 0xFFFFFFFFFFFFFFFFFFFFFFFFFFFFFFFFFFFFFFFF AND PUSH2 0x8FC PUSH1 0x5 SLOAD SWAP1 DUP2 ISZERO MUL SWAP1 PUSH1 0x40 MLOAD PUSH1 0x0 PUSH1 0x40 MLOAD DUP1 DUP4 SUB DUP2 DUP6 DUP9 DUP9 CALL SWAP4 POP POP POP POP ISZERO DUP1 ISZERO PUSH2 0x19C5 JUMPI RETURNDATASIZE PUSH1 0x0 DUP1 RETURNDATACOPY RETURNDATASIZE PUSH1 0x0 REVERT JUMPDEST POP PUSH2 0x1BE9 JUMP JUMPDEST PUSH1 0x0 ISZERO ISZERO PUSH1 0x9 PUSH1 0x0 SWAP1 SLOAD SWAP1 PUSH2 0x100 EXP SWAP1 DIV PUSH1 0xFF AND ISZERO ISZERO EQ DUP1 ISZERO PUSH2 0x1A01 JUMPI POP PUSH1 0x1 ISZERO ISZERO PUSH1 0x9 PUSH1 0x1 SWAP1 SLOAD SWAP1 PUSH2 0x100 EXP SWAP1 DIV PUSH1 0xFF AND ISZERO ISZERO EQ JUMPDEST ISZERO PUSH2 0x1ACF JUMPI PUSH32 0xB8DA1B0C48F64354010C03D6DA0395AB8AFA6E195DC68D8A02E23EE0AE53CF6F PUSH1 0x1 PUSH1 0x0 SWAP1 SLOAD SWAP1 PUSH2 0x100 EXP SWAP1 DIV PUSH20 0xFFFFFFFFFFFFFFFFFFFFFFFFFFFFFFFFFFFFFFFF AND PUSH1 0x40 MLOAD PUSH2 0x1A57 SWAP2 SWAP1 PUSH2 0x1EAD JUMP JUMPDEST PUSH1 0x40 MLOAD DUP1 SWAP2 SUB SWAP1 LOG1 PUSH1 0x1 PUSH1 0x0 SWAP1 SLOAD SWAP1 PUSH2 0x100 EXP SWAP1 DIV PUSH20 0xFFFFFFFFFFFFFFFFFFFFFFFFFFFFFFFFFFFFFFFF AND PUSH20 0xFFFFFFFFFFFFFFFFFFFFFFFFFFFFFFFFFFFFFFFF AND PUSH2 0x8FC PUSH1 0x5 SLOAD SWAP1 DUP2 ISZERO MUL SWAP1 PUSH1 0x40 MLOAD PUSH1 0x0 PUSH1 0x40 MLOAD DUP1 DUP4 SUB DUP2 DUP6 DUP9 DUP9 CALL SWAP4 POP POP POP POP ISZERO DUP1 ISZERO PUSH2 0x1AC9 JUMPI RETURNDATASIZE PUSH1 0x0 DUP1 RETURNDATACOPY RETURNDATASIZE PUSH1 0x0 REVERT JUMPDEST POP PUSH2 0x1BE8 JUMP JUMPDEST PUSH32 0xD6F5C93907B47FB5605CAFC7535E8F56E8CE072B6259B851602C62E57A4DC60D PUSH1 0x40 MLOAD PUSH1 0x40 MLOAD DUP1 SWAP2 SUB SWAP1 LOG1 PUSH1 0x0 DUP1 SLOAD SWAP1 PUSH2 0x100 EXP SWAP1 DIV PUSH20 0xFFFFFFFFFFFFFFFFFFFFFFFFFFFFFFFFFFFFFFFF AND PUSH20 0xFFFFFFFFFFFFFFFFFFFFFFFFFFFFFFFFFFFFFFFF AND PUSH2 0x8FC PUSH1 0x2 PUSH1 0x5 SLOAD PUSH2 0x1B44 SWAP2 SWAP1 PUSH2 0x1F4A JUMP JUMPDEST SWAP1 DUP2 ISZERO MUL SWAP1 PUSH1 0x40 MLOAD PUSH1 0x0 PUSH1 0x40 MLOAD DUP1 DUP4 SUB DUP2 DUP6 DUP9 DUP9 CALL SWAP4 POP POP POP POP ISZERO DUP1 ISZERO PUSH2 0x1B6F JUMPI RETURNDATASIZE PUSH1 0x0 DUP1 RETURNDATACOPY RETURNDATASIZE PUSH1 0x0 REVERT JUMPDEST POP PUSH1 0x1 PUSH1 0x0 SWAP1 SLOAD SWAP1 PUSH2 0x100 EXP SWAP1 DIV PUSH20 0xFFFFFFFFFFFFFFFFFFFFFFFFFFFFFFFFFFFFFFFF AND PUSH20 0xFFFFFFFFFFFFFFFFFFFFFFFFFFFFFFFFFFFFFFFF AND PUSH2 0x8FC PUSH1 0x2 PUSH1 0x5 SLOAD PUSH2 0x1BBB SWAP2 SWAP1 PUSH2 0x1F4A JUMP JUMPDEST SWAP1 DUP2 ISZERO MUL SWAP1 PUSH1 0x40 MLOAD PUSH1 0x0 PUSH1 0x40 MLOAD DUP1 DUP4 SUB DUP2 DUP6 DUP9 DUP9 CALL SWAP4 POP POP POP POP ISZERO DUP1 ISZERO PUSH2 0x1BE6 JUMPI RETURNDATASIZE PUSH1 0x0 DUP1 RETURNDATACOPY RETURNDATASIZE PUSH1 0x0 REVERT JUMPDEST POP JUMPDEST JUMPDEST JUMPDEST PUSH1 0x0 PUSH1 0x5 DUP2 SWAP1 SSTORE POP POP JUMP JUMPDEST PUSH1 0x0 PUSH32 0x10977E4D68108D418408BC9310B60FC6D0A750C63CCEF42CFB0EAD23AB73D102 DUP3 EQ ISZERO PUSH2 0x1C28 JUMPI PUSH1 0x1 SWAP1 POP PUSH2 0x1C8F JUMP JUMPDEST PUSH32 0xEA923CA2CDDA6B54F4FB2BF6A063E5A59A6369CA4C4AE2C4CE02A147B3036A21 DUP3 EQ ISZERO PUSH2 0x1C59 JUMPI PUSH1 0x2 SWAP1 POP PUSH2 0x1C8F JUMP JUMPDEST PUSH32 0x389A2D4E358D901BFDF22245F32B4B0A401CC16A4B92155A2EE5DA98273DAD9A DUP3 EQ ISZERO PUSH2 0x1C8A JUMPI PUSH1 0x3 SWAP1 POP PUSH2 0x1C8F JUMP JUMPDEST PUSH1 0x0 SWAP1 POP JUMPDEST SWAP2 SWAP1 POP JUMP JUMPDEST PUSH1 0x0 DUP2 CALLDATALOAD SWAP1 POP PUSH2 0x1CA3 DUP2 PUSH2 0x206C JUMP JUMPDEST SWAP3 SWAP2 POP POP JUMP JUMPDEST PUSH1 0x0 DUP1 DUP4 PUSH1 0x1F DUP5 ADD SLT PUSH2 0x1CBF JUMPI PUSH2 0x1CBE PUSH2 0x2058 JUMP JUMPDEST JUMPDEST DUP3 CALLDATALOAD SWAP1 POP PUSH8 0xFFFFFFFFFFFFFFFF DUP2 GT ISZERO PUSH2 0x1CDC JUMPI PUSH2 0x1CDB PUSH2 0x2053 JUMP JUMPDEST JUMPDEST PUSH1 0x20 DUP4 ADD SWAP2 POP DUP4 PUSH1 0x1 DUP3 MUL DUP4 ADD GT ISZERO PUSH2 0x1CF8 JUMPI PUSH2 0x1CF7 PUSH2 0x205D JUMP JUMPDEST JUMPDEST SWAP3 POP SWAP3 SWAP1 POP JUMP JUMPDEST PUSH1 0x0 PUSH1 0x20 DUP3 DUP5 SUB SLT ISZERO PUSH2 0x1D15 JUMPI PUSH2 0x1D14 PUSH2 0x2067 JUMP JUMPDEST JUMPDEST PUSH1 0x0 PUSH2 0x1D23 DUP5 DUP3 DUP6 ADD PUSH2 0x1C94 JUMP JUMPDEST SWAP2 POP POP SWAP3 SWAP2 POP POP JUMP JUMPDEST PUSH1 0x0 DUP1 PUSH1 0x0 DUP1 PUSH1 0x40 DUP6 DUP8 SUB SLT ISZERO PUSH2 0x1D46 JUMPI PUSH2 0x1D45 PUSH2 0x2067 JUMP JUMPDEST JUMPDEST PUSH1 0x0 DUP6 ADD CALLDATALOAD PUSH8 0xFFFFFFFFFFFFFFFF DUP2 GT ISZERO PUSH2 0x1D64 JUMPI PUSH2 0x1D63 PUSH2 0x2062 JUMP JUMPDEST JUMPDEST PUSH2 0x1D70 DUP8 DUP3 DUP9 ADD PUSH2 0x1CA9 JUMP JUMPDEST SWAP5 POP SWAP5 POP POP PUSH1 0x20 DUP6 ADD CALLDATALOAD PUSH8 0xFFFFFFFFFFFFFFFF DUP2 GT ISZERO PUSH2 0x1D93 JUMPI PUSH2 0x1D92 PUSH2 0x2062 JUMP JUMPDEST JUMPDEST PUSH2 0x1D9F DUP8 DUP3 DUP9 ADD PUSH2 0x1CA9 JUMP JUMPDEST SWAP3 POP SWAP3 POP POP SWAP3 SWAP6 SWAP2 SWAP5 POP SWAP3 POP JUMP JUMPDEST PUSH2 0x1DB6 DUP2 PUSH2 0x1FDF JUMP JUMPDEST DUP3 MSTORE POP POP JUMP JUMPDEST PUSH2 0x1DC5 DUP2 PUSH2 0x1F8D JUMP JUMPDEST DUP3 MSTORE POP POP JUMP JUMPDEST PUSH2 0x1DD4 DUP2 PUSH2 0x1F7B JUMP JUMPDEST DUP3 MSTORE POP POP JUMP JUMPDEST PUSH2 0x1DE3 DUP2 PUSH2 0x1F9F JUMP JUMPDEST DUP3 MSTORE POP POP JUMP JUMPDEST PUSH2 0x1DF2 DUP2 PUSH2 0x1FAB JUMP JUMPDEST DUP3 MSTORE POP POP JUMP JUMPDEST PUSH1 0x0 PUSH2 0x1E04 DUP4 DUP6 PUSH2 0x1F34 JUMP JUMPDEST SWAP4 POP PUSH2 0x1E11 DUP4 DUP6 DUP5 PUSH2 0x2015 JUMP JUMPDEST DUP3 DUP5 ADD SWAP1 POP SWAP4 SWAP3 POP POP POP JUMP JUMPDEST PUSH1 0x0 PUSH2 0x1E29 DUP4 DUP6 PUSH2 0x1F3F JUMP JUMPDEST SWAP4 POP PUSH2 0x1E36 DUP4 DUP6 DUP5 PUSH2 0x2015 JUMP JUMPDEST DUP3 DUP5 ADD SWAP1 POP SWAP4 SWAP3 POP POP POP JUMP JUMPDEST PUSH2 0x1E4B DUP2 PUSH2 0x1FD5 JUMP JUMPDEST DUP3 MSTORE POP POP JUMP JUMPDEST PUSH1 0x0 PUSH2 0x1E5E DUP3 DUP5 DUP7 PUSH2 0x1DF8 JUMP JUMPDEST SWAP2 POP DUP2 SWAP1 POP SWAP4 SWAP3 POP POP POP JUMP JUMPDEST PUSH1 0x0 PUSH2 0x1E77 DUP3 DUP7 DUP9 PUSH2 0x1E1D JUMP JUMPDEST SWAP2 POP PUSH2 0x1E84 DUP3 DUP5 DUP7 PUSH2 0x1E1D JUMP JUMPDEST SWAP2 POP DUP2 SWAP1 POP SWAP6 SWAP5 POP POP POP POP POP JUMP JUMPDEST PUSH1 0x0 PUSH1 0x20 DUP3 ADD SWAP1 POP PUSH2 0x1EA7 PUSH1 0x0 DUP4 ADD DUP5 PUSH2 0x1DCB JUMP JUMPDEST SWAP3 SWAP2 POP POP JUMP JUMPDEST PUSH1 0x0 PUSH1 0x20 DUP3 ADD SWAP1 POP PUSH2 0x1EC2 PUSH1 0x0 DUP4 ADD DUP5 PUSH2 0x1DAD JUMP JUMPDEST SWAP3 SWAP2 POP POP JUMP JUMPDEST PUSH1 0x0 PUSH1 0x20 DUP3 ADD SWAP1 POP PUSH2 0x1EDD PUSH1 0x0 DUP4 ADD DUP5 PUSH2 0x1DBC JUMP JUMPDEST SWAP3 SWAP2 POP POP JUMP JUMPDEST PUSH1 0x0 PUSH1 0x20 DUP3 ADD SWAP1 POP PUSH2 0x1EF8 PUSH1 0x0 DUP4 ADD DUP5 PUSH2 0x1DDA JUMP JUMPDEST SWAP3 SWAP2 POP POP JUMP JUMPDEST PUSH1 0x0 PUSH1 0x20 DUP3 ADD SWAP1 POP PUSH2 0x1F13 PUSH1 0x0 DUP4 ADD DUP5 PUSH2 0x1DE9 JUMP JUMPDEST SWAP3 SWAP2 POP POP JUMP JUMPDEST PUSH1 0x0 PUSH1 0x20 DUP3 ADD SWAP1 POP PUSH2 0x1F2E PUSH1 0x0 DUP4 ADD DUP5 PUSH2 0x1E42 JUMP JUMPDEST SWAP3 SWAP2 POP POP JUMP JUMPDEST PUSH1 0x0 DUP2 SWAP1 POP SWAP3 SWAP2 POP POP JUMP JUMPDEST PUSH1 0x0 DUP2 SWAP1 POP SWAP3 SWAP2 POP POP JUMP JUMPDEST PUSH1 0x0 PUSH2 0x1F55 DUP3 PUSH2 0x1FD5 JUMP JUMPDEST SWAP2 POP PUSH2 0x1F60 DUP4 PUSH2 0x1FD5 JUMP JUMPDEST SWAP3 POP DUP3 PUSH2 0x1F70 JUMPI PUSH2 0x1F6F PUSH2 0x2024 JUMP JUMPDEST JUMPDEST DUP3 DUP3 DIV SWAP1 POP SWAP3 SWAP2 POP POP JUMP JUMPDEST PUSH1 0x0 PUSH2 0x1F86 DUP3 PUSH2 0x1FB5 JUMP JUMPDEST SWAP1 POP SWAP2 SWAP1 POP JUMP JUMPDEST PUSH1 0x0 PUSH2 0x1F98 DUP3 PUSH2 0x1FB5 JUMP JUMPDEST SWAP1 POP SWAP2 SWAP1 POP JUMP JUMPDEST PUSH1 0x0 DUP2 ISZERO ISZERO SWAP1 POP SWAP2 SWAP1 POP JUMP JUMPDEST PUSH1 0x0 DUP2 SWAP1 POP SWAP2 SWAP1 POP JUMP JUMPDEST PUSH1 0x0 PUSH20 0xFFFFFFFFFFFFFFFFFFFFFFFFFFFFFFFFFFFFFFFF DUP3 AND SWAP1 POP SWAP2 SWAP1 POP JUMP JUMPDEST PUSH1 0x0 DUP2 SWAP1 POP SWAP2 SWAP1 POP JUMP JUMPDEST PUSH1 0x0 PUSH2 0x1FEA DUP3 PUSH2 0x1FF1 JUMP JUMPDEST SWAP1 POP SWAP2 SWAP1 POP JUMP JUMPDEST PUSH1 0x0 PUSH2 0x1FFC DUP3 PUSH2 0x2003 JUMP JUMPDEST SWAP1 POP SWAP2 SWAP1 POP JUMP JUMPDEST PUSH1 0x0 PUSH2 0x200E DUP3 PUSH2 0x1FB5 JUMP JUMPDEST SWAP1 POP SWAP2 SWAP1 POP JUMP JUMPDEST DUP3 DUP2 DUP4 CALLDATACOPY PUSH1 0x0 DUP4 DUP4 ADD MSTORE POP POP POP JUMP JUMPDEST PUSH32 0x4E487B7100000000000000000000000000000000000000000000000000000000 PUSH1 0x0 MSTORE PUSH1 0x12 PUSH1 0x4 MSTORE PUSH1 0x24 PUSH1 0x0 REVERT JUMPDEST PUSH1 0x0 DUP1 REVERT JUMPDEST PUSH1 0x0 DUP1 REVERT JUMPDEST PUSH1 0x0 DUP1 REVERT JUMPDEST PUSH1 0x0 DUP1 REVERT JUMPDEST PUSH1 0x0 DUP1 REVERT JUMPDEST PUSH2 0x2075 DUP2 PUSH2 0x1FAB JUMP JUMPDEST DUP2 EQ PUSH2 0x2080 JUMPI PUSH1 0x0 DUP1 REVERT JUMPDEST POP JUMP INVALID LOG2 PUSH5 0x6970667358 0x22 SLT KECCAK256 TIMESTAMP 0xEC PUSH31 0x2C0F23BC813F45F7B93A1E39D88097743FFA5412CA095EDB6498462AA76473 PUSH16 0x6C634300080700330000000000000000 "
				},
				"gasEstimates": {
					"creation": {
						"codeDepositCost": "1675400",
						"executionCost": "infinite",
						"totalCost": "infinite"
					},
					"external": {
						"announceResult()": "infinite",
						"ended()": "2517",
						"hasPickedA()": "2537",
						"hasPickedB()": "2610",
						"hasRevealedA()": "2516",
						"hasRevealedB()": "2545",
						"manager()": "2604",
						"pick(bytes32)": "64271",
						"pickA()": "2497",
						"pickB()": "2452",
						"pickEnd()": "2474",
						"prize()": "2473",
						"reveal(string,string)": "infinite",
						"revealEnd()": "2496",
						"userA()": "2533",
						"userB()": "2603"
					},
					"internal": {
						"parseUserPick(bytes32)": "117"
					}
				},
				"methodIdentifiers": {
					"announceResult()": "f4e11bbe",
					"ended()": "12fa6feb",
					"hasPickedA()": "ed873865",
					"hasPickedB()": "737ebe58",
					"hasRevealedA()": "4d178640",
					"hasRevealedB()": "03c0f500",
					"manager()": "481c6a75",
					"pick(bytes32)": "a28bfb3e",
					"pickA()": "3d4ffb93",
					"pickB()": "495717e2",
					"pickEnd()": "a64e3de8",
					"prize()": "e3ac5d26",
					"reveal(string,string)": "5ba1b2c7",
					"revealEnd()": "a6e66477",
					"userA()": "deb22e9a",
					"userB()": "cb1a295f"
				}
			},
			"storageLayout": {
				"storage": [
					{
						"astId": 3,
						"contract": "RockPaperScissors.sol:RockPaperScissors",
						"label": "userA",
						"offset": 0,
						"slot": "0",
						"type": "t_address_payable"
					},
					{
						"astId": 5,
						"contract": "RockPaperScissors.sol:RockPaperScissors",
						"label": "userB",
						"offset": 0,
						"slot": "1",
						"type": "t_address_payable"
					},
					{
						"astId": 7,
						"contract": "RockPaperScissors.sol:RockPaperScissors",
						"label": "manager",
						"offset": 0,
						"slot": "2",
						"type": "t_address"
					},
					{
						"astId": 9,
						"contract": "RockPaperScissors.sol:RockPaperScissors",
						"label": "pickEnd",
						"offset": 0,
						"slot": "3",
						"type": "t_uint256"
					},
					{
						"astId": 11,
						"contract": "RockPaperScissors.sol:RockPaperScissors",
						"label": "revealEnd",
						"offset": 0,
						"slot": "4",
						"type": "t_uint256"
					},
					{
						"astId": 13,
						"contract": "RockPaperScissors.sol:RockPaperScissors",
						"label": "prize",
						"offset": 0,
						"slot": "5",
						"type": "t_uint256"
					},
					{
						"astId": 15,
						"contract": "RockPaperScissors.sol:RockPaperScissors",
						"label": "hasPickedA",
						"offset": 0,
						"slot": "6",
						"type": "t_bool"
					},
					{
						"astId": 17,
						"contract": "RockPaperScissors.sol:RockPaperScissors",
						"label": "hasPickedB",
						"offset": 1,
						"slot": "6",
						"type": "t_bool"
					},
					{
						"astId": 19,
						"contract": "RockPaperScissors.sol:RockPaperScissors",
						"label": "commitmentA",
						"offset": 0,
						"slot": "7",
						"type": "t_bytes32"
					},
					{
						"astId": 21,
						"contract": "RockPaperScissors.sol:RockPaperScissors",
						"label": "commitmentB",
						"offset": 0,
						"slot": "8",
						"type": "t_bytes32"
					},
					{
						"astId": 23,
						"contract": "RockPaperScissors.sol:RockPaperScissors",
						"label": "hasRevealedA",
						"offset": 0,
						"slot": "9",
						"type": "t_bool"
					},
					{
						"astId": 25,
						"contract": "RockPaperScissors.sol:RockPaperScissors",
						"label": "hasRevealedB",
						"offset": 1,
						"slot": "9",
						"type": "t_bool"
					},
					{
						"astId": 27,
						"contract": "RockPaperScissors.sol:RockPaperScissors",
						"label": "pickA",
						"offset": 0,
						"slot": "10",
						"type": "t_bytes32"
					},
					{
						"astId": 29,
						"contract": "RockPaperScissors.sol:RockPaperScissors",
						"label": "pickB",
						"offset": 0,
						"slot": "11",
						"type": "t_bytes32"
					},
					{
						"astId": 31,
						"contract": "RockPaperScissors.sol:RockPaperScissors",
						"label": "ended",
						"offset": 0,
						"slot": "12",
						"type": "t_bool"
					}
				],
				"types": {
					"t_address": {
						"encoding": "inplace",
						"label": "address",
						"numberOfBytes": "20"
					},
					"t_address_payable": {
						"encoding": "inplace",
						"label": "address payable",
						"numberOfBytes": "20"
					},
					"t_bool": {
						"encoding": "inplace",
						"label": "bool",
						"numberOfBytes": "1"
					},
					"t_bytes32": {
						"encoding": "inplace",
						"label": "bytes32",
						"numberOfBytes": "32"
					},
					"t_uint256": {
						"encoding": "inplace",
						"label": "uint256",
						"numberOfBytes": "32"
					}
				}
			},
			"userdoc": {
				"errors": {
					"TooEarly(uint256)": [
						{
							"notice": "The function has been called too early. Try again at `time`."
						}
					],
					"TooLate(uint256)": [
						{
							"notice": "The function has been called too late. It cannot be called after `time`."
						}
					],
					"gamedEnded()": [
						{
							"notice": "The game has already ended."
						}
					],
					"noRightToAnnounceTheResult()": [
						{
							"notice": "User has no right to announce the result."
						}
					],
					"noRightToPick()": [
						{
							"notice": "User doesn't have the right to pick."
						}
					],
					"noRightToReveal()": [
						{
							"notice": "User doesn't have the right to reveal."
						}
					],
					"sameUserAddresses()": [
						{
							"notice": "The competitors should be different"
						}
					],
					"userAlreadyCommited()": [
						{
							"notice": "User have already commited before."
						}
					],
					"userAlreadyRevealed()": [
						{
							"notice": "User have already revealed before."
						}
					],
					"wrongData()": [
						{
							"notice": "User has entered wrong data while revealing"
						}
					]
				},
				"kind": "user",
				"methods": {},
				"version": 1
			}
		}
	}
}